:100000000C9425010C9456010C9456010C94560145
:100010000C9456010C9456010C9456010C94560104
:100020000C9456010C9456010C9456010C945601F4
:100030000C9456010C9456010C9456010C945601E4
:100040000C9456010C9456010C9456010C945601D4
:100050000C9456010C9456010C9456010C943304E4
:100060000C9456010C94A7040C947D040C94560136
:100070000C9456010C9456010C9456010C945601A4
:100080000C9456010C9456010C9456010C94560194
:100090000C9456010C9456010C9456010C94DD04FA
:1000A0000C9456010C9456010C9456010C94560174
:1000B0000C9456010C9456010C9456010C94560164
:1000C0000C9456010C9456010C9456010C94560154
:1000D0000C9456010C9456010C9456010C94560144
:1000E0000C9456010C94FD050C9453020C94A4013D
:1000F0000C94CD010C9453030C94D1020C949C01EC
:100100000C9462030C94C9010C94DB010C94A801BB
:100110000C9471030C9404020C948A020C948801D0
:100120000C94BB010C9478030C94B5010C94D10190
:100130000C94C3010C9454030C9431020C948D0163
:100140000C94B1010C94D7010C94AB010C94BF0139
:100150000C94A5030C9445020C94A001000022000D
:10016000250028002B002E00310034000201000081
:10017000050108010B010505050507050808080824
:10018000020202020A0A080804040404010101012F
:10019000010101010303030303030303040707072A
:1001A0000C0C0C0C0C0C0C0C0202020206060606CF
:1001B000060606060B0B0B0B0B0B0B0B010210209C
:1001C000200808102040102040800201020108048D
:1001D0000201010204081020408080402010080421
:1001E000020180040201804020100804020108047A
:1001F00002010102040810204080010204081020BE
:10020000408000000A0B02090C0D0E0807030401D0
:1002100000000000000000000000000000000000DE
:1002200000000000000000000000000000001211AB
:1002300010000000000000000000000000000000AE
:100240000000000000000000FD0511241FBECFEFDC
:10025000D1E2DEBFCDBF00E00CBF12E0A0E0B2E013
:10026000E2E0F0E100E00BBF02C007900D92AA3976
:10027000B107D9F723E0AAE9B2E001C01D92AC3D75
:10028000B207E1F711E0C5E2D1E000E006C0219736
:100290000109802FFE010E94F707C432D10780E0D8
:1002A0000807A9F70E9436060C94FF070C9400007B
:1002B000282F30E0F901EE5FFD4F9491F901E454ED
:1002C000FE4F44912A583E4FF9012491222309F40C
:1002D00032C0992311F191509231F8F4E92FF0E0F6
:1002E0008827EA58FE4F8F4F0C94F707A401A80106
:1002F00088019C01A0018D01AB01B101B501BB01D9
:10030000BF01C301C901CD018D01D101D701DB01BD
:10031000809180008F7780938000E22FF0E0EE0FD5
:10032000FF1FE45AFE4FA591B4918FB7F894EC915A
:100330004E2B4C938FBF0895809180008F7DEBCF23
:1003400080918000877FE7CF84B58F7784BDE5CF2C
:1003500084B58F7DFBCF8091B0008F778093B00004
:10036000DCCF8091B0008F7DF9CF809190008F77A6
:1003700080939000D2CF809190008F7DF9CF8091B3
:100380009000877FF5CF8091A0008F778093A000A9
:10039000C4CF8091A0008F7DF9CF8091A000877F8E
:1003A000F5CF809120018F7780932001B6CF809187
:1003B00020018F7DF9CF80912001877FF5CF3FB756
:1003C000F89480912F0390913003A0913103B09164
:1003D000320326B5A89B05C02F3F19F00196A11D39
:1003E000B11D3FBFBA2FA92F982F8827BC01CD017F
:1003F000620F711D811D911D42E0660F771F881FDE
:10040000991F4A95D1F70895AF92BF92CF92DF928C
:10041000EF92FF920F931F93CF93DF936C017B01B9
:100420008B01040F151FEB015E01AE18BF08C0174A
:10043000D10759F06991D601ED91FC910190F081BD
:10044000E02DC6011995892B79F7C501DF91CF9170
:100450001F910F91FF90EF90DF90CF90BF90AF90E2
:100460000895FC01918D828D981761F0A28DAE0FD9
:10047000BF2FB11D5D968C91928D9F5F9F73928F60
:1004800090E008958FEF9FEF0895FC01918D828D8C
:10049000981731F0828DE80FF11D858D90E0089559
:1004A0008FEF9FEF0895FC01918D228D892F90E0B1
:1004B000805C9F4F821B91098F739927089583E376
:1004C00093E00E94530221E0892B09F420E0822F5F
:1004D0000895FC01A48DA80FB92FB11DA35ABF4FD9
:1004E0002C91848D90E001968F739927848FA68933
:1004F000B7892C93A089B1898C9180648C93938D5A
:10050000848D981306C00288F389E02D80818F7D49
:1005100080830895EF92FF920F931F93CF93DF9301
:10052000EC0181E0888F9B8D8C8D981316C0E88933
:10053000F989808185FF11C0EE89FF896083E88990
:10054000F98980818064808381E090E0DF91CF91A0
:100550001F910F91FF90EF900895F62E0B8D10E0F4
:100560000F5F1F4F0F731127E02E8C8D8E110CC063
:100570000FB607FCFACFE889F989808185FFF5CFAE
:10058000CE010E946902F1CFEB8DEC0FFD2FF11D22
:10059000E35AFF4FF0820B8FEA89FB8980818062EA
:1005A000D2CFCF93DF93EC01888D8823B9F0AA894D
:1005B000BB89E889F9898C9185FD03C0808186FD1E
:1005C0000DC00FB607FCF7CF8C9185FFF2CF80816D
:1005D00085FFEDCFCE010E946902E9CFDF91CF9177
:1005E000089580E090E0892B29F00E945F0281113C
:1005F0000E94000080E090E0892B49F080E090E0CC
:10060000892B29F00E94000081110E94000080E0E7
:1006100090E0892B49F080E090E0892B29F00E943E
:10062000000081110E94000080E090E0892B49F0D9
:1006300080E090E0892B29F00E94000081110C9449
:100640000000089585ED8093BC008091BC0084FD7E
:10065000FCCF1092050308952091BA02260F33278C
:10066000331F21323105ECF420910503FC0190E0A9
:1006700080E0243069F082E00895A091BA022191CF
:10068000AC0146565D4FA40FB52FB11D2C930196BA
:10069000861798F38091BA02680F6093BA0280E0DF
:1006A000089581E00895089581E090E03091DE02A0
:1006B0002091DD02321710F490E080E09195819551
:1006C000910908958091DE029091DD02891730F43E
:1006D0008F5F8093DE0290E080E008958FEF9FEFC0
:1006E00008958091DD029091DE02891B990B089597
:1006F000CF92DF92EF92FF920F931F93CF93DF93EE
:100700007C01CB018A0120910603222389F0EB01B1
:100710006B01C40ED51ECC15DD0569F06991D701BA
:10072000ED91FC910190F081E02DC7011995F3CF77
:10073000642F0E942C03C801DF91CF911F910F916C
:10074000FF90EF90DF90CF900895CF93DF931F92AB
:10075000CDB7DEB76983209106032223F9F02091FB
:100760002903203258F021E030E0FC01338322835A
:1007700090E080E00F90DF91CF9108958091070382
:10078000E82FF0E0E85FFC4F998190838F5F8093C2
:1007900007038093290381E090E0ECCF61E0CE0174
:1007A00001960E942C03F7CFFC0101900020E9F78D
:1007B0003197AF01481B590BBC0183E393E00C94C4
:1007C00004028F929F92AF92BF920F931F93CF9389
:1007D000DF93CDB7DEB7A1970FB6F894DEBF0FBE9B
:1007E000CDBF19A2423008F44AE08E010F5D1F4FC1
:1007F000842E912CB12CA12CA50194010E94D50727
:10080000E62FB901CA01EA30F4F4E05DD801EE93B5
:100810008D01232B242B252B79F790E080E0109776
:1008200019F0CD010E94D403A1960FB6F894DEBF53
:100830000FBECDBFDF91CF911F910F91BF90AF90B1
:100840009F908F900895E95CE1CFCF93DF930E9452
:10085000D403EC0180E292E00E94D4038C0F9D1F30
:10086000DF91CF9108951F920F920FB60F9211242E
:100870002F933F938F939F93AF93BF9380912B03BD
:1008800090912C03A0912D03B0912E0330912A0357
:1008900023E0230F2D3758F50196A11DB11D20939C
:1008A0002A0380932B0390932C03A0932D03B093E2
:1008B0002E0380912F0390913003A0913103B091CA
:1008C00032030196A11DB11D80932F039093300335
:1008D000A0933103B0933203BF91AF919F918F9159
:1008E0003F912F910F900FBE0F901F90189526E803
:1008F000230F0296A11DB11DD2CF1F920F920FB6EA
:100900000F9211240BB60F922F933F934F935F9347
:100910006F937F938F939F93AF93BF93EF93FF93C7
:1009200083E393E00E946902FF91EF91BF91AF9141
:100930009F918F917F916F915F914F913F912F91F7
:100940000F900BBE0F900FBE0F901F9018951F9227
:100950000F920FB60F9211240BB60F922F938F9315
:100960009F93EF93FF93E0914303F09144038081C1
:10097000E0914903F0914A0382FD1DC0908180916E
:100980004C038F5F8F7320914D03821741F0E091EC
:100990004C03F0E0ED5CFC4F958F80934C03FF918E
:1009A000EF919F918F912F910F900BBE0F900FBEE3
:1009B0000F901F9018958081F2CF1F920F920FB663
:1009C0000F9211240BB60F922F933F934F935F9387
:1009D0006F937F938F939F93AF93BF93EF93FF9307
:1009E0008091B900887F803609F44DC008F040C07E
:1009F000883209F4A7C028F5803109F49BC0C8F4F7
:100A0000882309F4F7C0883009F494C0FF91EF916E
:100A1000BF91AF919F918F917F916F915F914F9116
:100A20003F912F910F900BBE0F900FBE0F901F9014
:100A30001895883109F486C0803241F7809303030A
:100A400014C0803409F49BC040F48033B9F3883378
:100A5000E9F68093030385ECAEC0803509F483C0CA
:100A6000883509F494C0883489F60E942203CECFD9
:100A7000883909F48AC038F5883729F050F4883667
:100A800011F0803719F683E0809305031092DC02A1
:100A900055C0883809F479C0803919F0803809F0D8
:100AA000B5CF8091DC02803208F06FC0E091DC02AB
:100AB00081E08E0F8093DC028091BB00F0E0E45473
:100AC000FD4F80833BC0803B39F0D0F4803A09F47D
:100AD00077C0883A09F09ACF84E08093050310929A
:100AE000BB021092BA02F0E0E0E019958091BA02E0
:100AF00081110FC081E08093BA0210929A0209C05E
:100B0000803C09F4A8CF883C09F4A5CF883B09F0C4
:100B10007DCFE091BB0281E08E0F8093BB02F0E0BD
:100B2000E656FD4F80818093BB009091BB0280917F
:100B3000BA0229C08091E0028093BB0085EC8093CB
:100B4000BC0064CF9091020380910103981758F57F
:100B5000E091020381E08E0F80930203F0E0EF51F9
:100B6000FD4F8081E9CFE091020381E08E0F8093F9
:100B700002038091BB00F0E0EF51FD4F8083909124
:100B80000203809101039817C8F285E8D8CFE0915D
:100B9000020381E08E0F809302038091BB00F0E09E
:100BA000EF51FD4F80838091040381115ECF81E07E
:100BB0008093DF0284EA8093BC001092050326CF65
:100BC00085EC8093BC00109205038091DC0280329A
:100BD00030F4E091DC02F0E0E454FD4F10826091CB
:100BE000DC0270E08CEB92E0F0E0E0E0199510920E
:100BF000DC020CCF1092030338CFE3E3F3E013825F
:100C0000128288EE93E0A0E0B0E084839583A6830F
:100C1000B78324E032E03183208325EC30E0358750
:100C2000248724EC30E03787268720EC30E0318BB6
:100C3000208B21EC30E0338B228B22EC30E0358BA3
:100C4000248B26EC30E0378B268B118E128E138E80
:100C5000148EE0EDF3E01382128284839583A683E1
:100C6000B78384E192E0918380830895789484B57A
:100C7000826084BD84B5816084BD85B5826085BD98
:100C800085B5816085BD80916E00816080936E0026
:100C90001092810080918100826080938100809118
:100CA00081008160809381008091800081608093C9
:100CB00080008091B10084608093B1008091B00089
:100CC00081608093B0008091910082608093910058
:100CD000809191008160809391008091900081606B
:100CE000809390008091A10082608093A100809108
:100CF000A10081608093A1008091A0008160809319
:100D0000A0008091210182608093210180912101C6
:100D10008160809321018091200181608093200176
:100D200080917A00846080937A0080917A0082605A
:100D300080937A0080917A00816080937A0080911C
:100D40007A00806880937A001092C1001092DE02CF
:100D50001092DD02109207031092290310920503EE
:100D600081E0809304031092DF0284E10E94580125
:100D700085E10E9458018091B9008E7F8093B9006F
:100D80008091B9008D7F8093B90088E48093B8008A
:100D900085E48093BC00E0914303F091440382E03A
:100DA0008083E0913F03F09140031082E091410382
:100DB000F09142038FEC808310924B03E091470344
:100DC000F091480386E08083E0914503F09146036B
:100DD000808180618083E0914503F09146038081AA
:100DE00088608083E0914503F091460380818068AC
:100DF0008083E0914503F091460380818F7D80835D
:100E000083E292E00E94250411E002E0BB24BA9440
:100E100025EEA22E35EC932E80E392E00E9425046D
:100E2000C12CD12C7601C394D0E0C0E07C2C10936F
:100E30000603C092280310920703109229038091A1
:100E400005038111FCCF0093050310930403B092B6
:100E5000030310920203109201031092E00290919A
:100E6000E002872D880F892B8093E0028091DF02BA
:100E7000813009F079C01092DF028091E002809306
:100E8000BB008091BC0083FDF8CF9092BC008091A4
:100E900005038230E1F3809103038F3F09F467C0BB
:100EA00080910303803209F464C08091030380338E
:100EB00009F461C084E01092070310922903109294
:100EC000060381115AC08CE392E00E94D4032FE004
:100ED000271520F08BE592E00E94D40340E1C70182
:100EE000B6010E94E1038DE592E00E94250421965F
:100EF0002FEFC21AD20AE20AF20A8FE7C816D1040B
:100F0000E104F10409F092CF8DE792E0CD2B11F0CE
:100F100083E992E00E9425040E94DF012B013C013D
:100F200088E8C82E83E1D82EE12CF12C0E94DF0145
:100F30006419750986099709683E73408105910512
:100F4000A8F321E0C21AD108E108F10888EE480EA2
:100F500083E0581E611C711CC114D104E104F1042A
:100F600029F70E94F10258CFA092BC0090CF80E0F8
:100F7000A2CF82E0A0CF83E09ECF843009F0B8CF2B
:100F800081E692E00E94D4038FE0871520F08BE584
:100F900092E00E94D40340E1C701B6010E94E10340
:100FA00080E292E00E94D403A3CFA1E21A2EAA1BF2
:100FB000BB1BFD010DC0AA1FBB1FEE1FFF1FA21709
:100FC000B307E407F50720F0A21BB30BE40BF50B06
:100FD000661F771F881F991F1A9469F7609570958F
:100FE000809590959B01AC01BD01CF010895EE0F56
:100FF000FF1F881F8BBF0790F691E02D1994F8947E
:02100000FFCF20
:10100200000000008A020402530231024502D102AA
:1010120000000000A5037803710362035403530325
:101022000D0A000A493243205363616E6E657200F5
:101032005363616E6E696E672E2E2E004932432015
:1010420064657669636520666F756E6420617420DD
:10105200616464726573732030780030002020214F
:1010620000556E6B6E6F776E206572726F722061C3
:10107200742061646472657373203078004E6F204F
:10108200493243206465766963657320666F756EC5
:0A109200640A00646F6E650A000036
:00000001FF
