:100000000C9435000C945D000C945D000C945D0024
:100010000C945D000C945D000C945D000C945D00EC
:100020000C945D000C945D000C945D000C945D00DC
:100030000C945D000C945D000C945D000C945D00CC
:100040000C9487020C945D000C94F7020C94D1027E
:100050000C945D000C945D000C945D000C945D00AC
:100060000C945D000C945D00D90311241FBECFEFEA
:10007000D8E0DEBFCDBF11E0A0E0B1E0E0E6F8E0FF
:1000800002C005900D92A435B107D9F721E0A4E58F
:10009000B1E001C01D92AB3FB207E1F710E0C5E34C
:1000A000D0E004C02197FE010E942804C433D10788
:1000B000C9F70E9429030C942E040C9400003FB74A
:1000C000F89480915A0190915B01A0915C01B091EC
:1000D0005D0126B5A89B05C02F3F19F00196A11D13
:1000E000B11D3FBFBA2FA92F982F8827BC01CD0182
:1000F000620F711D811D911D42E0660F771F881FE1
:10010000991F4A95D1F708958F929F92AF92BF920F
:10011000CF92DF92EF92FF924B015C010E945F0051
:100120006B017C010E945F006C197D098E099F099B
:10013000683E734081059105A8F321E0821A910879
:10014000A108B10888EEC80E83E0D81EE11CF11C9E
:1001500081149104A104B10429F7FF90EF90DF907E
:10016000CF90BF90AF909F908F900895AF92BF9225
:10017000CF92DF92EF92FF920F931F93CF93DF9373
:100180006C017B018B01040F151FEB015E01AE18A2
:10019000BF08C017D10759F06991D601ED91FC91C4
:1001A0000190F081E02DC6010995892B79F7C501F1
:1001B000DF91CF911F910F91FF90EF90DF90CF9043
:1001C000BF90AF900895FC01918D828D981761F0DA
:1001D000A28DAE0FBF2FB11D5D968C91928D9F5F4A
:1001E0009F73928F90E008958FEF9FEF0895FC0129
:1001F000918D828D981731F0828DE80FF11D858DDC
:1002000090E008958FEF9FEF0895FC01918D228D6E
:10021000892F90E0805C9F4F821B91098F739927F3
:1002200008958EE591E00E94050121E0892B09F4F3
:1002300020E0822F089580E090E0892B29F00E9431
:10024000110181110C9400000895FC01A48DA80FE8
:10025000B92FB11DA35ABF4F2C91848D90E0019608
:100260008F739927848FA689B7892C93A089B18928
:100270008C9180648C93938D848D981306C0028832
:10028000F389E02D80818F7D80830895EF92FF9226
:100290000F931F93CF93DF93EC0181E0888F9B8DA9
:1002A0008C8D981316C0E889F989808185FF11C06B
:1002B000EE89FF896083E889F98980818064808381
:1002C00081E090E0DF91CF911F910F91FF90EF902F
:1002D0000895F62E0B8D10E00F5F1F4F0F7311273F
:1002E000E02E8C8D8E110CC00FB607FCFACFE8897A
:1002F000F989808185FFF5CFCE010E942501F1CFDC
:10030000EB8DEC0FFD2FF11DE35AFF4FF0820B8FA9
:10031000EA89FB8980818062D2CFCF93DF93EC01A1
:10032000888D8823B9F0AA89BB89E889F9898C91DD
:1003300085FD03C0808186FD0DC00FB607FCF7CF99
:100340008C9185FFF2CF808185FFEDCFCE010E9499
:100350002501E9CFDF91CF910895FC0101900020A4
:10036000E9F73197AF01481B590BBC018EE591E0CD
:100370000C94B6008F929F92AF92BF920F931F93EF
:10038000CF93DF93CDB7DEB7A1970FB6F894DEBF5A
:100390000FBECDBF19A2423008F44AE08E010F5DB6
:1003A0001F4F842E912CB12CA12CA50194010E94E9
:1003B0000604E62FB901CA01EA30F4F4E05DD80181
:1003C000EE938D01232B242B252B79F790E080E0F1
:1003D000109719F0CD010E94AD01A1960FB6F894C7
:1003E000DEBF0FBECDBFDF91CF911F910F91BF90A8
:1003F000AF909F908F900895E95CE1CFCF92DF920C
:10040000EF92FF92CF93DF936B017C016DE28EE55B
:1004100091E00E944601EC0166277727CB016C1919
:100420007D098E099F094AE00E94BA018C0F9D1F29
:10043000DF91CF91FF90EF90DF90CF9008950C94D3
:10044000AD011F93CF93DF93EC01162F80E191E074
:100450000E941F0284E191E00E941F0280915401DA
:1004600091E0980F90935401682F70E090E080E045
:100470004AE00E94BA0184E191E00E941F0240E13B
:1004800063E370E080E090E00E94BA0184E191E0D3
:100490000E941F0240E162E270E080E090E00E9472
:1004A000BA0184E191E00E941F02612F70E090E0A8
:1004B00080E04AE00E94BA0184E191E00E941F02BC
:1004C000CE010E941F0284E191E00E941F02FE0102
:1004D00001900020E9F7BF016C1B7D0B6C5E7F4F24
:1004E000072E000C880B990B97FF0DC00E94FE0190
:1004F00084E191E00E941F0286E191E0DF91CF91BB
:100500001F910C941F024AE00E94BA01F1CF1F9282
:100510000F920FB60F9211242F933F938F939F93B7
:10052000AF93BF938091560190915701A0915801CC
:10053000B09159013091550123E0230F2D3758F523
:100540000196A11DB11D20935501809356019093F2
:100550005701A0935801B093590180915A0190918D
:100560005B01A0915C01B0915D010196A11DB11DDF
:1005700080935A0190935B01A0935C01B0935D015D
:10058000BF91AF919F918F913F912F910F900FBE8F
:100590000F901F90189526E8230F0296A11DB11DFC
:1005A000D2CF1F920F920FB60F9211242F933F9329
:1005B0004F935F936F937F938F939F93AF93BF936B
:1005C000EF93FF938EE591E00E942501FF91EF915B
:1005D000BF91AF919F918F917F916F915F914F915B
:1005E0003F912F910F900FBE0F901F9018951F9263
:1005F0000F920FB60F9211242F938F939F93EF9327
:10060000FF93E0916E01F0916F018081E0917401A0
:10061000F091750182FD1BC09081809177018F5F01
:100620008F7320917801821741F0E0917701F0E01B
:10063000E25AFE4F958F80937701FF91EF919F9142
:100640008F912F910F900FBE0F901F901895808162
:10065000F4CF789484B5826084BD84B5816084BD14
:1006600085B5826085BD85B5816085BD80916E0050
:10067000816080936E001092810080918100826081
:1006800080938100809181008160809381008091BE
:1006900080008160809380008091B10084608093AD
:1006A000B1008091B00081608093B00080917A00A9
:1006B000846080937A0080917A00826080937A00CF
:1006C00080917A00816080937A0080917A008068BE
:1006D00080937A001092C100E0916E01F0916F0159
:1006E00082E08083E0916A01F0916B011082E091D9
:1006F0006C01F0916D018FEC808310927601E09196
:100700007201F091730186E08083E0917001F091B5
:100710007101808180618083E0917001F0917101AD
:10072000808188608083E0917001F0917101808107
:1007300080688083E0917001F091710180818F7DEC
:1007400080838AE191E00E94AD0189E291E00E94FC
:10075000AD0168EE73E080E090E00E94840061E00B
:100760008CE291E00E94210283E391E00E941F024B
:100770004AE06AE070E080E090E00E94BA0189E21D
:1007800091E00E94AD01C0E0D0E062E082E491E03F
:100790000E94210260ED77E080E090E00E948400FA
:1007A000209799F30E941101882379F30E94000099
:1007B000ECCFEEE5F1E01382128288EE93E0A0E048
:1007C000B0E084839583A683B78384E091E091832E
:1007D000808385EC90E09587848784EC90E0978710
:1007E000868780EC90E0918B808B81EC90E0938BFE
:1007F000828B82EC90E0958B848B86EC90E0978BDB
:10080000868B118E128E138E148E0895A1E21A2EED
:10081000AA1BBB1BFD010DC0AA1FBB1FEE1FFF1FA4
:10082000A217B307E407F50720F0A21BB30BE40BF4
:10083000F50B661F771F881F991F1A9469F760953B
:100840007095809590959B01AC01BD01CF010895F5
:10085000EE0FFF1F0590F491E02D0994F894FFCF5F
:10086000000000004601B6000501E300F7008D011D
:1008700053545800200045545800496E6974206450
:100880006F6E65204D435532000D0A0048656C6C53
:100890006F210052656365697665642064617461E7
:1008A0003A0051554552595F53454E534F525F449C
:0408B000415441006E
:00000001FF
