:100000000C9458000C9480000C9480000C94800098
:100010000C9480000C9480000C9480000C94800060
:100020000C9480000C9480000C9480000C94800050
:100030000C9480000C9480000C9480000C94800040
:100040000C94C6030C9480000C9436040C94100499
:100050000C9480000C9480000C9480000C94800020
:100060000C9468040C948000000000002500280017
:100070002B00040404040404040402020202020229
:10008000030303030303010204081020408001025C
:1000900004081020010204081020000000080002DB
:1000A00001000003040700000000000000008705B5
:1000B00011241FBECFEFD8E0DEBFCDBF11E0A0E01E
:1000C000B1E0EAE8FDE002C005900D92A037B1076B
:1000D000D9F722E0A0E7B1E001C01D92A93BB20729
:1000E000E1F710E0C8E5D0E004C02197FE010E94CE
:1000F000BD06C735D107C9F70E94C0050C94C306D9
:100100000C94000090E0FC01E656FF4F2491FC01A6
:10011000EA57FF4F3491FC01EE58FF4FE491EE2374
:10012000B1F0222339F02330E9F090F4213001F1CD
:10013000223011F1F0E0EE0FFF1FE859FF4FA591BB
:10014000B4918FB7F894EC913E2B3C938FBF0895F8
:100150002730A9F02830C9F0243061F78091800061
:100160008F7D03C0809180008F7780938000E2CFE5
:1001700084B58F7784BDDECF84B58F7DFBCF809132
:10018000B0008F778093B000D5CF8091B0008F7D85
:10019000F9CF3FB7F89480910C0290910D02A09195
:1001A0000E02B0910F0226B5A89B05C02F3F19F093
:1001B0000196A11DB11D3FBFBA2FA92F982F8827E7
:1001C000BC01CD01620F711D811D911D42E0660FC2
:1001D000771F881F991F4A95D1F708958F929F9294
:1001E000AF92BF92CF92DF92EF92FF924B015C01F0
:1001F0000E94C9006B017C010E94C9006C197D0935
:100200008E099F09683E734081059105A8F321E09E
:10021000821A9108A108B10888EEC80E83E0D81EA2
:10022000E11CF11C81149104A104B10429F7FF9091
:10023000EF90DF90CF90BF90AF909F908F900895F8
:10024000AF92BF92CF92DF92EF92FF920F931F93E4
:10025000CF93DF936C017B018B01040F151FEB0122
:100260005E01AE18BF08C017D10759F06991D601D9
:10027000ED91FC910190F081E02DC6010995892B4B
:1002800079F7C501DF91CF911F910F91FF90EF900A
:10029000DF90CF90BF90AF9008950895CF93DF93F4
:1002A000AC01E0910502F09106023097F1F09091D7
:1002B00000028091FF019817C0F090E0292F30E0F4
:1002C0002617370754F4D901AD58BE4F240F351FF8
:1002D000E90128812C939F5FF1CF10920002609377
:1002E000FF01CB01DF91CF910994DF91CF91089568
:1002F000FC01918D828D981761F0A28DAE0FBF2FFA
:10030000B11D5D968C91928D9F5F9F73928F90E04F
:1003100008958FEF9FEF0895FC01918D828D9817BE
:1003200031F0828DE80FF11D858D90E008958FEFFB
:100330009FEF0895FC01918D228D892F90E0805CC4
:100340009F4F821B91098F739927089580E192E056
:100350000E949A0121E0892B09F420E0822F089560
:1003600080E090E0892B29F00E94A60181110C9475
:1003700000000895FC01A48DA80FB92FB11DA35A48
:10038000BF4F2C91848D90E001968F739927848FB5
:10039000A689B7892C93A089B1898C9180648C93AC
:1003A000938D848D981306C00288F389E02D808197
:1003B0008F7D80830895EF92FF920F931F93CF93C9
:1003C000DF93EC0181E0888F9B8D8C8D981316C094
:1003D000E889F989808185FF11C0EE89FF896083F2
:1003E000E889F98980818064808381E090E0DF91F1
:1003F000CF911F910F91FF90EF900895F62E0B8DE6
:1004000010E00F5F1F4F0F731127E02E8C8D8E11A0
:100410000CC00FB607FCFACFE889F989808185FF07
:10042000F5CFCE010E94BA01F1CFEB8DEC0FFD2F7D
:10043000F11DE35AFF4FF0820B8FEA89FB8980811F
:100440008062D2CFCF93DF93EC01888D8823B9F0FF
:10045000AA89BB89E889F9898C9185FD03C08081CF
:1004600086FD0DC00FB607FCF7CF8C9185FFF2CF4C
:10047000808185FFEDCFCE010E94BA01E9CFDF91E7
:10048000CF91089585ED8093BC008091BC0084FDE0
:10049000FCCF1092FC0108952091B301260F332761
:1004A000331F21323105ECF42091FC01FC0190E076
:1004B00080E0243069F082E00895A091B301219199
:1004C000AC014D565E4FA40FB52FB11D2C93019674
:1004D000861798F38091B301680F6093B30180E0B1
:1004E000089581E008950895E09100028091FF0150
:1004F000E81730F4F0E0ED58FE4F808190E0089569
:100500008FEF9FEF0895909100028091FF012FEFF0
:100510003FEF981748F4E92FF0E0ED58FE4F2081A7
:1005200030E09F5F90930002C90108958091FF0120
:1005300090910002891B990B0895CF93DF93CB0113
:10054000EA01642F0E944C02CE01DF91CF91089501
:10055000CF93DF931F92CDB7DEB7698361E0CE0101
:1005600001960E944C0281E090E00F90DF91CF91C4
:100570000895FC0101900020E9F73197AF01481B75
:10058000590BBC0180E192E00C9420018F929F9264
:10059000AF92BF920F931F93CF93DF93CDB7DEB788
:1005A000A1970FB6F894DEBF0FBECDBF19A242309F
:1005B00008F44AE08E010F5D1F4F842E912CB12C60
:1005C000A12CA50194010E949B06E62FB901CA0146
:1005D000EA30F4F4E05DD801EE938D01232B242B57
:1005E000252B79F790E080E0109719F0CD010E945B
:1005F000B902A1960FB6F894DEBF0FBECDBFDF9152
:10060000CF911F910F91BF90AF909F908F900895C1
:10061000E95CE1CFCF92DF92EF92FF92CF93DF932D
:100620006B017C016DE280E192E00E94DB01EC0154
:1006300066277727CB016C197D098E099F094AE04F
:100640000E94C6028C0F9D1FDF91CF91FF90EF900B
:10065000DF90CF9008950C94B9021F93CF93DF934E
:10066000EC01162F80E291E00E942B0385E491E0DB
:100670000E942B03809172018A3008F059C084E2F5
:1006800091E00E942B038091720191E0980F90936A
:100690007201682F70E090E080E04AE00E94C6029C
:1006A00085E491E00E942B0340E163E370E080E089
:1006B00090E00E94C60285E491E00E942B0340E195
:1006C00062E270E080E090E00E94C60285E491E082
:1006D0000E942B03612F70E090E080E04AE00E94CE
:1006E000C60285E491E00E942B03CE010E942B03F9
:1006F00085E491E00E942B03FE0101900020E9F7C0
:10070000BF016C1B7D0B6B5E7F4F072E000C880BAF
:10071000990B97FF13C00E940A0385E491E00E94A1
:100720002B0386E291E0DF91CF911F910C942B0374
:10073000843608F4A8CF10927201A5CF4AE00E9437
:10074000C602EBCF8DEA92E00E9483029093710182
:10075000809370018AE291E00E94B9028DE291E0FB
:100760000E942B036091700170917101072E000CA3
:10077000880B990B97FF06C00E940A038AE291E05A
:100780000C94B9024AE00E94C602F8CF1F920F9261
:100790000FB60F9211242F933F938F939F93AF9394
:1007A000BF938091080290910902A0910A02B09132
:1007B0000B023091070223E0230F2D3758F50196E5
:1007C000A11DB11D20930702809308029093090296
:1007D000A0930A02B0930B0280910C0290910D023B
:1007E000A0910E02B0910F020196A11DB11D809340
:1007F0000C0290930D02A0930E02B0930F02BF91D2
:10080000AF919F918F913F912F910F900FBE0F90BD
:100810001F90189526E8230F0296A11DB11DD2CF77
:100820001F920F920FB60F9211242F933F934F9365
:100830005F936F937F938F939F93AF93BF93EF9348
:10084000FF9380E192E00E94BA01FF91EF91BF9186
:10085000AF919F918F917F916F915F914F913F9158
:100860002F910F900FBE0F901F9018951F920F920F
:100870000FB60F9211242F938F939F93EF93FF93B3
:10088000E0912002F09121028081E0912602F09116
:10089000270282FD1BC09081809129028F5F8F7398
:1008A00020912A02821741F0E0912902F0E0E05FF6
:1008B000FD4F958F80932902FF91EF919F918F912A
:1008C0002F910F900FBE0F901F9018958081F4CF3D
:1008D0001F920F920FB60F9211242F933F934F93B5
:1008E0005F936F937F938F939F93AF93BF93EF9398
:1008F000FF938091B900887F803609F44AC0F0F5F3
:10090000883209F4A7C018F5803109F49BC0B8F407
:10091000882309F4F9C0883009F494C0FF91EF915D
:10092000BF91AF919F918F917F916F915F914F9107
:100930003F912F910F900FBE0F901F901895883107
:1009400009F488C0803251F78093D60114C08034F6
:1009500009F49DC040F48033B9F38833F9F68093ED
:10096000D60185ECB0C0803509F485C0883509F41E
:1009700096C0883499F60E944202D0CF883909F493
:100980008CC038F5883729F050F4883611F080375C
:1009900029F683E08093FC011092D50157C0883876
:1009A00009F47BC0803919F0803809F0B7CF809105
:1009B000D501803208F071C0E091D50181E08E0F41
:1009C0008093D5018091BB00F0E0EB54FE4F808313
:1009D0003DC0803B39F0E0F4803A09F479C0883AB0
:1009E00009F09CCF84E08093FC011092B401109236
:1009F000B301E0910302F091040209958091B301E3
:100A000081110FC081E08093B3011092930109C05E
:100A1000803C09F4A6CF883C09F4A3CF883B09F0B9
:100A20007DCFE091B40181E08E0F8093B401F0E0BE
:100A3000ED56FE4F80818093BB009091B401809170
:100A4000B30129C08091F9018093BB0085EC8093AC
:100A5000BC0064CF9091F8018091F701981758F588
:100A6000E091F80181E08E0F8093F801F0E0E95207
:100A7000FE4F8081E9CFE091F80181E08E0F8093F5
:100A8000F8018091BB00F0E0E952FE4F8083909125
:100A9000F8018091F7019817C8F285E8D8CFE09166
:100AA000F80181E08E0F8093F8018091BB00F0E0A7
:100AB000E952FE4F80838091FB0181115CCF81E080
:100AC0008093FA0184EA8093BC001092FC0126CF47
:100AD00085EC8093BC001092FC018091D50180329E
:100AE00030F4E091D501F0E0EB54FE4F10826091BC
:100AF000D50170E0E0910102F091020285EB91E0F6
:100B000009951092D5010ACF1092D60134CFE0E1B9
:100B1000F2E01382128288EE93E0A0E0B0E08483DA
:100B20009583A683B78324E031E03183208325ECCD
:100B300030E03587248724EC30E03787268720ECA7
:100B400030E0318B208B21EC30E0338B228B22EC98
:100B500030E0358B248B26EC30E0378B268B118EE2
:100B6000128E138E148EEDEAF2E0138212828483C9
:100B70009583A683B78384E191E091838083089570
:100B8000789484B5826084BD84B5816084BD85B568
:100B9000826085BD85B5816085BD80916E00816074
:100BA00080936E001092810080918100826080931A
:100BB000810080918100816080938100809180001C
:100BC0008160809380008091B10084608093B10047
:100BD0008091B00081608093B00080917A00846041
:100BE00080937A0080917A00826080937A0080916D
:100BF0007A00816080937A0080917A008068809387
:100C00007A001092C100E0912002F091210282E06E
:100C10008083E0911C02F0911D021082E0911E027F
:100C2000F0911F028FEC808310922802E091240241
:100C3000F091250286E08083E0912202F091230268
:100C4000808180618083E0912202F0912302808183
:100C500088608083E0912202F09123028081806885
:100C60008083E0912202F091230280818F7D808336
:100C700082E18093BA008DE491E090930402809326
:100C800003028EE491E0909302028093010210929D
:100C900000021092FF011092FE011092FD011092CD
:100CA000FC0181E08093FB011092FA0182E10E9435
:100CB000820083E10E9482008091B9008E7F809340
:100CC000B9008091B9008D7F8093B90088E480934A
:100CD000B80085E48093BC0082EA93E0909306021A
:100CE0008093050287E491E00E94B9028AE291E0D4
:100CF0000E94B90268EE73E080E090E00E94EE008E
:100D000061E086E591E00E942D03C0E0D0E062E062
:100D10008DE591E00E942D0368E873E180E090E0AA
:100D20000E94EE00209799F30E94A601882379F390
:100D30000E940000ECCFA1E21A2EAA1BBB1BFD01F2
:100D40000DC0AA1FBB1FEE1FFF1FA217B307E407AA
:100D5000F50720F0A21BB30BE40BF50B661F771F02
:100D6000881F991F1A9469F76095709580959095E2
:100D70009B01AC01BD01CF010895EE0FFF1F05904F
:0A0D8000F491E02D0994F894FFCFE0
:100D8A0000000000DB0120019A0178018C01220297
:100D9A0000000000A8029D029602830274027302F8
:100DAA00535458003000455458000D0A0049324344
:100DBA0020726563656976652073656E736F72204C
:100DCA00646174613A2000496E697420646F6E65CB
:100DDA00204D4355320048656C6C6F2100515545D2
:100DEA0052595F53454E534F525F4441544100009C
:00000001FF
