:100000000C9458000C9480000C9480000C94800098
:100010000C9480000C9480000C9480000C94800060
:100020000C9480000C9480000C9480000C94800050
:100030000C9480000C9480000C9480000C94800040
:100040000C94A4020C9480000C9414030C94EE0203
:100050000C9480000C9480000C9480000C94800020
:100060000C9446030C94800000000000250028003A
:100070002B00040404040404040402020202020229
:10008000030303030303010204081020408001025C
:1000900004081020010204081020000000080002DB
:1000A00001000003040700000000000000006104DC
:1000B00011241FBECFEFD8E0DEBFCDBF11E0A0E01E
:1000C000B1E0E8ECFCE002C005900D92A433B1076A
:1000D000D9F722E0A4E3B1E001C01D92A837B2072E
:1000E000E1F710E0C8E5D0E004C02197FE010E94CE
:1000F0005C06C735D107C9F70E949A040C946206C2
:100100000C94000090E0FC01E656FF4F2491FC01A6
:10011000EA57FF4F3491FC01EE58FF4FE491EE2374
:10012000B1F0222339F02330E9F090F4213001F1CD
:10013000223011F1F0E0EE0FFF1FE859FF4FA591BB
:10014000B4918FB7F894EC913E2B3C938FBF0895F8
:100150002730A9F02830C9F0243061F78091800061
:100160008F7D03C0809180008F7780938000E2CFE5
:1001700084B58F7784BDDECF84B58F7DFBCF809132
:10018000B0008F778093B000D5CF8091B0008F7D85
:10019000F9CF3FB7F8948091CB019091CC01A09119
:1001A000CD01B091CE0126B5A89B05C02F3F19F017
:1001B0000196A11DB11D3FBFBA2FA92F982F8827E7
:1001C000BC01CD01620F711D811D911D42E0660FC2
:1001D000771F881F991F4A95D1F70895AF92BF9254
:1001E000CF92DF92EF92FF920F931F93CF93DF9303
:1001F0006C017B018B01040F151FEB015E01AE1832
:10020000BF08C017D10759F06991D601ED91FC9153
:100210000190F081E02DC6010995892B79F7C50180
:10022000DF91CF911F910F91FF90EF90DF90CF90D2
:10023000BF90AF900895FC01918D828D981761F069
:10024000A28DAE0FBF2FB11D5D968C91928D9F5FD9
:100250009F73928F90E008958FEF9FEF0895FC01B8
:10026000918D828D981731F0828DE80FF11D858D6B
:1002700090E008958FEF9FEF0895FC01918D228DFE
:10028000892F90E0805C9F4F821B91098F73992783
:1002900008958FEC91E00E943D0121E0892B09F443
:1002A00020E0822F089580E090E0892B29F00E94C1
:1002B000490181110C9400000895FC01A48DA80F40
:1002C000B92FB11DA35ABF4F2C91848D90E0019698
:1002D0008F739927848FA689B7892C93A089B189B8
:1002E0008C9180648C93938D848D981306C00288C2
:1002F000F389E02D80818F7D80830895EF92FF92B6
:100300000F931F93CF93DF93EC0181E0888F9B8D38
:100310008C8D981316C0E889F989808185FF11C0FA
:10032000EE89FF896083E889F98980818064808310
:1003300081E090E0DF91CF911F910F91FF90EF90BE
:100340000895F62E0B8D10E00F5F1F4F0F731127CE
:10035000E02E8C8D8E110CC00FB607FCFACFE88909
:10036000F989808185FFF5CFCE010E945D01F1CF33
:10037000EB8DEC0FFD2FF11DE35AFF4FF0820B8F39
:10038000EA89FB8980818062D2CFCF93DF93EC0131
:10039000888D8823B9F0AA89BB89E889F9898C916D
:1003A00085FD03C0808186FD0DC00FB607FCF7CF29
:1003B0008C9185FFF2CF808185FFEDCFCE010E9429
:1003C0005D01E9CFDF91CF91089585ED8093BC0069
:1003D0008091BC0084FDFCCF10929F010895209174
:1003E0005401260F3327331F21323105ECF42091BD
:1003F0009F01FC0190E080E0243069F082E00895E4
:10040000A09154012191AC014C5C5E4FA40FB52F1B
:10041000B11D2C930196861798F380915401680FB3
:100420006093540180E0089581E00895089581E08B
:1004300090E03091780120917701321710F490E02C
:1004400080E091958195910908958091780190912E
:100450007701891730F48F5F8093780190E080E016
:1004600008958FEF9FEF0895809177019091780123
:10047000891B990B0895CF92DF92EF92FF920F9311
:100480001F93CF93DF937C01CB018A012091A001C0
:10049000222389F0EB016B01C40ED51ECC15DD05BE
:1004A00069F06991D701ED91FC910190F081E02D07
:1004B000C7010995F3CF642F0E94EF01C801DF91B6
:1004C000CF911F910F91FF90EF90DF90CF90089503
:1004D000CF93DF931F92CDB7DEB769832091A00140
:1004E0002223F9F02091C301203258F021E030E0BE
:1004F000FC013383228390E080E00F90DF91CF9165
:1005000008958091A101E82FF0E0EE55FE4F99810A
:1005100090838F5F8093A1018093C30181E090E07D
:10052000ECCF61E0CE0101960E94EF01F7CFFC0114
:1005300001900020E9F73197AF01481B590BBC012E
:100540008FEC91E00C94EE001F920F920FB60F9279
:1005500011242F933F938F939F93AF93BF938091D9
:10056000C7019091C801A091C901B091CA01309111
:10057000C60123E0230F2D3758F50196A11DB11DAB
:100580002093C6018093C7019093C801A093C9012D
:10059000B093CA018091CB019091CC01A091CD0183
:1005A000B091CE010196A11DB11D8093CB01909316
:1005B000CC01A093CD01B093CE01BF91AF919F919B
:1005C0008F913F912F910F900FBE0F901F90189514
:1005D00026E8230F0296A11DB11DD2CF1F920F92C4
:1005E0000FB60F9211242F933F934F935F936F9306
:1005F0007F938F939F93AF93BF93EF93FF938FEC72
:1006000091E00E945D01FF91EF91BF91AF919F91A9
:100610008F917F916F915F914F913F912F910F90AB
:100620000FBE0F901F9018951F920F920FB60F924A
:1006300011242F938F939F93EF93FF93E091DF010A
:10064000F091E0018081E091E501F091E60182FD09
:100650001BC090818091E8018F5F8F732091E90129
:10066000821741F0E091E801F0E0E153FE4F958FF1
:100670008093E801FF91EF919F918F912F910F90BF
:100680000FBE0F901F9018958081F4CF1F920F928C
:100690000FB60F9211242F933F934F935F936F9355
:1006A0007F938F939F93AF93BF93EF93FF9380912B
:1006B000B900887F803609F44AC0F0F5883209F421
:1006C000A5C018F5803109F499C0B8F4882309F45D
:1006D000F5C0883009F492C0FF91EF91BF91AF91BE
:1006E0009F918F917F916F915F914F913F912F914A
:1006F0000F900FBE0F901F901895883109F486C097
:10070000803251F780939D0114C0803409F49BC05E
:1007100040F48033B9F38833F9F680939D0185EC7A
:10072000AEC0803509F483C0883509F494C088349C
:1007300099F60E94E501D0CF883909F48AC038F5CE
:10074000883729F050F4883611F0803729F683E095
:1007500080939F011092760155C0883809F479C0C2
:10076000803919F0803809F0B7CF80917601803256
:1007700008F06FC0E091760181E08E0F80937601E2
:100780008091BB00F0E0EA5AFE4F80833BC0803B83
:1007900039F0D0F4803A09F477C0883A09F09CCF58
:1007A00084E080939F011092550110925401F0E073
:1007B000E0E009958091540181110FC081E08093A0
:1007C00054011092340109C0803C09F4A8CF883C40
:1007D00009F4A5CF883B09F07FCFE091550181E076
:1007E0008E0F80935501F0E0EC5CFE4F808180938A
:1007F000BB00909155018091540129C080917A01EC
:100800008093BB0085EC8093BC0066CF90919C01E7
:1008100080919B01981758F5E0919C0181E08E0F23
:1008200080939C01F0E0E558FE4F8081E9CFE09194
:100830009C0181E08E0F80939C018091BB00F0E0D1
:10084000E558FE4F808390919C0180919B01981701
:10085000C8F285E8D8CFE0919C0181E08E0F8093AB
:100860009C018091BB00F0E0E558FE4F80838091B1
:100870009E0181115ECF81E08093790184EA8093AB
:10088000BC0010929F0128CF85EC8093BC00109291
:100890009F0180917601803230F4E0917601F0E0A2
:1008A000EA5AFE4F10826091760170E086E591E091
:1008B000F0E0E0E00995109276010ECF10929D01D4
:1008C00038CFEFECF1E01382128288EE93E0A0E0E3
:1008D000B0E084839583A683B78324E031E031833D
:1008E000208325EC30E03587248724EC30E03787FF
:1008F000268720EC30E0318B208B21EC30E0338BED
:10090000228B22EC30E0358B248B26EC30E0378BC9
:10091000268B118E128E138E148EECE6F2E013826B
:10092000128284839583A683B78384E191E09183C7
:1009300080830895CF93DF93CDB7DEB7A1970FB62D
:10094000F894DEBF0FBECDBF789484B5826084BDBD
:1009500084B5816084BD85B5826085BD85B58160C3
:1009600085BD80916E00816080936E001092810041
:1009700080918100826080938100809181008160FC
:1009800080938100809180008160809380008091BD
:10099000B10084608093B1008091B0008160809349
:1009A000B00080917A00846080937A0080917A0010
:1009B000826080937A0080917A00816080937A00CF
:1009C00080917A00806880937A001092C100109222
:1009D0007801109277011092A1011092C301109238
:1009E0009F0181E080939E011092790182E10E9433
:1009F000820083E10E9482008091B9008E7F809303
:100A0000B9008091B9008D7F8093B90088E480930C
:100A1000B80085E48093BC00E091DF01F091E00133
:100A200082E08083E091DB01F091DC011082E091B3
:100A3000DD01F091DE018FEC80831092E701E091FF
:100A4000E301F091E40186E08083E091E101F0911F
:100A5000E201808180618083E091E101F091E20117
:100A6000808188608083E091E101F091E2018081E2
:100A700080688083E091E101F091E20180818F7DC7
:100A800080839AE0492E512C612C712C22E0222E79
:100A900033243A9480E291E00E949702C090C4010E
:100AA000D090C5010D2C000CEE08FF08F7FEBFC06A
:100AB0006DE28FEC91E00E947E0122273327A9018D
:100AC0002C193D094E095F0919A28E010F5D1F4FB8
:100AD000CA01B901A30192010E943A06605DF801C2
:100AE00062938F01211531054105510589F70115E3
:100AF000110519F0C8010E94970280E391E00E945D
:100B00009702F1E0F093A00129E02093C201109236
:100B1000A1011092C3016091C4018CE692E00E9491
:100B200068029091C3019132E8F580919F01811193
:100B3000FCCF20929F0181E080939E0130929D0125
:100B400010929C0190939B01A2EAB1E0EBE7F1E0E7
:100B500080E0981382C010927A0180917A018261BC
:100B600080937A0180917901813009F07AC01092E6
:100B7000790180917A018093BB008091BC0083FD54
:100B8000F8CF95EC9093BC0080919F018230E1F307
:100B900080919D018F3F31F080919D01803211F055
:100BA00080919D011092A1011092C3011092A001A9
:100BB0008091C4019091C5010196863091050CF099
:100BC00054C09093C5018093C4010E94C9004B0199
:100BD0005C0184EFC82EDD24D394E12CF12C0E941B
:100BE000C900681979098A099B09683E7340810523
:100BF0009105A8F3F1E0CF1AD108E108F10828EE39
:100C0000820E23E0921EA11CB11CC114D104E10488
:100C1000F10429F780E090E0892B09F43BCF0E9492
:100C20004901882309F436CF0E94000033CFA70181
:100C3000960119A28E010F5D1F4FCA01B901A301D0
:100C400092010E943A06605DF80162938F012115BE
:100C500031054105510589F74ACF2D9121938F5FC9
:100C600078CFE5EEE093BC008FCF1092C5011092D3
:100C7000C401ABCFA1E21A2EAA1BBB1BFD010DC004
:100C8000AA1FBB1FEE1FFF1FA217B307E407F5073C
:100C900020F0A21BB30BE40BF50B661F771F881F18
:100CA000991F1A9469F760957095809590959B01AE
:100CB000AC01BD01CF010895EE0FFF1F0590F49127
:080CC000E02D0994F894FFCF28
:100CC800000000007E01EE003D011B012F01C5015F
:100CD8000000000068023B023402250217021602D7
:100CE80053657269616C2073656E6420783A2000E0
:040CF8000D0A0000E1
:00000001FF
