:100000000C945D000C9485000C9485000C94850084
:100010000C9485000C9485000C9485000C9485004C
:100020000C9485000C9485000C9485000C9485003C
:100030000C9485000C9485000C9485000C9485002C
:100040000C949D020C9485000C940D030C94E70213
:100050000C9485000C9485000C9485000C9485000C
:100060000C9485000C9485000000000024002700FB
:100070002A0000000000250028002B0004040404CE
:100080000404040402020202020203030303030342
:10009000010204081020408001020408102001021F
:1000A00004081020000000080002010000030407FB
:1000B0000000000000000000060511241FBECFEF65
:1000C000D8E0DEBFCDBF11E0A0E0B1E0E2EAF8E1A8
:1000D00002C005900D92A23AB107D9F722E0A2EA38
:1000E000B1E001C01D92A235B207E1F710E0CDE505
:1000F000D0E004C02197FE010E945309CC35D107FE
:10010000C9F70E943F030C944F0C0C940000E6EAE0
:10011000F0E02491E2E9F0E09491EEE7F0E0E49180
:10012000EE23C9F0222339F0233001F1A8F4213065
:1001300019F1223029F1F0E0EE0FFF1FEE58FF4FCA
:10014000A591B4912FB7F894EC91811126C09095A8
:100150009E239C932FBF08952730A9F02830C9F023
:10016000243049F7209180002F7D03C0209180002A
:100170002F7720938000DFCF24B52F7724BDDBCFEE
:1001800024B52F7DFBCF2091B0002F772093B000B6
:10019000D2CF2091B0002F7DF9CF9E2BDACF3FB781
:1001A000F8948091A7019091A801A091A901B09124
:1001B000AA0126B5A89B05C02F3F19F00196A11DE5
:1001C000B11D3FBFBA2FA92F982F8827BC01CD01A1
:1001D000620F711D811D911D42E0660F771F881F00
:1001E000991F4A95D1F708958F929F92AF92BF922F
:1001F000CF92DF92EF92FF920E94CF004B015C0101
:1002000088EEC82E83E0D82EE12CF12C0E94CF007E
:10021000681979098A099B09683E7340810591052F
:10022000A8F321E0C21AD108E108F10888EE880E8F
:1002300083E0981EA11CB11CC114D104E104F10497
:1002400029F7FF90EF90DF90CF90BF90AF909F90F5
:100250008F900895AF92BF92CF92DF92EF92FF926C
:100260000F931F93CF93DF936C017B018B01040FDE
:10027000151FEB015E01AE18BF08C017D10759F07A
:100280006991D601ED91FC910190F081E02DC601BC
:100290000995892B79F7C501DF91CF911F910F91B6
:1002A000FF90EF90DF90CF90BF90AF900895FC014A
:1002B000538D448D252F30E0842F90E0821B930BCB
:1002C000541710F0CF96089501970895FC01918D71
:1002D000828D981761F0A28DAE0FBF2FB11D5D9674
:1002E0008C91928D9F5F9F73928F90E008958FEF16
:1002F0009FEF0895FC01918D828D981731F0828DCA
:10030000E80FF11D858D90E008958FEF9FEF089520
:10031000FC01918D228D892F90E0805C9F4F821B84
:1003200091098F73992708958BEA91E00E948801C3
:1003300021E0892B09F420E0822F089580E090E0ED
:10034000892B29F00E94940181110C9400000895DA
:100350008BEA91E00E948801892BD1F38BEA91E02E
:100360000E94660190E080E00895FC01A48DA80F32
:10037000B92FB11DA35ABF4F2C91848D90E00196E7
:100380008F739927848FA689B7892C93A089B18907
:100390008C91837080648C93938D848D981306C0A8
:1003A0000288F389E02D80818F7D80830895EF920C
:1003B000FF920F931F93CF93DF93EC0181E0888F1F
:1003C0009B8D8C8D98131AC0E889F989808185FFEF
:1003D00015C09FB7F894EE89FF896083E889F98991
:1003E00080818370806480839FBF81E090E0DF9193
:1003F000CF911F910F91FF90EF900895F62E0B8DE6
:1004000010E00F5F1F4F0F731127E02E8C8D8E11A0
:100410000CC00FB607FCFACFE889F989808185FF07
:10042000F5CFCE010E94B501F1CFEB8DEC0FFD2F82
:10043000F11DE35AFF4FF0829FB7F8940B8FEA89C2
:10044000FB8980818062CFCF682F8BEA91E00E9488
:10045000D70190E080E00895CF93DF93EC01888D81
:100460008823B9F0AA89BB89E889F9898C9185FD2F
:1004700003C0808186FD0DC00FB607FCF7CF8C91BD
:1004800085FFF2CF808185FFEDCFCE010E94B501BF
:10049000E9CFDF91CF910895FC0101900020E9F7A9
:1004A0003197AF01481B590BBC018BEA91E00C94CA
:1004B0002A018F929F92AF92BF920F931F93CF9377
:1004C000DF93CDB7DEB7A1970FB6F894DEBF0FBEAE
:1004D000CDBF19A2423008F44AE08E010F5D1F4FD4
:1004E000842E912CB12CA12CA50194010E941D09F0
:1004F000E62FB901CA01EA30F4F4E05DD801EE93C9
:100500008D01232B242B252B79F790E080E0109789
:1005100019F0CD010E944C02A1960FB6F894DEBFEF
:100520000FBECDBFDF91CF911F910F91BF90AF90C4
:100530009F908F900895E95CE1CF1F920F920FB6C4
:100540000F9211242F933F938F939F93AF93BF9359
:100550008091A3019091A401A091A501B091A60161
:100560003091A20123E0230F2D3758F50196A11DEC
:10057000B11D2093A2018093A3019093A401A093A5
:10058000A501B093A6018091A7019091A801A09127
:10059000A901B091AA010196A11DB11D8093A701E7
:1005A0009093A801A093A901B093AA01BF91AF9124
:1005B0009F918F913F912F910F900FBE0F901F90A1
:1005C000189526E8230F0296A11DB11DD2CF1F92C8
:1005D0000F920FB60F9211242F933F934F935F9377
:1005E0006F937F938F939F93AF93BF93EF93FF93FB
:1005F0008BEA91E00E94B501FF91EF91BF91AF911D
:100600009F918F917F916F915F914F913F912F912A
:100610000F900FBE0F901F9018951F920F920FB65C
:100620000F9211242F938F939F93EF93FF93E09159
:10063000BB01F091BC018081E091C101F091C20148
:1006400082FD1BC090818091C4018F5F8F732091C8
:10065000C501821741F0E091C401F0E0E555FE4F7D
:10066000958F8093C401FF91EF919F918F912F916E
:100670000F900FBE0F901F9018958081F4CF789443
:1006800084B5826084BD84B5816084BD85B5826097
:1006900085BD85B5816085BD80916E008160809348
:1006A0006E001092810080918100826080938100B1
:1006B00080918100816080938100809180008160C1
:1006C000809380008091B10084608093B10080911C
:1006D000B00081608093B00080917A008460809344
:1006E0007A0080917A00826080937A0080917A000B
:1006F000816080937A0080917A00806880937A008C
:100700001092C100E091BB01F091BC0182E08083B6
:10071000E091B701F091B8011082E091B901F09138
:10072000BA018FEC80831092C301E091BF01F09178
:10073000C00186E08083E091BD01F091BE0180811F
:1007400080618083E091BD01F091BE01808188606D
:100750008083E091BD01F091BE018081806880833B
:10076000E091BD01F091BE0180818F7D808368EAB8
:1007700071E084E292E00E94330588E191E09F936A
:100780008F930E945909E2E9F0E02491EEE7F0E04E
:1007900084910F900F90882399F090E0880F991F13
:1007A000FC01E859FF4FA591B491FC01EE58FF4FB1
:1007B000859194918FB7F894EC91E22BEC938FBFD5
:1007C0008BE291E00E946F098FE3282E81E0382EA2
:1007D00020E420937C0080917A00806480937A00EA
:1007E00080917A0086FDFCCF80917800C0917900DD
:1007F000DC2FC82FBE010D2E000C880B990B0E9418
:10080000E20720E030E040EA5BE30E9497086B01DA
:100810007C014B015C01AC019B0160E070E583E46D
:1008200097E40E94380720E030E44CE156E40E944F
:10083000C6060E94AA078B01DF93CF933F922F92A7
:100840000E945909FF92EF92DF92CF9281E591E0E9
:100850009F938F930E9459098DB79EB70A960FB642
:10086000F8949EBF0FBE8DBFA7019601C701B601C8
:100870000E9404098823B1F181E691E00E944C02B4
:100880008DE691E00E944C02C80168EE73E00E9480
:10089000090984EF91E00E9409097F936F9380E733
:1008A00091E09F938F930E9459090E94F40081E088
:1008B0000E9487000E94F40080E00E9487000E944E
:1008C000F4000F900F900F900F9080E090E0892B34
:1008D00009F47ECF0E949401882309F479CF0E9405
:1008E000000076CF26013701E89477F82FEF3FEF2D
:1008F0004FE75FE7C301B2010E94040981110DC0F7
:100900002FEF3FEF4FE75FE7C301B2010E943307CC
:1009100018161CF485E691E0B1CF2FEF3FEF4FE7BB
:100920005FE4C701B6010E94920818161CF489E61C
:1009300091E0A4CF2FEF3FEF4FE75FECC701B60187
:100940000E94330787FDF3CF20E030E0A901C70103
:10095000B6010E94330787FF0BC06DE28BEA91E07E
:100960000E94D70146015701B7FAB094B7F8B09486
:100970002AE037ED43EA5BE3C501B4010E94C706F4
:100980004B015C010E94B1076B017C010E94E007F2
:100990009B01AC01C501B4010E94C6064B015C017C
:1009A0004AE0C701B6010E9459026EE28BEA91E06B
:1009B0000E94D70120E030E040E251E4C501B401DB
:1009C0000E9497084B015C010E94B1076B01F12C5A
:1009D000E12C4AE0C701B6010E945902C701B601E5
:1009E0000E94E0079B01AC01C501B4010E94C6064C
:1009F00020E030E040E251E40E9497080E94B107F5
:100A000090E080E04AE00E9459023ACFEBEAF1E040
:100A10001382128288EE93E0A0E0B0E08483958395
:100A2000A683B7838AE091E09183808385EC90E090
:100A30009587848784EC90E09787868780EC90E0A8
:100A4000918B808B81EC90E0938B828B82EC90E099
:100A5000958B848B86EC90E0978B868B118E128E13
:100A6000138E148E08950F931F93CF93DF930097E7
:100A700059F46115710541F4F0E0E0E0CF01DF9138
:100A8000CF911F910F9108958B01EC016EE070E002
:100A900081E090E00E947E05FC01892B69F380E8EB
:100AA00083830115110571F01387028781E8838321
:100AB0008091480290914902892B21F4F0934902D8
:100AC000E09348022097D1F2D187C087838182606A
:100AD000838380914A0290914B02892B79F6F0939F
:100AE0004B02E0934A0280914C0290914D02892B77
:100AF00029F6F0934D02E0934C02C0CF0F931F9361
:100B0000CF93DF93869F8001879F100D969F100DD6
:100B10001124C8010E949A05EC01009729F0A80150
:100B200070E060E00E94BF06CE01DF91CF911F917F
:100B30000F9108950F931F93CF93DF938230910508
:100B400010F482E090E0E0915002F091510230E028
:100B500020E0B0E0A0E0309799F42115310509F4C8
:100B60004AC0281B390B24303105D8F58A819B8176
:100B70006115710589F1FB0193838283FE0111C028
:100B8000408151810281138148175907E0F04817CD
:100B9000590799F4109761F012960C9312971396D7
:100BA0001C933296CF01DF91CF911F910F91089541
:100BB0000093500210935102F4CF2115310551F0EA
:100BC0004217530738F0A901DB019A01BD01DF018B
:100BD000F801C1CFEF01F9CF9093510280935002F9
:100BE000CDCFFE01E20FF31F819391932250310983
:100BF00039832883D7CF20914E0230914F02232B87
:100C000041F4209102013091030130934F0220936F
:100C10004E0220910001309101012115310541F46E
:100C20002DB73EB74091040150910501241B350BAF
:100C3000E0914E02F0914F02E217F307A0F42E1B51
:100C40003F0B2817390778F0AC014E5F5F4F241730
:100C5000350748F04E0F5F1F50934F0240934E02EE
:100C6000819391939FCFF0E0E0E09CCFCF93DF930F
:100C70000097E9F0FC01329713821282A091500292
:100C8000B0915102ED0130E020E01097A1F42081F5
:100C90003181820F931F20914E0230914F0228170D
:100CA000390709F061C0F0934F02E0934E02DF91E3
:100CB000CF910895EA01CE17DF07E8F54A815B81FD
:100CC0009E0141155105B1F7E901FB83EA83499182
:100CD0005991C40FD51FEC17FD0761F480819181F4
:100CE0000296840F951FE9019983888382819381FD
:100CF0009B838A83F0E0E0E012968D919C9113979C
:100D00000097B9F52D913C911197CD010296820F74
:100D1000931F20914E0230914F022817390739F660
:100D2000309751F51092510210925002B0934F0239
:100D3000A0934E02BCCFD383C28340815181840FE4
:100D4000951FC817D90761F44E5F5F4F888199815D
:100D5000480F591F518340838A819B8193838283EB
:100D60002115310509F0B0CFF0935102E093500204
:100D70009ECFFD01DC01C0CF13821282D7CFDC01F0
:100D800001C06D9341505040E0F708955058BB2783
:100D9000AA270E94DE060C9458080E944A0838F0E0
:100DA0000E94510820F039F49F3F19F426F40C9466
:100DB00047080EF4E095E7FB0C944108E92F0E94E8
:100DC000690858F3BA17620773078407950720F07C
:100DD00079F4A6F50C948B080EF4E0950B2EBA2F3F
:100DE000A02D0B01B90190010C01CA01A001112431
:100DF000FF27591B99F0593F50F4503E68F11A16DD
:100E0000F040A22F232F342F4427585FF3CF46956D
:100E100037952795A795F0405395C9F77EF41F168F
:100E2000BA0B620B730B840BBAF09150A1F0FF0F59
:100E3000BB1F661F771F881FC2F70EC0BA0F621F45
:100E4000731F841F48F4879577956795B795F79535
:100E50009E3F08F0B0CF9395880F08F09927EE0FCA
:100E60009795879508950E941D0808F481E00895DC
:100E70000E944C070C9458080E94510858F00E9498
:100E80004A0840F029F45F3F29F00C9441085111C1
:100E90000C948C080C9447080E94690868F3992305
:100EA000B1F3552391F3951B550BBB27AA27621766
:100EB0007307840738F09F5F5F4F220F331F441F73
:100EC000AA1FA9F335D00E2E3AF0E0E832D09150A7
:100ED0005040E695001CCAF72BD0FE2F29D0660F94
:100EE000771F881FBB1F261737074807AB07B0E8D7
:100EF00009F0BB0B802DBF01FF2793585F4F3AF0DD
:100F00009E3F510578F00C9441080C948C085F3F8B
:100F1000E4F3983ED4F3869577956795B795F79562
:100F20009F5FC9F7880F911D9695879597F908954A
:100F3000E1E0660F771F881FBB1F621773078407E6
:100F4000BA0720F0621B730B840BBA0BEE1F88F7F5
:100F5000E09508950E94B1076894B1110C948C0833
:100F600008950E94710888F09F5798F0B92F99272B
:100F7000B751B0F0E1F0660F771F881F991F1AF084
:100F8000BA95C9F714C0B13091F00E948B08B1E056
:100F900008950C948B08672F782F8827B85F39F055
:100FA000B93FCCF3869577956795B395D9F73EF41D
:100FB00090958095709561957F4F8F4F9F4F0895C5
:100FC000E89409C097FB3EF49095809570956195E3
:100FD0007F4F8F4F9F4F9923A9F0F92F96E9BB2799
:100FE0009395F695879577956795B795F111F8CF15
:100FF000FAF4BB0F11F460FF1BC06F5F7F4F8F4F80
:101000009F4F16C0882311F096E911C0772321F075
:101010009EE8872F762F05C0662371F096E8862F0D
:1010200070E060E02AF09A95660F771F881FDAF764
:10103000880F9695879597F90895990F0008550F91
:10104000AA0BE0E8FEEF16161706E807F907C0F04E
:1010500012161306E407F50798F0621B730B840B56
:10106000950B39F40A2661F0232B242B252B21F430
:1010700008950A2609F4A140A6958FEF811D811DD0
:10108000089597F99F6780E870E060E008959FEF0A
:1010900080EC089500240A9416161706180609060F
:1010A000089500240A9412161306140605060895DE
:1010B000092E0394000C11F4882352F0BB0F40F466
:1010C000BF2B11F460FF04C06F5F7F4F8F4F9F4FA6
:1010D000089557FD9058440F551F59F05F3F71F028
:1010E0004795880F97FB991F61F09F3F79F087958F
:1010F0000895121613061406551FF2CF4695F1DF18
:1011000008C0161617061806991FF1CF86957105A7
:10111000610508940895E894BB2766277727CB01DB
:1011200097F908950E941D0808F48FEF08950E9412
:10113000AA080C9458080E944A0838F00E945108E6
:1011400020F0952311F00C9441080C9447081124C9
:101150000C948C080E94690870F3959FC1F3950F59
:1011600050E0551F629FF001729FBB27F00DB11D2B
:10117000639FAA27F00DB11DAA1F649F6627B00DBB
:10118000A11D661F829F2227B00DA11D621F739FA4
:10119000B00DA11D621F839FA00D611D221F749FB2
:1011A0003327A00D611D231F849F600D211D822FF9
:1011B000762F6A2F11249F5750409AF0F1F0882320
:1011C0004AF0EE0FFF1FBB1F661F771F881F91504D
:1011D0005040A9F79E3F510580F00C9441080C94B3
:1011E0008C085F3FE4F3983ED4F386957795679536
:1011F000B795F795E7959F5FC1F7FE2B880F911D77
:101200009695879597F908950E941D08880B990B6C
:10121000089597FB072E16F4009407D077FD09D0A8
:101220000E943F0907FC05D03EF4909581959F4FA1
:101230000895709561957F4F0895A1E21A2EAA1B1B
:10124000BB1BFD010DC0AA1FBB1FEE1FFF1FA21776
:10125000B307E407F50720F0A21BB30BE40BF50B73
:10126000661F771F881F991F1A9469F760957095FC
:10127000809590959B01AC01BD01CF010895AA1BFB
:10128000BB1B51E107C0AA1FBB1FA617B70710F071
:10129000A61BB70B881F991F5A95A9F780959095A3
:1012A000BC01CD010895EE0FFF1F0590F491E02DD4
:1012B0000994B0E0A0E0EFE5F9E00C94280CAE0151
:1012C0004B5F5F4FFA0161917191AF0180914A02CA
:1012D00090914B020E949A09E2E00C94440C0F9307
:1012E0001F93CF93DF93E0914A02F0914B02238149
:1012F000EC0110E000E021FD08C00FEF1FEF14C06B
:101300000995892B11F00FEF1FEF899160914A0227
:1013100070914B02DB011896ED91FC918111F0CF99
:101320008AE00995892B49F7C801DF91CF911F9178
:101330000F910895ABE0B0E0E0EAF9E00C94180CEE
:101340007C013B018A01FC0117821682838181FFA7
:10135000C8C1CE0101965C01F7019381F30193FDB1
:10136000859193FF81913F01882309F453C1853210
:1013700039F493FD859193FF81913F01853229F4E2
:10138000B70190E00E948A0BE7CF912C212C312CE1
:10139000FFE1F31538F08B3211F190F4803209F14E
:1013A000833229F137FC3CC020ED280F2A3050F55C
:1013B00036FE20C08AE0989E200D1124922E06C091
:1013C0008D3291F0803371F7689430F8F30193FD1A
:1013D000859193FF81913F018111DACF21C06894FB
:1013E00031F8689432F8F2CF689433F8EFCF68940C
:1013F00034F8ECCFEAE02E9E200D1124222E6894C2
:1014000035F8E4CF8E3229F436FC04C1689436F8FE
:10141000DDCF8C3619F4689437F8D8CF8836B1F21E
:10142000982F9F7D95549330E0F08336A1F1833758
:10143000C1F1833509F063C02801F2E04F0E511C61
:10144000F801C080D180692D70E036FC02C06FEFDA
:101450007FEFC6010E94740B4C01689437F882013B
:101460000AC00C5F1F4FFFE3F98388248394912CFB
:101470006501E89437F833FE2DC0522C8114910495
:1014800071F5552009F468CFB70180E290E00E9421
:101490008A0B5A94F6CFF801808189830E5F1F4F23
:1014A000E4CF2801F2E04F0E511CF801C080D1803A
:1014B000692D70E036FC02C06FEF7FEFC6010E941D
:1014C0007F0B4C018201D5CFB70180E290E00E94F2
:1014D0008A0B2A942814190409F0B0F7CECFF6012C
:1014E00037FC859137FE81916F01B70190E00E9432
:1014F0008A0B51105A94F1E08F1A9108BFCF8436AD
:1015000019F0893609F077C0F80137FE6BC06081A9
:101510007181828193810C5F1F4FF32DFF763F2EE7
:1015200097FF09C090958095709561957F4F8F4F7B
:101530009F4F689437F82AE030E0A5010E94BA0B6B
:10154000C82ECA188C2C432C36FE0CC0E89440F8E8
:10155000C91440F434FE05C032FC03C0F32DFE7EF6
:101560004F2E892C44FE95C0FE01EC0DF11D8081AB
:10157000803309F087C0242D297E422E842D887067
:10158000582E43FC95C040FE8FC09C2C821418F44A
:101590002C0C922C981844FE91C0B70180E390E087
:1015A0000E948A0B42FE09C088E790E041FE02C01B
:1015B00088E590E0B7010E948A0BC91408F48AC03C
:1015C000CA94D12C9FEFC91AD90ACA0CDB1CF601A8
:1015D00082916F01B70190E00E948A0BAC14BD04A8
:1015E000B1F74FCF60817181072E000C880B990BEA
:1015F0000E5F1F4F92CFD32CE894D4F82AE030E04E
:10160000853739F1232D297FD22E8F3601F148F409
:101610008835A9F0F701868197812B96E2E10C9439
:10162000340C803749F08837A9F7D4FE02C068949B
:10163000D2F820E130E00DC06894D4F8F6CF34FE43
:1016400003C0822F8660D82E20E132E002C028E05D
:1016500030E0F801D7FE0FC06081718182819381F3
:101660000C5F1F4FA5010E94BA0BC82ECA183D2C53
:10167000E89437F867CF6081718190E080E00E5F79
:101680001F4FF0CF42FC02C0839478CF83948394A1
:1016900075CF842D867809F471CFF6CFB70180E23B
:1016A00090E00E948A0B83948214C0F3512C73CF74
:1016B000522C5818821408F46ECFF8CF842D8678F7
:1016C00009F47BCF8BE241FE80E247FC8DE2B7015B
:1016D00090E071CFB70180E390E00E948A0B9A946A
:1016E0006CCF8FEF9FEF99CFFC0105906150704058
:1016F0000110D8F7809590958E0F9F1F0895FC01DB
:101700006150704001900110D8F7809590958E0F30
:101710009F1F08950F931F93CF93DF93182F092FC7
:10172000EB018B8181FD09C01FEF0FEF812F902FFF
:10173000DF91CF911F910F91089582FF14C02E81E8
:101740003F818C819D81281739073CF4E881F9811C
:10175000CF0101969983888310838E819F810196A2
:101760009F838E83E3CFE885F985812F0995892BA7
:10177000A1F3DACFFA01AA27283051F1203181F103
:10178000E8946F936E7F6E5F7F4F8F4F9F4FAF4F89
:10179000B1E03ED0B4E03CD0670F781F891F9A1F9C
:1017A000A11D680F791F8A1F911DA11D6A0F711D50
:1017B000811D911DA11D20D009F468943F912AE05C
:1017C000269F11243019305D3193DEF6CF01089544
:1017D000462F4770405D4193B3E00FD0C9F7F6CF75
:1017E000462F4F70405D4A3318F0495D31FD40523D
:1017F000419302D0A9F7EACFB4E0A69597958795D3
:1018000077956795BA95C9F70097610571050895B1
:101810009B01AC010A2E069457954795379527955D
:10182000BA95C9F7620F731F841F951FA01D0895F5
:101830002F923F924F925F926F927F928F929F92E0
:10184000AF92BF92CF92DF92EF92FF920F931F93CE
:10185000CF93DF93CDB7DEB7CA1BDB0B0FB6F8947F
:10186000DEBF0FBECDBF09942A88398848885F84BF
:101870006E847D848C849B84AA84B984C884DF8030
:10188000EE80FD800C811B81AA81B981CE0FD11D14
:101890000FB6F894DEBF0FBECDBFED010895F894EA
:0218A000FFCF78
:1018A20000005202800000000000D7012A01570107
:1018B2002C02880166017A0150686F746F72657339
:1018C2006973746F7220696E697400496E69746914
:1018D200616C697A6174696F6E20646F6E65004C29
:1018E20069676874206C6576656C3A2025640A0D18
:1018F20000566F6C746167653A20252E32660A0DB8
:10190200006E616E00696E66006F7666000D0A00F9
:101912004C6967687420696E74656E73697479289E
:101922006C756D656E29202D20706879736963610D
:101932006C20706172616D657465723A2025640A6B
:021942000D0096
:00000001FF
