:100000000C949E000C94C6000C94C6000C947A06C6
:100010000C947A060C947A060C94C6000C94C600D4
:100020000C94C6000C94C6000C94C6000C94C60038
:100030000C94C6000C94C6000C94C6000C94C60028
:100040000C94D8050C94C6000C9448060C94220617
:100050000C94C6000C94C6000C94C6000C94C60008
:100060000C9484060C94C60007634236B79BD8A74D
:100070001A39685618AEBAAB558C1D3CB7CC5763CD
:10008000BD6DEDFD753EF6177231BF000000803F7B
:1000900008000000BE922449123EABAAAA2ABECD97
:1000A000CCCC4C3E00000080BEABAAAAAA3E000009
:1000B0000000BF000000803F000000000008417801
:1000C000D3BB4387D1133D190E3CC3BD4282AD2B38
:1000D0003E68EC8276BED98FE1A93E4C80EFFFBE30
:1000E00001C4FF7F3F000000000000000008000284
:1000F00001000003040700000000000000000000F1
:100100000000250028002B0000000000240027002C
:100110002A00040404040404040402020202020289
:1001200003030303030301020408102040800102BB
:1001300004081020010204081020A30711241FBE88
:10014000CFEFD8E0DEBFCDBF13E0A0E0B1E0EAEA38
:10015000FCE202C005900D92AC32B107D9F724E061
:10016000ACE2B3E001C01D92A13FB207E1F710E09D
:10017000CEE9D0E004C02197FE010E945013CD3992
:10018000D107C9F70E94DC070C9453160C940000A9
:10019000982F2091F20381E0213208F043C0809132
:1001A000CE038111FCCF8091F10332E03093CE0376
:1001B0009093CD039FEF9093CC031092CB032093A9
:1001C000CA03A1EDB3E0EAEAF3E090E0291331C0FD
:1001D0001092A9039091A903880F892B8093A903FA
:1001E0008091A803813049F51092A8038091A9035A
:1001F0008093BB008091BC0083FDF8CF85EC809399
:10020000BC008091CE038230E1F38091CC038F3F1C
:10021000B1F08091CC038032A1F08091CC03803387
:1002200091F084E01092D0031092F2031092CF0369
:1002300008953D9131939F5FC9CF85EEE0CF80E077
:10024000F1CF82E0EFCF83E0EDCF809186039091F4
:100250008703891B990B0895089508953FB7F89473
:100260008091760390917703A0917803B091790300
:1002700026B5A89B05C02F3F19F00196A11DB11D01
:100280003FBFBA2FA92F982F8827BC01CD01620F3D
:10029000711D811D911D42E0660F771F881F991FF8
:1002A0004A95D1F708958F929F92AF92BF92CF92C5
:1002B000DF92EF92FF924B015C010E942E016B01D5
:1002C0007C010E942E016C197D098E099F09683EF0
:1002D000734081059105A8F321E0821A9108A108D5
:1002E000B10888EEC80E83E0D81EE11CF11C811411
:1002F0009104A104B10429F7FF90EF90DF90CF9013
:10030000BF90AF909F908F900895AF92BF92CF9281
:10031000DF92EF92FF920F931F93CF93DF936C01C5
:100320007B018B01040F151FEB015E01AE18BF08A6
:10033000C017D10759F06991D601ED91FC91019058
:10034000F081E02DC6010995892B79F7C501DF9170
:10035000CF911F910F91FF90EF90DF90CF90BF90C2
:10036000AF900895FC01538D448D252F30E0842FEC
:1003700090E0821B930B541710F0CF9608950197CD
:100380000895FC01918D828D981761F0A28DAE0FBA
:10039000BF2FB11D5D968C91928D9F5F9F73928F41
:1003A00090E008958FEF9FEF0895FC01918D828D6D
:1003B000981731F0828DE80FF11D858D90E008953A
:1003C0008FEF9FEF0895FC01918D228D892F90E092
:1003D000805C9F4F821B91098F739927089583EF4B
:1003E00093E00E94E30121E0892B09F420E0822FB1
:1003F000089580E090E0892B29F00E94EF0181119F
:100400000C940000089583EF93E00E94E301892B90
:10041000D1F383EF93E00E94C10190E080E0089562
:10042000FC01A48DA80FB92FB11DA35ABF4F2C9169
:10043000848D90E001968F739927848FA689B78960
:100440002C93A089B1898C91837080648C93938D57
:10045000848D981306C00288F389E02D80818F7DFA
:1004600080830895EF92FF920F931F93CF93DF93B2
:10047000EC0181E0888F9B8D8C8D98131AC0E889E0
:10048000F989808185FF15C09FB7F894EE89FF89AF
:100490006083E889F98980818370806480839FBF4D
:1004A00081E090E0DF91CF911F910F91FF90EF904D
:1004B0000895F62E0B8D10E00F5F1F4F0F7311275D
:1004C000E02E8C8D8E110CC00FB607FCFACFE88998
:1004D000F989808185FFF5CFCE010E941002F1CF0E
:1004E000EB8DEC0FFD2FF11DE35AFF4FF0829FB70C
:1004F000F8940B8FEA89FB8980818062CFCFCF93FC
:10050000DF93EC01888D8823B9F0AA89BB89E8893B
:10051000F9898C9185FD03C0808186FD0DC00FB6E1
:1005200007FCF7CF8C9185FFF2CF808185FFEDCF5F
:10053000CE010E941002E9CFDF91CF91089590E0A3
:10054000FC01E651FF4F2491FC01EA5DFE4F34911E
:10055000FC01EE5EFE4FE491EE23C9F0222339F058
:10056000233001F1A8F4213019F1223029F1F0E013
:10057000EE0FFF1FE250FF4FA591B4918FB7F89493
:10058000EC91611126C030953E233C938FBF0895B6
:100590002730A9F02830C9F0243049F78091800035
:1005A0008F7D03C0809180008F7780938000DFCFA4
:1005B00084B58F7784BDDBCF84B58F7DFBCF8091F1
:1005C000B0008F778093B000D2CF8091B0008F7D44
:1005D000F9CF3E2BDACF85ED8093BC008091BC0033
:1005E00084FDFCCF1092CE03089520914C03260F7A
:1005F0003327331F21323105ECF42091CE03FC0167
:1006000090E080E0243069F082E00895A0914C03EE
:100610002191AC01445D5C4FA40FB52FB11D2C930B
:100620000196861798F380914C03680F60934C03F2
:1006300080E0089581E008950895E0918703809116
:100640008603E81730F4F0E0E857FC4F808190E033
:1006500008958FEF9FEF089590918703809186030F
:100660002FEF3FEF981748F4E92FF0E0E857FC4FE1
:10067000208130E09F5F90938703C9010895CF9256
:10068000DF92EF92FF920F931F93CF93DF937C0142
:10069000CB018A012091CF03222389F0EB016B016A
:1006A000C40ED51ECC15DD0569F06991D701ED9119
:1006B000FC910190F081E02DC7010995F3CF642FE3
:1006C0000E94F502C801DF91CF911F910F91FF9019
:1006D000EF90DF90CF90089521E02093CF0327E79C
:1006E0002093F1031092D0031092F20342E050E005
:1006F000BC0180E994E00E943F0381E00E94C800B1
:10070000982F8093E60481E0911180E00895CF93C3
:10071000DF931F92CDB7DEB769832091CF032223E9
:10072000F9F02091F203203258F021E030E0FC0192
:100730003383228390E080E00F90DF91CF91089582
:100740008091D003E82FF0E0EF52FC4F9981908325
:100750008F5F8093D0038093F20381E090E0ECCF31
:1007600061E0CE0101960E94F502F7CF90E080E0B3
:100770000895682F83EF93E00E94320290E080E0BA
:100780000895FC0101900020E9F73197AF01481B63
:10079000590BBC0183EF93E00C9485018F929F92DB
:1007A000AF92BF920F931F93CF93DF93CDB7DEB776
:1007B000A1970FB6F894DEBF0FBECDBF19A242308D
:1007C00008F44AE08E010F5D1F4F842E912CB12C4E
:1007D000A12CA50194010E942E13E62FB901CA0194
:1007E000EA30F4F4E05DD801EE938D01232B242B45
:1007F000252B79F790E080E0109719F0CD010E9449
:10080000C103A1960FB6F894DEBF0FBECDBFDF9136
:10081000CF911F910F91BF90AF909F908F900895AF
:10082000E95CE1CFCF93DF930E94C103EC018AE240
:1008300091E00E94C1038C0F9D1FDF91CF9108951D
:100840000C94C103EF92FF920F931F93CF93DF930A
:100850007C01C62F81E08093CF0387E78093F1036B
:100860001092D0031092F203F701608180E994E0C6
:100870000E94870381E00E94C8008093E6048111F2
:1008800062C02C2F0C2E000C330B8091CE038111F3
:10089000FCCF9C2F81E08093CE038093CD034FEF5C
:1008A0004093CC031092CB034C0F4093CA03809328
:1008B000A9038091A9038E6E8093A9038091A80358
:1008C0008130D9F51092A8038091A9038093BB00D1
:1008D0008091BC0083FDF8CF85EC8093BC008091B3
:1008E000CE038130E1F38091CB038C1710F490910B
:1008F000CB03AAEAB3E0E8E8F3E080E089131FC085
:10090000109287038093860390E028173907E9F750
:10091000DE2D870180E994E00E942C03F801819389
:100920008F018E2F8D1B8C17ACF381E0DF91CF915F
:100930001F910F91FF90EF90089585EECECF4D91CE
:1009400041938F5FDBCF80E0F1CF0F931F93CF9365
:10095000DF9300D0CDB7DEB78B01898362E0CE0193
:1009600001960E942204882381F089819A81982728
:1009700089279827F8019183808381E00F900F9059
:10098000DF91CF911F910F910895F801118210828C
:10099000F5CF0F931F93CF93DF9300D0CDB7DEB782
:1009A0008B01898362E0CE0101960E942204882394
:1009B00081F089819A81982789279827F801918366
:1009C000808381E00F900F90DF91CF911F910F9165
:1009D0000895F80111821082F5CF4F925F926F92C5
:1009E0007F928F929F92AF92BF92CF92DF92EF92BF
:1009F000FF920F931F93CF936B017C01742EAC0178
:100A00009B010E94F411882399F08DE291E0CF912F
:100A10001F910F91FF90EF90DF90CF90BF90AF901C
:100A20009F908F907F906F905F904F900C94C10338
:100A300046015701E894B7F82FEF3FEF4FE75FE724
:100A4000C501B4010E94F41181110DC02FEF3FEFD9
:100A50004FE75FE7C501B4010E94D30F18161CF4DD
:100A600081E391E0D4CF2FEF3FEF4FE75FE4C70181
:100A7000B6010E94321118161CF485E391E0C7CF2D
:100A80002FEF3FEF4FE75FECC701B6010E94D30F96
:100A900087FDF3CF20E030E0A901C701B6010E9435
:100AA000D30F10E000E087FF0AC06DE283EF93E010
:100AB0000E9432028C01F7FAF094F7F8F094C0E04B
:100AC00060E070E080E09FE37C1641F020E030E0E1
:100AD00040E251E40E94D80FCF5FF6CFA701960104
:100AE0000E94670F2B013C010E9451104B015C01D9
:100AF0004AE00E94CE037C01E00EF11ECC23C1F13E
:100B0000C501B4010E9480109B01AC01C301B20178
:100B10000E94660F4B015C016EE283EF93E00E943E
:100B20003202E80EF91EC15018F120E030E040E238
:100B300051E4C501B4010E9437112B013C010E9410
:100B400051104B01B12CA12C4AE0C501B4010E9407
:100B5000CE03E80EF91EC501B4010E9480109B016E
:100B6000AC01C301B2010E94660F4B015C01DBCFF7
:100B7000C701CF911F910F91FF90EF90DF90CF9021
:100B8000BF90AF909F908F907F906F905F904F90AD
:100B90000895CF93DF9342E00E94ED04EC018AE2D6
:100BA00091E00E94C1038C0F9D1FDF91CF910895AA
:100BB0001F920F920FB60F9211242F933F938F9392
:100BC0009F93AF93BF938091720390917303A09111
:100BD0007403B09175033091710323E0230F2D3717
:100BE00058F50196A11DB11D2093710380937203E6
:100BF00090937303A0937403B0937503809176036D
:100C000090917703A0917803B09179030196A11D8B
:100C1000B11D8093760390937703A0937803B093EC
:100C20007903BF91AF919F918F913F912F910F9039
:100C30000FBE0F901F90189526E8230F0296A11D56
:100C4000B11DD2CF1F920F920FB60F9211242F9386
:100C50003F934F935F936F937F938F939F93AF9344
:100C6000BF93EF93FF9383EF93E00E941002FF91F5
:100C7000EF91BF91AF919F918F917F916F915F9114
:100C80004F913F912F910F900FBE0F901F9018958D
:100C90001F920F920FB60F9211242F938F939F9351
:100CA000EF93FF93E0910304F09104048081E091BD
:100CB0000904F0910A0482FD1BC0908180910C040C
:100CC0008F5F8F7320910D04821741F0E0910C0427
:100CD000F0E0ED50FC4F958F80930C04FF91EF9165
:100CE0009F918F912F910F900FBE0F901F9018958D
:100CF0008081F4CF1F920F920FB60F9211240F90A4
:100D00000FBE0F901F9018951F920F920FB60F9263
:100D100011242F933F934F935F936F937F938F9300
:100D20009F93AF93BF93EF93FF938091B900887F18
:100D3000803609F44AC0F0F5883209F4A7C018F5E6
:100D4000803109F49BC0B8F4882309F4F9C08830D5
:100D500009F494C0FF91EF91BF91AF919F918F9152
:100D60007F916F915F914F913F912F910F900FBEA7
:100D70000F901F901895883109F488C0803251F780
:100D80008093CC0314C0803409F49DC040F48033B8
:100D9000B9F38833F9F68093CC0385ECB0C0803585
:100DA00009F485C0883509F496C0883499F60E9404
:100DB000EB02D0CF883909F48CC038F5883729F098
:100DC00050F4883611F0803729F683E08093CE0303
:100DD00010926E0357C0883809F47BC0803919F02F
:100DE000803809F0B7CF80916E03803208F071C06F
:100DF000E0916E0381E08E0F80936E038091BB00C3
:100E0000F0E0E25BFC4F80833DC0803B39F0E0F4D2
:100E1000803A09F479C0883A09F09CCF84E0809345
:100E2000CE0310924D0310924C03E0917C03F0919D
:100E30007D03099580914C0381110FC081E080935F
:100E40004C0310922C0309C0803C09F4A6CF883CC7
:100E500009F4A3CF883B09F07DCFE0914D0381E0F9
:100E60008E0F80934D03F0E0E45DFC4F8081809312
:100E7000BB0090914D0380914C0329C08091A90340
:100E80008093BB0085EC8093BC0064CF9091CB0332
:100E90008091CA03981758F5E091CB0381E08E0F3B
:100EA0008093CB03F0E0E655FC4F8081E9CFE091E1
:100EB000CB0381E08E0F8093CB038091BB00F0E0E9
:100EC000E655FC4F80839091CB038091CA0398171D
:100ED000C8F285E8D8CFE091CB0381E08E0F8093F4
:100EE000CB038091BB00F0E0E655FC4F80838091FE
:100EF000CD0381115CCF81E08093A80384EA8093C5
:100F0000BC001092CE0326CF85EC8093BC001092DB
:100F1000CE0380916E03803230F4E0916E03F0E0F6
:100F2000E25BFC4F108260916E0370E0E0917A0307
:100F3000F0917B038EE493E0099510926E030ACF43
:100F40001092CC0334CFE3EFF3E01382128288EEE9
:100F500093E0A0E0B0E084839583A683B7832AE082
:100F600031E03183208325EC30E03587248724EC81
:100F700030E03787268720EC30E0318B208B21EC66
:100F800030E0338B228B22EC30E0358B248B26EC47
:100F900030E0378B268B118E128E138E148EE0E983
:100FA000F4E01382128284839583A683B7838CE155
:100FB00091E0918380830895CF93DF93CDB7DEB71F
:100FC0002B970FB6F894DEBF0FBECDBF789484B5D3
:100FD000826084BD84B5816084BD85B5826085BD35
:100FE00085B5816085BD80916E00816080936E00C3
:100FF00010928100809181008260809381008091B5
:101000008100816080938100809180008160809365
:1010100080008091B10084608093B1008091B00025
:1010200081608093B00080917A00846080937A0020
:1010300080917A00826080937A0080917A0081604A
:1010400080937A0080917A00806880937A00109271
:10105000C100E0910304F091040482E08083E091F8
:10106000FF03F09100041082E0910104F09102046A
:101070008FEC808310920B04E0910704F091080438
:1010800086E08083E0910504F09106048081806110
:101090008083E0910504F09106048081886080835C
:1010A000E0910504F0910604808180688083E091DE
:1010B0000504F091060480818F7D808363E072E0F7
:1010C00089EB93E00E94D30D89E391E09F938F9386
:1010D0000E945613E8E2F1E02491E4E1F1E084910A
:1010E0000F900F90882399F090E0880F991FFC01D2
:1010F000E85FFE4FA591B491FC01E250FF4F85914E
:1011000094918FB7F894EC912E2B2C938FBF109263
:101110008703109286031092D0031092F20310926C
:10112000CE0381E08093CD031092A80361E082E1B9
:101130000E949F0261E083E10E949F028091B900BA
:101140008E7F8093B9008091B9008D7F8093B90024
:1011500088E48093B80085E48093BC008CE291E041
:1011600090937D0380937C038DE291E090937B03C9
:1011700080937A036CE974E08AEA0E94C9048823A8
:1011800009F4EAC26EE974E08CEA0E94C90488237B
:1011900009F4E2C260EA74E08EEA0E94C90488237E
:1011A00009F4DAC26CEA74E080EB0E94A50488239B
:1011B00009F4D2C26EEA74E082EB0E94A50488238F
:1011C00009F4CAC260EB74E084EB0E94A504882392
:1011D00009F4C2C262EA74E086EB0E94C904882363
:1011E00009F4BAC264EA74E088EB0E94C904882357
:1011F00009F4B2C266EA74E08AEB0E94C90488234B
:1012000009F4AAC268EA74E08CEB0E94C90488233E
:1012100009F4A2C26AEA74E08EEB0E94C904882332
:1012200009F49AC26091A0047091A104072E000CE9
:10123000880B990B0E94821020E030E040EA5BE3CB
:101240000E9437112B013C016091AC047091AD04F8
:1012500090E080E00E9480102FE632E143E053E30B
:101260000E9437116B017C016091A2047091A3046C
:10127000072E000C880B990B0E94821020E030E0B2
:1012800048EC57E30E9437114B015C016091AE04BA
:101290007091AF0490E080E00E9480102DEC3CEC57
:1012A0004CE454E30E9437116093B2047093B3048A
:1012B0008093B4049093B5046091B0047091B1042C
:1012C00090E080E00E9480106093B6047093B704B1
:1012D0008093B8049093B9046091A8047091A90414
:1012E000072E000C880B990B0E9482102AE037ED24
:1012F00043EA5DE30E9437116093BA047093BB0424
:101300008093BC049093BD046091AA047091AB04D7
:10131000072E000C880B990B0E94821020E030E011
:1013200040E253E40E94D80F6093BE047093BF0460
:101330008093C0049093C10460919C0470919D04BB
:10134000072E000C880B990B0E9482106093C20438
:101350007093C3048093C4049093C50460919E0469
:1013600070919F04072E000C880B990B0E9482102D
:1013700020E030E040EA5CE30E9437116093C6044D
:101380007093C7048093C8049093C9046091A40427
:101390007091A504072E000C880B990B0E948210F7
:1013A00020E030E048E45AE30E9437116093CA0419
:1013B0007093CB048093CC049093CD0420E030E074
:1013C00040E057E4C701B6010E9437116093CE0494
:1013D0007093CF048093D0049093D104A701960119
:1013E000C301B2010E9437116093D2047093D304F9
:1013F0008093D4049093D504A5019401C701B6014C
:101400000E9437116093D6047093D7048093D80458
:101410009093D9048CEE91E5A7E1B0E48093DA04CF
:101420009093DB04A093DC04B093DD0480E394E3A9
:10143000AEE7BFE38093DE049093DF04A093E00463
:10144000B093E10480E097E5A4E9B6E38093E20479
:101450009093E304A093E404B093E5048BE491E05B
:101460000E9412048CE090E00E943A0E90937F0359
:1014700080937E038FE591E00E94731320E4209314
:101480007C0080917A00806480937A0080917A0059
:1014900086FDFCCF8091780060917900762F682FCF
:1014A000072E000C880B990B0E9482104B015C01E7
:1014B00086E891E09F938F930E945613C501B40173
:1014C0000E94C9050F900F9080918403909185032D
:1014D000039709F0B2C010928503109284034090E4
:1014E000800350908103609082037090830385E9AC
:1014F00091E00E9473138AE090E00E946C1320E058
:1015000030E040EA5BE3C301B2010E943711162FBD
:10151000072F382E292E8DE991E09F938F930E94FB
:10152000561360E070E080EA90E40E94C90582EA08
:1015300091E09F938F930E945613A8019101652F0C
:10154000742F832F922F0E94C905B801C101272F44
:10155000362F492F582F60E070E080EA90E40E9417
:10156000660F20E030E64AE656E40E943711D801C3
:10157000F1012B2F3A2F4F2F5E2F0E94D80F6B01B6
:101580007C0188EA91E09F938F930E945613C301D8
:10159000B2010E94C905FF92EF92DF92CF9287EBD2
:1015A00091E09F938F930E9456136C2D7D2D8E2D6D
:1015B0009F2D0E94C9052F923F920F931F9388EC95
:1015C00091E09F938F930E945613A8019101652F7C
:1015D000742F832F922F0E94C9056C2D7D2D8E2D87
:1015E0009F2D0E944A10072E000C880B990B0E9419
:1015F00082109B01AC0160E070E08AEF93E40E94EE
:10160000D80F7B018C011F938F93FF926F9388ED0E
:1016100091E09F938F930E94561342E06E2D7F2D91
:10162000802F912F0E94ED0485E991E00E947313B1
:101630000FB6F894DEBF0FBECDBF00917E031091B0
:101640007F03E0918403F0918503EE0FFF1FEE0FFF
:10165000FF1FE00FF11F80829182A282B382F80106
:10166000C080D180E280F38064817581868197811A
:101670000E944A10072E000C880B990B0E948210C2
:101680009B01AC01C701B6010E94321118162CF45F
:10169000F801C482D582E682F782F80160857185FF
:1016A000828593850E944A10072E000C880B990BA7
:1016B0000E9482104B015C01F801448055806680D5
:1016C0007780AC019B01C301B2010E943211181650
:1016D00094F4F8014086518662867386A5019401D0
:1016E000C701B6010E94321118162CF4F801C48209
:1016F000D582E682F782F801C480D580E680F78043
:101700008AE092E09F938F930E945613C701B6011F
:101710000E94C905C0928003D0928103E0928203A7
:10172000F0928303809184039091850301969093B6
:10173000850380938403F4EFF9832EE22A83CE019C
:1017400001960E946C030F900F9081110AC082E1F4
:1017500092E00E94120472C083E791E00E9412049A
:10176000FFCF65E070E080E090E00E94530186EFDB
:10177000898362E0CE0101960E942204882309F445
:101780000FC2698170E090E080E00E94821020E04A
:1017900030E040E853E40E9437116B017C016A811C
:1017A00070E090E080E00E9482109B01AC01C701D4
:1017B000B6010E94670F2091B6043091B7044091A2
:1017C000B8045091B9040E94660F2091B204309180
:1017D000B3044091B4045091B5040E9437116B01D9
:1017E0007C012091BE043091BF044091C00450910F
:1017F000C1040E94670F9B01AC016091BA04709113
:10180000BB048091BC049091BD040E94D80FA70135
:1018100096010E94670F688779878A879B878AE38A
:1018200092E00E94200442E0688579858A859B8544
:101830000E94ED0488E492E00E9420048AE392E092
:101840000E94200442E0688579858A859B850E94F4
:10185000ED0488E492E00E94200484EF89838A8367
:10186000CE0101960E946C03882391F06AE170E03A
:1018700080E090E00E94530186EF898363E0CE010F
:1018800001960E942204811108C084E093E002C006
:1018900081E592E00E941204DAC020E030E048ECDA
:1018A00051E4688579858A859B850E94660F6B0166
:1018B0007C01AC019B010E9437112B013C01698125
:1018C00070E090E080E00E94821020E030E040E88C
:1018D00053E40E9437114B015C016A8170E090E093
:1018E00080E00E9482109B01AC01C501B4010E94FE
:1018F000670F4B015C016B8170E090E080E00E941B
:10190000821020E030E040E85BE30E9437119B0149
:10191000AC01C501B4010E94670F4B015C0120912D
:10192000CA043091CB044091CC045091CD04C30142
:10193000B2010E9437116C837D838E839F83209137
:10194000C6043091C7044091C8045091C904C7012E
:10195000B6010E9437119B01AC016C817D818E81A3
:101960009F810E94670F2091C2043091C30440916F
:10197000C4045091C5040E94670F9B01AC01C501CE
:10198000B4010E94660F4B015C012091D604309196
:10199000D7044091D8045091D904C301B2010E94E8
:1019A00037112B013C012091D2043091D304409196
:1019B000D4045091D504C701B6010E9437119B0190
:1019C000AC01C301B2010E94670F2091CE04309197
:1019D000CF044091D0045091D1040E94670F9B0125
:1019E000AC01C501B4010E94D80F6B017C01AC01B0
:1019F0009B010E9437112091E2043091E304409151
:101A0000E4045091E5040E9437114B015C012091E0
:101A1000DE043091DF044091E0045091E104C701FD
:101A2000B6010E9437119B01AC01C501B4010E94AF
:101A3000670F2091DA043091DB044091DC0450916F
:101A4000DD040E94670F6C837D838E839F8386E70E
:101A500092E00E94200442E06C817D818E819F8112
:101A60000E94ED048AE892E00E94200429EF3FEEF4
:101A700041EF5CE36C817D818E819F810E943711F3
:101A800042E00E94ED0480E992E00E94120426E503
:101A900034E14CE75FE36C817D818E819F810E9400
:101AA000D80F6B017C0186E992E00E94200442E09D
:101AB000C701B6010E94ED048AE892E00E9420046A
:101AC00029EF3FEE41EF5CE3C701B6010E943711F9
:101AD00042E00E94ED0480E992E00E941204A70116
:101AE00096016C817D818E819F810E94D80F2EEAA4
:101AF0003CED42E45EE30E94A4119B01AC0160E076
:101B000070E080E89FE30E94660F20E03AE24DE239
:101B100057E40E9437116B017C0186EB92E00E9432
:101B2000200440E0C701B6010E94ED048AEC92E077
:101B30000E94200428E439EF41E550E4C701B601D2
:101B40000E94371140E00E94ED0484ED92E00E9473
:101B5000120464EF71E080E090E00E94530161E0C4
:101B600082E00E949F0264EF71E080E090E00E94BA
:101B7000530160E082E00E949F0264EC79E080E023
:101B800090E00E945301E0E0F0E0EF2B09F476CC06
:101B90000E94EF01882309F471CC0E9400006ECCF2
:101BA0008AED92E0D6CD0F931F93CF93DF930097EA
:101BB00059F46115710541F4F0E0E0E0CF01DF91E7
:101BC000CF911F910F9108958B01EC016EE070E0B1
:101BD00081E090E00E941E0EFC01892B69F380E8F1
:101BE00083830115110571F01387028781E88383D0
:101BF0008091E7049091E804892B21F4F093E804A4
:101C0000E093E7042097D1F2D187C0878381826077
:101C100083838091E9049091EA04892B79F6F0930B
:101C2000EA04E093E9048091EB049091EC04892BA1
:101C300029F6F093EC04E093EB04C0CF0F931F93CD
:101C4000CF93DF93869F8001879F100D969F100D85
:101C50001124C8010E943A0EEC01009729F0A80156
:101C600070E060E00E945F0FCE01DF91CF911F9185
:101C70000F9108950F931F93CF93DF9382309105B7
:101C800010F482E090E0E091EF04F091F00430E095
:101C900020E0B0E0A0E0309799F42115310509F477
:101CA0004AC0281B390B24303105D8F58A819B8125
:101CB0006115710589F1FB0193838283FE0111C0D7
:101CC000408151810281138148175907E0F048177C
:101CD000590799F4109761F012960C931297139686
:101CE0001C933296CF01DF91CF911F910F910895F0
:101CF0000093EF041093F004F4CF2115310551F057
:101D00004217530738F0A901DB019A01BD01DF0139
:101D1000F801C1CFEF01F9CF9093F0048093EF0465
:101D2000CDCFFE01E20FF31F819391932250310931
:101D300039832883D7CF2091ED043091EE04232BF3
:101D400041F420910201309103013093EE0420937D
:101D5000ED0420910001309101012115310541F47C
:101D60002DB73EB74091040150910501241B350B5E
:101D7000E091ED04F091EE04E217F307A0F42E1BBE
:101D80003F0B2817390778F0AC014E5F5F4F2417DF
:101D9000350748F04E0F5F1F5093EE044093ED045B
:101DA000819391939FCFF0E0E0E09CCFCF93DF93BE
:101DB0000097E9F0FC01329713821282A091EF04A0
:101DC000B091F004ED0130E020E01097A1F4208103
:101DD0003181820F931F2091ED043091EE0428177A
:101DE000390709F061C0F093EE04E093ED04DF9150
:101DF000CF910895EA01CE17DF07E8F54A815B81AC
:101E00009E0141155105B1F7E901FB83EA83499130
:101E10005991C40FD51FEC17FD0761F480819181A2
:101E20000296840F951FE9019983888382819381AB
:101E30009B838A83F0E0E0E012968D919C9113974A
:101E40000097B9F52D913C911197CD010296820F23
:101E5000931F2091ED043091EE042817390739F6CD
:101E6000309751F51092F0041092EF04B093EE0405
:101E7000A093ED04BCCFD383C28340815181840FF2
:101E8000951FC817D90761F44E5F5F4F888199810C
:101E9000480F591F518340838A819B81938382839A
:101EA0002115310509F0B0CFF093F004E093EF0471
:101EB0009ECFFD01DC01C0CF13821282D7CFDC019F
:101EC00001C06D9341505040E0F708955058BB2732
:101ED000AA270E947E0F0C94F8100E94EA1038F096
:101EE0000E94F11020F039F49F3F19F426F40C946D
:101EF000E7100EF4E095E7FB0C94E110E92F0E9447
:101F0000091158F3BA17620773078407950720F081
:101F100079F4A6F50C942B110EF4E0950B2EBA2F44
:101F2000A02D0B01B90190010C01CA01A0011124DF
:101F3000FF27591B99F0593F50F4503E68F11A168B
:101F4000F040A22F232F342F4427585FF3CF46951C
:101F500037952795A795F0405395C9F77EF41F163E
:101F6000BA0B620B730B840BBAF09150A1F0FF0F08
:101F7000BB1F661F771F881FC2F70EC0BA0F621FF4
:101F8000731F841F48F4879577956795B795F795E4
:101F90009E3F08F0B0CF9395880F08F09927EE0F79
:101FA0009795879508950E94BD1008F481E00895E3
:101FB0000E94EC0F0C94F8100E94F11058F00E944F
:101FC000EA1040F029F45F3F29F00C94E110511120
:101FD0000C942C110C94E7100E94091168F39923BA
:101FE000B1F3552391F3951B550BBB27AA27621715
:101FF0007307840738F09F5F5F4F220F331F441F22
:10200000AA1FA9F335D00E2E3AF0E0E832D0915055
:102010005040E695001CCAF72BD0FE2F29D0660F42
:10202000771F881FBB1F261737074807AB07B0E885
:1020300009F0BB0B802DBF01FF2793585F4F3AF08B
:102040009E3F510578F00C94E1100C942C115F3FE9
:10205000E4F3983ED4F3869577956795B795F79511
:102060009F5FC9F7880F911D9695879597F90895F9
:10207000E1E0660F771F881FBB1F62177307840795
:10208000BA0720F0621B730B840BBA0BEE1F88F7A4
:10209000E09508950E9451106894B1110C942C1190
:1020A00008950E94111188F09F5798F0B92F992731
:1020B000B751B0F0E1F0660F771F881F991F1AF033
:1020C000BA95C9F714C0B13091F00E942B11B1E05C
:1020D00008950C942B11672F782F8827B85F39F05B
:1020E000B93FCCF3869577956795B395D9F73EF4CC
:1020F00090958095709561957F4F8F4F9F4F089574
:10210000E89409C097FB3EF4909580957095619591
:102110007F4F8F4F9F4F9923A9F0F92F96E9BB2747
:102120009395F695879577956795B795F111F8CFC3
:10213000FAF4BB0F11F460FF1BC06F5F7F4F8F4F2E
:102140009F4F16C0882311F096E911C0772321F024
:102150009EE8872F762F05C0662371F096E8862FBC
:1021600070E060E02AF09A95660F771F881FDAF713
:10217000880F9695879597F90895990F0008550F40
:10218000AA0BE0E8FEEF16161706E807F907C0F0FD
:1021900012161306E407F50798F0621B730B840B05
:1021A000950B39F40A2661F0232B242B252B21F4DF
:1021B00008950A2609F4A140A6958FEF811D811D7F
:1021C000089597F99F6780E870E060E008959FEFB9
:1021D00080EC089500240A941616170618060906BE
:1021E000089500240A94121613061406050608958D
:1021F000092E0394000C11F4882352F0BB0F40F415
:10220000BF2B11F460FF04C06F5F7F4F8F4F9F4F54
:10221000089557FD9058440F551F59F05F3F71F0D6
:102220004795880F97FB991F61F09F3F79F087953D
:102230000895121613061406551FF2CF4695F1DFC6
:1022400008C0161617061806991FF1CF8695710556
:10225000610508940895E894BB2766277727CB018A
:1022600097F908950E94BD1008F48FEF08950E9419
:102270004A110C94F8100E94EA1038F00E94F110F4
:1022800020F0952311F00C94E1100C94E710112428
:102290000C942C110E94091170F3959FC1F3950FB6
:1022A00050E0551F629FF001729FBB27F00DB11DDA
:1022B000639FAA27F00DB11DAA1F649F6627B00D6A
:1022C000A11D661F829F2227B00DA11D621F739F53
:1022D000B00DA11D621F839FA00D611D221F749F61
:1022E0003327A00D611D231F849F600D211D822FA8
:1022F000762F6A2F11249F5750409AF0F1F08823CF
:102300004AF0EE0FFF1FBB1F661F771F881F9150FB
:102310005040A9F79E3F510580F00C94E1100C94B9
:102320002C115F3FE4F3983ED4F38695779567953B
:10233000B795F795E7959F5FC1F7FE2B880F911D25
:102340009695879597F90895FA01EE0FFF1F30963D
:1023500021053105A1F16115710561F48038BFE3F4
:102360009B0749F168949038810561F08038BFEF90
:102370009B0741F099234AF5FF3FE105310521050F
:1023800019F1E8940894E795D901AA2329F4AB2F11
:10239000BE2FF85FD0F310C0FF5F70F4A695E0F792
:1023A000F73950F019F0FF3A38F49F779F930DD02A
:1023B0000F9007FC9058089546F00C94E71060E0E9
:1023C00070E080E89FE308954FE79F775F934F9316
:1023D0003F932F930E94A4122F913F914F915F91B1
:1023E0000E9437110C9401120E94BD10880B990BAA
:1023F000089529F416F00C94E1100C942B110C9410
:10240000E7100E941111A8F39638A0F707F80F9271
:10241000E8942BE33AEA48EB5FE70E944D110F92F4
:102420000F920F924DB75EB70F920E94EC12E8E642
:10243000F0E00E9433124F915F91EF91FF91E5958B
:10244000EE1FFF1F49F0FE57E0684427EE0F441FC0
:10245000FA95E1F74195550B0E9466120F9007FE21
:102460000C945A120895DF93CF931F930F93FF920A
:10247000EF92DF927B018C01689406C0DA2EEF01A7
:102480000E944A11FE01E894A5912591359145914C
:102490005591A6F3EF010E947E0FFE019701A8015E
:1024A000DA9469F7DF90EF90FF900F911F91CF9131
:1024B000DF9108959B01AC0160E070E080E89FE34C
:1024C0000C94D80F0C94E1100C9420130E9411115D
:1024D000D8F39923C9F3940F511DA3F391505040A1
:1024E00094F059F0882332F0660F771F881F9150BF
:1024F0005040C1F79E3F51052CF7880F911D9695CE
:10250000879597F908955F3FACF0983E9CF0BB2704
:10251000869577956795B79508F4B1609395C1F75F
:10252000BB0F58F711F460FFE8CF6F5F7F4F8F4FFD
:102530009F4FE3CF0C942C1116F00C9420130C94A5
:10254000E71068940C94E1100E941111A8F39923EC
:10255000C1F3AEF3DF93CF931F930F93FF92C92F75
:10256000DD2788232AF02197660F771F881FDAF767
:1025700020E030E040E85FEB9FE3883920F0803EC8
:1025800038F021968F770E94670FE0E9F0E004C0F1
:102590000E94670FEDEBF0E00E9433128B01BE0149
:1025A000EC01FB2E6F5771097595771F880B990BFE
:1025B0000E94821028E132E741E35FE30E944A1162
:1025C000AF2D9801AE01FF900F911F91CF91DF9138
:1025D0000E947E0F0C94F810FA01DC01AA0FBB1FB9
:1025E0009B01AC01BF5728F422273327442750789A
:1025F00020C0B75190F4AB2F00244695379527950E
:10260000011CA395D2F3002071F0220F331F441F49
:10261000B395DAF30ED00C94660F61307105A0E823
:102620008A07B94630F49B01AC01662777278827D3
:102630009078309621F0208331834283538308952C
:102640009F3F31F0915020F4879577956795B79526
:10265000880F911D9695879597F90895A1E21A2EF6
:10266000AA1BBB1BFD010DC0AA1FBB1FEE1FFF1F36
:10267000A217B307E407F50720F0A21BB30BE40B86
:10268000F50B661F771F881F991F1A9469F76095CD
:102690007095809590959B01AC01BD01CF01089587
:1026A000EE0FFF1F0590F491E02D0994B0E0A0E03B
:1026B000ECE5F3E10C942C16AE014B5F5F4FFA0191
:1026C00061917191AF018091E9049091EA040E94B7
:1026D0009E13E2E00C9448166091E9047091EA04BC
:1026E0000E948E1508950F931F93CF93DF93E0916F
:1026F000E904F091EA042381EC0110E000E021FDFF
:1027000008C00FEF1FEF14C00995892B11F00FEFD0
:102710001FEF89916091E9047091EA04DB0118963A
:10272000ED91FC918111F0CF8AE00995892B49F751
:10273000C801DF91CF911F910F910895ABE0B0E0F8
:10274000E4EAF3E10C941C167C013B018A01FC01D4
:1027500017821682838181FFC8C1CE0101965C0178
:10276000F7019381F30193FD859193FF81913F01DF
:10277000882309F453C1853239F493FD859193FF81
:1027800081913F01853229F4B70190E00E948E15B6
:10279000E7CF912C212C312CFFE1F31538F08B324F
:1027A00011F190F4803209F1833229F137FC3CC0F9
:1027B00020ED280F2A3050F536FE20C08AE0989E82
:1027C000200D1124922E06C08D3291F0803371F7C6
:1027D000689430F8F30193FD859193FF81913F0157
:1027E0008111DACF21C0689431F8689432F8F2CFC1
:1027F000689433F8EFCF689434F8ECCFEAE02E9E7B
:10280000200D1124222E689435F8E4CF8E3229F45D
:1028100036FC04C1689436F8DDCF8C3619F4689420
:1028200037F8D8CF8836B1F2982F9F7D95549330E2
:10283000E0F08336A1F18337C1F1833509F063C03D
:102840002801F2E04F0E511CF801C080D180692DA3
:1028500070E036FC02C06FEF7FEFC6010E94781572
:102860004C01689437F882010AC00C5F1F4FFFE3E8
:10287000F98388248394912C6501E89437F833FE1A
:102880002DC0522C8114910471F5552009F468CFA4
:10289000B70180E290E00E948E155A94F6CFF801BD
:1028A000808189830E5F1F4FE4CF2801F2E04F0E35
:1028B000511CF801C080D180692D70E036FC02C047
:1028C0006FEF7FEFC6010E9483154C018201D5CFC7
:1028D000B70180E290E00E948E152A942814190412
:1028E00009F0B0F7CECFF60137FC859137FE819124
:1028F0006F01B70190E00E948E1551105A94F1E0DB
:102900008F1A9108BFCF843619F0893609F077C045
:10291000F80137FE6BC060817181828193810C5F09
:102920001F4FF32DFF763F2E97FF09C0909580959E
:10293000709561957F4F8F4F9F4F689437F82AE0CD
:1029400030E0A5010E94BE15C82ECA188C2C432C5D
:1029500036FE0CC0E89440F8C91440F434FE05C0BB
:1029600032FC03C0F32DFE7E4F2E892C44FE95C011
:10297000FE01EC0DF11D8081803309F087C0242D0C
:10298000297E422E842D8870582E43FC95C040FE2F
:102990008FC09C2C821418F42C0C922C981844FE96
:1029A00091C0B70180E390E00E948E1542FE09C0FD
:1029B00088E790E041FE02C088E590E0B7010E9400
:1029C0008E15C91408F48AC0CA94D12C9FEFC91A75
:1029D000D90ACA0CDB1CF60182916F01B70190E0A5
:1029E0000E948E15AC14BD04B1F74FCF6081718188
:1029F000072E000C880B990B0E5F1F4F92CFD32C24
:102A0000E894D4F82AE030E0853739F1232D297F86
:102A1000D22E8F3601F148F48835A9F0F70186816E
:102A200097812B96E2E10C943816803749F088376D
:102A3000A9F7D4FE02C06894D2F820E130E00DC0BE
:102A40006894D4F8F6CF34FE03C0822F8660D82E67
:102A500020E132E002C028E030E0F801D7FE0FC0EC
:102A600060817181828193810C5F1F4FA5010E945B
:102A7000BE15C82ECA183D2CE89437F867CF608180
:102A8000718190E080E00E5F1F4FF0CF42FC02C0EA
:102A9000839478CF8394839475CF842D867809F4BA
:102AA00071CFF6CFB70180E290E00E948E1583943B
:102AB0008214C0F3512C73CF522C5818821408F48E
:102AC0006ECFF8CF842D867809F47BCF8BE241FE60
:102AD00080E247FC8DE2B70190E071CFB70180E35F
:102AE00090E00E948E159A946CCF8FEF9FEF99CF54
:102AF000FC010590615070400110D8F780959095C9
:102B00008E0F9F1F0895FC016150704001900110CD
:102B1000D8F7809590958E0F9F1F08950F931F9360
:102B2000CF93DF93182F092FEB018B8181FD09C013
:102B30001FEF0FEF812F902FDF91CF911F910F91FA
:102B4000089582FF14C02E813F818C819D812817BA
:102B500039073CF4E881F981CF0101969983888394
:102B600010838E819F8101969F838E83E3CFE885BA
:102B7000F985812F0995892BA1F3DACFFA01AA27CC
:102B8000283051F1203181F1E8946F936E7F6E5FB0
:102B90007F4F8F4F9F4FAF4FB1E03ED0B4E03CD05E
:102BA000670F781F891F9A1FA11D680F791F8A1F41
:102BB000911DA11D6A0F711D811D911DA11D20D0A8
:102BC00009F468943F912AE0269F11243019305D62
:102BD0003193DEF6CF010895462F4770405D419353
:102BE000B3E00FD0C9F7F6CF462F4F70405D4A33A0
:102BF00018F0495D31FD4052419302D0A9F7EACF68
:102C0000B4E0A6959795879577956795BA95C9F796
:102C100000976105710508959B01AC010A2E069489
:102C20005795479537952795BA95C9F7620F731F42
:102C3000841F951FA01D08952F923F924F925F927F
:102C40006F927F928F929F92AF92BF92CF92DF92BC
:102C5000EF92FF920F931F93CF93DF93CDB7DEB721
:102C6000CA1BDB0B0FB6F894DEBF0FBECDBF0994B5
:102C70002A88398848885F846E847D848C849B840C
:102C8000AA84B984C884DF80EE80FD800C811B811A
:102C9000AA81B981CE0FD11D0FB6F894DEBF0FBE49
:0A2CA000CDBFED010895F894FFCFB9
:102CAA000000F10480000000000032028501B20138
:102CBA007F02E301C101D5010000000087033F0341
:102CCA00B6031C0325012C031D030D0A006E616E59
:102CDA0000696E66006F7666004C696768742073D7
:102CEA00656E736F7220696E697400424D50313897
:102CFA003020696E69742073756363657373004964
:102D0A006E697469616C697A6174696F6E20646F47
:102D1A006E6500424D5031383020696E6974206604
:102D2A0061696C0A0A006C69676874206C6576656B
:102D3A006C3A0A0D002D2D2D2D2D2D2D0056696E64
:102D4A003A00566F75743A004C49474854204C452E
:102D5A0056454C3A0A0D00526573697374616E6385
:102D6A00653A2025640A0D00566F6C746167653AEE
:102D7A0020252E32660A0D004C6967687420696E38
:102D8A0074656E73697479286C756D656E29202D6A
:102D9A0020706879736963616C20706172616D6516
:102DAA007465723A2025660A0D004D656469616E84
:102DBA003A006572726F72207374617274696E6719
:102DCA002074656D7065726174757265206D6561D8
:102DDA00737572656D656E740A0074656D706572DF
:102DEA0061747572653A20002064656720432C205F
:102DFA00006572726F72207374617274696E6720F3
:102E0A007072657373757265206D6561737572652D
:102E1A006D656E740A006162736F6C7574652070FB
:102E2A00726573737572653A2000206D622C2000FA
:102E3A0020696E48670072656C617469766520283E
:102E4A007365612D6C6576656C2920707265737384
:102E5A007572653A2000636F6D70757465642061E0
:102E6A006C7469747564653A2000206D65746572C6
:102E7A00732C20002066656574006572726F72207B
:102E8A0072657472696576696E672074656D7065BE
:102E9A00726174757265206D6561737572656D65B1
:102EAA006E740A006572726F722072657472696557
:102EBA0076696E67207072657373757265206D65C9
:0C2ECA0061737572656D656E740A00001E
:00000001FF
