:100000000C945D000C9485000C9485000C942806DB
:100010000C9428060C9428060C9485000C948500FA
:100020000C9485000C9485000C9485000C9485003C
:100030000C9485000C9485000C9485000C9485002C
:100040000C9486050C9485000C94F6050C94D00550
:100050000C9485000C9485000C9485000C9485000C
:100060000C9432060C948500000000080002010088
:100070000003040700000000000000000000000072
:10008000250028002B0000000000240027002A0083
:10009000040404040404040402020202020203032E
:1000A0000303030301020408102040800102040836
:1000B0001020010204081020510711241FBECFEFA9
:1000C000D8E0DEBFCDBF12E0A0E0B1E0ECEAF6E29E
:1000D00002C005900D92AE3FB107D9F724E0AEEF14
:1000E000B2E001C01D92AB3BB207E1F710E0CDE5F5
:1000F000D0E004C02197FE010E945810CC35D107F2
:10010000C9F70E948A070C9454130C940000982F8E
:100110002091BC0381E0213208F043C08091980314
:100120008111FCCF8091BB0332E030939803909310
:1001300097039FEF90939603109295032093940357
:10014000ABE9B3E0E4E7F3E090E0291331C01092AB
:10015000730390917303880F892B809373038091AD
:100160007203813049F5109272038091730380937A
:10017000BB008091BC0083FDF8CF85EC8093BC0070
:10018000809198038230E1F3809196038F3FB1F024
:10019000809196038032A1F080919603803391F094
:1001A00084E010929A031092BC0310929903089570
:1001B0003D9131939F5FC9CF85EEE0CF80E0F1CFD5
:1001C00082E0EFCF83E0EDCF809150039091510317
:1001D000891B990B0895089508953FB7F89480916D
:1001E000480390914903A0914A03B0914B0326B56F
:1001F000A89B05C02F3F19F00196A11DB11D3FBF5F
:10020000BA2FA92F982F8827BC01CD01620F711D2D
:10021000811D911D42E0660F771F881F991F4A9527
:10022000D1F708958F929F92AF92BF92CF92DF92B3
:10023000EF92FF924B015C010E94ED006B017C018B
:100240000E94ED006C197D098E099F09683E73407C
:1002500081059105A8F321E0821A9108A108B1084F
:1002600088EEC80E83E0D81EE11CF11C81149104B5
:10027000A104B10429F7FF90EF90DF90CF90BF90D9
:10028000AF909F908F900895AF92BF92CF92DF92E0
:10029000EF92FF920F931F93CF93DF936C017B013B
:1002A0008B01040F151FEB015E01AE18BF08C017CC
:1002B000D10759F06991D601ED91FC910190F0813F
:1002C000E02DC6010995892B79F7C501DF91CF9102
:1002D0001F910F91FF90EF90DF90CF90BF90AF9064
:1002E0000895FC01538D448D252F30E0842F90E03C
:1002F000821B930B541710F0CF9608950197089521
:10030000FC01918D828D981761F0A28DAE0FBF2FE9
:10031000B11D5D968C91928D9F5F9F73928F90E03F
:1003200008958FEF9FEF0895FC01918D828D9817AE
:1003300031F0828DE80FF11D858D90E008958FEFEB
:100340009FEF0895FC01918D228D892F90E0805CB4
:100350009F4F821B91098F73992708958DEB93E02E
:100360000E94A20121E0892B09F420E0822F089548
:1003700080E090E0892B29F00E94AE0181110C945D
:10038000000008958DEB93E00E94A201892BD1F328
:100390008DEB93E00E94800190E080E00895FC01E5
:1003A000A48DA80FB92FB11DA35ABF4F2C91848DD6
:1003B00090E001968F739927848FA689B7892C9333
:1003C000A089B1898C91837080648C93938D848D86
:1003D000981306C00288F389E02D80818F7D808389
:1003E0000895EF92FF920F931F93CF93DF93EC0149
:1003F00081E0888F9B8D8C8D98131AC0E889F989CC
:10040000808185FF15C09FB7F894EE89FF896083CE
:10041000E889F98980818370806480839FBF81E04F
:1004200090E0DF91CF911F910F91FF90EF90089591
:10043000F62E0B8D10E00F5F1F4F0F731127E02E6C
:100440008C8D8E110CC00FB607FCFACFE889F989A4
:10045000808185FFF5CFCE010E94CF01F1CFEB8DDA
:10046000EC0FFD2FF11DE35AFF4FF0829FB7F89478
:100470000B8FEA89FB8980818062CFCFCF93DF9396
:10048000EC01888D8823B9F0AA89BB89E889F989AC
:100490008C9185FD03C0808186FD0DC00FB607FCE1
:1004A000F7CF8C9185FFF2CF808185FFEDCFCE0114
:1004B0000E94CF01E9CFDF91CF91089590E0FC0138
:1004C000E859FF4F2491FC01EC55FF4F3491FC019A
:1004D000E057FF4FE491EE23C9F0222339F0233097
:1004E00001F1A8F4213019F1223029F1F0E0EE0FEA
:1004F000FF1FE458FF4FA591B4918FB7F894EC918A
:10050000611126C030953E233C938FBF089527305C
:10051000A9F02830C9F0243049F7809180008F7D00
:1005200003C0809180008F7780938000DFCF84B5F7
:100530008F7784BDDBCF84B58F7DFBCF8091B000FA
:100540008F778093B000D2CF8091B0008F7DF9CFAC
:100550003E2BDACF85ED8093BC008091BC0084FDFA
:10056000FCCF10929803089520911E03260F332785
:10057000331F21323105ECF420919803FC0190E007
:1005800080E0243069F082E00895A0911E0321915B
:10059000AC0142505D4FA40FB52FB11D2C930196B5
:1005A000861798F380911E03680F60931E0380E006
:1005B000089581E008950895E091510380915003DA
:1005C000E81730F4F0E0EE5AFC4F808190E0089597
:1005D0008FEF9FEF089590915103809150032FEF7B
:1005E0003FEF981748F4E92FF0E0EE5AFC4F2081D6
:1005F00030E09F5F90935103C9010895CF92DF923D
:10060000EF92FF920F931F93CF93DF937C01CB0167
:100610008A0120919903222389F0EB016B01C40E1A
:10062000D51ECC15DD0569F06991D701ED91FC91DE
:100630000190F081E02DC7010995F3CF642F0E944E
:10064000B402C801DF91CF911F910F91FF90EF90FD
:10065000DF90CF90089521E02093990327E720931E
:10066000BB0310929A031092BC0342E050E0BC011D
:100670008AE594E00E94FE0281E00E948700982FA4
:100680008093B00481E0911180E00895CF93DF93CF
:100690001F92CDB7DEB76983209199032223F9F029
:1006A0002091BC03203258F021E030E0FC0133837C
:1006B000228390E080E00F90DF91CF9108958091A8
:1006C0009A03E82FF0E0E556FC4F998190838F5F05
:1006D00080939A038093BC0381E090E0ECCF61E0CB
:1006E000CE0101960E94B402F7CF90E080E0089519
:1006F000682F8DEB93E00E94F10190E080E0089577
:10070000FC0101900020E9F73197AF01481B590B1C
:10071000BC018DEB93E00C9444018F929F92AF92B9
:10072000BF920F931F93CF93DF93CDB7DEB7A197FF
:100730000FB6F894DEBF0FBECDBF19A2423008F449
:100740004AE08E010F5D1F4F842E912CB12CA12CFD
:10075000A50194010E943610E62FB901CA01EA30C2
:10076000F4F4E05DD801EE938D01232B242B252B8F
:1007700079F790E080E0109719F0CD010E94800396
:10078000A1960FB6F894DEBF0FBECDBFDF91CF911B
:100790001F910F91BF90AF909F908F900895E95C4B
:1007A000E1CFCF93DF930E948003EC018AE291E0D6
:1007B0000E9480038C0F9D1FDF91CF910895EF92CF
:1007C000FF920F931F93CF93DF937C01C62F81E09D
:1007D0008093990387E78093BB0310929A0310924A
:1007E000BC03F70160818AE594E00E94460381E042
:1007F0000E9487008093B004811162C02C2F0C2EC0
:10080000000C330B809198038111FCCF9C2F81E069
:1008100080939803809397034FEF40939603109231
:1008200095034C0F4093940380937303809173035B
:100830008E6E80937303809172038130D9F510928C
:100840007203809173038093BB008091BC0083FD91
:10085000F8CF85EC8093BC00809198038130E1F360
:10086000809195038C1710F490919503A4E7B3E061
:10087000E2E5F3E080E089131FC0109251038093FA
:10088000500390E028173907E9F7DE2D87018AE544
:1008900094E00E94EB02F80181938F018E2F8D1B53
:1008A0008C17ACF381E0DF91CF911F910F91FF90F6
:1008B000EF90089585EECECF4D9141938F5FDBCFC2
:1008C00080E0F1CF0F931F93CF93DF9300D0CDB78C
:1008D000DEB78B01898362E0CE0101960E94DF03BF
:1008E000882381F089819A81982789279827F801A0
:1008F0009183808381E00F900F90DF91CF911F91C2
:100900000F910895F80111821082F5CF0F931F9374
:10091000CF93DF9300D0CDB7DEB78B01898362E040
:10092000CE0101960E94DF03882381F089819A819C
:10093000982789279827F8019183808381E00F9079
:100940000F90DF91CF911F910F910895F8011182BF
:100950001082F5CF4F925F926F927F928F929F920B
:10096000AF92BF92CF92DF92EF92FF920F931F93BD
:10097000CF936B017C01742EAC019B010E9431105E
:10098000882399F08DE291E0CF911F910F91FF9014
:10099000EF90DF90CF90BF90AF909F908F907F901F
:1009A0006F905F904F900C94800346015701E8943C
:1009B000B7F82FEF3FEF4FE75FE7C501B4010E94A3
:1009C000311081110DC02FEF3FEF4FE75FE7C501F9
:1009D000B4010E94600E18161CF481E391E0D4CF9C
:1009E0002FEF3FEF4FE75FE4C701B6010E94BF0F53
:1009F00018161CF485E391E0C7CF2FEF3FEF4FE7C8
:100A00005FECC701B6010E94600E87FDF3CF20E0C6
:100A100030E0A901C701B6010E94600E10E000E0BD
:100A200087FF0AC06DE28DEB93E00E94F1018C011B
:100A3000F7FAF094F7F8F094C0E060E070E080E03E
:100A40009FE37C1641F020E030E040E251E40E9458
:100A5000650ECF5FF6CFA70196010E94F40D2B0122
:100A60003C010E94DE0E4B015C014AE00E948D03B6
:100A70007C01E00EF11ECC23C1F1C501B4010E943E
:100A80000D0F9B01AC01C301B2010E94F30D4B019C
:100A90005C016EE28DEB93E00E94F101E80EF91E1D
:100AA000C15018F120E030E040E251E4C501B4014A
:100AB0000E94C40F2B013C010E94DE0E4B01B12CA1
:100AC000A12C4AE0C501B4010E948D03E80EF91E75
:100AD000C501B4010E940D0F9B01AC01C301B2011D
:100AE0000E94F30D4B015C01DBCFC701CF911F9139
:100AF0000F91FF90EF90DF90CF90BF90AF909F90BD
:100B00008F907F906F905F904F9008951F920F92FB
:100B10000FB60F9211242F933F938F939F93AF9310
:100B2000BF938091440390914503A0914603B091F7
:100B300047033091430323E0230F2D3758F50196E7
:100B4000A11DB11D2093430380934403909345035B
:100B5000A0934603B09347038091480390914903C3
:100B6000A0914A03B0914B030196A11DB11D809342
:100B7000480390934903A0934A03B0934B03BF915A
:100B8000AF919F918F913F912F910F900FBE0F903A
:100B90001F90189526E8230F0296A11DB11DD2CFF4
:100BA0001F920F920FB60F9211242F933F934F93E2
:100BB0005F936F937F938F939F93AF93BF93EF93C5
:100BC000FF938DEB93E00E94CF01FF91EF91BF91D6
:100BD000AF919F918F917F916F915F914F913F91D5
:100BE0002F910F900FBE0F901F9018951F920F928C
:100BF0000FB60F9211242F938F939F93EF93FF9330
:100C0000E091CD03F091CE038081E091D303F09188
:100C1000D40382FD1BC090818091D6038F5F8F73B8
:100C20002091D703821741F0E091D603F0E0E3541E
:100C3000FC4F958F8093D603FF91EF919F918F91F9
:100C40002F910F900FBE0F901F9018958081F4CFB9
:100C50001F920F920FB60F9211240F900FBE0F909C
:100C60001F9018951F920F920FB60F9211242F9379
:100C70003F934F935F936F937F938F939F93AF9324
:100C8000BF93EF93FF938091B900887F803609F47A
:100C90004AC0F0F5883209F4A7C018F5803109F48C
:100CA0009BC0B8F4882309F4F9C0883009F494C0D3
:100CB000FF91EF91BF91AF919F918F917F916F9134
:100CC0005F914F913F912F910F900FBE0F901F900A
:100CD0001895883109F488C0803251F780939603C3
:100CE00014C0803409F49DC040F48033B9F38833D4
:100CF000F9F68093960385ECB0C0803509F485C081
:100D0000883509F496C0883499F60E94AA02D0CF9B
:100D1000883909F48CC038F5883729F050F48836C2
:100D200011F0803729F683E08093980310924003F6
:100D300057C0883809F47BC0803919F0803809F031
:100D4000B7CF80914003803208F071C0E09140033A
:100D500081E08E0F809340038091BB00F0E0E05E65
:100D6000FC4F80833DC0803B39F0E0F4803A09F4C9
:100D700079C0883A09F09CCF84E080939803109260
:100D80001F0310921E03E0914E03F0914F0309954B
:100D900080911E0381110FC081E080931E03109289
:100DA000FE0209C0803C09F4A6CF883C09F4A3CF19
:100DB000883B09F07DCFE0911F0381E08E0F809387
:100DC0001F03F0E0E250FD4F80818093BB009091C3
:100DD0001F0380911E0329C0809173038093BB0081
:100DE00085EC8093BC0064CF90919503809194032F
:100DF000981758F5E091950381E08E0F8093950345
:100E0000F0E0EC58FC4F8081E9CFE091950381E060
:100E10008E0F809395038091BB00F0E0EC58FC4F5F
:100E2000808390919503809194039817C8F285E888
:100E3000D8CFE091950381E08E0F80939503809148
:100E4000BB00F0E0EC58FC4F808380919703811148
:100E50005CCF81E08093720384EA8093BC0010929F
:100E6000980326CF85EC8093BC0010929803809164
:100E70004003803230F4E0914003F0E0E05EFC4F4C
:100E800010826091400370E0E0914C03F0914D03BB
:100E900080E293E00995109240030ACF10929603E6
:100EA00034CFEDEBF3E01382128288EE93E0A0E002
:100EB000B0E084839583A683B7832AE031E0318351
:100EC000208325EC30E03587248724EC30E0378719
:100ED000268720EC30E0318B208B21EC30E0338B07
:100EE000228B22EC30E0358B248B26EC30E0378BE4
:100EF000268B118E128E138E148EEAE5F4E0138287
:100F0000128284839583A683B7838CE191E09183D9
:100F100080830895CF93DF93CDB7DEB72B970FB6BD
:100F2000F894DEBF0FBECDBF789484B5826084BDD7
:100F300084B5816084BD85B5826085BD85B58160DD
:100F400085BD80916E00816080936E00109281005B
:100F50008091810082608093810080918100816016
:100F600080938100809180008160809380008091D7
:100F7000B10084608093B1008091B0008160809363
:100F8000B00080917A00846080937A0080917A002A
:100F9000826080937A0080917A00816080937A00E9
:100FA00080917A00806880937A001092C100E0916D
:100FB000CD03F091CE0382E08083E091C903F091EC
:100FC000CA031082E091CB03F091CC038FEC8083B5
:100FD0001092D503E091D103F091D20386E0808393
:100FE000E091CF03F091D003808180618083E09114
:100FF000CF03F091D003808188608083E091CF039C
:10100000F091D003808180688083E091CF03F091DC
:10101000D00380818F7D808362EC71E088E793E06C
:101020000E94600C89E391E09F938F930E945E1071
:10103000E6EAF0E02491E2E9F0E084910F900F906D
:10104000882399F090E0880F991FFC01EA57FF4F21
:10105000A591B491FC01E458FF4F859194918FB70D
:10106000F894EC91E22BEC938FBF10925103109205
:10107000500310929A031092BC031092980381E0DF
:10108000809397031092720361E082E10E945E02F6
:1010900061E083E10E945E028091B9008E7F8093BF
:1010A000B9008091B9008D7F8093B90088E4809366
:1010B000B80085E48093BC008BEE90E090934F03E2
:1010C00080934E038CEE90E090934D0380934C03FD
:1010D00066E674E08AEA0E948604882309F419C24D
:1010E00068E674E08CEA0E948604882309F411C241
:1010F0006AE674E08EEA0E948604882309F409C235
:1011000066E774E080EB0E946204882309F401C260
:1011100068E774E082EB0E946204882309F4F9C155
:101120006AE774E084EB0E946204882309F4F1C149
:101130006CE674E086EB0E948604882309F4E9C11A
:101140006EE674E088EB0E948604882309F4E1C10E
:1011500060E774E08AEB0E948604882309F4D9C111
:1011600062E774E08CEB0E948604882309F4D1C105
:1011700064E774E08EEB0E948604882309F4C9C1F9
:1011800060916A0470916B04072E000C880B990B18
:101190000E940F0F20E030E040EA5BE30E94C40FA2
:1011A0002B013C01609176047091770490E080E01F
:1011B0000E940D0F2FE632E143E053E30E94C40F7B
:1011C0006B017C0160916C0470916D04072E000C22
:1011D000880B990B0E940F0F20E030E048EC57E39A
:1011E0000E94C40F4B015C016091780470917904F6
:1011F00090E080E00E940D0F2DEC3CEC4CE454E3B9
:101200000E94C40F60937C0470937D0480937E04DD
:1012100090937F0460917A0470917B0490E080E069
:101220000E940D0F60938004709381048093820468
:10123000909383046091720470917304072E000CE4
:10124000880B990B0E940F0F2AE037ED43EA5DE30C
:101250000E94C40F60938404709385048093860475
:10126000909387046091740470917504072E000CAC
:10127000880B990B0E940F0F20E030E040E253E40E
:101280000E94650E609388047093890480938A0499
:1012900090938B046091660470916704072E000C94
:1012A000880B990B0E940F0F60938C0470938D0430
:1012B00080938E0490938F04609168047091690408
:1012C000072E000C880B990B0E940F0F20E030E0D6
:1012D00040EA5CE30E94C40F609390047093910411
:1012E000809392049093930460916E0470916F04C4
:1012F000072E000C880B990B0E940F0F20E030E0A6
:1013000048E45AE30E94C40F6093940470939504D8
:10131000809396049093970420E030E040E057E4F7
:10132000C701B6010E94C40F60939804709399049A
:1013300080939A0490939B04A7019601C301B20184
:101340000E94C40F60939C0470939D0480939E043C
:1013500090939F04A5019401C701B6010E94C40F98
:101360006093A0047093A1048093A2049093A304BB
:101370008CEE91E5A7E1B0E48093A4049093A504DA
:10138000A093A604B093A70480E394E3AEE7BFE381
:101390008093A8049093A904A093AA04B093AB04EB
:1013A00080E097E5A4E9B6E38093AC049093AD04A4
:1013B000A093AE04B093AF048BE491E00E94D103FC
:1013C0008FE591E00E94741086E8282E81E0382E87
:1013D00014EF06EF20E420937C0080917A00806473
:1013E00080937A0080917A0086FDFCCF809178000E
:1013F000E0907900FE2CE82EB7010F2C000C880B32
:10140000990B0E940F0F20E030E040EA5BE30E945E
:10141000C40F3B016C01762F272F372D4C2D5D2DEE
:1014200060E070E583E497E40E94650E20E030E41C
:101430004CE156E40E94F30D0E94D70E4B01FF923F
:10144000EF923F922F920E945E109F928F9288E9B6
:1014500091E09F938F930E945E10DF92CF927F92D4
:101460006F9289EA91E09F938F930E945E1042E011
:10147000662D772D8C2D9D2D0E94AA048AE291E085
:101480000E948003B401990C880B990B0E940F0FE6
:101490009B01AC0160E070E08AEF93E40E94650E6E
:1014A0006B017C01FF928F93DF926F9389EB91E048
:1014B0009F938F930E945E1042E06C2D7D2D8E2DA8
:1014C0009F2D0E94AA048AE291E00E9480038BEE85
:1014D00091E00E94800340E060E070E082E093E4ED
:1014E0000E94AA048FEF91E00E94800319833EE2DC
:1014F0003A83CE0101960E942B030FB6F894DEBF0B
:101500000FBECDBF81110AC089E092E00E94D103D5
:1015100071C083E791E00E94D103FFCF65E070E0E6
:1015200080E090E00E941201098362E0CE01019602
:101530000E94DF03882309F4C0C1698170E090E054
:1015400080E00E940F0F20E030E040E853E40E946A
:10155000C40F6B017C016A8170E090E080E00E9422
:101560000F0F9B01AC01C701B6010E94F40D209141
:1015700080043091810440918204509183040E9440
:10158000F30D20917C0430917D0440917E045091B4
:101590007F040E94C40F6B017C012091880430916C
:1015A000890440918A0450918B040E94F40D9B01A0
:1015B000AC016091840470918504809186049091BF
:1015C00087040E94650EA70196010E94F40D6C83AA
:1015D0007D838E839F8381E392E00E94800342E0BB
:1015E0006C817D818E819F810E94AA048FE392E0AD
:1015F0000E94800319831A83CE0101960E942B0357
:10160000882389F06AE170E080E090E00E94120196
:10161000098363E0CE0101960E94DF03811134C08B
:1016200087ED92E002C088E492E00E94D10368E86E
:1016300073E180E090E00E94120168EE73E080E0C8
:1016400090E00E94120161E082E00E945E0268EE7A
:1016500073E080E090E00E94120160E082E00E946E
:101660005E0268EE73E080E090E00E94120180E08C
:1016700090E0892B09F4AECE0E94AE01882309F4D4
:10168000A9CE0E940000A6CE20E030E048EC51E454
:101690006C817D818E819F810E94F30D6B017C01A5
:1016A000AC019B010E94C40F2B013C01698170E0D9
:1016B00090E080E00E940F0F20E030E040E853E42B
:1016C0000E94C40F4B015C016A8170E090E080E0F1
:1016D0000E940F0F9B01AC01C501B4010E94F40DE3
:1016E0004B015C016B8170E090E080E00E940F0F85
:1016F00020E030E040E85BE30E94C40F9B01AC01B6
:10170000C501B4010E94F40D4B015C0120919404C9
:10171000309195044091960450919704C301B20111
:101720000E94C40F688779878A879B8720919004DD
:10173000309191044091920450919304C701B601F5
:101740000E94C40F9B01AC01688579858A859B85C1
:101750000E94F40D20918C0430918D0440918E04F0
:1017600050918F040E94F40D9B01AC01C501B4019E
:101770000E94F30D4B015C012091A0043091A10463
:101780004091A2045091A304C301B2010E94C40F6E
:101790002B013C0120919C0430919D0440919E04BA
:1017A00050919F04C701B6010E94C40F9B01AC0178
:1017B000C301B2010E94F40D209198043091990464
:1017C00040919A0450919B040E94F40D9B01AC013E
:1017D000C501B4010E94650E6B017C01AC019B0147
:1017E0000E94C40F2091AC043091AD044091AE042E
:1017F0005091AF040E94C40F4B015C012091A804DA
:101800003091A9044091AA045091AB04C701B601DC
:101810000E94C40F9B01AC01C501B4010E94F40DEC
:101820002091A4043091A5044091A6045091A704EE
:101830000E94F40D6B017C018DE692E00E94800312
:1018400042E0C701B6010E94AA0481E892E00E942A
:10185000800329EF3FEE41EF5CE3C701B6010E9430
:10186000C40F42E00E94AA0487E892E00E94D103DC
:1018700026E534E14CE75FE3C701B6010E94650E3F
:101880006B017C018DE892E00E94800342E0C70179
:10189000B6010E94AA0481E892E00E94800329EF29
:1018A0003FEE41EF5CE3C701B6010E94C40F42E086
:1018B0000E94AA0487E892E0B8CE8DEA92E026CE94
:1018C0000F931F93CF93DF93009759F46115710520
:1018D00041F4F0E0E0E0CF01DF91CF911F910F9153
:1018E00008958B01EC016EE070E081E090E00E94D1
:1018F000AB0CFC01892B69F380E88383011511058A
:1019000071F01387028781E883838091B1049091FD
:10191000B204892B21F4F093B204E093B104209730
:10192000D1F2D187C0878381826083838091B304A1
:101930009091B404892B79F6F093B404E093B30446
:101940008091B5049091B604892B29F6F093B604E2
:10195000E093B504C0CF0F931F93CF93DF93869F7F
:101960008001879F100D969F100D1124C8010E94C1
:10197000C70CEC01009729F0A80170E060E00E941C
:10198000EC0DCE01DF91CF911F910F9108950F9330
:101990001F93CF93DF938230910510F482E090E0A3
:1019A000E091B904F091BA0430E020E0B0E0A0E0AA
:1019B000309799F42115310509F44AC0281B390BD9
:1019C00024303105D8F58A819B816115710589F133
:1019D000FB0193838283FE0111C04081518102810A
:1019E000138148175907E0F04817590799F41097E1
:1019F00061F012960C93129713961C933296CF01B6
:101A0000DF91CF911F910F9108950093B904109326
:101A1000BA04F4CF2115310551F04217530738F0BD
:101A2000A901DB019A01BD01DF01F801C1CFEF017E
:101A3000F9CF9093BA048093B904CDCFFE01E20FA1
:101A4000F31F819391932250310939832883D7CF93
:101A50002091B7043091B804232B41F42091020166
:101A6000309103013093B8042093B7042091000112
:101A7000309101012115310541F42DB73EB7409158
:101A8000040150910501241B350BE091B704F0913E
:101A9000B804E217F307A0F42E1B3F0B28173907F1
:101AA00078F0AC014E5F5F4F2417350748F04E0FBA
:101AB0005F1F5093B8044093B704819391939FCFD5
:101AC000F0E0E0E09CCFCF93DF930097E9F0FC01DA
:101AD000329713821282A091B904B091BA04ED0139
:101AE00030E020E01097A1F420813181820F931F14
:101AF0002091B7043091B8042817390709F061C064
:101B0000F093B804E093B704DF91CF910895EA0110
:101B1000CE17DF07E8F54A815B819E01411551052B
:101B2000B1F7E901FB83EA8349915991C40FD51FAD
:101B3000EC17FD0761F4808191810296840F951F57
:101B4000E90199838883828193819B838A83F0E072
:101B5000E0E012968D919C9113970097B9F52D9125
:101B60003C911197CD010296820F931F2091B704EB
:101B70003091B8042817390739F6309751F510928B
:101B8000BA041092B904B093B804A093B704BCCFC0
:101B9000D383C28340815181840F951FC817D90711
:101BA00061F44E5F5F4F88819981480F591F5183BF
:101BB00040838A819B81938382832115310509F0BB
:101BC000B0CFF093BA04E093B9049ECFFD01DC01DD
:101BD000C0CF13821282D7CFDC0101C06D93415078
:101BE0005040E0F708955058BB27AA270E940B0EDB
:101BF0000C94850F0E94770F38F00E947E0F20F022
:101C000039F49F3F19F426F40C94740F0EF4E09508
:101C1000E7FB0C946E0FE92F0E94960F58F3BA174A
:101C2000620773078407950720F079F4A6F50C94F2
:101C3000B80F0EF4E0950B2EBA2FA02D0B01B901B1
:101C400090010C01CA01A0011124FF27591B99F032
:101C5000593F50F4503E68F11A16F040A22F232F3E
:101C6000342F4427585FF3CF469537952795A7958E
:101C7000F0405395C9F77EF41F16BA0B620B730B35
:101C8000840BBAF09150A1F0FF0FBB1F661F771FA6
:101C9000881FC2F70EC0BA0F621F731F841F48F45B
:101CA000879577956795B795F7959E3F08F0B0CFE4
:101CB0009395880F08F09927EE0F979587950895CB
:101CC0000E944A0F08F481E008950E94790E0C9456
:101CD000850F0E947E0F58F00E94770F40F029F484
:101CE0005F3F29F00C946E0F51110C94B90F0C94B6
:101CF000740F0E94960F68F39923B1F3552391F363
:101D0000951B550BBB27AA2762177307840738F06A
:101D10009F5F5F4F220F331F441FAA1FA9F335D0C7
:101D20000E2E3AF0E0E832D091505040E695001C7B
:101D3000CAF72BD0FE2F29D0660F771F881FBB1F35
:101D4000261737074807AB07B0E809F0BB0B802D13
:101D5000BF01FF2793585F4F3AF09E3F510578F03F
:101D60000C946E0F0C94B90F5F3FE4F3983ED4F3DC
:101D7000869577956795B795F7959F5FC9F7880F13
:101D8000911D9695879597F90895E1E0660F771F65
:101D9000881FBB1F621773078407BA0720F0621BF6
:101DA000730B840BBA0BEE1F88F7E09508950E9421
:101DB000DE0E6894B1110C94B90F08950E949E0F25
:101DC00088F09F5798F0B92F9927B751B0F0E1F0FC
:101DD000660F771F881F991F1AF0BA95C9F714C0AC
:101DE000B13091F00E94B80FB1E008950C94B80F93
:101DF000672F782F8827B85F39F0B93FCCF38695E5
:101E000077956795B395D9F73EF490958095709541
:101E100061957F4F8F4F9F4F0895E89409C097FBBE
:101E20003EF490958095709561957F4F8F4F9F4FB1
:101E30009923A9F0F92F96E9BB279395F6958795F5
:101E400077956795B795F111F8CFFAF4BB0F11F4B8
:101E500060FF1BC06F5F7F4F8F4F9F4F16C088235F
:101E600011F096E911C0772321F09EE8872F762F95
:101E700005C0662371F096E8862F70E060E02AF0D6
:101E80009A95660F771F881FDAF7880F96958795C2
:101E900097F90895990F0008550FAA0BE0E8FEEF97
:101EA00016161706E807F907C0F012161306E4071E
:101EB000F50798F0621B730B840B950B39F40A2617
:101EC00061F0232B242B252B21F408950A2609F4F5
:101ED000A140A6958FEF811D811D089597F99F67F9
:101EE00080E870E060E008959FEF80EC08950024A2
:101EF0000A941616170618060906089500240A946F
:101F000012161306140605060895092E0394000CF4
:101F100011F4882352F0BB0F40F4BF2B11F460FF83
:101F200004C06F5F7F4F8F4F9F4F089557FD9058AC
:101F3000440F551F59F05F3F71F04795880F97FB8D
:101F4000991F61F09F3F79F0879508951216130647
:101F50001406551FF2CF4695F1DF08C01616170676
:101F60001806991FF1CF86957105610508940895AB
:101F7000E894BB2766277727CB0197F908950E943D
:101F80004A0F08F48FEF08950E94D70F0C94850F25
:101F90000E94770F38F00E947E0F20F0952311F0F9
:101FA0000C946E0F0C94740F11240C94B90F0E94B2
:101FB000960F70F3959FC1F3950F50E0551F629FE8
:101FC000F001729FBB27F00DB11D639FAA27F00D92
:101FD000B11DAA1F649F6627B00DA11D661F829FB9
:101FE0002227B00DA11D621F739FB00DA11D621F9E
:101FF000839FA00D611D221F749F3327A00D611DBB
:10200000231F849F600D211D822F762F6A2F11249C
:102010009F5750409AF0F1F088234AF0EE0FFF1FCF
:10202000BB1F661F771F881F91505040A9F79E3F26
:10203000510580F00C946E0F0C94B90F5F3FE4F3E0
:10204000983ED4F3869577956795B795F795E7957C
:102050009F5FC1F7FE2B880F911D9695879597F985
:1020600008950E944A0F880B990B0895A1E21A2E39
:10207000AA1BBB1BFD010DC0AA1FBB1FEE1FFF1F2C
:10208000A217B307E407F50720F0A21BB30BE40B7C
:10209000F50B661F771F881F991F1A9469F76095C3
:1020A0007095809590959B01AC01BD01CF0108957D
:1020B000EE0FFF1F0590F491E02D0994B0E0A0E031
:1020C000E4E6F0E10C942D13AE014B5F5F4FFA0193
:1020D00061917191AF018091B3049091B4040E9419
:1020E0009F10E2E00C9449130F931F93CF93DF935B
:1020F000E091B304F091B4042381EC0110E000E01E
:1021000021FD08C00FEF1FEF14C00995892B11F0B6
:102110000FEF1FEF89916091B3047091B404DB015C
:102120001896ED91FC918111F0CF8AE00995892BE9
:1021300049F7C801DF91CF911F910F910895ABE04E
:10214000B0E0E5EAF0E10C941D137C013B018A014B
:10215000FC0117821682838181FFC8C1CE010196DE
:102160005C01F7019381F30193FD859193FF8191C8
:102170003F01882309F453C1853239F493FD8591D9
:1021800093FF81913F01853229F4B70190E00E94CD
:102190008F12E7CF912C212C312CFFE1F31538F071
:1021A0008B3211F190F4803209F1833229F137FC3E
:1021B0003CC020ED280F2A3050F536FE20C08AE0C2
:1021C000989E200D1124922E06C08D3291F08033FE
:1021D00071F7689430F8F30193FD859193FF819135
:1021E0003F018111DACF21C0689431F8689432F848
:1021F000F2CF689433F8EFCF689434F8ECCFEAE08C
:102200002E9E200D1124222E689435F8E4CF8E32B4
:1022100029F436FC04C1689436F8DDCF8C3619F405
:10222000689437F8D8CF8836B1F2982F9F7D9554AF
:102230009330E0F08336A1F18337C1F1833509F0A3
:1022400063C02801F2E04F0E511CF801C080D1801C
:10225000692D70E036FC02C06FEF7FEFC6010E946F
:1022600079124C01689437F882010AC00C5F1F4F45
:10227000FFE3F98388248394912C6501E89437F86F
:1022800033FE2DC0522C8114910471F5552009F4B0
:1022900068CFB70180E290E00E948F125A94F6CF87
:1022A000F801808189830E5F1F4FE4CF2801F2E09F
:1022B0004F0E511CF801C080D180692D70E036FCB2
:1022C00002C06FEF7FEFC6010E9484124C018201B1
:1022D000D5CFB70180E290E00E948F122A94281493
:1022E000190409F0B0F7CECFF60137FC859137FE1F
:1022F00081916F01B70190E00E948F1251105A94A2
:10230000F1E08F1A9108BFCF843619F0893609F0B1
:1023100077C0F80137FE6BC0608171818281938143
:102320000C5F1F4FF32DFF763F2E97FF09C090954E
:102330008095709561957F4F8F4F9F4F689437F8C8
:102340002AE030E0A5010E94BF12C82ECA188C2CCA
:10235000432C36FE0CC0E89440F8C91440F434FE17
:1023600005C032FC03C0F32DFE7E4F2E892C44FEA7
:1023700095C0FE01EC0DF11D8081803309F087C00E
:10238000242D297E422E842D8870582E43FC95C022
:1023900040FE8FC09C2C821418F42C0C922C9818A0
:1023A00044FE91C0B70180E390E00E948F1242FE8C
:1023B00009C088E790E041FE02C088E590E0B701DF
:1023C0000E948F12C91408F48AC0CA94D12C9FEFBE
:1023D000C91AD90ACA0CDB1CF60182916F01B70138
:1023E00090E00E948F12AC14BD04B1F74FCF608112
:1023F0007181072E000C880B990B0E5F1F4F92CF37
:10240000D32CE894D4F82AE030E0853739F1232D35
:10241000297FD22E8F3601F148F48835A9F0F701D3
:10242000868197812B96E2E10C943913803749F02D
:102430008837A9F7D4FE02C06894D2F820E130E0D2
:102440000DC06894D4F8F6CF34FE03C0822F8660A6
:10245000D82E20E132E002C028E030E0F801D7FEBB
:102460000FC060817181828193810C5F1F4FA50134
:102470000E94BF12C82ECA183D2CE89437F867CFC7
:102480006081718190E080E00E5F1F4FF0CF42FCD1
:1024900002C0839478CF8394839475CF842D8678FB
:1024A00009F471CFF6CFB70180E290E00E948F125D
:1024B00083948214C0F3512C73CF522C5818821479
:1024C00008F46ECFF8CF842D867809F47BCF8BE2A9
:1024D00041FE80E247FC8DE2B70190E071CFB70189
:1024E00080E390E00E948F129A946CCF8FEF9FEF61
:1024F00099CFFC010590615070400110D8F780958C
:1025000090958E0F9F1F0895FC01615070400190BF
:102510000110D8F7809590958E0F9F1F08950F9307
:102520001F93CF93DF93182F092FEB018B8181FD30
:1025300009C01FEF0FEF812F902FDF91CF911F91D7
:102540000F91089582FF14C02E813F818C819D815F
:10255000281739073CF4E881F981CF010196998366
:10256000888310838E819F8101969F838E83E3CF22
:10257000E885F985812F0995892BA1F3DACFFA0136
:10258000AA27283051F1203181F1E8946F936E7FB2
:102590006E5F7F4F8F4F9F4FAF4FB1E03ED0B4E0A3
:1025A0003CD0670F781F891F9A1FA11D680F791FE4
:1025B0008A1F911DA11D6A0F711D811D911DA11DF5
:1025C00020D009F468943F912AE0269F1124301905
:1025D000305D3193DEF6CF010895462F4770405DA0
:1025E0004193B3E00FD0C9F7F6CF462F4F70405D4F
:1025F0004A3318F0495D31FD4052419302D0A9F7AA
:10260000EACFB4E0A6959795879577956795BA95A3
:10261000C9F700976105710508959B01AC010A2E69
:1026200006945795479537952795BA95C9F7620F40
:10263000731F841F951FA01D08952F923F924F92E4
:102640005F926F927F928F929F92AF92BF92CF9242
:10265000DF92EF92FF920F931F93CF93DF93CDB74B
:10266000DEB7CA1BDB0B0FB6F894DEBF0FBECDBFC3
:1026700009942A88398848885F846E847D848C8494
:102680009B84AA84B984C884DF80EE80FD800C819D
:102690001B81AA81B981CE0FD11D0FB6F894DEBF80
:0C26A0000FBECDBFED010895F894FFCFF0
:1026AC000000BB04800000000000F1014401710136
:1026BC003E02A20180019401000000004603FE02CC
:1026CC007503DB02E400EB02DC020D0A006E616EA6
:1026DC0000696E66006F7666004C696768742073DB
:1026EC00656E736F7220696E697400424D5031389B
:1026FC003020696E69742073756363657373004968
:10270C006E697469616C697A6174696F6E20646F4B
:10271C006E6500424D5031383020696E6974206608
:10272C0061696C0A0A004C69676874206C6576658F
:10273C006C3A2025640A0D00526573697374616EDE
:10274C0063653A2025640A0D00566F6C74616765E9
:10275C003A20252E32660A0D004C69676874206990
:10276C006E74656E73697479286C756D656E29204D
:10277C002D20706879736963616C20706172616D72
:10278C00657465723A2025660A0D0070726F766961
:10279C0064656420616C7469747564653A2000200A
:1027AC006D65746572732C20006572726F72207384
:1027BC0074617274696E672074656D706572617492
:1027CC00757265206D6561737572656D656E740AE1
:1027DC000074656D70657261747572653A200020C5
:1027EC0064656720432C20006572726F72207374CD
:1027FC00617274696E67207072657373757265208F
:10280C006D6561737572656D656E740A00616273D6
:10281C006F6C7574652070726573737572653A2090
:10282C0000206D622C200020696E48670072656C78
:10283C00617469766520287365612D6C6576656CAD
:10284C00292070726573737572653A200065727217
:10285C006F722072657472696576696E6720746533
:10286C006D7065726174757265206D6561737572DA
:10287C00656D656E740A006572726F722072657494
:10288C0072696576696E67207072657373757265AF
:0E289C00206D6561737572656D656E740A005E
:00000001FF
