:100000000C9457010C9488010C9488010C9488017D
:100010000C9488010C9488010C9488010C9488013C
:100020000C9488010C9488010C9488010C9488012C
:100030000C9488010C9488010C9488010C9488011C
:100040000C9488010C942B0D0C9488010C9488015D
:100050000C9488010C9488010C9488010C94090C70
:100060000C9488010C947D0C0C94530C0C94880116
:100070000C9488010C9488010C9488010C948801DC
:100080000C94030D0C9488010C9488010C94880145
:100090000C9488010C9488010C9488010C94E90A52
:1000A0000C9488010C9488010C94DB0C0C9488014E
:1000B0000C9488010C9488010C9488010C94B30C66
:1000C0000C9488010C9488010C9488010C9488018C
:1000D0000C9488010C9488010C9488010C9488017C
:1000E0000C9488010C9455030C9470070C945803DD
:1000F0000C946B080C94E30A0C942F060C948E025B
:100100000C947A030C947E030C94EE050C948002FC
:100110000C9426040C945E030C9488030C94B50391
:100120000C94BD080C94A4020C94BB060C946803B8
:100130000C9462030C949D020C94CD080C94430320
:100140000C9476030C9471080C9449030C94B80831
:100150000C94DB080C9470030C9484030C946C03D3
:100160000C9463090C941B060C947F020C94E60318
:100170000C94530D0C943D060C9474060C94D1020F
:100180000C9451030C944D030C9483030000210044
:10019000240027002A002D00300033000101000058
:1001A000040107010A0100002200250028002B009D
:1001B0002E003100340002010000050108010B018E
:1001C000000020002300260029002C002F00320010
:1001D00000010000030106010901050505050705E9
:1001E00008080808020202020A0A080804040404B3
:1001F00001010101010101010303030303030303DF
:10020000040707070C0C0C0C0C0C0C0C020202026D
:1002100006060606060606060B0B0B0B0B0B0B0B56
:100220000102102020080810204010204080020108
:1002300002010804020101020408102040808040ED
:1002400020100804020180040201804020100804EC
:10025000020108040201010204081020408001028A
:1002600004081020408000000A0B02090C0D0E0843
:10027000070304010000000000000000000000006F
:10028000000000000000000000000000000000006E
:10029000000012111000000000000000000000002B
:1002A000000000000000000000000000530D1124B9
:1002B0001FBECFEFD1E2DEBFCDBF00E00CBF13E029
:1002C000A0E0B2E0ECEAFEE200E00BBF02C0079063
:1002D0000D92A033B107D9F725E0A0E3B3E001C048
:1002E0001D92A930B207E1F711E0C7E5D1E000E0C7
:1002F00006C021970109802FFE010E949214C63585
:10030000D10780E00807A9F70E940C0E0C9454173F
:100310000C940000EF92FF920F931F93CF93DF9303
:10032000C1E0D2E086E4E82E82E0F82E0AE312E093
:1003300088819981019789939993181619065CF021
:10034000D701ED91FC911995F80180819181FE0111
:10035000329791838083F2E0EF0EF11C0E5F1F4F06
:1003600082E0CD30D80721F7DF91CF911F910F9117
:10037000FF90EF90089596E0899FD0011124A95134
:10038000BC4F90967C936E935F9791E091969C936F
:100390009197E0915404F09155049091530499235E
:1003A00039F0309751F0811108C0809103041994FD
:1003B000309719F05C968C91FACF0895CF92DF9226
:1003C000EF92FF920F931F9396E0899FF001112403
:1003D000E951FC4F11A2278D30A12130310551F197
:1003E00078F02230310509F451C02330310509F489
:1003F00052C01F910F91FF90EF90DF90CF90089522
:100400006623B9F361E070E00E94BB012FB7F89456
:100410008091D7039091D803A091D903B091DA03CA
:100420002FBF80933F0490934004A0934104B09366
:100430004204DFCF9FB7F894C090D703D090D80381
:10044000E090D903F090DA039FBF00913F04109130
:1004500040042091410430914204C01AD10AE20ABA
:10046000F30A009151041091520430E020E00C1581
:100470001D052E053F0550F462E070E01F910F91BD
:10048000FF90EF90DF90CF900C94BB016111B1CF42
:1004900063E070E0F3CF70E060E0F0CF85ED809333
:1004A000BC008091BC0084FDFCCF1092B103089584
:1004B00020918D03260F3327331F21323105ECF4B1
:1004C0002091B103FC0190E080E0243069F082E0EB
:1004D0000895A0918D032191AC0143595C4FA40F65
:1004E000B52FB11D2C930196861798F380918D033B
:1004F000680F60938D0380E0089581E0089508956A
:1005000081E090E030916C0320916B03321710F47E
:1005100090E080E0919581959109089580916C0318
:1005200090916B03891730F48F5F80936C0390E098
:1005300080E008958FEF9FEF089580916B03909175
:100540006C03891B990B0895CF92DF92EF92FF9273
:100550000F931F93CF93DF937C01CB018A012091EE
:100560006A03222389F0EB016B01C40ED51ECC1562
:10057000DD0569F06991D701ED91FC910190F08161
:10058000E02DC7011995F3CF642F0E945802C801CE
:10059000DF91CF911F910F91FF90EF90DF90CF905F
:1005A0000895CF93DF931F92CDB7DEB76983209173
:1005B0006A032223F9F020916903203258F021E0E8
:1005C00030E0FC013383228390E080E00F90DF91E4
:1005D000CF91089580916803E82FF0E0E85BFC4F2D
:1005E000998190838F5F809368038093690381E092
:1005F00090E0ECCF61E0CE0101960E945802F7CF67
:100600000F931F93660F771F660F771FFC01E60F8E
:10061000F71F0081118122813381DA01AA0FBB1FEC
:10062000AA0FBB1FA80FB91F4D915D916D917C91D1
:10063000139740835183628373830D931D932D938E
:100640003C9313971F910F9108958150823108F0C8
:100650005AC0E82FF0E08827EF5CFC4F8F4F0C94D6
:10066000921451035503430349034D038303580375
:100670005E03620368036C03700376037A038303EB
:100680007E0384038803809180008F7780938000AD
:100690000895809180008F7DF9CF80918000877FC1
:1006A000F5CF84B58F7784BD089584B58F7DFBCF5A
:1006B0008091B0008F778093B00008958091B00052
:1006C0008F7DF9CF809190008F778093900008956F
:1006D000809190008F7DF9CF80919000877FF5CF3A
:1006E0008091A0008F778093A00008958091A00052
:1006F0008F7DF9CF8091A000877FF5CF8091200179
:100700008F77809320010895809120018F7DF9CF0C
:1007100080912001877FF5CFCF93DF93282F30E0A2
:10072000F901EA59FD4F8491F901E05EFD4FD49142
:10073000F901E652FE4FC491CC23A1F081110E9431
:100740002503EC2FF0E0EE0FFF1FE054FE4FA591C4
:10075000B491EC91ED2381E090E009F480E0DF9129
:10076000CF91089580E090E0FACF862F0C948C030F
:100770001F93CF93DF93282F30E0F901EA59FD4F03
:100780008491F901E05EFD4FD491F901E652FE4FEC
:10079000C491CC23A9F0162F81110E942503EC2FC0
:1007A000F0E0EE0FFF1FEA55FE4FA591B4918FB711
:1007B000F894EC91111108C0D095DE23DC938FBF23
:1007C000DF91CF911F910895DE2BF8CF862F642FF4
:1007D0000C94B803CF93DF9390E0FC01E05EFD4FF3
:1007E000249186529E4FFC0184918823C9F090E0A9
:1007F000880F991FFC01E457FE4FA591B491FC01AD
:10080000EA55FE4FC591D49161110DC09FB7F89480
:100810008C91209582238C938881282328839FBFE5
:10082000DF91CF910895623051F49FB7F8943C91D5
:10083000822F809583238C93E8812E2BEFCF8FB767
:10084000F894EC912E2B2C938FBFEACF862F642F38
:100850000C94EA036F927F928F929F92AF92BF9215
:10086000CF92DF92EF92FF920F931F93CF93DF937C
:1008700081E0809353048FB7F8944091D70350914F
:10088000D8036091D9037091DA038FBF809143043C
:1008900090914404A0914504B0914604481B590B23
:1008A0006A0B7B0B80914F0490915004B0E0A0E064
:1008B00084179507A607B70708F01DC1C0E080910F
:1008C0004D04C81760F4E0914904F0914A04EC0F1C
:1008D000F11D62E080810E94EA03CF5FF0CF712CAE
:1008E000812C912C5401839480914E04781608F049
:1008F0005FC0072D10E0E0914B04F0914C04E00F35
:10090000F11F61E080810E94EA03E0914B04F091C5
:100910004C04E00FF11F60E080810E94B803D50114
:10092000C401072C04C0880F991FAA1FBB1F0A947B
:10093000D2F76C017C01E094F094612C80914D041D
:100940006816F8F4C62DD0E0E0914904F0914A040D
:10095000EC0FFD1F80810E948C032496CC0FDD1FBD
:10096000C951DC4F892B41F4888199818C299D29BB
:10097000998388836394E2CF888199818E219F2116
:10098000F7CFE0914B04F0914C04E00FF11F61E0D0
:1009900080810E94B80380914B0490914C04080F11
:1009A000191F60E0F80180810E94EA0373949CCFD4
:1009B000C7EED3E0FE018FEF9FEF278D30A1232BF1
:1009C00021F4148E968F858F11A2369624E0E3329F
:1009D000F20799F7F12C96E0D92E80914D04F81684
:1009E00008F050C0E12C0F2D10E0000F111F015135
:1009F0001C4F20914E04E21608F042C0F8016081BD
:100A000071810E2C02C0769567950A94E2F7F29EEA
:100A1000900111242E0D311DE7EEF3E080E0458DAD
:100A2000568D2417350709F46AC08F5F36968A30D1
:100A3000B1F760FF23C0E7EEF3E090E080E0448D83
:100A4000411117C0E0914704F0914804E20FF31FF1
:100A50004081D89EF001D99EF00D1124E951FC4F40
:100A6000448F368F258F10A2178E61E00E94DE0121
:100A700005C0019636968A30910509F7E394B9CFFF
:100A8000F394ABCF80E099A19111892F2696F4E0E1
:100A9000C332DF07C1F79FB7F8944091D703509155
:100AA000D8036091D9037091DA039FBF4093430448
:100AB0005093440460934504709346048823D9F00E
:100AC000809108048823B9F080910604909107046E
:100AD000019789F480910304DF91CF911F910F91C9
:100AE000FF90EF90DF90CF90BF90AF909F908F904E
:100AF0007F906F9008951092530480E0EDCF617065
:100B0000B5CF90917B00977F90937B00806480931A
:100B10007C0080917A00806480937A0080917A00D2
:100B200086FDFCCF809178009091790008953FB7C1
:100B3000F8948091440390914503A0914603B091AD
:100B4000470326B5A89B05C02F3F19F00196A11DAC
:100B5000B11D3FBFBA2FA92F982F8827BC01CD0107
:100B6000620F711D811D911D42E0660F771F881F66
:100B7000991F4A95D1F708958F929F92AF92BF9295
:100B8000CF92DF92EF92FF924B015C010E9497059A
:100B90006B017C010E9497056C197D098E099F09E4
:100BA000683E734081059105A8F321E0821A9108FF
:100BB000A108B10888EEC80E83E0D81EE11CF11C24
:100BC00081149104A104B10429F7FF90EF90DF9004
:100BD000CF90BF90AF909F908F900895AF92BF92AB
:100BE000CF92DF92EF92FF920F931F93CF93DF93F9
:100BF0006C017B018B01040F151FEB015E01AE1828
:100C0000BF08C017D10759F06991D601ED91FC9149
:100C10000190F081E02DC6011995892B79F7C50166
:100C2000DF91CF911F910F91FF90EF90DF90CF90C8
:100C3000BF90AF900895FC01918D828D981761F05F
:100C4000A28DAE0FBF2FB11D5D968C91928D9F5FCF
:100C50009F73928F90E008958FEF9FEF0895FC01AE
:100C6000918D828D981731F0828DE80FF11D858D61
:100C700090E008958FEF9FEF0895FC01918D228DF4
:100C8000892F90E0805C9F4F821B91098F73992779
:100C9000089586E594E00E943D0621E0892B09F441
:100CA00020E0822F0895FC01A48DA80FB92FB11D5B
:100CB000A35ABF4F2C91848D90E001968F73992792
:100CC000848FA689B7892C93A089B1898C9180647F
:100CD0008C93938D848D981306C00288F389E02D40
:100CE00080818F7D80830895EF92FF920F931F93F1
:100CF000CF93DF93EC0181E0888F9B8D8C8D9813CF
:100D000016C0E889F989808185FF11C0EE89FF89C5
:100D10006083E889F98980818064808381E090E044
:100D2000DF91CF911F910F91FF90EF900895F62ED4
:100D30000B8D10E00F5F1F4F0F731127E02E8C8D6E
:100D40008E110CC00FB607FCFACFE889F9898081B3
:100D500085FFF5CFCE010E945306F1CFEB8DEC0F4E
:100D6000FD2FF11DE35AFF4FF0820B8FEA89FB89BB
:100D700080818062D2CFCF93DF93EC01888D88236E
:100D8000B9F0AA89BB89E889F9898C9185FD03C0EE
:100D9000808186FD0DC00FB607FCF7CF8C9185FFD3
:100DA000F2CF808185FFEDCFCE010E945306E9CFBF
:100DB000DF91CF91089580E090E0892B29F00E9487
:100DC000490681110E94000080E090E0892B49F0E3
:100DD00080E090E0892B29F00E94000081110E94A0
:100DE000000080E090E0892B49F080E090E0892BC2
:100DF00029F00E94000081110E94000080E090E034
:100E0000892B49F080E090E0892B29F00E940000B6
:100E100081110C9400000895CF93FC01C48121E05E
:100E200020936A03C09332031092680310926903FF
:100E30008385682B8BED93E00E94D102909169032A
:100E4000913208F03FC08091B1038111FCCF82E064
:100E50008093B10381E08093B3038FEF8093B0035D
:100E60001092D5039093D403A8E4B3E0E4EBF3E04D
:100E700080E098132FC01092D6038091D603CC0F38
:100E8000C82BC093D6038091B203813039F51092FC
:100E9000B2038091D6038093BB008091BC0083FD98
:100EA000F8CF85EC8093BC008091B1038230E1F3F0
:100EB0008091B0038F3F31F08091B003803211F008
:100EC0008091B003109268031092690310926A0334
:100ED000CF9108952D9121938F5FCBCF85EEE2CFF7
:100EE0006F927F928F929F92AF92BF92CF92DF923A
:100EF000EF92FF920F931F93CF93DF93CDB7DEB79F
:100F00002C970FB6F894DEBF0FBECDBF80E00E94D5
:100F10008105BC01990F880B990B0E946B132091DE
:100F20003003309131032330310521F41092310325
:100F3000109230030091350310913603E090300396
:100F4000F0903103F701EE0FFF1FEE0FFF1FE00FD0
:100F5000F11F6083718382839383F801A080B18045
:100F6000C280D38064807580868097809301A401BD
:100F7000B501C6010E941B1418164CF441E050E064
:100F800070E060E0C8010E94000353016401950114
:100F9000A601F80160857185828593850E94C31240
:100FA00087FF07C042E050E070E060E0C8010E94A7
:100FB0000003F80124813581468157816085718560
:100FC000828593850E94C31287FF07C041E050E0ED
:100FD00062E070E0C8010E940003F801448155817D
:100FE000668177818091330390913403FC01048101
:100FF00015812681378100871187228733870081F9
:1010000011812281338104831583268337834083B2
:10101000518362837383FFEFEF1AFF0AF09231036B
:10102000E09230032CE0E6E2F2E0DE01119601905E
:101030000D922A95E1F79E012F5F3F4F79018C01B8
:101040006C013CE0C30ED11C812C912C5401F701A2
:1010500061917191819191917F01F801219131917B
:10106000419151918F010E9420149B01AC01C50157
:10107000B4010E9457124B015C01C016D10639F72A
:1010800020E030E040E450E40E94C81260933B034B
:1010900070933C0380933D0390933E03609337032A
:1010A000709338038093390390933A032C960FB6CC
:1010B000F894DEBF0FBECDBFDF91CF911F910F918E
:1010C000FF90EF90DF90CF90BF90AF909F908F9068
:1010D0007F906F9008950E942A04811180930002EE
:1010E0000895CF92DF92EF92FF92C0903F03D0908D
:1010F0004003E0904103F090420320E030E040EDF7
:1011000051E4C701B6010E941B1487FD11C089E09C
:101110000E948C03019761F060E088E00E94B803B0
:1011200061E089E0FF90EF90DF90CF900C94B803DE
:1011300020E030E040EC51E4C701B6010E94C31248
:1011400018168CF089E00E948C03019761F488E006
:101150000E948C03019739F060E089E00E94B80397
:1011600061E088E0DFCFFF90EF90DF90CF900895AF
:101170000E942A048823E1F30895682F86E594E00D
:101180000C9474068DE00E948C0321E030E00197FE
:1011900011F030E020E0C9010895809100028A3208
:1011A00049F40E94C20860E0892B09F461E08DE0F7
:1011B0000C94B803089587E00E948C03019749F4CA
:1011C0000E94C20860E0892B09F461E08DE00C9474
:1011D000B8030895CF93C82F61E00E94EA0360E04E
:1011E0008C2FCF910C94B80389E090E00E94EA081C
:1011F00088E090E00E94EA088FE090E00E94EA0810
:101200008DE090E00E94EA088EE090E00C94EA08FD
:10121000FB0101900020E9F73197AF01461B570B06
:10122000DC01ED91FC910280F381E02D19948F9205
:101230009F92AF92BF92EF92FF920F931F93CF9323
:10124000DF93CDB7DEB7A1970FB6F894DEBF0FBE20
:10125000CDBF7C01FA01CB0119A2223008F42AE0AB
:101260008E010F5D1F4F822E912CB12CA12CBF013E
:10127000A50194010E943412F901CA016A300CF5EB
:10128000605DD8016E938D01232B242B252B79F7DC
:1012900090E080E0109721F0BD01C7010E9408098D
:1012A000A1960FB6F894DEBF0FBECDBFDF91CF91F0
:1012B0001F910F91FF90EF90BF90AF909F908F90F4
:1012C0000895695CDECF64E872E086E594E00E94F0
:1012D000080965E972E086E594E00E94080981E06A
:1012E0000E948105BC01990F880B990B0E946B131A
:1012F00020E030E040E85AE30E94201420E030E48F
:101300004CE955E40E94201420E030E040E251E432
:101310000E94C81260933F0370934003809341037F
:101320009093420308952F923F924F925F926F9253
:101330007F928F929F92AF92BF92CF92DF92EF9265
:10134000FF921F93CF93DF93EC016A017B01722E12
:10135000AB019601CB01B6010E948D1468E972E0E1
:10136000811126C046015701E894B7F82FEF3FEFEF
:101370004FE75FE7C501B4010E948D1481110CC0D5
:101380002FEF3FEF4FE75FE7C501B4010E94C312A3
:101390006CE972E0181664F02FEF3FEF4FE75FE45F
:1013A000C701B6010E941B141816B4F460EA72E07B
:1013B000CE01DF91CF911F91FF90EF90DF90CF9002
:1013C000BF90AF909F908F907F906F905F904F9065
:1013D0003F902F900C9408092FEF3FEF4FE75FEC01
:1013E000C701B6010E94C31287FDE0CF20E030E0C4
:1013F000A901C701B6010E94C312312C212C87FF1D
:101400000DC0E881F9810190F081E02D6DE2CE01FF
:1014100019951C01F7FAF094F7F8F09410E060E0E9
:1014200070E080E09FE3711641F020E030E040E2A0
:1014300051E40E94C8121F5FF6CFA70196010E94D7
:1014400057122B013C010E943A134B015C012AE028
:10145000BC01A401CE010E9417097C01E20CF31C1F
:101460001123E1F1C501B4010E9469139B01AC0194
:10147000C301B2010E9456124B015C01E881F9815F
:101480000190F081E02D6EE2CE011995E80EF91E73
:10149000115020F120E030E040E251E4C501B401F8
:1014A0000E9420142B013C010E943A134B01B12CE5
:1014B000A12C2AE0B501A401CE010E941709E80E73
:1014C000F91EC501B4010E9469139B01AC01C3015F
:1014D000B2010E9456124B015C01DACFC701DF91C5
:1014E000CF911F91FF90EF90DF90CF90BF90AF9082
:1014F0009F908F907F906F905F904F903F902F9034
:1015000008950F931F93CF938C01C62F0E940C0751
:101510006C2F6460C8010E940C076C2F6B7FC801A0
:101520000E940C0783EC90E00197F1F7CF911F9197
:101530000F9108950F931F93CF93DF938C01D62FB4
:10154000C42F607F642B0E94810A80E1D89FB00184
:1015500011246C2BC801DF91CF911F910F910C9436
:10156000810ACF93DF9300D000D01F921F92CDB796
:10157000DEB798E0E2E3F2E0DE01119601900D9211
:101580009A95E1F79091FB04961710F46FEF690FAD
:10159000262F30E0220F331F41E050E04C0F5D1F3B
:1015A000240F351FF9016081680F606840E083EF08
:1015B00094E028960FB6F894DEBF0FBECDBFDF9142
:1015C000CF910C949A0A41E00E949A0A81E090E03F
:1015D00008951F920F920FB60F9211240BB60F921F
:1015E0002F933F934F935F936F937F938F939F932B
:1015F000AF93BF93EF93FF938091B900887F8036BC
:1016000009F44DC008F040C0883209F4A7C028F59D
:10161000803109F49BC0C8F4882309F4F7C08830EE
:1016200009F494C0FF91EF91BF91AF919F918F9179
:101630007F916F915F914F913F912F910F900BBED2
:101640000F900FBE0F901F901895883109F486C037
:10165000803241F78093B00314C0803409F49BC0FA
:1016600040F48033B9F38833E9F68093B00385EC16
:10167000AEC0803509F483C0883509F494C088343D
:1016800089F60E944E02CECF883909F48AC038F517
:10169000883729F050F4883611F0803719F683E046
:1016A0008093B1031092AF0355C0883809F479C014
:1016B000803919F0803809F0B5CF8091AF038032BE
:1016C00008F06FC0E091AF0381E08E0F8093AF030D
:1016D0008091BB00F0E0E157FC4F80833BC0803B32
:1016E00039F0D0F4803A09F477C0883A09F09ACFFB
:1016F00084E08093B10310928E0310928D03F0E08A
:10170000E0E0199580918D0381110FC081E08093F5
:101710008D0310926D0309C0803C09F4A8CF883C6A
:1017200009F4A5CF883B09F07DCFE0918E0381E0DD
:101730008E0F80938E03F0E0E359FC4F80818093FD
:10174000BB0090918E0380918D0329C08091D603B8
:101750008093BB0085EC8093BC0064CF9091D5034F
:101760008091D403981758F5E091D50381E08E0F4E
:101770008093D503F0E0EC54FC4F8081E9CFE091F9
:10178000D50381E08E0F8093D5038091BB00F0E0FC
:10179000EC54FC4F80839091D5038091D40398172B
:1017A000C8F285E8D8CFE091D50381E08E0F809311
:1017B000D5038091BB00F0E0EC54FC4F8083809116
:1017C000B30381115ECF81E08093B20384EA8093FA
:1017D000BC001092B10326CF85EC8093BC00109220
:1017E000B1038091AF03803230F4E091AF03F0E0B9
:1017F000E157FC4F10826091AF0370E08FE893E0F7
:10180000F0E0E0E019951092AF030CCF1092B00316
:1018100038CF1F920F920FB60F9211242F933F9340
:101820008F939F93AF93BF938091D7039091D803E9
:10183000A091D903B091DA033091430323E0230F41
:101840002D3758F50196A11DB11D209343038093B8
:10185000D7039093D803A093D903B093DA03809170
:10186000440390914503A0914603B091470301962C
:10187000A11DB11D8093440390934503A09346039B
:10188000B0934703BF91AF919F918F913F912F915B
:101890000F900FBE0F901F90189526E8230F029609
:1018A000A11DB11DD2CF1F920F920FB60F9211241E
:1018B0000BB60F922F933F934F935F936F937F934A
:1018C0008F939F93AF93BF93EF93FF9386E594E03D
:1018D0000E945306FF91EF91BF91AF919F918F911D
:1018E0007F916F915F914F913F912F910F900BBE20
:1018F0000F900FBE0F901F9018951F920F920FB66A
:101900000F9211240BB60F922F938F939F93EF9307
:10191000FF93E0916604F09167048081E0916C048C
:10192000F0916D0482FD1DC0908180916F048F5FE6
:101930008F7320917004821741F0E0916F04F0E002
:10194000EA5AFB4F958F80936F04FF91EF919F911F
:101950008F912F910F900BBE0F900FBE0F901F9085
:1019600018958081F2CF1F920F920FB60F9211241B
:101970000BB60F922F933F934F935F936F937F9389
:101980008F939F93AF93BF93EF93FF930E948A012E
:10199000FF91EF91BF91AF919F918F917F916F9147
:1019A0005F914F913F912F910F900BBE0F900FBE03
:1019B0000F901F9018951F920F920FB60F9211243F
:1019C0000BB60F922F933F934F935F936F937F9339
:1019D0008F939F93AF93BF93EF93FF930E948A01DE
:1019E000FF91EF91BF91AF919F918F917F916F91F7
:1019F0005F914F913F912F910F900BBE0F900FBEB3
:101A00000F901F9018951F920F920FB60F921124EE
:101A10000BB60F922F933F934F935F936F937F93E8
:101A20008F939F93AF93BF93EF93FF930E948A018D
:101A3000FF91EF91BF91AF919F918F917F916F91A6
:101A40005F914F913F912F910F900BBE0F900FBE62
:101A50000F901F9018951F920F920FB60F9211249E
:101A60000BB60F922F933F934F935F936F937F9398
:101A70008F939F93AF93BF93EF93FF930E948A013D
:101A8000FF91EF91BF91AF919F918F917F916F9156
:101A90005F914F913F912F910F900BBE0F900FBE12
:101AA0000F901F9018951092DE031092DD0388EEC0
:101AB00093E0A0E0B0E08093DF039093E003A09375
:101AC000E103B093E20386E592E09093DC03809318
:101AD000DB031092E9031092ED031092EC031092D5
:101AE000EE0386E692E09093E8038093E703E3E059
:101AF000F4E01082148213821582369684E0EF336C
:101B0000F807B9F780E192E090934A048093490482
:101B10008DE092E090934C0480934B0484E080939A
:101B20004D0483E080934E0484E192E09093480456
:101B3000809347048AE090E09093500480934F0490
:101B400084EF91E0909352048093510410925504D5
:101B500010925404109243041092440410924504CD
:101B60001092460410925304109259041092580493
:101B700088EE93E0A0E0B0E080935A0490935B0479
:101B8000A0935C04B0935D0480E792E090935704C7
:101B90008093560485EC90E09093630480936204F4
:101BA00084EC90E0909365048093640480EC90E072
:101BB000909367048093660481EC90E090936904AD
:101BC0008093680482EC90E090936B0480936A04A5
:101BD00086EC90E090936D0480936C0410926F04F7
:101BE0001092700410927104109272041092F60414
:101BF0001092F50480E892E09093F4048093F3044B
:101C000087E28093F70480E18093FC0482E0809374
:101C1000FD041092FE040895789484B5826084BD1A
:101C200084B5816084BD85B5826085BD85B58160E0
:101C300085BD80916E00816080936E00109281005E
:101C40008091810082608093810080918100816019
:101C500080938100809180008160809380008091DA
:101C6000B10084608093B1008091B0008160809366
:101C7000B0008091910082608093910080919100EA
:101C800081608093910080919000816080939000AA
:101C90008091A10082608093A1008091A100816069
:101CA0008093A1008091A00081608093A00080912A
:101CB00021018260809321018091210181608093C4
:101CC00021018091200181608093200180917A0020
:101CD000846080937A0080917A00826080937A0099
:101CE00080917A00816080937A0080917A00806888
:101CF00080937A001092C100E0916604F09167042D
:101D000082E08083E0916204F09163041082E091AC
:101D10006404F09165048FEC808310926E04E0916E
:101D20006A04F0916B0486E08083E0916804F0918E
:101D30006904808180618083E0916804F091690486
:101D4000808188608083E0916804F09169048081DB
:101D500080688083E0916804F091690480818F7DC0
:101D6000808370E060E08DEB98E00E94A11061E05C
:101D700070E088EB98E00E94A1100E94F4080E9495
:101D8000F4080E94F40861E08AE00E94EA0361E03E
:101D90008BE00E94EA0361E08CE00E94EA0361E0CC
:101DA0008DE00E94EA0361E086E10E94EA0361E0BF
:101DB00088E10E94EA0360E08BE00E94B80361E0E2
:101DC0008CE00E94B80361E08AE00E94EA0360E0D0
:101DD0008AE00E94B80384EA92E09F938F930E9466
:101DE0009A148CE090E00E940811EC019093360365
:101DF000809335038CE090E00E940811FC019093E1
:101E0000340380933303188219821A821B821C8246
:101E10001D821E821F82188619861A861B861082D2
:101E20001182128213821482158216821782108602
:101E300011861286138610926C0310926B03109217
:101E40006803109269031092B10381E08093B30399
:101E50001092B20361E084E10E94B80361E085E181
:101E60000E94B8038091B9008E7F8093B900809161
:101E7000B9008D7F8093B90088E48093B80085E431
:101E80008093BC001092F8048091FD040F900F9095
:101E9000823018F098E09093F8048093FB0462E39A
:101EA00070E080E090E00E94BC056091FE0483EF4A
:101EB00094E00E940C0768EE73E080E090E00E94DE
:101EC000BC0560E383EF94E00E94810ACBE4D6E492
:101ED000CE010197F1F760E383EF94E00E94810A5D
:101EE0002197F1F760E383EF94E00E94810A83E594
:101EF00092E00197F1F760E283EF94E00E94810A9B
:101F00006091F804606240E083EF94E00E949A0AD6
:101F100084E08093F90440E06CE083EF94E00E9459
:101F20009A0A40E061E083EF94E00E949A0ACBE3D2
:101F3000DFE1CE010197F1F782E08093FA0440E0FF
:101F400066E083EF94E00E949A0A40E062E083EF4B
:101F500094E00E949A0A2197F1F788E08093FE04AA
:101F600060E083EF94E00E940C0786EB92E09F9381
:101F70008F930E949A1468EE73E080E090E00E94D4
:101F8000BC051092200110922101809121018860EE
:101F900080932101809121018260809321018FEC47
:101FA00097E09093290180932801109225011092C7
:101FB0002401D19A809173008260809373000F9006
:101FC0000F9089ECE82E82E0F82E98EDC92E92E071
:101FD000D92E2BEEA22E22E0B22E0BE013E0C8E1A8
:101FE000D3E0FF92EF920E949A1440913F035091E8
:101FF0004003609141037091420322E086E594E042
:102000000E94930980910002282F082E000C330BA8
:102010003F938F93DF92CF920E949A141F921F9248
:10202000BF92AF920E949A146CEF72E086E594E042
:102030000E94080965E972E086E594E00E940809BB
:102040000E94C2082C01990F660877088DB79EB7C9
:102050000A960FB6F8949EBF0FBE8DBF2AE0B3015B
:10206000A20177FE0DC06DE286E594E00E94740641
:1020700044275527BA0144195509660977092AE00A
:1020800086E594E00E94170965E972E086E594E030
:102090000E9408091F930F930E949A1440913B03DA
:1020A00050913C0360913D0370913E0322E086E530
:1020B00094E00E949309DF93CF930E949A14409179
:1020C0003703509138036091390370913A0322E04D
:1020D00086E594E00E94930960E080E00E94B10AE6
:1020E00061E273E083EF94E00E94080940913F03AE
:1020F00050914003609141037091420322E083EFCD
:1021000094E00E94930961E080E00E94B10A68E2D5
:1021100073E083EF94E00E94080940913B035091E3
:102120003C0360913D0370913E0322E083EF94E015
:102130000E9493090E94DB060F900F900F900F9062
:1021400050CF0F931F93CF93DF93009759F46115EE
:10215000710541F4F0E0E0E0CF01DF91CF911F91F4
:102160000F9108958B01EC016EE070E081E090E04A
:102170000E94EC10FC01892B69F380E88383011530
:10218000110571F01387028781E883838091FF0432
:1021900090910005892B21F4F0930005E093FF0452
:1021A0002097D1F2D187C087838182608383809119
:1021B000010590910205892B79F6F0930205E093D1
:1021C00001058091030590910405892B29F6F09370
:1021D0000405E0930305C0CF0F931F93CF93DF93C4
:1021E000869F8001879F100D969F100D1124C801B6
:1021F0000E940811EC01009729F0A80170E060E04E
:102200000E942D12CE01DF91CF911F910F91089561
:102210000F931F93CF93DF938230910510F482E0E8
:1022200090E0E0910705F091080530E020E0B0E093
:10223000A0E0309799F42115310509F44AC0281B14
:10224000390B24303105D8F58A819B8161157105E0
:1022500089F1FB0193838283FE0111C0408151818A
:102260000281138148175907E0F04817590799F47C
:10227000109761F012960C93129713961C93329656
:10228000CF01DF91CF911F910F9108950093070522
:1022900010930805F4CF2115310551F0421753076B
:1022A00038F0A901DB019A01BD01DF01F801C1CFBE
:1022B000EF01F9CF9093080580930705CDCFFE017C
:1022C000E20FF31F819391932250310939832883C0
:1022D000D7CF2091050530910605232B41F420919D
:1022E00022023091230230930605209305052091A8
:1022F0002002309121022115310541F42DB73EB75E
:102300004091240250912502241B350BE0910505D4
:10231000F0910605E217F307A0F42E1B3F0B2817D8
:10232000390778F0AC014E5F5F4F2417350748F04E
:102330004E0F5F1F509306054093050581939193BF
:102340009FCFF0E0E0E09CCFCF93DF930097E9F0E0
:10235000FC01329713821282A0910705B091080503
:10236000ED0130E020E01097A1F420813181820F4F
:10237000931F20910505309106052817390709F0AC
:1023800061C0F0930605E0930505DF91CF910895B4
:10239000EA01CE17DF07E8F54A815B819E0141150E
:1023A0005105B1F7E901FB83EA8349915991C40FC3
:1023B000D51FEC17FD0761F4808191810296840F8F
:1023C000951FE90199838883828193819B838A8306
:1023D000F0E0E0E012968D919C9113970097B9F58B
:1023E0002D913C911197CD010296820F931F209160
:1023F0000505309106052817390739F6309751F54C
:102400001092080510920705B0930605A0930505E4
:10241000BCCFD383C28340815181840F951FC817DD
:10242000D90761F44E5F5F4F88819981480F591F2A
:10243000518340838A819B81938382832115310557
:1024400009F0B0CFF0930805E09307059ECFFD019A
:10245000DC01C0CF13821282D7CFDC0101C06D93A3
:1024600041505040E0F70895A1E21A2EAA1BBB1B71
:10247000FD010DC0AA1FBB1FEE1FFF1FA217B30750
:10248000E407F50720F0A21BB30BE40BF50B661F66
:10249000771F881F991F1A9469F76095709580952A
:1024A00090959B01AC01BD01CF0108955058BB2709
:1024B000AA270E946E120C94E1130E94D31338F0E5
:1024C0000E94DA1320F039F49F3F19F426F40C949B
:1024D000D0130EF4E095E7FB0C94CA13E92F0E9489
:1024E000F21358F3BA17620773078407950720F0B1
:1024F00079F4A6F50C9414140EF4E0950B2EBA2F73
:10250000A02D0B01B90190010C01CA01A0011124F9
:10251000FF27591B99F0593F50F4503E68F11A16A5
:10252000F040A22F232F342F4427585FF3CF469536
:1025300037952795A795F0405395C9F77EF41F1658
:10254000BA0B620B730B840BBAF09150A1F0FF0F22
:10255000BB1F661F771F881FC2F70EC0BA0F621F0E
:10256000731F841F48F4879577956795B795F795FE
:102570009E3F08F0B0CF9395880F08F09927EE0F93
:102580009795879508950E94A61308F481E0089511
:102590000E94DC120C94E1130E94DA1358F00E949E
:1025A000D31340F029F45F3F29F00C94CA13511162
:1025B0000C9415140C94D0130E94F21368F3992311
:1025C000B1F3552391F3951B550BBB27AA2762172F
:1025D0007307840738F09F5F5F4F220F331F441F3C
:1025E000AA1FA9F335D00E2E3AF0E0E832D0915070
:1025F0005040E695001CCAF72BD0FE2F29D0660F5D
:10260000771F881FBB1F261737074807AB07B0E89F
:1026100009F0BB0B802DBF01FF2793585F4F3AF0A5
:102620009E3F510578F00C94CA130C9415145F3F2B
:10263000E4F3983ED4F3869577956795B795F7952B
:102640009F5FC9F7880F911D9695879597F9089513
:10265000E1E0660F771F881FBB1F621773078407AF
:10266000BA0720F0621B730B840BBA0BEE1F88F7BE
:10267000E09508950E94FA1388F09F5798F0B92FBB
:102680009927B751B0F0E1F0660F771F881F991FA7
:102690001AF0BA95C9F714C0B13091F00E94141421
:1026A000B1E008950C941414672F782F8827B85F31
:1026B00039F0B93FCCF3869577956795B395D9F7FF
:1026C0003EF490958095709561957F4F8F4F9F4F09
:1026D0000895E89409C097FB3EF490958095709515
:1026E00061957F4F8F4F9F4F9923A9F0F92F96E95E
:1026F000BB279395F695879577956795B795F111D3
:10270000F8CFFAF4BB0F11F460FF1BC06F5F7F4F6F
:102710008F4F9F4F16C0882311F096E911C0772381
:1027200021F09EE8872F762F05C0662371F096E88A
:10273000862F70E060E02AF09A95660F771F881F59
:10274000DAF7880F9695879597F90895990F0008FD
:10275000550FAA0BE0E8FEEF16161706E807F90773
:10276000C0F012161306E407F50798F0621B730B0E
:10277000840B950B39F40A2661F0232B242B252B8F
:1027800021F408950A2609F4A140A6958FEF811D32
:10279000811D089597F99F6780E870E060E00895D3
:1027A0009FEF80EC089500240A9416161706180669
:1027B0000906089500240A94121613061406050645
:1027C0000895092E0394000C11F4882352F0BB0FD6
:1027D00040F4BF2B11F460FF04C06F5F7F4F8F4F39
:1027E0009F4F089557FD9058440F551F59F05F3F74
:1027F00071F04795880F97FB991F61F09F3F79F023
:1028000087950895121613061406551FF2CF4695A4
:10281000F1DF08C0161617061806991FF1CF869526
:102820007105610508940895E894BB27662777270A
:10283000CB0197F908950E94A61308F48FEF08952D
:102840000E9433140C94E1130E94D31338F00E94B9
:10285000DA1320F0952311F00C94CA130C94D013C2
:1028600011240C9415140E94F21370F3959FC1F378
:10287000950F50E0551F629FF001729FBB27F00D2E
:10288000B11D639FAA27F00DB11DAA1F649F662783
:10289000B00DA11D661F829F2227B00DA11D621FD2
:1028A000739FB00DA11D621F839FA00D611D221F8C
:1028B000749F3327A00D611D231F849F600D211D70
:1028C000822F762F6A2F11249F5750409AF0F1F0F3
:1028D00088234AF0EE0FFF1FBB1F661F771F881F5C
:1028E00091505040A9F79E3F510580F00C94CA13B7
:1028F0000C9415145F3FE4F3983ED4F386957795D6
:102900006795B795F795E7959F5FC1F7FE2B880F01
:10291000911D9695879597F908950E94A613880BA7
:10292000990B0895EE0FFF1F881F8BBF0790F6913C
:10293000E02D1994CF93DF93CDB7DEB7AE014A5F98
:102940005F4FFA0161917191AF0180910105909102
:1029500002050E94AE14DF91CF9108952F923F920D
:102960004F925F926F927F928F929F92AF92BF929F
:10297000CF92DF92EF92FF920F931F93CF93DF934B
:1029800000D000D000D01F921F92CDB7DEB77C01DF
:102990003B018A01FC0117821682838181FFDDC120
:1029A000CE0101965C01F7019381F30193FD8591BE
:1029B00093FF81913F01882309F453C1853239F493
:1029C00093FD859193FF81913F01853229F4B701F1
:1029D00090E00E94C616E7CF912C212C312CFFE10C
:1029E000F31538F08B3211F190F4803209F1833213
:1029F00029F137FC3CC020ED280F2A3050F536FE77
:102A000020C08AE0989E200D1124922E06C08D329F
:102A100091F0803371F7689430F8F30193FD85915C
:102A200093FF81913F018111DACF21C0689431F881
:102A3000689432F8F2CF689433F8EFCF689434F8A2
:102A4000ECCFEAE02E9E200D1124222E689435F85A
:102A5000E4CF8E3229F436FC04C1689436F8DDCF19
:102A60008C3619F4689437F8D8CF8836B1F2982F9D
:102A70009F7D95549330E0F08336A1F18337C1F107
:102A8000833509F063C02801F2E04F0E511CF801B4
:102A9000C080D180692D70E036FC02C06FEF7FEFFF
:102AA000C6010E94B0164C01689437F882010AC032
:102AB0000C5F1F4FFFE3F98388248394912C6501F9
:102AC000E89437F833FE2DC0522C8114910471F52F
:102AD000552009F468CFB70180E290E00E94C61645
:102AE0005A94F6CFF801808189830E5F1F4FE4CF9F
:102AF0002801F2E04F0E511CF801C080D180692DF1
:102B000070E036FC02C06FEF7FEFC6010E94BB167B
:102B10004C018201D5CFB70180E290E00E94C61639
:102B20002A942814190409F0B0F7CECFF60137FC27
:102B3000859137FE81916F01B70190E00E94C61622
:102B400051105A94F1E08F1A9108BFCF843619F0D2
:102B5000893609F077C0F80137FE6BC0608171815A
:102B6000828193810C5F1F4FF32DFF763F2E97FFDD
:102B700009C090958095709561957F4F8F4F9F4FBD
:102B8000689437F82AE030E0A5010E94F616C82EB6
:102B9000CA188C2C432C36FE0CC0E89440F8C9149B
:102BA00040F434FE05C032FC03C0F32DFE7E4F2EF0
:102BB000892C44FEAAC0FE01EC0DF11D80818033FA
:102BC00009F09CC0242D297E422E842D8870582E19
:102BD00043FCAAC040FEA4C09C2C821418F42C0C08
:102BE000922C981844FEA6C0B70180E390E00E94A2
:102BF000C61642FE09C088E790E041FE02C088E5A3
:102C000090E0B7010E94C616C91408F49FC0CA9488
:102C1000D12C9FEFC91AD90ACA0CDB1CF60182918C
:102C20006F01B70190E00E94C616AC14BD04B1F765
:102C30004FCF60817181072E000C880B990B0E5FBE
:102C40001F4F92CFD32CE894D4F82AE030E0853798
:102C5000E1F1232D297FD22E8F36A9F1F0F48835AA
:102C600051F1F701868197812B960FB6F894DEBF5C
:102C70000FBECDBFDF91CF911F910F91FF90EF90CD
:102C8000DF90CF90BF90AF909F908F907F906F908C
:102C90005F904F903F902F900895803749F088378C
:102CA00001F7D4FE02C06894D2F820E130E00DC0F4
:102CB0006894D4F8F6CF34FE03C0822F8660D82EF5
:102CC00020E132E002C028E030E0F801D7FE0FC07A
:102CD00060817181828193810C5F1F4FA5010E94E9
:102CE000F616C82ECA183D2CE89437F852CF6081EA
:102CF000718190E080E00E5F1F4FF0CF42FC02C078
:102D0000839463CF8394839460CF842D867809F471
:102D10005CCFF6CFB70180E290E00E94C6168394A4
:102D20008214C0F3512C5ECF522C5818821408F430
:102D300059CFF8CF842D867809F466CF8BE241FE17
:102D400080E247FC8DE2B70190E05CCFB70180E301
:102D500090E00E94C6169A9457CF8FEF9FEF84CFD2
:102D6000FC010590615070400110D8F78095909556
:102D70008E0F9F1F0895FC0161507040019001105B
:102D8000D8F7809590958E0F9F1F08950F931F93EE
:102D9000CF93DF93182F092FEB018B8181FD09C0A1
:102DA0001FEF0FEF812F902FDF91CF911F910F9188
:102DB000089582FF14C02E813F818C819D81281748
:102DC00039073CF4E881F981CF0101969983888322
:102DD00010838E819F8101969F838E83E3CFE88548
:102DE000F985812F1995892BA1F3DACFFA01AA274A
:102DF000283051F1203181F1E8946F936E7F6E5F3E
:102E00007F4F8F4F9F4FAF4FB1E03ED0B4E03CD0EB
:102E1000670F781F891F9A1FA11D680F791F8A1FCE
:102E2000911DA11D6A0F711D811D911DA11D20D035
:102E300009F468943F912AE0269F11243019305DEF
:102E40003193DEF6CF010895462F4770405D4193E0
:102E5000B3E00FD0C9F7F6CF462F4F70405D4A332D
:102E600018F0495D31FD4052419302D0A9F7EACFF5
:102E7000B4E0A6959795879577956795BA95C9F724
:102E800000976105710508959B01AC010A2E069417
:102E90005795479537952795BA95C9F7620F731FD0
:0C2EA000841F951FA01D0895F894FFCF1B
:102EAC002DDC05D007E803E8032C01E803181716FE
:102EBC00191A1B1C3132333435363738392A302342
:102ECC000000090580000000803E0000003F00006B
:102EDC00403F0000400014005400E803102782001B
:102EEC00E803E803B80B630971086B08CD08DB082D
:102EFC00700700000000D102A4029D028E02800225
:102F0C007F02000000002604E603B5030000000069
:102F1C007406EE053D061B062F06BB0600000000DE
:102F2C00E30AEE05526561642074656D706572612B
:102F3C0074757265000D0A006E616E00696E660034
:102F4C006F7666004C696768742073656E736F7278
:102F5C0020696E697400496E697469616C697A697B
:102F6C006E672074696D6572000A0D54656D70652D
:102F7C007261747572653A000A0D204368617220A3
:102F8C006B65797061643A202563000A0D436861B2
:102F9C00722073657269616C3A2563004973206C09
:102FAC0069676874206F6E3F3F3F004C69676874B7
:102FBC002076616C75653A00206C756D656E733AA0
:102FCC000054656D703A20004C696768743A2000B3
:00000001FF
