:100000000C9462000C948A000C948A000C948A0070
:100010000C948A000C948A000C948A000C948A0038
:100020000C948A000C948A000C948A000C94DC08CE
:100030000C948A000C948A000C948A000C948A0018
:100040000C943A080C948A000C94AA080C94840826
:100050000C948A000C948A000C948A000C948A00F8
:100060000C941F070C948A00000000002400270055
:100070002A0000000000250028002B0000000000DE
:1000800023002600290004040404040404040202DA
:100090000202020203030303030301020408102007
:1000A0004080010204081020010204081020000012
:1000B0000008000201000003040700000000000027
:1000C00000002E0911241FBECFEFD8E0DEBFCDBF48
:1000D00012E0A0E0B1E0EEE5F5E202C005900D927D
:1000E000AA31B107D9F723E0AAE1B2E001C01D921D
:1000F000AB3EB207E1F710E0C2E6D0E004C02197C2
:10010000FE010E94D30FC136D107C9F70E94E7094B
:100110000C94AD120C94000096E0899FD00111243C
:10012000A753BD4F90967C936E935F9791E0919605
:100130009C939197E0913603F091370390913503AA
:10014000992339F0309751F0811108C08091E50270
:100150000994309719F05C968C91FACF0895CF925C
:10016000DF92EF92FF920F931F9396E0899FF00129
:100170001124E753FD4F11A2278D30A12130310505
:1001800051F178F02230310509F451C023303105A6
:1001900009F452C01F910F91FF90EF90DF90CF9024
:1001A00008956623B9F361E070E00E948C002FB7D8
:1001B000F8948091B9029091BA02A091BB02B091DB
:1001C000BC022FBF8093210390932203A0932303AB
:1001D000B0932403DFCF9FB7F894C090B902D090BA
:1001E000BA02E090BB02F090BC029FBF00912103D5
:1001F000109122032091230330912403C01AD10AC5
:10020000E20AF30A009133031091340330E020E056
:100210000C151D052E053F0550F462E070E01F919E
:100220000F91FF90EF90DF90CF900C948C006111B4
:10023000B1CF63E070E0F3CF70E060E0F0CF85ED28
:100240008093BC008091BC0084FDFCCF109293028F
:10025000089520916F02260F3327331F2132310575
:10026000ECF420919302FC0190E080E0243069F0EE
:1002700082E00895A0916F022191AC01415B5D4F36
:10028000A40FB52FB11D2C930196861798F380917A
:100290006F02680F60936F0280E0089581E0089517
:1002A00008958FEF9FEF08958FEF9FEF089580914E
:1002B0004E0290E09195819591090895CF92DF9239
:1002C000EF92FF920F931F93CF93DF937C01CB01AB
:1002D0008A0120914D02222389F0EB016B01C40EAB
:1002E000D51ECC15DD0569F06991D701ED91FC9122
:1002F0000190F081E02DC7010995F3CF642F0E9492
:100300002901C801DF91CF911F910F91FF90EF90CC
:10031000DF90CF900895CF93DF931F92CDB7DEB7D4
:10032000698320914D022223F9F020914C02203262
:1003300058F021E030E0FC013383228390E080E03C
:100340000F90DF91CF91089580914B02E82FF0E05C
:10035000E55DFD4F998190838F5F80934B02809381
:100360004C0281E090E0ECCF61E0CE0101960E946A
:100370002901F7CFCF93FC01C48121E020934D02E6
:10038000C0932A0210924B0210924C028385682B74
:100390008DEB92E00E948B0190914C02913208F01B
:1003A0003FC0809193028111FCCF82E08093930241
:1003B00081E0809395028FEF809392021092B702B2
:1003C0009093B602ABE2B2E0E6E9F2E080E0981387
:1003D0002FC01092B8028091B802CC0FC82BC093E6
:1003E000B80280919402813039F510929402809184
:1003F000B8028093BB008091BC0083FDF8CF85ECF0
:100400008093BC00809193028230E1F3809192024C
:100410008F3F31F080919202803211F080919202F0
:1004200010924B0210924C0210924D02CF910895FF
:100430002D9121938F5FCBCF85EEE2CF833081F07A
:1004400028F4813099F08230A9F008958730A9F01E
:100450008830C9F08430B1F4809180008F7D03C072
:10046000809180008F7780938000089584B58F7786
:1004700084BD089584B58F7DFBCF8091B0008F77C8
:100480008093B00008958091B0008F7DF9CFCF9315
:10049000DF93282F30E0F901E255FF4F8491F901F5
:1004A000E656FF4FD491F901EA57FF4FC491CC2390
:1004B000A1F081110E941E02EC2FF0E0EE0FFF1F51
:1004C000E458FF4FA591B491EC91ED2381E090E0C9
:1004D00009F480E0DF91CF91089580E090E0FACFB9
:1004E000862F0C9447021F93CF93DF93282F30E081
:1004F000F901E255FF4F8491F901E656FF4FD4917F
:10050000F901EA57FF4FC491CC23A9F0162F8111AE
:100510000E941E02EC2FF0E0EE0FFF1FEE58FF4F7F
:10052000A591B4918FB7F894EC91111108C0D095B2
:10053000DE23DC938FBFDF91CF911F910895DE2BD7
:10054000F8CF862F642F0C947302CF93DF9390E043
:10055000FC01E656FF4F24918A579F4FFC0184917E
:100560008823C9F090E0880F991FFC01E859FF4FDC
:10057000A591B491FC01EE58FF4FC591D491611142
:100580000DC09FB7F8948C91209582238C9388811D
:10059000282328839FBFDF91CF910895623051F4C3
:1005A0009FB7F8943C91822F809583238C93E881A8
:1005B0002E2BEFCF8FB7F894EC912E2B2C938FBF6F
:1005C000EACF862F642F0C94A5026F927F928F92B0
:1005D0009F92AF92BF92CF92DF92EF92FF920F93D2
:1005E0001F93CF93DF9381E0809335038FB7F89407
:1005F0004091B9025091BA026091BB027091BC0265
:100600008FBF8091250390912603A0912703B0917D
:100610002803481B590B6A0B7B0B80913103909187
:100620003203B0E0A0E084179507A607B70708F0EB
:100630001DC1C0E080912F03C81760F4E0912B0327
:10064000F0912C03EC0FF11D62E080810E94A50265
:10065000CF5FF0CF712C812C912C54018394809129
:100660003003781608F05FC0072D10E0E0912D03ED
:10067000F0912E03E00FF11F61E080810E94A5023E
:10068000E0912D03F0912E03E00FF11F60E08081D7
:100690000E947302D501C401072C04C0880F991F62
:1006A000AA1FBB1F0A94D2F76C017C01E094F0945E
:1006B000612C80912F036816F8F4C62DD0E0E091EC
:1006C0002B03F0912C03EC0FFD1F80810E94470249
:1006D0002496CC0FDD1FC753DD4F892B41F4888151
:1006E00099818C299D29998388836394E2CF88819D
:1006F00099818E219F21F7CFE0912D03F0912E0358
:10070000E00FF11F61E080810E94730280912D0350
:1007100090912E03080F191F60E0F80180810E945C
:10072000A50273949CCFC9ECD2E0FE018FEF9FEF3E
:10073000278D30A1232B21F4148E968F858F11A243
:10074000369623E0E530F20799F7F12C96E0D92EA2
:1007500080912F03F81608F050C0E12C0F2D10E007
:10076000000F111F0F521D4F20913003E21608F0A9
:1007700042C0F801608171810E2C02C076956795A8
:100780000A94E2F7F29E900111242E0D311DE9EC3E
:10079000F2E080E0458D568D2417350709F46AC0D4
:1007A0008F5F36968A30B1F760FF23C0E9ECF2E044
:1007B00090E080E0448D411117C0E0912903F09151
:1007C0002A03E20FF31F4081D89EF001D99EF00D5D
:1007D0001124E753FD4F448F368F258F10A2178EBB
:1007E00061E00E94AF0005C0019636968A309105FF
:1007F00009F7E394B9CFF394ABCF80E099A19111BD
:10080000892F2696F3E0C530DF07C1F79FB7F8942C
:100810004091B9025091BA026091BB027091BC0242
:100820009FBF409325035093260360932703709343
:1008300028038823D9F08091EA028823B9F08091B7
:10084000E8029091E902019789F48091E502DF9135
:10085000CF911F910F91FF90EF90DF90CF90BF90BD
:10086000AF909F908F907F906F9008951092350376
:1008700080E0EDCF6170B5CF3FB7F894809126024C
:1008800090912702A0912802B091290226B5A89B39
:1008900005C02F3F19F00196A11DB11D3FBFBA2F12
:1008A000A92F982F8827BC01CD01620F711D811DD2
:1008B000911D42E0660F771F881F991F4A95D1F757
:1008C00008958F929F92AF92BF92CF92DF92EF9254
:1008D000FF920E943C044B015C0188EEC82E83E02D
:1008E000D82EE12CF12C0E943C04681979098A0960
:1008F0009B09683E734081059105A8F321E0C21A67
:10090000D108E108F10888EE880E83E0981EA11C4A
:10091000B11CC114D104E104F10429F7FF90EF9058
:10092000DF90CF90BF90AF909F908F900895AF923F
:10093000BF92CF92DF92EF92FF920F931F93CF93CC
:10094000DF936C017B018B01040F151FEB015E012E
:10095000AE18BF08C017D10759F06991D601ED91C3
:10096000FC910190F081E02DC6010995892B79F762
:10097000C501DF91CF911F910F91FF90EF90DF9014
:10098000CF90BF90AF900895FC01918D828D981704
:1009900061F0A28DAE0FBF2FB11D5D968C91928D2F
:1009A0009F5F9F73928F90E008958FEF9FEF089560
:1009B000FC01918D828D981731F0828DE80FF11D29
:1009C000858D90E008958FEF9FEF0895FC01918D44
:1009D000228D892F90E0805C9F4F821B91098F733D
:1009E0009927089584E493E00E94E60421E0892B8E
:1009F00009F420E0822F089580E090E0892B29F00F
:100A00000E94F20481110C9400000895FC01A48D51
:100A1000A80FB92FB11DA35ABF4F2C91848D90E020
:100A200001968F739927848FA689B7892C93A08903
:100A3000B1898C9180648C93938D848D981306C0BA
:100A40000288F389E02D80818F7D80830895EF9265
:100A5000FF920F931F93CF93DF93EC0181E0888F78
:100A60009B8D8C8D981316C0E889F989808185FF4C
:100A700011C0EE89FF896083E889F98980818064EB
:100A8000808381E090E0DF91CF911F910F91FF90E3
:100A9000EF900895F62E0B8D10E00F5F1F4F0F7330
:100AA0001127E02E8C8D8E110CC00FB607FCFACFEB
:100AB000E889F989808185FFF5CFCE010E9406057E
:100AC000F1CFEB8DEC0FFD2FF11DE35AFF4FF082BC
:100AD0000B8FEA89FB8980818062D2CFCF93DF932D
:100AE000EC01888D8823B9F0AA89BB89E889F98946
:100AF0008C9185FD03C0808186FD0DC00FB607FC7B
:100B0000F7CF8C9185FFF2CF808185FFEDCFCE01AD
:100B10000E940605E9CFDF91CF91089584E493E028
:100B20000E94E6041816190634F484E493E00E9447
:100B3000C40480931C020895CF92DF92EF92FF923B
:100B4000C0902102D0902202E0902302F090240273
:100B500020E030E040ED51E4C701B6010E945C0F97
:100B600087FD11C089E00E944702019761F060E0B3
:100B700088E00E94730261E089E0FF90EF90DF90CF
:100B8000CF900C94730220E030E040EC51E4C701B8
:100B9000B6010E94040E18168CF089E00E944702EC
:100BA000019761F488E00E944702019739F060E004
:100BB00089E00E94730261E088E0DFCFFF90EF9050
:100BC000DF90CF90089581E480937C0080917A003B
:100BD000806480937A0080917A0086FDFCCF8091BA
:100BE000780060917900762F682F072E000C880B13
:100BF000990B0E94AC0E20E030E040E85AE30E94DE
:100C0000610F20E030E44CE955E40E94610F20E0E0
:100C100030E040E251E40E94090E6093210270939B
:100C20002202809323029093240208950E94E502F9
:100C30008823E1F30895CF93C82F61E00E94A502B5
:100C400060E08C2FCF910C94730289E090E00E94B9
:100C50001B0688E090E00E941B068DE090E00C945B
:100C60001B06FC0101900020E9F73197AF01481BFA
:100C7000590BBC0184E493E00C9497048F929F92EB
:100C8000AF92BF920F931F93CF93DF93CDB7DEB791
:100C9000A1970FB6F894DEBF0FBECDBF19A24230A8
:100CA00008F44AE08E010F5D1F4F842E912CB12C69
:100CB000A12CA50194010E94750DE62FB901CA016E
:100CC000EA30F4F4E05DD801EE938D01232B242B60
:100CD000252B79F790E080E0109719F0CD010E9464
:100CE0003106A1960FB6F894DEBF0FBECDBFDF91DF
:100CF000CF911F910F91BF90AF909F908F900895CB
:100D0000E95CE1CFCF93DF930E943106EC0180E7ED
:100D100091E00E9431068C0F9D1FDF91CF910895C5
:100D200083E791E00C9482068AE791E00C948206B6
:100D30000F931F93CF938C01C62F64600E94BA015A
:100D40006C2F6B7FC8010E94BA0183EC90E0019781
:100D5000F1F7CF911F910F9108950F931F93CF93A8
:100D6000DF938C01C62FD62FD07FD1606D2F0E94CC
:100D7000BA016D2FC8010E94980680E1C89FE0016A
:100D80001124C1606C2FC8010E94BA016C2FC801E8
:100D9000DF91CF911F910F910C9498060E94AD06A0
:100DA00081E090E00895CF93C82F682F84E493E00A
:100DB0000E9427056C2F88E393E00E94AD06CF9137
:100DC0000895CF930E94E502C82F882311F18093E4
:100DD0000C01833201F560911F027091200281E8BD
:100DE00091E00E94D90F892BB1F081E090E09093BF
:100DF0001E0280931D0286E891E00E94820682E72F
:100E000091E09093200280931F0210921B02109297
:100E10001A02CF91089580911A0290911B028A3094
:100E200091054CF7E0911F02F0912002E80FF91FA5
:100E3000C083019690931B0280931A02EACF1F92FF
:100E40000F920FB60F9211242F933F934F935F93FE
:100E50006F937F938F939F93AF93BF93EF93FF9382
:100E60008091B900887F803609F44AC0F0F5883255
:100E700009F4A5C018F5803109F499C0B8F48823A5
:100E800009F4F5C0883009F492C0FF91EF91BF9149
:100E9000AF919F918F917F916F915F914F913F9112
:100EA0002F910F900FBE0F901F901895883109F465
:100EB00086C0803251F78093920214C0803409F4C6
:100EC0009BC040F48033B9F38833F9F680939202E3
:100ED00085ECAEC0803509F483C0883509F494C030
:100EE000883499F60E941F01D0CF883909F48AC04E
:100EF00038F5883729F050F4883611F0803729F614
:100F000083E0809393021092910255C0883809F4CF
:100F100079C0803919F0803809F0B7CF80919102FB
:100F2000803208F06FC0E091910281E08E0F8093D3
:100F300091028091BB00F0E0EF58FD4F80833BC0F1
:100F4000803B39F0D0F4803A09F477C0883A09F050
:100F50009CCF84E0809393021092700210926F02F3
:100F6000F0E0E0E0099580916F0281110FC081E00F
:100F700080936F0210924F0209C0803C09F4A8CF01
:100F8000883C09F4A5CF883B09F07FCFE09170023F
:100F900081E08E0F80937002F0E0E15BFD4F808175
:100FA0008093BB009091700280916F0229C0809164
:100FB000B8028093BB0085EC8093BC0066CF909113
:100FC000B7028091B602981758F5E091B70281E018
:100FD0008E0F8093B702F0E0EA56FD4F8081E9CF93
:100FE000E091B70281E08E0F8093B7028091BB0041
:100FF000F0E0EA56FD4F80839091B7028091B602EF
:101000009817C8F285E8D8CFE091B70281E08E0F3B
:101010008093B7028091BB00F0E0EA56FD4F8083D9
:101020008091950281115ECF81E08093940284EAE1
:101030008093BC001092930228CF85EC8093BC0073
:101040001092930280919102803230F4E0919102EB
:10105000F0E0EF58FD4F10826091910270E081E75F
:1010600092E0F0E0E0E00995109291020ECF10922C
:10107000920238CF1F920F920FB60F9211242F9326
:101080003F938F939F93AF93BF938091B9029091B9
:10109000BA02A091BB02B091BC023091250223E0BC
:1010A000230F2D3758F50196A11DB11D2093250260
:1010B0008093B9029093BA02A093BB02B093BC0292
:1010C0008091260290912702A0912802B0912902D6
:1010D0000196A11DB11D8093260290932702A09333
:1010E0002802B0932902BF91AF919F918F913F91B8
:1010F0002F910F900FBE0F901F90189526E8230F89
:101100000296A11DB11DD2CF1F920F920FB60F9262
:1011100011242F933F934F935F936F937F938F93FC
:101120009F93AF93BF93EF93FF9384E493E00E9468
:101130000605FF91EF91BF91AF919F918F917F91A4
:101140006F915F914F913F912F910F900FBE0F9034
:101150001F9018951F920F920FB60F9211242F9384
:101160008F939F93EF93FF93E0915403F091550376
:101170008081E0915A03F0915B0382FD1BC0908156
:1011800080915D038F5F8F7320915E03821741F022
:10119000E0915D03F0E0EC5BFC4F958F80935D0385
:1011A000FF91EF919F918F912F910F900FBE0F9014
:1011B0001F9018958081F4CF1F920F920FB60F9257
:1011C0001124EF92FF920F931F932F933F934F930E
:1011D0005F936F937F938F939F93AF93BF93CF93BF
:1011E000DF93EF93FF93C0E0D1E082E3E82E81E04C
:1011F000F82E06E211E088819981019789939993ED
:10120000181619065CF0D701ED91FC910995F801CB
:1012100080819181FE01329791838083F2E0EF0E0D
:10122000F11C0E5F1F4F81E0CC30D80721F7FF91F2
:10123000EF91DF91CF91BF91AF919F918F917F916E
:101240006F915F914F913F912F911F910F91FF905F
:10125000EF900F900FBE0F901F9018951092C00244
:101260001092BF0288EE93E0A0E0B0E08093C1024C
:101270009093C202A093C302B093C40282E491E0AF
:101280009093BE028093BD021092CB021092CF02C7
:101290001092CE021092D00282E591E09093CA02A1
:1012A0008093C902E5EEF2E0108214821382158267
:1012B000369683E0E132F807B9F780E191E0909348
:1012C0002C0380932B038DE091E090932E03809369
:1012D0002D0384E080932F0383E08093300384E127
:1012E00091E090932A03809329038AE090E0909301
:1012F00032038093310384EF91E090933403809321
:101300003303109237031092360310922503109284
:10131000260310922703109228031092350310928F
:101320003B0310923A038CE591E09093390380934C
:10133000380387E280933C0380E18093410382E09D
:101340008093420310924303109247031092460386
:1013500088EE93E0A0E0B0E08093480390934903C7
:10136000A0934A03B0934B0384E691E09093450326
:101370008093440385EC90E0909351038093500355
:1013800084EC90E0909353038093520380EC90E0C0
:10139000909355038093540381EC90E0909357030E
:1013A0008093560382EC90E0909359038093580306
:1013B00086EC90E090935B0380935A0310925D0358
:1013C00010925E0310925F03109260030895789468
:1013D00084B5826084BD84B5816084BD85B582603A
:1013E00085BD85B5816085BD80916E0081608093EB
:1013F0006E00109281008091810082608093810054
:101400008091810081608093810080918000816063
:10141000809380008091B10084608093B1008091BE
:10142000B00081608093B00080917A0084608093E6
:101430007A0080917A00826080937A0080917A00AD
:10144000816080937A0080917A00806880937A002E
:101450001092C100E0915403F091550382E0808323
:10146000E0915003F09151031082E0915203F0910A
:1014700053038FEC808310925C03E0915803F0914A
:10148000590386E08083E0915603F09157038081F1
:1014900080618083E0915603F091570380818860DA
:1014A0008083E0915603F0915703808180688083A8
:1014B000E0915603F091570380818F7D808370E027
:1014C00060E083ED96E00E94E20B61E070E086E16F
:1014D00096E00E94E20B0E9425060E9425060E94CB
:1014E000250680E290E00E94490C909320028093B0
:1014F0001F0210921B0210921A0261E08AE00E9401
:10150000A50261E08BE00E94A50261E08CE00E94F0
:10151000A50261E08DE00E94A50261E086E10E94E3
:10152000A50261E088E10E94A50260E08BE00E94D4
:10153000730261E08CE00E94730261E08AE00E9425
:10154000A50260E08AE00E94730285E991E09F9322
:101550008F930E94E20F80E290E00E94490C9093EA
:10156000200280931F0210921B0210921A0287EA37
:1015700091E09F938F930E94E20F0E94610410926A
:1015800080001092810080918100886080938100AA
:10159000809181008260809381008FEC97E090932E
:1015A0008900809388001092850010928400B19A7F
:1015B00080916F00826080936F000F900F900F906A
:1015C0000F9085ED282E81E0382E98EE892E91E03F
:1015D000992EC6EFD1E008E012E020E0A22E20E034
:1015E000B22E8AEB91E09F938F930E94E20FC090FE
:1015F0002102D0902202E0902302F09024020F906A
:101600000F90A7019601C701B6010E94CE0F882353
:1016100009F446C089EC91E00E94310680910C01EA
:10162000282F082E000C330B3F938F933F922F925D
:101630000E94E20F809120028F9380911F028F936E
:101640009F928F920E94E20F80911E028F93809151
:101650001D028F93DF93CF930E94E20F80911C02B3
:10166000282F082E000C330B3F938F931F930F935B
:101670000E94E20F0E9461048DB79EB740960FB69C
:10168000F8949EBF0FBE8DBFA114B10409F4A9CF79
:101690000E94F204882309F4A4CF0E940000A1CF85
:1016A00026013701E89477F82FEF3FEF4FE75FE728
:1016B000C301B2010E94CE0F81110DC02FEF3FEF89
:1016C0004FE75FE7C301B2010E94040E18161CF435
:1016D0008DEC91E0A1CF2FEF3FEF4FE75FE4C70123
:1016E000B6010E945C0F18161CF481ED91E094CFB6
:1016F0002FEF3FEF4FE75FECC701B6010E94040EEA
:1017000087FDF3CF20E030E0A901C701B6010E94B8
:10171000040E87FF09C06DE284E493E00E94270570
:10172000F7FAF094F7F8F0942AE037ED43EA5BE338
:10173000C701B6010E94980D2B013C010E947B0E4F
:101740006B017C010E94AA0E9B01AC01C301B20196
:101750000E94970D2B013C014AE0C701B6010E948F
:101760003E066EE284E493E00E94270520E030E02C
:1017700040E251E4C301B2010E94610F2B013C0120
:101780000E947B0E6B01F12CE12C4AE0C701B601EF
:101790000E943E06C701B6010E94AA0E9B01AC0141
:1017A000C301B2010E94970D20E030E040E251E415
:1017B0000E94610F0E947B0E90E080E04AE00E9450
:1017C0003E062CCF0F931F93CF93DF93009759F4CE
:1017D0006115710541F4F0E0E0E0CF01DF91CF91B8
:1017E0001F910F9108958B01EC016EE070E081E094
:1017F00090E00E942D0CFC01892B69F380E8838323
:101800000115110571F01387028781E883838091A8
:10181000E1039091E203892B21F4F093E203E0933A
:10182000E1032097D1F2D187C087838182608383CF
:101830008091E3039091E403892B79F6F093E4031C
:10184000E093E3038091E5039091E603892B29F669
:10185000F093E603E093E503C0CF0F931F93CF937C
:10186000DF93869F8001879F100D969F100D112496
:10187000C8010E94490CEC01009729F0A80170E012
:1018800060E00E946E0DCE01DF91CF911F910F910C
:1018900008950F931F93CF93DF938230910510F437
:1018A00082E090E0E091E903F091EA0330E020E08B
:1018B000B0E0A0E0309799F42115310509F44AC051
:1018C000281B390B24303105D8F58A819B8161159D
:1018D000710589F1FB0193838283FE0111C0408170
:1018E00051810281138148175907E0F048175907C1
:1018F00099F4109761F012960C93129713961C931B
:101900003296CF01DF91CF911F910F9108950093EF
:10191000E9031093EA03F4CF2115310551F0421782
:10192000530738F0A901DB019A01BD01DF01F8017D
:10193000C1CFEF01F9CF9093EA038093E903CDCFB4
:10194000FE01E20FF31F81939193225031093983F5
:101950002883D7CF2091E7033091E803232B41F46C
:1019600020912201309123013093E8032093E70373
:1019700020912001309121012115310541F42DB72D
:101980003EB74091240150912501241B350BE09175
:10199000E703F091E803E217F307A0F42E1B3F0BD7
:1019A0002817390778F0AC014E5F5F4F24173507D1
:1019B00048F04E0F5F1F5093E8034093E703819375
:1019C00091939FCFF0E0E0E09CCFCF93DF9300971F
:1019D000E9F0FC01329713821282A091E903B091E1
:1019E000EA03ED0130E020E01097A1F4208131817D
:1019F000820F931F2091E7033091E80328173907DE
:101A000009F061C0F093E803E093E703DF91CF9121
:101A10000895EA01CE17DF07E8F54A815B819E0150
:101A200041155105B1F7E901FB83EA8349915991C9
:101A3000C40FD51FEC17FD0761F4808191810296D8
:101A4000840F951FE90199838883828193819B8309
:101A50008A83F0E0E0E012968D919C9113970097B5
:101A6000B9F52D913C911197CD010296820F931FEC
:101A70002091E7033091E8032817390739F63097AA
:101A800051F51092EA031092E903B093E803A09392
:101A9000E703BCCFD383C28340815181840F951F5C
:101AA000C817D90761F44E5F5F4F88819981480F4D
:101AB000591F518340838A819B819383828321159F
:101AC000310509F0B0CFF093EA03E093E9039ECF2C
:101AD000FD01DC01C0CF13821282D7CFDC0101C02F
:101AE0006D9341505040E0F70895A1E21A2EAA1BD1
:101AF000BB1BFD010DC0AA1FBB1FEE1FFF1FA217BE
:101B0000B307E407F50720F0A21BB30BE40BF50BBA
:101B1000661F771F881F991F1A9469F76095709543
:101B2000809590959B01AC01BD01CF01089550585F
:101B3000BB27AA270E94AF0D0C94220F0E94140FFE
:101B400038F00E941B0F20F039F49F3F19F426F45F
:101B50000C94110F0EF4E095E7FB0C940B0FE92F9A
:101B60000E94330F58F3BA1762077307840795076B
:101B700020F079F4A6F50C94550F0EF4E0950B2E99
:101B8000BA2FA02D0B01B90190010C01CA01A001CF
:101B90001124FF27591B99F0593F50F4503E68F12A
:101BA0001A16F040A22F232F342F4427585FF3CF6B
:101BB000469537952795A795F0405395C9F77EF43C
:101BC0001F16BA0B620B730B840BBAF09150A1F085
:101BD000FF0FBB1F661F771F881FC2F70EC0BA0F0B
:101BE000621F731F841F48F4879577956795B79593
:101BF000F7959E3F08F0B0CF9395880F08F099278E
:101C0000EE0F9795879508950E94E70E08F481E0FE
:101C100008950E941D0E0C94220F0E941B0F58F075
:101C20000E94140F40F029F45F3F29F00C940B0F31
:101C300051110C94560F0C94110F0E94330F68F33E
:101C40009923B1F3552391F3951B550BBB27AA2775
:101C500062177307840738F09F5F5F4F220F331FAF
:101C6000441FAA1FA9F335D00E2E3AF0E0E832D077
:101C700091505040E695001CCAF72BD0FE2F29D07A
:101C8000660F771F881FBB1F261737074807AB074C
:101C9000B0E809F0BB0B802DBF01FF2793585F4FC1
:101CA0003AF09E3F510578F00C940B0F0C94560FB0
:101CB0005F3FE4F3983ED4F3869577956795B795A3
:101CC000F7959F5FC9F7880F911D9695879597F9AE
:101CD0000895E1E0660F771F881FBB1F6217730727
:101CE0008407BA0720F0621B730B840BBA0BEE1F3C
:101CF00088F7E09508950E943B0F88F09F5798F071
:101D0000B92F9927B751B0F0E1F0660F771F881F00
:101D1000991F1AF0BA95C9F714C0B13091F00E941A
:101D2000550FB1E008950C94550F672F782F882731
:101D3000B85F39F0B93FCCF3869577956795B39541
:101D4000D9F73EF490958095709561957F4F8F4FB0
:101D50009F4F0895E89409C097FB3EF490958095B5
:101D6000709561957F4F8F4F9F4F9923A9F0F92F61
:101D700096E9BB279395F695879577956795B795DF
:101D8000F111F8CFFAF4BB0F11F460FF1BC06F5FC5
:101D90007F4F8F4F9F4F16C0882311F096E911C0D7
:101DA000772321F09EE8872F762F05C0662371F0F8
:101DB00096E8862F70E060E02AF09A95660F771F0C
:101DC000881FDAF7880F9695879597F90895990FE8
:101DD0000008550FAA0BE0E8FEEF16161706E807F5
:101DE000F907C0F012161306E407F50798F0621B16
:101DF000730B840B950B39F40A2661F0232B242BEB
:101E0000252B21F408950A2609F4A140A6958FEF09
:101E1000811D811D089597F99F6780E870E060E05B
:101E200008959FEF80EC089500240A941616170673
:101E300018060906089500240A94121613061406BB
:101E400005060895092E0394000C11F4882352F01E
:101E5000BB0F40F4BF2B11F460FF04C06F5F7F4FD6
:101E60008F4F9F4F089557FD9058440F551F59F0BD
:101E70005F3F71F04795880F97FB991F61F09F3F77
:101E800079F087950895121613061406551FF2CFA0
:101E90004695F1DF08C0161617061806991FF1CFF0
:101EA00086957105610508940895E894BB27662717
:101EB0007727CB0197F908950E94E70E08F48FEF7A
:101EC00008950E94740F0C94220F0E94140F38F092
:101ED0000E941B0F20F0952311F00C940B0F0C9413
:101EE000110F11240C94560F0E94330F70F3959F1D
:101EF000C1F3950F50E0551F629FF001729FBB2701
:101F0000F00DB11D639FAA27F00DB11DAA1F649F9C
:101F10006627B00DA11D661F829F2227B00DA11D4F
:101F2000621F739FB00DA11D621F839FA00D611DD5
:101F3000221F749F3327A00D611D231F849F600DF6
:101F4000211D822F762F6A2F11249F5750409AF01F
:101F5000F1F088234AF0EE0FFF1FBB1F661F771FAB
:101F6000881F91505040A9F79E3F510580F00C9476
:101F70000B0F0C94560F5F3FE4F3983ED4F3869515
:101F800077956795B795F795E7959F5FC1F7FE2B16
:101F9000880F911D9695879597F908950E94E70EF1
:101FA000880B990B0895EE0FFF1F0590F491E02D1B
:101FB0000994FB01DC018D91019080190110D9F386
:101FC000990B0895B0E0A0E0E8EEFFE00C948612D3
:101FD000AE014B5F5F4FFA0161917191AF0180914A
:101FE000E3039091E4030E94F80FE2E00C94A21244
:101FF000ABE0B0E0EEEFFFE00C9476127C013B0129
:102000008A01FC0117821682838181FFC8C1CE013B
:1020100001965C01F7019381F30193FD859193FF94
:1020200081913F01882309F453C1853239F493FD2E
:10203000859193FF81913F01853229F4B70190E0AA
:102040000E94E811E7CF912C212C312CFFE1F315F0
:1020500038F08B3211F190F4803209F1833229F19A
:1020600037FC3CC020ED280F2A3050F536FE20C04A
:102070008AE0989E200D1124922E06C08D3291F098
:10208000803371F7689430F8F30193FD859193FFE5
:1020900081913F018111DACF21C0689431F86894B1
:1020A00032F8F2CF689433F8EFCF689434F8ECCF7D
:1020B000EAE02E9E200D1124222E689435F8E4CFFC
:1020C0008E3229F436FC04C1689436F8DDCF8C36A4
:1020D00019F4689437F8D8CF8836B1F2982F9F7DDD
:1020E00095549330E0F08336A1F18337C1F1833505
:1020F00009F063C02801F2E04F0E511CF801C080C6
:10210000D180692D70E036FC02C06FEF7FEFC60111
:102110000E94D2114C01689437F882010AC00C5F0A
:102120001F4FFFE3F98388248394912C6501E89481
:1021300037F833FE2DC0522C8114910471F55520CF
:1021400009F468CFB70180E290E00E94E8115A9448
:10215000F6CFF801808189830E5F1F4FE4CF2801FD
:10216000F2E04F0E511CF801C080D180692D70E063
:1021700036FC02C06FEF7FEFC6010E94DD114C01FB
:102180008201D5CFB70180E290E00E94E8112A9445
:102190002814190409F0B0F7CECFF60137FC859169
:1021A00037FE81916F01B70190E00E94E811511054
:1021B0005A94F1E08F1A9108BFCF843619F089360E
:1021C00009F077C0F80137FE6BC0608171818281B0
:1021D00093810C5F1F4FF32DFF763F2E97FF09C0B1
:1021E00090958095709561957F4F8F4F9F4F689424
:1021F00037F82AE030E0A5010E941812C82ECA184C
:102200008C2C432C36FE0CC0E89440F8C91440F4E2
:1022100034FE05C032FC03C0F32DFE7E4F2E892C08
:1022200044FE95C0FE01EC0DF11D8081803309F064
:1022300087C0242D297E422E842D8870582E43FC81
:1022400095C040FE8FC09C2C821418F42C0C922C4C
:10225000981844FE91C0B70180E390E00E94E81115
:1022600042FE09C088E790E041FE02C088E590E0A8
:10227000B7010E94E811C91408F48AC0CA94D12C8D
:102280009FEFC91AD90ACA0CDB1CF60182916F01B3
:10229000B70190E00E94E811AC14BD04B1F74FCF34
:1022A00060817181072E000C880B990B0E5F1F4F08
:1022B00092CFD32CE894D4F82AE030E0853739F176
:1022C000232D297FD22E8F3601F148F48835A9F0CD
:1022D000F701868197812B96E2E10C949212803768
:1022E00049F08837A9F7D4FE02C06894D2F820E1FB
:1022F00030E00DC06894D4F8F6CF34FE03C0822FCE
:102300008660D82E20E132E002C028E030E0F801FB
:10231000D7FE0FC060817181828193810C5F1F4F56
:10232000A5010E941812C82ECA183D2CE89437F84F
:1023300067CF6081718190E080E00E5F1F4FF0CF2A
:1023400042FC02C0839478CF8394839475CF842D0C
:10235000867809F471CFF6CFB70180E290E00E9451
:10236000E81183948214C0F3512C73CF522C581867
:10237000821408F46ECFF8CF842D867809F47BCFD1
:102380008BE241FE80E247FC8DE2B70190E071CF25
:10239000B70180E390E00E94E8119A946CCF8FEF30
:1023A0009FEF99CFFC010590615070400110D8F764
:1023B000809590958E0F9F1F0895FC01615070408D
:1023C00001900110D8F7809590958E0F9F1F08956A
:1023D0000F931F93CF93DF93182F092FEB018B815E
:1023E00081FD09C01FEF0FEF812F902FDF91CF915B
:1023F0001F910F91089582FF14C02E813F818C811F
:102400009D81281739073CF4E881F981CF010196B5
:102410009983888310838E819F8101969F838E8309
:10242000E3CFE885F985812F0995892BA1F3DACFD0
:10243000FA01AA27283051F1203181F1E8946F93F5
:102440006E7F6E5F7F4F8F4F9F4FAF4FB1E03ED09B
:10245000B4E03CD0670F781F891F9A1FA11D680F39
:10246000791F8A1F911DA11D6A0F711D811D911D6C
:10247000A11D20D009F468943F912AE0269F1124E1
:102480003019305D3193DEF6CF010895462F477045
:10249000405D4193B3E00FD0C9F7F6CF462F4F70A0
:1024A000405D4A3318F0495D31FD4052419302D0FE
:1024B000A9F7EACFB4E0A6959795879577956795A4
:1024C000BA95C9F700976105710508959B01AC01A4
:1024D0000A2E06945795479537952795BA95C9F7CB
:1024E000620F731F841F951FA01D08952F923F92A6
:1024F0004F925F926F927F928F929F92AF92BF9214
:10250000CF92DF92EF92FF920F931F93CF93DF93BF
:10251000CDB7DEB7CA1BDB0B0FB6F894DEBF0FBE1C
:10252000CDBF09942A88398848885F846E847D8469
:102530008C849B84AA84B984C884DF80EE80FD806B
:102540000C811B81AA81B981CE0FD11D0FB6F894E1
:0E255000DEBF0FBECDBFED010895F894FFCFA2
:10255E00E8038813F401DC05C80032002D181716A5
:10256E00191A1B1C3132333435363738392A302399
:10257E000000EB038000E803F401E8031027640079
:10258E00640094069006E3059C05E1068E050000A6
:10259E0000008B015E0157015401510150010000F2
:1025AE000000E102A102700200000000CE069704B6
:1025BE000000000027059704E604C404D8046E0545
:1025CE000D0A005461736B2042005461736B2041FD
:1025DE0000313233350050415353574F524420523D
:1025EE0045534554004C696768742073656E736F6C
:1025FE007220696E697400496E697469616C697ADA
:10260E00696E672074696D6572000A0D54656D7090
:10261E00657261747572653A006E616E00696E6600
:10262E00006F7666000A0D2043686172206B657933
:10263E007061643A202563002050617373776F7266
:10264E00643A2025730020436F72726563742070A4
:10265E0077643F3A202564000A0D43686172207347
:0A266E00657269616C3A2563000093
:00000001FF
