:100000000C9457010C9488010C9488010C9488017D
:100010000C9488010C9488010C9488010C9488013C
:100020000C9488010C9488010C9488010C9488012C
:100030000C9488010C9488010C9488010C9488011C
:100040000C9488010C949E0C0C9488010C948801EB
:100050000C9488010C9488010C9488010C947C0BFE
:100060000C9488010C94F00B0C94C60B0C94880132
:100070000C9488010C9488010C9488010C948801DC
:100080000C94760C0C9488010C9488010C948801D3
:100090000C9488010C9488010C9488010C945C0ADF
:1000A0000C9488010C9488010C944E0C0C948801DB
:1000B0000C9488010C9488010C9488010C94260CF3
:1000C0000C9488010C9488010C9488010C9488018C
:1000D0000C9488010C9488010C9488010C9488017C
:1000E0000C9488010C947F080C94BD030C940906B1
:1000F0000C94C7030C94A2030C94D5030C94A50391
:100100000C948E080C948D020C94D6060C94330437
:100110000C94AF030C94B5030C9436060C94C303F3
:100120000C9422080C9483020C948F060C947F028A
:100130000C94C60C0C9428080C94D0030C946F08F3
:100140000C94490A0C944E0A0C949A030C94AB0339
:100150000C9496030C940B090C9402040C948602E4
:100160000C94B9030C9458060C9427070C94900334
:100170000C94BA020C9473040C94D1030C944A06A8
:100180000C949E030C94CB030C948002000021007D
:10019000240027002A002D00300033000101000058
:1001A000040107010A0100002200250028002B009D
:1001B0002E003100340002010000050108010B018E
:1001C000000020002300260029002C002F00320010
:1001D00000010000030106010901050505050705E9
:1001E00008080808020202020A0A080804040404B3
:1001F00001010101010101010303030303030303DF
:10020000040707070C0C0C0C0C0C0C0C020202026D
:1002100006060606060606060B0B0B0B0B0B0B0B56
:100220000102102020080810204010204080020108
:1002300002010804020101020408102040808040ED
:1002400020100804020180040201804020100804EC
:10025000020108040201010204081020408001028A
:1002600004081020408000000A0B02090C0D0E0843
:10027000070304010000000000000000000000006F
:10028000000000000000000000000000000000006E
:10029000000012111000000000000000000000002B
:1002A000000000000000000000000000C60C112447
:1002B0001FBECFEFD1E2DEBFCDBF00E00CBF13E029
:1002C000A0E0B2E0E8E2FCE200E00BBF02C0079071
:1002D0000D92AA31B107D9F724E0AAE1B3E001C039
:1002E0001D92A23FB207E1F711E0C7E5D1E000E0BF
:1002F00006C021970109802FFE010E945013C635C8
:10030000D10780E00807A9F70E947F0D0C94121610
:100310000C940000EF92FF920F931F93CF93DF9303
:10032000C1E0D2E08EE3E82E82E0F82E02E312E094
:1003300088819981019789939993181619065CF021
:10034000D701ED91FC911995F80180819181FE0111
:10035000329791838083F2E0EF0EF11C0E5F1F4F06
:1003600082E0CD30D80721F7DF91CF911F910F9117
:10037000FF90EF90089596E0899FD0011124A0533B
:10038000BC4F90967C936E935F9791E091969C936F
:100390009197E0913D04F0913E0490913C049923A3
:1003A00039F0309751F0811108C08091EC03199415
:1003B000309719F05C968C91FACF0895CF92DF9226
:1003C000EF92FF920F931F9396E0899FF001112403
:1003D000E053FC4F11A2278D30A12130310551F19E
:1003E00078F02230310509F451C02330310509F489
:1003F00052C01F910F91FF90EF90DF90CF90089522
:100400006623B9F361E070E00E94BB012FB7F89456
:100410008091C0039091C103A091C203B091C30326
:100420002FBF8093280490932904A0932A04B093AB
:100430002B04DFCF9FB7F894C090C003D090C103C6
:10044000E090C203F090C3039FBF00912804109175
:10045000290420912A0430912B04C01AD10AE20AFF
:10046000F30A00913A0410913B0430E020E00C15AF
:100470001D052E053F0550F462E070E01F910F91BD
:10048000FF90EF90DF90CF900C94BB016111B1CF42
:1004900063E070E0F3CF70E060E0F0CF85ED809333
:1004A000BC008091BC0084FDFCCF10929A0308959B
:1004B00020917603260F3327331F21323105ECF4C8
:1004C00020919A03FC0190E080E0243069F082E002
:1004D0000895A09176032191AC014A5A5C4FA40F74
:1004E000B52FB11D2C930196861798F38091760352
:1004F000680F6093760380E0089581E00895089581
:100500008FEF9FEF08958FEF9FEF08958091550330
:1005100090E09195819591090895CF92DF92EF92A5
:10052000FF920F931F93CF93DF937C01CB018A013E
:1005300020915403222389F0EB016B01C40ED51ED8
:10054000CC15DD0569F06991D701ED91FC91019021
:10055000F081E02DC7011995F3CF642F0E94580256
:10056000C801DF91CF911F910F91FF90EF90DF9025
:10057000CF900895CF93DF931F92CDB7DEB76983F5
:10058000209154032223F9F020915303203258F094
:1005900021E030E0FC013383228390E080E00F9083
:1005A000DF91CF91089580915203E82FF0E0EE5C47
:1005B000FC4F998190838F5F809352038093530304
:1005C00081E090E0ECCF61E0CE0101960E945802FC
:1005D000F7CFCF93FC01C48121E020935403C09353
:1005E000310310925203109253038385682B84ECDD
:1005F00093E00E94BA0290915303913208F03FC0F9
:1006000080919A038111FCCF82E080939A0381E06C
:1006100080939C038FEF809399031092BE03909375
:10062000BD03A2E3B3E0EDE9F3E080E098132FC04F
:100630001092BF038091BF03CC0FC82BC093BF03A0
:1006400080919B03813039F510929B038091BF0309
:100650008093BB008091BC0083FDF8CF85EC809334
:10066000BC0080919A038230E1F3809199038F3F1F
:1006700031F080919903803211F0809199031092AA
:1006800052031092530310925403CF9108952D9169
:1006900021938F5FCBCF85EEE2CF0F931F93660F31
:1006A000771F660F771FFC01E60FF71F008111818E
:1006B00022813381DA01AA0FBB1FAA0FBB1FA80F2B
:1006C000B91F4D915D916D917C911397408351833A
:1006D000628373830D931D932D933C9313971F9106
:1006E0000F9108958150823108F05AC0E82FF0E050
:1006F0008827E258FC4F8F4F0C9450139E03A2039F
:10070000900396039A03D003A503AB03AF03B5038D
:10071000B903BD03C303C703D003CB03D103D50380
:10072000809180008F778093800008958091800071
:100730008F7DF9CF80918000877FF5CF84B58F774B
:1007400084BD089584B58F7DFBCF8091B0008F77F5
:100750008093B00008958091B0008F7DF9CF809193
:1007600090008F77809390000895809190008F7D06
:10077000F9CF80919000877FF5CF8091A0008F778F
:100780008093A00008958091A0008F7DF9CF809183
:10079000A000877FF5CF809120018F778093200183
:1007A0000895809120018F7DF9CF80912001877F6E
:1007B000F5CFCF93DF93282F30E0F901EA59FD4FB1
:1007C0008491F901E05EFD4FD491F901E652FE4FAC
:1007D000C491CC23A1F081110E947203EC2FF0E0B0
:1007E000EE0FFF1FE054FE4FA591B491EC91ED2365
:1007F00081E090E009F480E0DF91CF91089580E0FE
:1008000090E0FACF862F0C94D9031F93CF93DF93F8
:10081000282F30E0F901EA59FD4F8491F901E05E9B
:10082000FD4FD491F901E652FE4FC491CC23A9F0BB
:10083000162F81110E947203EC2FF0E0EE0FFF1FC4
:10084000EA55FE4FA591B4918FB7F894EC91111130
:1008500008C0D095DE23DC938FBFDF91CF911F912D
:100860000895DE2BF8CF862F642F0C940504CF93C8
:10087000DF9390E0FC01E05EFD4F249186529E4F95
:10088000FC0184918823C9F090E0880F991FFC0136
:10089000E457FE4FA591B491FC01EA55FE4FC59176
:1008A000D49161110DC09FB7F8948C91209582234B
:1008B0008C938881282328839FBFDF91CF9108954F
:1008C000623051F49FB7F8943C91822F8095832336
:1008D0008C93E8812E2BEFCF8FB7F894EC912E2BD1
:1008E0002C938FBFEACF862F642F0C9437046F921E
:1008F0007F928F929F92AF92BF92CF92DF92EF92B0
:10090000FF920F931F93CF93DF9381E080933C047A
:100910008FB7F8944091C0035091C1036091C20316
:100920007091C3038FBF80912C0490912D04A091EE
:100930002E04B0912F04481B590B6A0B7B0B80913E
:10094000380490913904B0E0A0E084179507A60719
:10095000B70708F01DC1C0E080913604C81760F4E5
:10096000E0913204F0913304EC0FF11D62E08081DC
:100970000E943704CF5FF0CF712C812C912C540151
:10098000839480913704781608F05FC0072D10E03B
:10099000E0913404F0913504E00FF11F61E08081B3
:1009A0000E943704E0913404F0913504E00FF11F08
:1009B00060E080810E940504D501C401072C04C0B9
:1009C000880F991FAA1FBB1F0A94D2F76C017C01E4
:1009D000E094F094612C809136046816F8F4C62DEA
:1009E000D0E0E0913204F0913304EC0FFD1F8081E0
:1009F0000E94D9032496CC0FDD1FC053DC4F892BF6
:100A000041F4888199818C299D29998388836394F5
:100A1000E2CF888199818E219F21F7CFE091340424
:100A2000F0913504E00FF11F61E080810E94050420
:100A30008091340490913504080F191F60E0F8018B
:100A400080810E94370473949CCFC0EDD3E0FE01F7
:100A50008FEF9FEF278D30A1232B21F4148E968FDB
:100A6000858F11A2369624E0EC30F20799F7F12C2D
:100A700096E0D92E80913604F81608F050C0E12C8B
:100A80000F2D10E0000F111F08521C4F209137044A
:100A9000E21608F042C0F801608171810E2C02C09C
:100AA000769567950A94E2F7F29E900111242E0D37
:100AB000311DE0EDF3E080E0458D568D24173507BC
:100AC00009F46AC08F5F36968A30B1F760FF23C0A1
:100AD000E0EDF3E090E080E0448D411117C0E0913B
:100AE0003004F0913104E20FF31F4081D89EF001F1
:100AF000D99EF00D1124E053FC4F448F368F258F83
:100B000010A2178E61E00E94DE0105C001963696A4
:100B10008A30910509F7E394B9CFF394ABCF80E025
:100B200099A19111892F2696F4E0CC30DF07C1F707
:100B30009FB7F8944091C0035091C1036091C203E4
:100B40007091C3039FBF40932C0450932D04609376
:100B50002E0470932F048823D9F08091F103882309
:100B6000B9F08091EF039091F003019789F480919F
:100B7000EC03DF91CF911F910F91FF90EF90DF90E9
:100B8000CF90BF90AF909F908F907F906F9008957F
:100B900010923C0480E0EDCF6170B5CF90917B0066
:100BA000977F90937B00806480937C0080917A0093
:100BB000806480937A0080917A0086FDFCCF8091DA
:100BC00078009091790008953FB7F89480912D03B3
:100BD00090912E03A0912F03B091300326B5A89BCE
:100BE00005C02F3F19F00196A11DB11D3FBFBA2FBF
:100BF000A92F982F8827BC01CD01620F711D811D7F
:100C0000911D42E0660F771F881F991F4A95D1F703
:100C10000895AF92BF92CF92DF92EF92FF920F931F
:100C20001F93CF93DF936C017B018B01040F151F82
:100C3000EB015E01AE18BF08C017D10759F06991EA
:100C4000D601ED91FC910190F081E02DC60119953E
:100C5000892B79F7C501DF91CF911F910F91FF90FB
:100C6000EF90DF90CF90BF90AF900895FC01918DF1
:100C7000828D981761F0A28DAE0FBF2FB11D5D96CA
:100C80008C91928D9F5F9F73928F90E008958FEF6C
:100C90009FEF0895FC01918D828D981731F0828D20
:100CA000E80FF11D858D90E008958FEF9FEF089577
:100CB000FC01918D228D892F90E0805C9F4F821BDB
:100CC00091098F73992708958BE494E00E94580648
:100CD00021E0892B09F420E0822F0895FC01A48DE6
:100CE000A80FB92FB11DA35ABF4F2C91848D90E04E
:100CF00001968F739927848FA689B7892C93A08931
:100D0000B1898C9180648C93938D848D981306C0E7
:100D10000288F389E02D80818F7D80830895EF9292
:100D2000FF920F931F93CF93DF93EC0181E0888FA5
:100D30009B8D8C8D981316C0E889F989808185FF79
:100D400011C0EE89FF896083E889F9898081806418
:100D5000808381E090E0DF91CF911F910F91FF9010
:100D6000EF900895F62E0B8D10E00F5F1F4F0F735D
:100D70001127E02E8C8D8E110CC00FB607FCFACF18
:100D8000E889F989808185FFF5CFCE010E946E0642
:100D9000F1CFEB8DEC0FFD2FF11DE35AFF4FF082E9
:100DA0000B8FEA89FB8980818062D2CFCF93DF935A
:100DB000EC01888D8823B9F0AA89BB89E889F98973
:100DC0008C9185FD03C0808186FD0DC00FB607FCA8
:100DD000F7CF8C9185FFF2CF808185FFEDCFCE01DB
:100DE0000E946E06E9CFDF91CF91089580E090E0F8
:100DF000892B29F00E94640681110E94000080E086
:100E000090E0892B49F080E090E0892B29F00E9446
:100E1000000081110E94000080E090E0892B49F0E1
:100E200080E090E0892B29F00E94000081110E944F
:100E3000000080E090E0892B49F080E090E0892B71
:100E400029F00E94000081110C94000008956F9217
:100E50007F928F929F92AF92BF92CF92DF92EF924A
:100E6000FF920F931F93CF93DF93CDB7DEB72C97ED
:100E70000FB6F894DEBF0FBECDBF80E00E94CE0556
:100E8000BC01990F880B990B0E94291220911A031B
:100E900030911B032330310521F410921B03109273
:100EA0001A0300911E0310911F03E0901A03F090A3
:100EB0001B03F701EE0FFF1FEE0FFF1FE00FF11FE7
:100EC0006083718382839383F801A080B180C280A4
:100ED000D38064807580868097809301A401B501DA
:100EE000C6010E94D91218164CF441E050E070E09F
:100EF00060E0C8010E944D03530164019501A60101
:100F0000F80160857185828593850E94811187FF34
:100F100007C042E050E070E060E0C8010E944D036D
:100F2000F8012481358146815781608571858285EC
:100F300093850E94811187FF07C041E050E062E085
:100F400070E0C8010E944D03F8014481558166811B
:100F5000778180911C0390911D03FC010481158110
:100F6000268137810087118722873387008111818D
:100F70002281338104831583268337834083518301
:100F800062837383FFEFEF1AFF0AF0921B03E09274
:100F90001A032CE0E6E2F2E0DE01119601900D92D8
:100FA0002A95E1F79E012F5F3F4F79018C016C017B
:100FB0003CE0C30ED11C812C912C5401F7016191AE
:100FC0007191819191917F01F8012191319141912C
:100FD00051918F010E94DE129B01AC01C501B40149
:100FE0000E9415114B015C01C016D10639F720E0B3
:100FF00030E040E450E40E94861160932403709333
:101000002503809326039093270360932003709316
:10101000210380932203909323032C960FB6F89418
:10102000DEBF0FBECDBFDF91CF911F910F91FF901B
:10103000EF90DF90CF90BF90AF909F908F907F9078
:101040006F9008950E9477048111809300020895A3
:10105000CF92DF92EF92FF92C0902803D0902903A5
:10106000E0902A03F0902B0320E030E040ED51E4C3
:10107000C701B6010E94D91287FD11C089E00E9404
:10108000D903019761F060E088E00E94050461E007
:1010900089E0FF90EF90DF90CF900C94050420E062
:1010A00030E040EC51E4C701B6010E9481111816EE
:1010B0008CF089E00E94D903019761F488E00E94D6
:1010C000D903019739F060E089E00E94050461E0EE
:1010D00088E0DFCFFF90EF90DF90CF9008950E94DF
:1010E00077048823E1F308958DE00E94D90321E07D
:1010F00030E0019711F030E020E0C901089587E069
:101100000E94D903019749F40E94740860E0892B7A
:1011100009F461E08DE00C940504089580910002CB
:101120008A3249F40E94740860E0892B09F461E076
:101130008DE00C9405040895CF93C82F61E00E94C0
:10114000370460E08C2FCF910C94050489E090E087
:101150000E949C0888E090E00E949C088FE090E04C
:101160000E949C088DE090E00E949C088EE090E038
:101170000C949C08FC0101900020E9F73197AF0125
:10118000481B590BBC018BE494E00C9409068F9228
:101190009F92AF92BF920F931F93CF93DF93CDB7E0
:1011A000DEB7A1970FB6F894DEBF0FBECDBF19A270
:1011B000423008F44AE08E010F5D1F4F842E912CBF
:1011C000B12CA12CA50194010E94F210E62FB901C7
:1011D000CA01EA30F4F4E05DD801EE938D01232BCF
:1011E000242B252B79F790E080E0109719F0CD01A2
:1011F0000E94BA08A1960FB6F894DEBF0FBECDBF0D
:10120000DF91CF911F910F91BF90AF909F908F90E2
:101210000895E95CE1CF8CE792E00E94BA088DE87E
:1012200092E00E94BA0881E00E94CE05BC01990FAD
:10123000880B990B0E94291220E030E040E85AE325
:101240000E94DE1220E030E44CE955E40E94DE12F8
:1012500020E030E040E251E40E94861160932803D0
:101260007093290380932A0390932B0308954F9240
:101270005F926F927F928F929F92AF92BF92CF9226
:10128000DF92EF92FF920F931F93CF936B017C013C
:10129000742EAC019B010E944B13882399F080E9C6
:1012A00092E0CF911F910F91FF90EF90DF90CF9040
:1012B000BF90AF909F908F907F906F905F904F9076
:1012C0000C94BA0846015701E894B7F82FEF3FEFA6
:1012D0004FE75FE7C501B4010E944B1381110DC0B8
:1012E0002FEF3FEF4FE75FE7C501B4010E94811187
:1012F00018161CF484E992E0D4CF2FEF3FEF4FE7AC
:101300005FE4C701B6010E94D91218161CF488E9DF
:1013100092E0C7CF2FEF3FEF4FE75FECC701B60179
:101320000E94811187FDF3CF20E030E0A901C701C1
:10133000B6010E94811110E000E087FF0AC06DE253
:101340008BE494E00E948F068C01F7FAF094F7F892
:10135000F094C0E060E070E080E09FE37C1641F034
:1013600020E030E040E251E40E948611CF5FF6CFEA
:10137000A70196010E9415112B013C010E94F81152
:101380004B015C014AE00E94C7087C01E00EF11E9F
:10139000CC23C1F1C501B4010E9427129B01AC010D
:1013A000C301B2010E9414114B015C016EE28BE497
:1013B00094E00E948F06E80EF91EC15018F120E05B
:1013C00030E040E251E4C501B4010E94DE122B017D
:1013D0003C010E94F8114B01B12CA12C4AE0C5013F
:1013E000B4010E94C708E80EF91EC501B4010E94AD
:1013F00027129B01AC01C301B2010E9414114B01E1
:101400005C01DBCFC701CF911F910F91FF90EF904F
:10141000DF90CF90BF90AF909F908F907F906F9014
:101420005F904F9008950F931F93CF938C01C62F19
:1014300064600E94E9026C2F6B7FC8010E94E90280
:1014400083EC90E00197F1F7CF911F910F910895F0
:101450000F931F93CF93DF938C01C62FD62FD07F8E
:10146000D1606D2F0E94E9026D2FC8010E94130AFE
:1014700080E1C89FE0011124C1606C2FC8010E9467
:10148000E9026C2FC801DF91CF911F910F910C944D
:10149000130A0E94280A81E090E00895CF93C82F94
:1014A000682F8BE494E00E948F066C2F8FE394E00A
:1014B0000E94280ACF9108951F920F920FB60F92A3
:1014C00011240BB60F922F933F934F935F936F931B
:1014D0007F938F939F93AF93BF93EF93FF938091ED
:1014E000B900887F803609F44DC008F040C08832CA
:1014F00009F4A7C028F5803109F49BC0C8F48823FB
:1015000009F4F7C0883009F494C0FF91EF91BF91BE
:10151000AF919F918F917F916F915F914F913F918B
:101520002F910F900BBE0F900FBE0F901F9018952C
:10153000883109F486C0803241F78093990314C042
:10154000803409F49BC040F48033B9F38833E9F662
:101550008093990385ECAEC0803509F483C088354B
:1015600009F494C0883489F60E944E02CECF88399F
:1015700009F48AC038F5883729F050F4883611F01C
:10158000803719F683E080939A031092980355C030
:10159000883809F479C0803919F0803809F0B5CF5E
:1015A00080919803803208F06FC0E091980381E049
:1015B0008E0F809398038091BB00F0E0E858FC4FB9
:1015C00080833BC0803B39F0D0F4803A09F477C087
:1015D000883A09F09ACF84E080939A0310927703B7
:1015E00010927603F0E0E0E0199580917603811186
:1015F0000FC081E0809376031092560309C0803CAF
:1016000009F4A8CF883C09F4A5CF883B09F07DCF29
:10161000E091770381E08E0F80937703F0E0EA5A40
:10162000FC4F80818093BB0090917703809176037B
:1016300029C08091BF038093BB0085EC8093BC00E0
:1016400064CF9091BE038091BD03981758F5E09147
:10165000BE0381E08E0F8093BE03F0E0E356FC4FA3
:101660008081E9CFE091BE0381E08E0F8093BE03BD
:101670008091BB00F0E0E356FC4F80839091BE0365
:101680008091BD039817C8F285E8D8CFE091BE03DA
:1016900081E08E0F8093BE038091BB00F0E0E356A3
:1016A000FC4F808380919C0381115ECF81E0809309
:1016B0009B0384EA8093BC0010929A0326CF85ECAA
:1016C0008093BC0010929A0380919803803230F48A
:1016D000E0919803F0E0E858FC4F10826091980385
:1016E00070E088E793E0F0E0E0E01995109298034D
:1016F0000CCF1092990338CF1F920F920FB60F9212
:1017000011242F933F938F939F93AF93BF93809117
:10171000C0039091C103A091C203B091C303309163
:101720002C0323E0230F2D3758F50196A11DB11D81
:1017300020932C038093C0039093C103A093C20312
:10174000B093C30380912D0390912E03A0912F039A
:10175000B09130030196A11DB11D80932D0390938C
:101760002E03A0932F03B0933003BF91AF919F91AD
:101770008F913F912F910F900FBE0F901F90189552
:1017800026E8230F0296A11DB11DD2CF1F920F9202
:101790000FB60F9211240BB60F922F933F934F93D6
:1017A0005F936F937F938F939F93AF93BF93EF93C9
:1017B000FF938BE494E00E946E06FF91EF91BF913E
:1017C000AF919F918F917F916F915F914F913F91D9
:1017D0002F910F900BBE0F900FBE0F901F9018957A
:1017E0001F920F920FB60F9211240BB60F922F93E8
:1017F0008F939F93EF93FF93E0915B04F0915C04D0
:101800008081E0916104F091620482FD1DC09081AD
:10181000809164048F5F8F7320916504821741F07B
:10182000E0916404F0E0E55BFB4F958F80936404E6
:10183000FF91EF919F918F912F910F900BBE0F9081
:101840000FBE0F901F9018958081F2CF1F920F92BC
:101850000FB60F9211240BB60F922F933F934F9315
:101860005F936F937F938F939F93AF93BF93EF9308
:10187000FF930E948A01FF91EF91BF91AF919F91D9
:101880008F917F916F915F914F913F912F910F9029
:101890000BBE0F900FBE0F901F9018951F920F92C6
:1018A0000FB60F9211240BB60F922F933F934F93C5
:1018B0005F936F937F938F939F93AF93BF93EF93B8
:1018C000FF930E948A01FF91EF91BF91AF919F9189
:1018D0008F917F916F915F914F913F912F910F90D9
:1018E0000BBE0F900FBE0F901F9018951F920F9276
:1018F0000FB60F9211240BB60F922F933F934F9375
:101900005F936F937F938F939F93AF93BF93EF9367
:10191000FF930E948A01FF91EF91BF91AF919F9138
:101920008F917F916F915F914F913F912F910F9088
:101930000BBE0F900FBE0F901F9018951F920F9225
:101940000FB60F9211240BB60F922F933F934F9324
:101950005F936F937F938F939F93AF93BF93EF9317
:10196000FF930E948A01FF91EF91BF91AF919F91E8
:101970008F917F916F915F914F913F912F910F9038
:101980000BBE0F900FBE0F901F9018951092C703BB
:101990001092C60388EE93E0A0E0B0E08093C80305
:1019A0009093C903A093CA03B093CB038EE492E053
:1019B0009093C5038093C4031092D2031092D60370
:1019C0001092D5031092D7038EE592E09093D10345
:1019D0008093D003ECEEF3E0108214821382158220
:1019E000369684E0E832F807B9F780E192E0909308
:1019F0003304809332048DE092E090933504809319
:101A0000340484E08093360483E08093370484E1D7
:101A100092E090933104809330048AE090E09093B8
:101A200039048093380484EF91E090933B048093D1
:101A30003A0410923E0410923D0410922C0410922D
:101A40002D0410922E0410922F0410923C04109238
:101A500042041092410488E692E0909340048093FF
:101A60003F0487E28093430480E18093480482E04E
:101A70008093490410924A0410924E0410924D042F
:101A800088EE93E0A0E0B0E080934F049093500480
:101A9000A0935104B093520480E792E090934C04D9
:101AA00080934B0485EC90E0909358048093570406
:101AB00084EC90E090935A048093590480EC90E079
:101AC00090935C0480935B0481EC90E090935E04BF
:101AD00080935D0482EC90E09093600480935F04B7
:101AE00086EC90E090936204809361041092640409
:101AF0001092650410926604109267040895789419
:101B000084B5826084BD84B5816084BD85B5826002
:101B100085BD85B5816085BD80916E0081608093B3
:101B20006E0010928100809181008260809381001C
:101B3000809181008160809381008091800081602C
:101B4000809380008091B10084608093B100809187
:101B5000B00081608093B00080919100826080939A
:101B6000910080919100816080939100809190001C
:101B70008160809390008091A10082608093A10099
:101B80008091A10081608093A1008091A00081607C
:101B90008093A00080912101826080932101809137
:101BA00021018160809321018091200181608093D7
:101BB000200180917A00846080937A0080917A007D
:101BC000826080937A0080917A00816080937A00AD
:101BD00080917A00806880937A001092C100E09131
:101BE0005B04F0915C0482E08083E0915704F09103
:101BF00058041082E0915904F0915A048FEC8083CC
:101C000010926304E0915F04F091600486E08083A9
:101C1000E0915D04F0915E04808180618083E091B9
:101C20005D04F0915E04808188608083E0915D04B2
:101C3000F0915E04808180688083E0915D04F09182
:101C40005E0480818F7D808370E060E08EE49AE0A6
:101C50000E945F0F61E070E08FE698E00E945F0FE6
:101C60000E94A6080E94A6080E94A60861E08AE0D9
:101C70000E94370461E08BE00E94370461E08CE051
:101C80000E94370461E08DE00E94370461E086E144
:101C90000E94370461E088E10E94370460E08BE035
:101CA0000E94050461E08CE00E94050461E08AE086
:101CB0000E94370460E08AE00E9405048CE992E00B
:101CC0009F938F930E9458138CE090E00E94C60F60
:101CD000EC0190931F0380931E038CE090E00E9420
:101CE000C60FFC0190931D0380931C031882198278
:101CF0001A821B821C821D821E821F8218861986F0
:101D00001A861B8610821182128213821482158217
:101D10001682178210861186128613868EEA92E04A
:101D20009F938F930E9458130E94E4052B013C015E
:101D30000F900F900F900F9038EEC32E33E0D32EFC
:101D4000E12CF12C0E94E4056419750986099709B4
:101D5000683E734081059105A8F321E0C21AD108BD
:101D6000E108F10888EE480E83E0581E611C711CE2
:101D7000C114D104E104F10429F71092200110925A
:101D800021018091210188608093210180912101AE
:101D90008260809321018FEC97E0909329018093DA
:101DA00028011092250110922401D19A809173008C
:101DB00082608093730081ECE82E82E0F82E90ED33
:101DC000C92E92E0D92E23EEA22E22E0B22E03E0FD
:101DD00013E0C0E1D3E0FF92EF920E9458136091AC
:101DE00028037091290380912A0390912B0342E0EC
:101DF0000E94370980910002282F082E000C330B17
:101E00003F938F93DF92CF920E9458131F921F929D
:101E1000BF92AF920E94581384EF92E00E94BA08DA
:101E20008DE892E00E94BA080E9474082C01990F74
:101E3000660877088DB79EB70A960FB6F8949EBFCE
:101E40000FBE8DBF4AE0C301B20177FE0DC06DE247
:101E50008BE494E00E948F0666277727CB016419F4
:101E60007509860997094AE00E94C7088DE892E043
:101E70000E94BA081F930F930E9458136091240385
:101E800070912503809126039091270342E00E94E0
:101E90003709DF93CF930E9458136091200370910C
:101EA0002103809122039091230342E00E9437098D
:101EB0000E94F6060F900F900F900F908CCF0F930B
:101EC0001F93CF93DF93009759F46115710541F487
:101ED000F0E0E0E0CF01DF91CF911F910F910895E5
:101EE0008B01EC016EE070E081E090E00E94AA0FAF
:101EF000FC01892B69F380E883830115110571F0DA
:101F00001387028781E883838091E8049091E90434
:101F1000892B21F4F093E904E093E8042097D1F2AF
:101F2000D187C0878381826083838091EA04909106
:101F3000EB04892B79F6F093EB04E093EA048091AB
:101F4000EC049091ED04892B29F6F093ED04E093D5
:101F5000EC04C0CF0F931F93CF93DF93869F800134
:101F6000879F100D969F100D1124C8010E94C60F67
:101F7000EC01009729F0A80170E060E00E94EB10EE
:101F8000CE01DF91CF911F910F9108950F931F9371
:101F9000CF93DF938230910510F482E090E0E091DE
:101FA000F004F091F10430E020E0B0E0A0E03097E0
:101FB00099F42115310509F44AC0281B390B243046
:101FC0003105D8F58A819B816115710589F1FB0185
:101FD00093838283FE0111C040815181028113816C
:101FE00048175907E0F04817590799F4109761F01E
:101FF00012960C93129713961C933296CF01DF9191
:10200000CF911F910F9108950093F0041093F10464
:10201000F4CF2115310551F04217530738F0A901CB
:10202000DB019A01BD01DF01F801C1CFEF01F9CF5A
:102030009093F1048093F004CDCFFE01E20FF31FE3
:10204000819391932250310939832883D7CF2091EE
:10205000EE043091EF04232B41F4209122023091C1
:1020600023023093EF042093EE042091200230915C
:1020700021022115310541F42DB73EB740912402CC
:1020800050912502241B350BE091EE04F091EF04F2
:10209000E217F307A0F42E1B3F0B2817390778F03F
:1020A000AC014E5F5F4F2417350748F04E0F5F1F9E
:1020B0005093EF044093EE04819391939FCFF0E00F
:1020C000E0E09CCFCF93DF930097E9F0FC013297DB
:1020D00013821282A091F004B091F104ED0130E07E
:1020E00020E01097A1F420813181820F931F20916D
:1020F000EE043091EF042817390709F061C0F0931E
:10210000EF04E093EE04DF91CF910895EA01CE173A
:10211000DF07E8F54A815B819E0141155105B1F762
:10212000E901FB83EA8349915991C40FD51FEC174C
:10213000FD0761F4808191810296840F951FE9016A
:1021400099838883828193819B838A83F0E0E0E096
:1021500012968D919C9113970097B9F52D913C9112
:102160001197CD010296820F931F2091EE043091BA
:10217000EF042817390739F6309751F51092F1041A
:102180001092F004B093EF04A093EE04BCCFD3837D
:10219000C28340815181840F951FC817D90761F40C
:1021A0004E5F5F4F88819981480F591F518340834B
:1021B0008A819B81938382832115310509F0B0CFF9
:1021C000F093F104E093F0049ECFFD01DC01C0CF59
:1021D00013821282D7CFDC0101C06D934150504071
:1021E000E0F70895A1E21A2EAA1BBB1BFD010DC04A
:1021F000AA1FBB1FEE1FFF1FA217B307E407F507B7
:1022000020F0A21BB30BE40BF50B661F771F881F92
:10221000991F1A9469F760957095809590959B0128
:10222000AC01BD01CF0108955058BB27AA270E94D9
:102230002C110C949F120E94911238F00E94981257
:1022400020F039F49F3F19F426F40C948E120EF40A
:10225000E095E7FB0C948812E92F0E94B01258F326
:10226000BA17620773078407950720F079F4A6F57B
:102270000C94D2120EF4E0950B2EBA2FA02D0B0168
:10228000B90190010C01CA01A0011124FF27591BBB
:1022900099F0593F50F4503E68F11A16F040A22FC1
:1022A000232F342F4427585FF3CF46953795279532
:1022B000A795F0405395C9F77EF41F16BA0B620B31
:1022C000730B840BBAF09150A1F0FF0FBB1F661F78
:1022D000771F881FC2F70EC0BA0F621F731F841FBB
:1022E00048F4879577956795B795F7959E3F08F0E1
:1022F000B0CF9395880F08F09927EE0F97958795A3
:1023000008950E94641208F481E008950E949A11D1
:102310000C949F120E94981258F00E94911240F063
:1023200029F45F3F29F00C94881251110C94D312B8
:102330000C948E120E94B01268F39923B1F35523C6
:1023400091F3951B550BBB27AA27621773078407C8
:1023500038F09F5F5F4F220F331F441FAA1FA9F35E
:1023600035D00E2E3AF0E0E832D091505040E6954C
:10237000001CCAF72BD0FE2F29D0660F771F881FAD
:10238000BB1F261737074807AB07B0E809F0BB0BA0
:10239000802DBF01FF2793585F4F3AF09E3F5105B4
:1023A00078F00C9488120C94D3125F3FE4F3983EBB
:1023B000D4F3869577956795B795F7959F5FC9F79D
:1023C000880F911D9695879597F90895E1E0660F1E
:1023D000771F881FBB1F621773078407BA0720F097
:1023E000621B730B840BBA0BEE1F88F7E095089500
:1023F0000E94B81288F09F5798F0B92F9927B751CB
:10240000B0F0E1F0660F771F881F991F1AF0BA9598
:10241000C9F714C0B13091F00E94D212B1E0089512
:102420000C94D212672F782F8827B85F39F0B93F04
:10243000CCF3869577956795B395D9F73EF490954B
:102440008095709561957F4F8F4F9F4F0895E894C9
:1024500009C097FB3EF490958095709561957F4FEC
:102460008F4F9F4F9923A9F0F92F96E9BB2793959A
:10247000F695879577956795B795F111F8CFFAF4AA
:10248000BB0F11F460FF1BC06F5F7F4F8F4F9F4FDB
:1024900016C0882311F096E911C0772321F09EE839
:1024A000872F762F05C0662371F096E8862F70E09F
:1024B00060E02AF09A95660F771F881FDAF7880F79
:1024C0009695879597F90895990F0008550FAA0BCF
:1024D000E0E8FEEF16161706E807F907C0F0121637
:1024E0001306E407F50798F0621B730B840B950B3A
:1024F00039F40A2661F0232B242B252B21F408958F
:102500000A2609F4A140A6958FEF811D811D08952B
:1025100097F99F6780E870E060E008959FEF80EC96
:10252000089500240A941616170618060906089539
:1025300000240A9412161306140605060895092E9F
:102540000394000C11F4882352F0BB0F40F4BF2B0E
:1025500011F460FF04C06F5F7F4F8F4F9F4F08954E
:1025600057FD9058440F551F59F05F3F71F0479544
:10257000880F97FB991F61F09F3F79F08795089529
:10258000121613061406551FF2CF4695F1DF08C048
:10259000161617061806991FF1CF86957105610565
:1025A00008940895E894BB2766277727CB0197F90D
:1025B00008950E94641208F48FEF08950E94F112AA
:1025C0000C949F120E94911238F00E94981220F0F1
:1025D000952311F00C9488120C948E1211240C94F3
:1025E000D3120E94B01270F3959FC1F3950F50E083
:1025F000551F629FF001729FBB27F00DB11D639FB5
:10260000AA27F00DB11DAA1F649F6627B00DA11D5A
:10261000661F829F2227B00DA11D621F739FB00D00
:10262000A11D621F839FA00D611D221F749F332770
:10263000A00D611D231F849F600D211D822F762F09
:102640006A2F11249F5750409AF0F1F088234AF0E6
:10265000EE0FFF1FBB1F661F771F881F9150504052
:10266000A9F79E3F510580F00C9488120C94D31268
:102670005F3FE4F3983ED4F3869577956795B795D9
:10268000F795E7959F5FC1F7FE2B880F911D9695F3
:10269000879597F908950E946412880B990B089505
:1026A000EE0FFF1F881F8BBF0790F691E02D199446
:1026B000CF93DF93CDB7DEB7AE014A5F5F4FFA012C
:1026C00061917191AF018091EA049091EB040E94B5
:1026D0006C13DF91CF9108952F923F924F925F92AA
:1026E0006F927F928F929F92AF92BF92CF92DF9222
:1026F000EF92FF920F931F93CF93DF9300D000D000
:1027000000D01F921F92CDB7DEB77C013B018A013A
:10271000FC0117821682838181FFDDC1CE01019603
:102720005C01F7019381F30193FD859193FF819102
:102730003F01882309F453C1853239F493FD859113
:1027400093FF81913F01853229F4B70190E00E9407
:102750008415E7CF912C212C312CFFE1F31538F0B3
:102760008B3211F190F4803209F1833229F137FC78
:102770003CC020ED280F2A3050F536FE20C08AE0FC
:10278000989E200D1124922E06C08D3291F0803338
:1027900071F7689430F8F30193FD859193FF81916F
:1027A0003F018111DACF21C0689431F8689432F882
:1027B000F2CF689433F8EFCF689434F8ECCFEAE0C6
:1027C0002E9E200D1124222E689435F8E4CF8E32EF
:1027D00029F436FC04C1689436F8DDCF8C3619F440
:1027E000689437F8D8CF8836B1F2982F9F7D9554EA
:1027F0009330E0F08336A1F18337C1F1833509F0DE
:1028000063C02801F2E04F0E511CF801C080D18056
:10281000692D70E036FC02C06FEF7FEFC6010E94A9
:102820006E154C01689437F882010AC00C5F1F4F87
:10283000FFE3F98388248394912C6501E89437F8A9
:1028400033FE2DC0522C8114910471F5552009F4EA
:1028500068CFB70180E290E00E9484155A94F6CFC9
:10286000F801808189830E5F1F4FE4CF2801F2E0D9
:102870004F0E511CF801C080D180692D70E036FCEC
:1028800002C06FEF7FEFC6010E9479154C018201F3
:10289000D5CFB70180E290E00E9484152A942814D5
:1028A000190409F0B0F7CECFF60137FC859137FE59
:1028B00081916F01B70190E00E94841551105A94E4
:1028C000F1E08F1A9108BFCF843619F0893609F0EC
:1028D00077C0F80137FE6BC060817181828193817E
:1028E0000C5F1F4FF32DFF763F2E97FF09C0909589
:1028F0008095709561957F4F8F4F9F4F689437F803
:102900002AE030E0A5010E94B415C82ECA188C2C0C
:10291000432C36FE0CC0E89440F8C91440F434FE51
:1029200005C032FC03C0F32DFE7E4F2E892C44FEE1
:10293000AAC0FE01EC0DF11D8081803309F09CC01E
:10294000242D297E422E842D8870582E43FCAAC047
:1029500040FEA4C09C2C821418F42C0C922C9818C5
:1029600044FEA6C0B70180E390E00E94841542FEB9
:1029700009C088E790E041FE02C088E590E0B70119
:102980000E948415C91408F49FC0CA94D12C9FEFEB
:10299000C91AD90ACA0CDB1CF60182916F01B70172
:1029A00090E00E948415AC14BD04B1F74FCF608154
:1029B0007181072E000C880B990B0E5F1F4F92CF71
:1029C000D32CE894D4F82AE030E08537E1F1232DC8
:1029D000297FD22E8F36A9F1F0F4883551F1F70115
:1029E000868197812B960FB6F894DEBF0FBECDBFC0
:1029F000DF91CF911F910F91FF90EF90DF90CF90DB
:102A0000BF90AF909F908F907F906F905F904F900E
:102A10003F902F900895803749F0883701F7D4FE12
:102A200002C06894D2F820E130E00DC06894D4F878
:102A3000F6CF34FE03C0822F8660D82E20E132E02C
:102A400002C028E030E0F801D7FE0FC0608171813C
:102A5000828193810C5F1F4FA5010E94B415C82E7F
:102A6000CA183D2CE89437F852CF6081718190E00C
:102A700080E00E5F1F4FF0CF42FC02C0839463CF13
:102A80008394839460CF842D867809F45CCFF6CF4D
:102A9000B70180E290E00E94841583948214C0F311
:102AA000512C5ECF522C5818821408F459CFF8CF0D
:102AB000842D867809F466CF8BE241FE80E247FCE4
:102AC0008DE2B70190E05CCFB70180E390E00E9417
:102AD00084159A9457CF8FEF9FEF84CFFC01059018
:102AE000615070400110D8F7809590958E0F9F1F10
:102AF0000895FC016150704001900110D8F7809555
:102B000090958E0F9F1F08950F931F93CF93DF9380
:102B1000182F092FEB018B8181FD09C01FEF0FEFEB
:102B2000812F902FDF91CF911F910F91089582FFF8
:102B300014C02E813F818C819D81281739073CF478
:102B4000E881F981CF0101969983888310838E8172
:102B50009F8101969F838E83E3CFE885F985812F3E
:102B60001995892BA1F3DACFFA01AA27283051F160
:102B7000203181F1E8946F936E7F6E5F7F4F8F4FAE
:102B80009F4FAF4FB1E03ED0B4E03CD0670F781F0D
:102B9000891F9A1FA11D680F791F8A1F911DA11DF2
:102BA0006A0F711D811D911DA11D20D009F468942B
:102BB0003F912AE0269F11243019305D3193DEF6D3
:102BC000CF010895462F4770405D4193B3E00FD089
:102BD000C9F7F6CF462F4F70405D4A3318F0495D74
:102BE00031FD4052419302D0A9F7EACFB4E0A69557
:102BF0009795879577956795BA95C9F70097610579
:102C0000710508959B01AC010A2E069457954795CE
:102C100037952795BA95C9F7620F731F841F951FC3
:082C2000A01D0895F894FFCFF8
:102C28002DDC05D007E803E8032C01B80B181716AC
:102C3800191A1B1C3132333435363738392A3023C8
:102C48000000F20480000000803E0000003F000009
:102C5800403FE80310278200E803E803B80B0B099C
:102C6800280822088E087F08270700000000BA02FB
:102C78008D028602830280027F0200000000730436
:102C88003304020400000000490A0906000000009D
:102C98008F060906580636064A06D6065265616446
:102CA8002074656D7065726174757265000D0A0037
:102CB8006E616E00696E66006F7666004C696768C3
:102CC800742073656E736F7220696E697400496E43
:102CD800697469616C697A696E672074696D657277
:102CE800000A0D54656D70657261747572653A00FD
:102CF8000A0D2043686172206B65797061643A201F
:102D08002563000A0D436861722073657269616CFE
:102D18003A2563004973206C69676874206F6E3FB9
:102D28003F3F004C696768742076616C75653A00AE
:0A2D3800206C756D656E733A0000A3
:00000001FF
