:100000000C947B010C94AC010C94AC010C94AC01ED
:100010000C94AC010C94AC010C94AC010C94AC01AC
:100020000C94AC010C94AC010C94AC010C94AC019C
:100030000C94AC010C94AC010C94AC010C94AC018C
:100040000C94AC010C943F0F0C94AC010C94AC01DB
:100050000C94AC010C94AC010C94AC010C941D0EEE
:100060000C94AC010C94910E0C94670E0C94AC01A2
:100070000C94AC010C94AC010C94AC010C94AC014C
:100080000C94170F0C94AC010C94AC010C94AC01C3
:100090000C94AC010C94AC010C94AC010C94FD0CD0
:1000A0000C94AC010C94AC010C94EF0E0C94AC01CC
:1000B0000C94AC010C94AC010C94AC010C94C70EE4
:1000C0000C94AC010C94AC010C94AC010C94AC01FC
:1000D0000C94AC010C94AC010C94AC010C94AC01EC
:1000E0000C94AC010C94DD050C94E9060C941006FC
:1000F0000C9471030C9475030C9459060C94A30290
:100100000C94B20C0C94E5050C9408060C94AC030A
:100110000C944A040C9477060C946B080C944F06CC
:100120000C94F5020C94A2030C9482030C946609BF
:100130000C9463060C94C1020C949E030C949A03D5
:100140000C9494030C94130C0C9486030C94B30934
:100150000C94FE050C9436060C946D060C94EA097A
:100160000C9445060C94F9090C942A070C942C065F
:100170000C9438070C9418060C9479030C94EA0537
:100180000C94C8020C9416070C94A8030C947C03DE
:100190000C9490030C94B8090C94A4020C94B60728
:1001A0000C946C090C94A7030C94F4050C946F0741
:1001B0000C948C030C94670F0C946D030C94B20296
:1001C0000C94D9030C9467030C94930A0C942206A4
:1001D0000C940A0400002100240027002A002D00AE
:1001E0003000330001010000040107010A01000092
:1001F0002200250028002B002E00310034000201CF
:100200000000050108010B0100002000230026006A
:1002100029002C002F00320000010000030106011C
:10022000090105050505070508080808020202027C
:100230000A0A080804040404010101010101010182
:100240000303030303030303040707070C0C0C0C4D
:100250000C0C0C0C02020202060606060606060636
:100260000B0B0B0B0B0B0B0B0102102020080810C3
:100270002040102040800201020108040201010216
:1002800004081020408080402010080402018004EF
:10029000020180402010080402010804020101024A
:1002A0000408102040800102040810204080000053
:1002B0000A0B02090C0D0E080703040100000000E0
:1002C000000000000000000000000000000000002E
:1002D00000000000000000000000121110000000EB
:1002E000000000000000000000000000000000000E
:1002F00000000000670F11241FBECFEFD1E2DEBF68
:10030000CDBF00E00CBF13E0A0E0B2E0E8E3F3E310
:1003100000E00BBF02C007900D92AA33B107D9F7D6
:1003200025E0AAE3B3E001C01D92A331B207E1F7D3
:1003300011E0CBE7D1E000E006C021970109802F52
:10034000FE010E94D116CA37D10780E00807A9F73D
:100350000E9420100C949A190C940000EF92FF92C6
:100360000F931F93CF93DF93C4E0D2E08DE4E82E88
:1003700082E0F82E0FE312E088819981019789933A
:100380009993181619065CF0D701ED91FC91199517
:10039000F80180819181FE01329791838083F2E0A0
:1003A000EF0EF11C0E5F1F4F82E0C231D80721F71C
:1003B000DF91CF911F910F91FF90EF90089596E0FC
:1003C000899FD0011124AF50BC4F90967C936E93BF
:1003D0005F9791E091969C939197E0915E04F091E4
:1003E0005F0490915D04992339F0309751F08111A9
:1003F00008C080910D041994309719F05C968C9187
:10040000FACF0895CF92DF92EF92FF920F931F934E
:1004100096E0899FF0011124EF50FC4F11A2278D27
:1004200030A12130310551F178F02230310509F445
:1004300051C02330310509F452C01F910F91FF9034
:10044000EF90DF90CF9008956623B9F361E070E0FC
:100450000E94DF012FB7F8948091E1039091E203AD
:10046000A091E303B091E4032FBF809349049093DC
:100470004A04A0934B04B0934C04DFCF9FB7F89489
:10048000C090E103D090E203E090E303F090E40336
:100490009FBF0091490410914A0420914B04309170
:1004A0004C04C01AD10AE20AF30A00915B041091CD
:1004B0005C0430E020E00C151D052E053F0550F4CE
:1004C00062E070E01F910F91FF90EF90DF90CF906E
:1004D0000C94DF016111B1CF63E070E0F3CF70E005
:1004E00060E0F0CF85ED8093BC008091BC0084FD7E
:1004F000FCCF1092BB03089520919703260F33275A
:10050000331F21323105ECF42091BB03FC0190E054
:1005100080E0243069F082E00895A0919703219152
:10052000AC0149585C4FA40FB52FB11D2C93019617
:10053000861798F380919703680F6093970380E084
:10054000089581E00895089581E090E03091760368
:1005500020917503321710F490E080E09195819519
:10056000910908958091760390917503891730F46D
:100570008F5F8093760390E080E008958FEF9FEF88
:1005800008958091750390917603891B990B0895C6
:10059000CF92DF92EF92FF920F931F93CF93DF934F
:1005A0007C01CB018A0120917403222389F0EB01A5
:1005B0006B01C40ED51ECC15DD0569F06991D7011C
:1005C000ED91FC910190F081E02DC7011995F3CFD9
:1005D000642F0E947C02C801DF91CF911F910F917F
:1005E000FF90EF90DF90CF900895CF93DF931F920D
:1005F000CDB7DEB76983209174032223F9F02091EF
:100600007303203258F021E030E0FC013383228371
:1006100090E080E00F90DF91CF9108958091720378
:10062000E82FF0E0EE5AFC4F998190838F5F809322
:1006300072038093730381E090E0ECCF61E0CE0120
:1006400001960E947C02F7CF0F931F93660F771FCE
:10065000660F771FFC01E60FF71F008111812281D1
:100660003381DA01AA0FBB1FAA0FBB1FA80FB91F46
:100670004D915D916D917C9113974083518362837D
:1006800073830D931D932D933C9313971F910F919B
:1006900008958150823108F05AC0E82FF0E0882791
:1006A000EB5AFC4F8F4F0C94D116750379036703F7
:1006B0006D037103A7037C03820386038C039003FD
:1006C00094039A039E03A703A203A803AC0380919B
:1006D00080008F77809380000895809180008F7DC7
:1006E000F9CF80918000877FF5CF84B58F7784BD67
:1006F000089584B58F7DFBCF8091B0008F77809374
:10070000B00008958091B0008F7DF9CF8091900066
:100710008F77809390000895809190008F7DF9CF1E
:1007200080919000877FF5CF8091A0008F77809394
:10073000A00008958091A0008F7DF9CF8091A00046
:10074000877FF5CF809120018F77809320010895D6
:10075000809120018F7DF9CF80912001877FF5CF97
:10076000CF93DF93282F30E0F901E255FD4F8491BC
:10077000F901E859FD4FD491F901EE5DFD4FC491A7
:10078000CC23A1F081110E944903EC2FF0E0EE0F81
:10079000FF1FE85FFD4FA591B491EC91ED2381E03F
:1007A00090E009F480E0DF91CF91089580E090E03F
:1007B000FACF862F0C94B0031F93CF93DF93282F8B
:1007C00030E0F901E255FD4F8491F901E859FD4F00
:1007D000D491F901EE5DFD4FC491CC23A9F0162F01
:1007E00081110E944903EC2FF0E0EE0FFF1FE25150
:1007F000FE4FA591B4918FB7F894EC91111108C0F8
:10080000D095DE23DC938FBFDF91CF911F910895A8
:10081000DE2BF8CF862F642F0C94DC03CF93DF936D
:1008200090E0FC01E859FD4F24918E5D9D4FFC0145
:1008300084918823C9F090E0880F991FFC01EC5245
:10084000FE4FA591B491FC01E251FE4FC591D491A8
:1008500061110DC09FB7F8948C91209582238C93E1
:100860008881282328839FBFDF91CF91089562302C
:1008700051F49FB7F8943C91822F809583238C93F9
:10088000E8812E2BEFCF8FB7F894EC912E2B2C9381
:100890008FBFEACF862F642F0C940E046F927F9245
:1008A0008F929F92AF92BF92CF92DF92EF92FF9280
:1008B0000F931F93CF93DF9381E080935D048FB7F5
:1008C000F8944091E1035091E2036091E303709149
:1008D000E4038FBF80914D0490914E04A0914F048A
:1008E000B0915004481B590B6A0B7B0B8091590443
:1008F00090915A04B0E0A0E084179507A607B707C7
:1009000008F01DC1C0E080915704C81760F4E09161
:100910005304F0915404EC0FF11D62E080810E94B9
:100920000E04CF5FF0CF712C812C912C5401839455
:1009300080915804781608F05FC0072D10E0E09110
:100940005504F0915604E00FF11F61E080810E9490
:100950000E04E0915504F0915604E00FF11F60E0A1
:1009600080810E94DC03D501C401072C04C0880FDC
:10097000991FAA1FBB1F0A94D2F76C017C01E09457
:10098000F094612C809157046816F8F4C62DD0E0DD
:10099000E0915304F0915404EC0FFD1F80810E94FC
:1009A000B0032496CC0FDD1FCF50DC4F892B41F4D0
:1009B000888199818C299D29998388836394E2CFCA
:1009C000888199818E219F21F7CFE0915504F09184
:1009D0005604E00FF11F61E080810E94DC038091EA
:1009E000550490915604080F191F60E0F8018081AA
:1009F0000E940E0473949CCFC1EFD3E0FE018FEFF1
:100A00009FEF278D30A1232B21F4148E968F858F95
:100A100011A2369624E0ED32F20799F7F12C96E018
:100A2000D92E80915704F81608F050C0E12C0F2DF4
:100A300010E0000F111F07501C4F20915804E216C0
:100A400008F042C0F801608171810E2C02C07695D9
:100A500067950A94E2F7F29E900111242E0D311D44
:100A6000E1EFF3E080E0458D568D2417350709F45A
:100A70006AC08F5F36968A30B1F760FF23C0E1EF1E
:100A8000F3E090E080E0448D411117C0E091510403
:100A9000F0915204E20FF31F4081D89EF001D99EDD
:100AA000F00D1124EF50FC4F448F368F258F10A28C
:100AB000178E61E00E94020205C0019636968A30C8
:100AC000910509F7E394B9CFF394ABCF80E099A1F6
:100AD0009111892F2696F4E0CD32DF07C1F79FB739
:100AE000F8944091E1035091E2036091E303709127
:100AF000E4039FBF40934D0450934E0460934F0412
:100B0000709350048823D9F0809112048823B9F09F
:100B10008091100490911104019789F480910D0443
:100B2000DF91CF911F910F91FF90EF90DF90CF90C9
:100B3000BF90AF909F908F907F906F90089510928C
:100B40005D0480E0EDCF6170B5CF1F93CF93DF934D
:100B5000182FEB0161E00E940E04209739F460E049
:100B6000812FDF91CF911F910C94DC03CF3FD105F2
:100B700011F461E0F5CFE12FF0E0E255FD4FE49193
:100B8000E150E23108F0B3C0F0E08827E553FA4FB6
:100B90008F4F0C94D116DD05E505EA05F405FE0539
:100BA000770608061006180622062C0636064506A5
:100BB0004F067706590663066D0684B5806884BDC6
:100BC000C7BDDF91CF911F91089584B5806284BD28
:100BD000C8BDF7CF80918000806880938000D0935B
:100BE0008900C0938800EDCF80918000806280935F
:100BF0008000D0938B00C0938A00E3CF8091800067
:100C0000886080938000D0938D00C0938C00D9CFF2
:100C10008091B00080688093B000C093B300D1CFC2
:100C20008091B00080628093B000C093B400C9CFBF
:100C300080919000806880939000D0939900C09339
:100C40009800BFCF80919000806280939000D093F5
:100C50009B00C0939A00B5CF8091900088608093EC
:100C60009000D0939D00C0939C00ABCF8091A000DA
:100C700080688093A0008091A0008F7B8093A0006B
:100C8000D093A900C093A8009CCF8091A00080625F
:100C90008093A000D093AB00C093AA0092CF809124
:100CA000A00088608093A000D093AD00C093AC00FA
:100CB00088CF80912001806880932001D093290102
:100CC000C09328017ECF8091200180628093200113
:100CD000D0932B01C0932A0174CF809120018860AA
:100CE00080932001D0932D01C0932C016ACFC0388E
:100CF000D1050CF03ECF33CF90917B00977F90933E
:100D00007B00806480937C0080917A008064809373
:100D10007A0080917A0086FDFCCF809178009091D6
:100D2000790008953FB7F89480914E0390914F0356
:100D3000A0915003B091510326B5A89B05C02F3F49
:100D400019F00196A11DB11D3FBFBA2FA92F982FF1
:100D50008827BC01CD01620F711D811D911D42E0EC
:100D6000660F771F881F991F4A95D1F708958F92B4
:100D70009F92AF92BF92CF92DF92EF92FF924B0180
:100D80005C010E9492066B017C010E9492066C1924
:100D90007D098E099F09683E734081059105A8F37E
:100DA00021E0821A9108A108B10888EEC80E83E0FC
:100DB000D81EE11CF11C81149104A104B10429F78F
:100DC000FF90EF90DF90CF90BF90AF909F908F906B
:100DD0000895AF92BF92CF92DF92EF92FF920F935E
:100DE0001F93CF93DF936C017B018B01040F151FC1
:100DF000EB015E01AE18BF08C017D10759F0699129
:100E0000D601ED91FC910190F081E02DC60119957C
:100E1000892B79F7C501DF91CF911F910F91FF9039
:100E2000EF90DF90CF90BF90AF900895FC01918D2F
:100E3000828D981761F0A28DAE0FBF2FB11D5D9608
:100E40008C91928D9F5F9F73928F90E008958FEFAA
:100E50009FEF0895FC01918D828D981731F0828D5E
:100E6000E80FF11D858D90E008958FEF9FEF0895B5
:100E7000FC01918D228D892F90E0805C9F4F821B19
:100E800091098F739927089580E694E00E943807AE
:100E900021E0892B09F420E0822F0895FC01A48D24
:100EA000A80FB92FB11DA35ABF4F2C91848D90E08C
:100EB00001968F739927848FA689B7892C93A0896F
:100EC000B1898C9180648C93938D848D981306C026
:100ED0000288F389E02D80818F7D80830895EF92D1
:100EE000FF920F931F93CF93DF93EC0181E0888FE4
:100EF0009B8D8C8D981316C0E889F989808185FFB8
:100F000011C0EE89FF896083E889F9898081806456
:100F1000808381E090E0DF91CF911F910F91FF904E
:100F2000EF900895F62E0B8D10E00F5F1F4F0F739B
:100F30001127E02E8C8D8E110CC00FB607FCFACF56
:100F4000E889F989808185FFF5CFCE010E944E079F
:100F5000F1CFEB8DEC0FFD2FF11DE35AFF4FF08227
:100F60000B8FEA89FB8980818062D2CFCF93DF9398
:100F7000EC01888D8823B9F0AA89BB89E889F989B1
:100F80008C9185FD03C0808186FD0DC00FB607FCE6
:100F9000F7CF8C9185FFF2CF808185FFEDCFCE0119
:100FA0000E944E07E9CFDF91CF91089580E090E055
:100FB000892B29F00E94440781110E94000080E0E3
:100FC00090E0892B49F080E090E0892B29F00E9485
:100FD000000081110E94000080E090E0892B49F020
:100FE00080E090E0892B29F00E94000081110E948E
:100FF000000080E090E0892B49F080E090E0892BB0
:1010000029F00E94000081110C9400000895CF93F4
:10101000FC01C48121E020937403C0933C0310922F
:101020007203109273038385682B85EE93E00E9410
:10103000F50290917303913208F03FC08091BB0399
:101040008111FCCF82E08093BB0381E08093BD03DC
:101050008FEF8093BA031092DF039093DE03A2E533
:10106000B3E0EEEBF3E080E098132FC01092E003C2
:101070008091E003CC0FC82BC093E0038091BC03A8
:10108000813039F51092BC038091E0038093BB005E
:101090008091BC0083FDF8CF85EC8093BC008091EB
:1010A000BB038230E1F38091BA038F3F31F080912E
:1010B000BA03803211F08091BA0310927203109239
:1010C000730310927403CF9108952D9121938F5F34
:1010D000CBCF85EEE2CF6F927F928F929F92AF92AD
:1010E000BF92CF92DF92EF92FF920F931F93CF9315
:1010F000DF93CDB7DEB72C970FB6F894DEBF0FBEE7
:10110000CDBF80E00E947C06BC01990F880B990B33
:101110000E94AA1520913A0330913B0323303105F8
:1011200021F410923B0310923A0300913F03109177
:101130004003E0903A03F0903B03F701EE0FFF1FEE
:10114000EE0FFF1FE00FF11F608371838283938393
:10115000F801A080B180C280D380648075808680D1
:1011600097809301A401B501C6010E945A16181672
:101170004CF441E050E070E060E0C8010E942403BC
:10118000530164019501A601F8016085718582858E
:1011900093850E94021587FF07C042E050E070E08F
:1011A00060E0C8010E942403F80124813581468152
:1011B000578160857185828593850E94021587FF1E
:1011C00007C041E050E062E070E0C8010E942403E3
:1011D000F801448155816681778180913D0390912A
:1011E0003E03FC0104811581268137810087118728
:1011F0002287338700811181228133810483158303
:10120000268337834083518362837383FFEFEF1A12
:10121000FF0AF0923B03E0923A032CE0EBE2F2E0AB
:10122000DE01119601900D922A95E1F79E012F5F44
:101230003F4F79018C016C013CE0C30ED11C812C25
:10124000912C5401F70161917191819191917F01EC
:10125000F80121913191419151918F010E945F16C6
:101260009B01AC01C501B4010E9496144B015C01C5
:10127000C016D10639F720E030E040E450E40E9487
:10128000071560934503709346038093470390933B
:101290004803609341037093420380934303909308
:1012A00044032C960FB6F894DEBF0FBECDBFDF917E
:1012B000CF911F910F91FF90EF90DF90CF90BF9053
:1012C000AF909F908F907F906F9008950E944E04F2
:1012D0008111809303020895CF92DF92EF92FF92E3
:1012E000C0904903D0904A03E0904B03F0904C0328
:1012F00020E030E040ED51E4C701B6010E945A16EB
:1013000087FD11C089E00E94B003019761F060E0A1
:1013100088E00E94DC0361E089E0FF90EF90DF90BD
:10132000CF900C94DC0320E030E040EC51E4C701A6
:10133000B6010E94021518168CF089E00E94B003D5
:10134000019761F488E00E94B003019739F060E0F2
:1013500089E00E94DC0361E088E0DFCFFF90EF903E
:10136000DF90CF9008950E944E048823E1F3089502
:10137000682F80E694E00C946F07CF93DF93EC0125
:1013800061E086E10E94DC0360E088E10E94DC030A
:10139000BE018DE0DF91CF910C94A505CF93DF9333
:1013A000EC0160E086E10E94DC0361E088E10E94DC
:1013B000DC03BE018DE0DF91CF910C94A5058DE09B
:1013C0000E94B00321E030E0019711F030E020E00E
:1013D000C901089587E00E94B003019749F40E9473
:1013E000DF0960E0892B09F461E08DE00C94DC03F7
:1013F000089580910302833231F40E94DF0960E096
:10140000892B41F408958A32E9F70E94DF09892B7C
:10141000C9F761E08DE00C94DC03CF93C82F61E045
:101420000E940E0460E08C2FCF910C94DC0389E0C5
:1014300090E00E940D0A88E090E00E940D0A8FE083
:1014400090E00E940D0A8DE090E00E940D0A8EE06F
:1014500090E00C940D0A2FEF30E0DC010E94D916C9
:1014600024E630E040E050E00E944514C9010895B0
:10147000FB0101900020E9F73197AF01461B570BA4
:10148000DC01ED91FC910280F381E02D19948F92A3
:101490009F92AF92BF92EF92FF920F931F93CF93C1
:1014A000DF93CDB7DEB7A1970FB6F894DEBF0FBEBE
:1014B000CDBF7C01FA01CB0119A2223008F42AE049
:1014C0008E010F5D1F4F822E912CB12CA12CBF01DC
:1014D000A50194010E946414F901CA016A300CF557
:1014E000605DD8016E938D01232B242B252B79F77A
:1014F00090E080E0109721F0BD01C7010E94380AFA
:10150000A1960FB6F894DEBF0FBECDBFDF91CF918D
:101510001F910F91FF90EF90BF90AF909F908F9091
:101520000895695CDECF6DE872E080E694E00E9489
:10153000380A6EE972E080E694E00E94380A81E0A1
:101540000E947C06BC01990F880B990B0E94AA157A
:1015500020E030E040E85AE30E945F1620E030E4EB
:101560004CE955E40E945F1620E030E040E251E48F
:101570000E9407156093490370934A0380934B03BD
:1015800090934C0308952F923F924F925F926F92E7
:101590007F928F929F92AF92BF92CF92DF92EF9203
:1015A000FF921F93CF93DF93EC016A017B01722EB0
:1015B000AB019601CB01B6010E94CC1661EA72E044
:1015C000811126C046015701E894B7F82FEF3FEF8D
:1015D0004FE75FE7C501B4010E94CC1681110CC032
:1015E0002FEF3FEF4FE75FE7C501B4010E940215FF
:1015F00065EA72E0181664F02FEF3FEF4FE75FE403
:10160000C701B6010E945A161816B4F469EA72E0CE
:10161000CE01DF91CF911F91FF90EF90DF90CF909F
:10162000BF90AF909F908F907F906F905F904F9002
:101630003F902F900C94380A2FEF3FEF4FE75FEC6D
:10164000C701B6010E94021587FDE0CF20E030E01F
:10165000A901C701B6010E940215312C212C87FF78
:101660000DC0E881F9810190F081E02D6DE2CE019D
:1016700019951C01F7FAF094F7F8F09410E060E087
:1016800070E080E09FE3711641F020E030E040E23E
:1016900051E40E9407151F5FF6CFA70196010E9433
:1016A00096142B013C010E9479154B015C012AE044
:1016B000BC01A401CE010E94470A7C01E20CF31C8C
:1016C0001123E1F1C501B4010E94A8159B01AC01F1
:1016D000C301B2010E9495144B015C01E881F981BC
:1016E0000190F081E02D6EE2CE011995E80EF91E11
:1016F000115020F120E030E040E251E4C501B40196
:101700000E945F162B013C010E9479154B01B12C00
:10171000A12C2AE0B501A401CE010E94470AE80EDF
:10172000F91EC501B4010E94A8159B01AC01C301BB
:10173000B2010E9495144B015C01DACFC701DF9121
:10174000CF911F91FF90EF90DF90CF90BF90AF901F
:101750009F908F907F906F905F904F903F902F90D1
:1017600008950F931F93CF938C01C62F0E940708F3
:101770006C2F6460C8010E9407086C2F6B7FC80142
:101780000E94070883EC90E00197F1F7CF911F9139
:101790000F9108950F931F93CF93DF938C01D62F52
:1017A000C42F607F642B0E94B10B80E1D89FB001F1
:1017B00011246C2BC801DF91CF911F910F910C94D4
:1017C000B10BCF93DF9300D000D01F921F92CDB703
:1017D000DEB798E0E7E3F2E0DE01119601900D92AA
:1017E0009A95E1F790910505961710F46FEF690F40
:1017F000262F30E0220F331F41E050E04C0F5D1FD9
:10180000240F351FF9016081680F606840E08DEF9B
:1018100094E028960FB6F894DEBF0FBECDBFDF91DF
:10182000CF910C94CA0B41E00E94CA0B81E090E07A
:10183000089560E08BE00E94DC0360E08CE00E9491
:10184000DC0370E060E08AE00E94A50560E086E1CC
:101850000E94DC0360E088E10E94DC0370E060E04D
:101860008AE00E94A50583E7809300020895CF9344
:10187000DF93809100028C3609F441C03CF482363B
:1018800031F1863661F0DF91CF910895823709F406
:1018900041C08337C1F7DF91CF910C94190C80912F
:1018A0000102909102020E942B0AEC0160E08BE0A1
:1018B0000E94DC0361E08CE00E94DC03BE018AE050
:1018C0000E94A505CE01DF91CF910C94CE098091A5
:1018D0000102909102020E942B0AEC0161E08BE070
:1018E0000E94DC0360E08CE00E94DC03BE018AE021
:1018F0000E94A505CE01DF91CF910C94BD0988E22D
:1019000090E00E942B0AEC0161E08BE00E94DC0376
:1019100060E0D1CF88E290E00E942B0AEC0160E009
:101920008BE00E94DC0361E0DECFCF93DF9386E69D
:101930008093000280910102909102020E942B0A82
:10194000EC0160E08BE00E94DC0361E08CE00E942F
:10195000DC03BE018AE00E94A505CE01DF91CF9194
:101960000C94CE0980910302803311F40C94190C6D
:10197000813351F40E94950C84E190E0909302022F
:10198000809301020C94370C823329F40E94950C49
:101990008EE190E0F3CF833329F40E94950C88E226
:1019A00090E0ECCF843329F40E94950C82E390E020
:1019B000E5CF853329F40E94950C8CE390E0DECFCF
:1019C000863329F40E94950C86E490E0D7CF8733C4
:1019D00029F40E94950C80E590E0D0CF883329F45B
:1019E0000E94950C8AE590E0C9CF893329F40E94C2
:1019F000950C84E690E0C2CF08951F920F920FB627
:101A00000F9211240BB60F922F933F934F935F9336
:101A10006F937F938F939F93AF93BF93EF93FF93B6
:101A20008091B900887F803609F44DC008F040C02D
:101A3000883209F4A7C028F5803109F49BC0C8F4A6
:101A4000882309F4F7C0883009F494C0FF91EF911E
:101A5000BF91AF919F918F917F916F915F914F91C6
:101A60003F912F910F900BBE0F900FBE0F901F90C4
:101A70001895883109F486C0803241F78093BA0303
:101A800014C0803409F49BC040F48033B9F3883328
:101A9000E9F68093BA0385ECAEC0803509F483C0C3
:101AA000883509F494C0883489F60E947202CECF3A
:101AB000883909F48AC038F5883729F050F4883617
:101AC00011F0803719F683E08093BB031092B903BD
:101AD00055C0883809F479C0803919F0803809F088
:101AE000B5CF8091B903803208F06FC0E091B9039F
:101AF00081E08E0F8093B9038091BB00F0E0E75640
:101B0000FC4F80833BC0803B39F0D0F4803A09F42D
:101B100077C0883A09F09ACF84E08093BB03109293
:101B2000980310929703F0E0E0E0199580919703F5
:101B300081110FC081E0809397031092770309C051
:101B4000803C09F4A8CF883C09F4A5CF883B09F074
:101B50007DCFE091980381E08E0F80939803F0E0B1
:101B6000E958FC4F80818093BB009091980380914D
:101B7000970329C08091E0038093BB0085EC80939C
:101B8000BC0064CF9091DF038091DE03981758F575
:101B9000E091DF0381E08E0F8093DF03F0E0E254F9
:101BA000FC4F8081E9CFE091DF0381E08E0F8093CD
:101BB000DF038091BB00F0E0E254FC4F8083909102
:101BC000DF038091DE039817C8F285E8D8CFE09153
:101BD000DF0381E08E0F8093DF038091BB00F0E094
:101BE000E254FC4F80838091BD0381115ECF81E080
:101BF0008093BC0384EA8093BC001092BB0326CF81
:101C000085EC8093BC001092BB038091B9038032B5
:101C100030F4E091B903F0E0E756FC4F1082609198
:101C2000B90370E089E993E0F0E0E0E019951092E3
:101C3000B9030CCF1092BA0338CF1F920F920FB690
:101C40000F9211242F933F938F939F93AF93BF9342
:101C50008091E1039091E203A091E303B091E4034A
:101C600030914D0323E0230F2D3758F50196A11D28
:101C7000B11D20934D038093E1039093E203A09361
:101C8000E303B093E40380914E0390914F03A0913E
:101C90005003B09151030196A11DB11D80934E03D5
:101CA00090934F03A0935003B0935103BF91AF9112
:101CB0009F918F913F912F910F900FBE0F901F908A
:101CC000189526E8230F0296A11DB11DD2CF1F92B1
:101CD0000F920FB60F9211240BB60F922F933F93D2
:101CE0004F935F936F937F938F939F93AF93BF9324
:101CF000EF93FF9380E694E00E944E07FF91EF91EF
:101D0000BF91AF919F918F917F916F915F914F9113
:101D10003F912F910F900BBE0F900FBE0F901F9011
:101D200018951F920F920FB60F9211240BB60F92B7
:101D30002F938F939F93EF93FF93E0917004F09113
:101D400071048081E0917604F091770482FD1DC0DA
:101D50009081809179048F5F8F7320917A0482172C
:101D600041F0E0917904F0E0E05AFB4F958F8093C9
:101D70007904FF91EF919F918F912F910F900BBE5E
:101D80000F900FBE0F901F9018958081F2CF1F9279
:101D90000F920FB60F9211240BB60F922F933F9311
:101DA0004F935F936F937F938F939F93AF93BF9363
:101DB000EF93FF930E94AE01FF91EF91BF91AF911E
:101DC0009F918F917F916F915F914F913F912F9153
:101DD0000F900BBE0F900FBE0F901F9018951F9283
:101DE0000F920FB60F9211240BB60F922F933F93C1
:101DF0004F935F936F937F938F939F93AF93BF9313
:101E0000EF93FF930E94AE01FF91EF91BF91AF91CD
:101E10009F918F917F916F915F914F913F912F9102
:101E20000F900BBE0F900FBE0F901F9018951F9232
:101E30000F920FB60F9211240BB60F922F933F9370
:101E40004F935F936F937F938F939F93AF93BF93C2
:101E5000EF93FF930E94AE01FF91EF91BF91AF917D
:101E60009F918F917F916F915F914F913F912F91B2
:101E70000F900BBE0F900FBE0F901F9018951F92E2
:101E80000F920FB60F9211240BB60F922F933F9320
:101E90004F935F936F937F938F939F93AF93BF9372
:101EA000EF93FF930E94AE01FF91EF91BF91AF912D
:101EB0009F918F917F916F915F914F913F912F9162
:101EC0000F900BBE0F900FBE0F901F9018951092A1
:101ED000E8031092E70388EE93E0A0E0B0E080937F
:101EE000E9039093EA03A093EB03B093EC038FE52F
:101EF00092E09093E6038093E5031092F30310922F
:101F0000F7031092F6031092F8038FE692E0909395
:101F1000F2038093F103EDE0F4E010821482138267
:101F20001582369684E0E934F807B9F785E192E046
:101F3000909354048093530482E192E0909356046A
:101F40008093550484E08093570483E08093580481
:101F500089E192E090935204809351048AE090E0EA
:101F600090935A048093590484EF91E090935C0419
:101F700080935B0410925F0410925E0410924D04F3
:101F800010924E0410924F041092500410925D046F
:101F9000109263041092620488EE93E0A0E0B0E037
:101FA0008093640490936504A0936604B0936704DF
:101FB00089E792E0909361048093600485EC90E05F
:101FC00090936D0480936C0484EC90E090936F0484
:101FD00080936E0480EC90E0909371048093700481
:101FE00081EC90E0909373048093720482EC90E013
:101FF000909375048093740486EC90E0909377043A
:10200000809376041092790410927A0410927B04E3
:1020100010927C04109200051092FF0489E892E06F
:102020009093FE048093FD0487E28093010580E194
:102030008093060582E080930705109208050895B5
:10204000789484B5826084BD84B5816084BD85B593
:10205000826085BD85B5816085BD80916E0081609F
:1020600080936E0010928100809181008260809345
:102070008100809181008160809381008091800047
:102080008160809380008091B10084608093B10072
:102090008091B00081608093B00080919100826057
:1020A0008093910080919100816080939100809154
:1020B00090008160809390008091A1008260809365
:1020C000A1008091A10081608093A1008091A00077
:1020D00081608093A0008091210182608093210122
:1020E0008091210181608093210180912001816094
:1020F0008093200180917A00846080937A0080919F
:102100007A00826080937A0080917A008160809367
:102110007A0080917A00806880937A001092C100E2
:10212000E0917004F091710482E08083E0916C048E
:10213000F0916D041082E0916E04F0916F048FECC9
:10214000808310927804E0917404F091750486E025
:102150008083E0917204F0917304808180618083B8
:10216000E0917204F0917304808188608083E09133
:102170007204F0917304808180688083E09172041E
:10218000F091730480818F7D808370E060E088EB44
:1021900099E00E94B21261E070E083EB99E00E9446
:1021A000B2120E94170A0E94170A0E94170A61E0E1
:1021B0008AE00E940E0461E08BE00E940E0461E060
:1021C0008CE00E940E0461E08DE00E940E0461E04C
:1021D00086E10E940E0461E088E10E940E0460E046
:1021E0008BE00E94DC0361E08CE00E94DC0370E085
:1021F00060E08AE00E94A5058DEA92E09F938F93AC
:102200000E94E0168CE090E00E941913EC0190937C
:10221000400380933F038CE090E00E941913FC017F
:1022200090933E0380933D03188219821A821B8289
:102230001C821D821E821F82188619861A861B86A2
:1022400010821182128213821482158216821782E2
:1022500010861186128613861092760310927503EB
:1022600010927203109273031092BB0381E080936B
:10227000BD031092BC0361E084E10E94DC0361E0D5
:1022800085E10E94DC038091B9008E7F8093B900C4
:102290008091B9008D7F8093B90088E48093B80065
:1022A00085E48093BC0010920205809107050F9091
:1022B0000F90823018F098E0909302058093050506
:1022C00062E370E080E090E00E94B706609108054C
:1022D0008DEF94E00E94070868EE73E080E090E0E4
:1022E0000E94B70660E38DEF94E00E94B10BCBE44F
:1022F000D6E4CE010197F1F760E38DEF94E00E9400
:10230000B10B2197F1F760E38DEF94E00E94B10BE0
:1023100083E592E00197F1F760E28DEF94E00E948F
:10232000B10B60910205606240E08DEF94E00E9485
:10233000CA0B84E08093030540E06CE08DEF94E0ED
:102340000E94CA0B40E061E08DEF94E00E94CA0B4E
:10235000CBE3DFE1CE010197F1F782E08093040542
:1023600040E066E08DEF94E00E94CA0B40E062E03E
:102370008DEF94E00E94CA0B2197F1F788E08093DB
:10238000080560E08DEF94E00E9407088FEB92E073
:102390009F938F930E94E01668EE73E080E090E0D8
:1023A0000E94B70610922001109221018091210114
:1023B00088608093210180912101826080932101B6
:1023C0008FEC97E0909329018093280110922501CA
:1023D00010922401D19A80917300826080937300DF
:1023E0000F900F9082EDE82E82E0F82E91EEC92E2C
:1023F00092E0D92E24EFA22E22E0B22E04E113E0C7
:10240000C1E2D3E0FF92EF920E94E01640914903AF
:1024100050914A0360914B0370914C0322E080E697
:1024200094E00E94C30A80910302282F082E000C1A
:10243000330B3F938F93DF92CF920E94E0161F924F
:102440001F92BF92AF920E94E01665E073E080E6B3
:1024500094E00E94380A6EE972E080E694E00E94FF
:10246000380A0E94DF092C01990F660877088DB79A
:102470009EB70A960FB6F8949EBF0FBE8DBF2AE096
:10248000B301A20177FE0DC06DE280E694E00E94E8
:102490006F0744275527BA0144195509660977097A
:1024A0002AE080E694E00E94470A6EE972E080E646
:1024B00094E00E94380A1F930F930E94E016409107
:1024C000450350914603609147037091480322E011
:1024D00080E694E00E94C30ADF93CF930E94E01647
:1024E0004091410350914203609143037091440332
:1024F00022E080E694E00E94C30A60E080E00E944F
:10250000E10B6AE273E08DEF94E00E94380A40919B
:10251000490350914A0360914B0370914C0322E0B0
:102520008DEF94E00E94C30A61E080E00E94E10B1D
:1025300061E373E08DEF94E00E94380A4091450317
:1025400050914603609147037091480322E08DEF5C
:1025500094E00E94C30A0E94D6070F900F900F903C
:102560000F9050CF0F931F93CF93DF93009759F4A1
:102570006115710541F4F0E0E0E0CF01DF91CF910A
:102580001F910F9108958B01EC016EE070E081E0E6
:1025900090E00E94FD12FC01892B69F380E883839F
:1025A0000115110571F01387028781E883838091FB
:1025B000090590910A05892B21F4F0930A05E0930F
:1025C00009052097D1F2D187C087838182608383F8
:1025D00080910B0590910C05892B79F6F0930C05F1
:1025E000E0930B0580910D0590910E05892B29F63E
:1025F000F0930E05E0930D05C0CF0F931F93CF937B
:10260000DF93869F8001879F100D969F100D1124E8
:10261000C8010E941913EC01009729F0A80170E08D
:1026200060E00E943E14CE01DF91CF911F910F9187
:1026300008950F931F93CF93DF938230910510F489
:1026400082E090E0E0911105F091120530E020E089
:10265000B0E0A0E0309799F42115310509F44AC0A3
:10266000281B390B24303105D8F58A819B816115EF
:10267000710589F1FB0193838283FE0111C04081C2
:1026800051810281138148175907E0F04817590713
:1026900099F4109761F012960C93129713961C936D
:1026A0003296CF01DF91CF911F910F910895009342
:1026B000110510931205F4CF2115310551F0421781
:1026C000530738F0A901DB019A01BD01DF01F801D0
:1026D000C1CFEF01F9CF9093120580931105CDCFB3
:1026E000FE01E20FF31F8193919322503109398348
:1026F0002883D7CF20910F0530911005232B41F46B
:1027000020912702309128023093100520930F0565
:1027100020912502309126022115310541F42DB773
:102720003EB74091290250912A02241B350BE091BB
:102730000F05F0911005E217F307A0F42E1B3F0BD5
:102740002817390778F0AC014E5F5F4F2417350723
:1027500048F04E0F5F1F5093100540930F05819373
:1027600091939FCFF0E0E0E09CCFCF93DF93009771
:10277000E9F0FC01329713821282A0911105B09109
:102780001205ED0130E020E01097A1F420813181A5
:10279000820F931F20910F053091100528173907DC
:1027A00009F061C0F0931005E0930F05DF91CF9120
:1027B0000895EA01CE17DF07E8F54A815B819E01A3
:1027C00041155105B1F7E901FB83EA83499159911C
:1027D000C40FD51FEC17FD0761F48081918102962B
:1027E000840F951FE90199838883828193819B835C
:1027F0008A83F0E0E0E012968D919C911397009708
:10280000B9F52D913C911197CD010296820F931F3E
:1028100020910F05309110052817390739F63097A8
:1028200051F51092120510921105B0931005A09366
:102830000F05BCCFD383C28340815181840F951F84
:10284000C817D90761F44E5F5F4F88819981480F9F
:10285000591F518340838A819B81938382832115F1
:10286000310509F0B0CFF0931205E09311059ECF2A
:10287000FD01DC01C0CF13821282D7CFDC0101C081
:102880006D9341505040E0F70895052E97FB1EF4DC
:1028900000940E945C1457FD07D00E94641407FC4A
:1028A00003D04EF40C945C145095409530952195CE
:1028B0003F4F4F4F5F4F089590958095709561956C
:1028C0007F4F8F4F9F4F0895A1E21A2EAA1BBB1B6B
:1028D000FD010DC0AA1FBB1FEE1FFF1FA217B307EC
:1028E000E407F50720F0A21BB30BE40BF50B661F02
:1028F000771F881F991F1A9469F7609570958095C6
:1029000090959B01AC01BD01CF010895A29FB0013C
:10291000B39FC001A39F700D811D1124911DB29F13
:10292000700D811D1124911D08955058BB27AA27B1
:102930000E94AD140C9420160E94121638F00E94CA
:10294000191620F039F49F3F19F426F40C940F1651
:102950000EF4E095E7FB0C940916E92F0E9431165E
:1029600058F3BA17620773078407950720F079F4C4
:10297000A6F50C9453160EF4E0950B2EBA2FA02D4D
:102980000B01B90190010C01CA01A0011124FF271C
:10299000591B99F0593F50F4503E68F11A16F04017
:1029A000A22F232F342F4427585FF3CF4695379516
:1029B0002795A795F0405395C9F77EF41F16BA0BDB
:1029C000620B730B840BBAF09150A1F0FF0FBB1F89
:1029D000661F771F881FC2F70EC0BA0F621F731FD2
:1029E000841F48F4879577956795B795F7959E3F2F
:1029F00008F0B0CF9395880F08F09927EE0F9795C0
:102A0000879508950E94E51508F481E008950E94D5
:102A10001B150C9420160E94191658F00E941216CD
:102A200040F029F45F3F29F00C94091651110C94E1
:102A300054160C940F160E94311668F39923B1F3C3
:102A4000552391F3951B550BBB27AA2762177307D4
:102A5000840738F09F5F5F4F220F331F441FAA1F68
:102A6000A9F335D00E2E3AF0E0E832D09150504024
:102A7000E695001CCAF72BD0FE2F29D0660F771FD2
:102A8000881FBB1F261737074807AB07B0E809F0B8
:102A9000BB0B802DBF01FF2793585F4F3AF09E3F3D
:102AA000510578F00C9409160C9454165F3FE4F32A
:102AB000983ED4F3869577956795B795F7959F5F80
:102AC000C9F7880F911D9695879597F90895E1E0CC
:102AD000660F771F881FBB1F621773078407BA072B
:102AE00020F0621B730B840BBA0BEE1F88F7E09586
:102AF00008950E94391688F09F5798F0B92F9927AA
:102B0000B751B0F0E1F0660F771F881F991F1AF0D8
:102B1000BA95C9F714C0B13091F00E945316B1E0D4
:102B200008950C945316672F782F8827B85F39F0D3
:102B3000B93FCCF3869577956795B395D9F73EF471
:102B400090958095709561957F4F8F4F9F4F089519
:102B5000E89409C097FB3EF4909580957095619537
:102B60007F4F8F4F9F4F9923A9F0F92F96E9BB27ED
:102B70009395F695879577956795B795F111F8CF69
:102B8000FAF4BB0F11F460FF1BC06F5F7F4F8F4FD4
:102B90009F4F16C0882311F096E911C0772321F0CA
:102BA0009EE8872F762F05C0662371F096E8862F62
:102BB00070E060E02AF09A95660F771F881FDAF7B9
:102BC000880F9695879597F90895990F0008550FE6
:102BD000AA0BE0E8FEEF16161706E807F907C0F0A3
:102BE00012161306E407F50798F0621B730B840BAB
:102BF000950B39F40A2661F0232B242B252B21F485
:102C000008950A2609F4A140A6958FEF811D811D24
:102C1000089597F99F6780E870E060E008959FEF5E
:102C200080EC089500240A94161617061806090663
:102C3000089500240A941216130614060506089532
:102C4000092E0394000C11F4882352F0BB0F40F4BA
:102C5000BF2B11F460FF04C06F5F7F4F8F4F9F4FFA
:102C6000089557FD9058440F551F59F05F3F71F07C
:102C70004795880F97FB991F61F09F3F79F08795E3
:102C80000895121613061406551FF2CF4695F1DF6C
:102C900008C0161617061806991FF1CF86957105FC
:102CA000610508940895E894BB2766277727CB0130
:102CB00097F908950E94E51508F48FEF08950E9492
:102CC00072160C9420160E94121638F00E941916E3
:102CD00020F0952311F00C9409160C940F16112472
:102CE0000C9454160E94311670F3959FC1F3950F02
:102CF00050E0551F629FF001729FBB27F00DB11D80
:102D0000639FAA27F00DB11DAA1F649F6627B00D0F
:102D1000A11D661F829F2227B00DA11D621F739FF8
:102D2000B00DA11D621F839FA00D611D221F749F06
:102D30003327A00D611D231F849F600D211D822F4D
:102D4000762F6A2F11249F5750409AF0F1F0882374
:102D50004AF0EE0FFF1FBB1F661F771F881F9150A1
:102D60005040A9F79E3F510580F00C9409160C9431
:102D700054165F3FE4F3983ED4F3869577956795B4
:102D8000B795F795E7959F5FC1F7FE2B880F911DCB
:102D90009695879597F908950E94E515880B990BEC
:102DA0000895EE0FFF1F881F8BBF0790F691E02D4F
:102DB00019940E948614B7FF0895821B930B0895FF
:102DC000CF93DF93CDB7DEB7AE014A5F5F4FFA0115
:102DD00061917191AF0180910B0590910C050E945A
:102DE000F416DF91CF9108952F923F924F925F9208
:102DF0006F927F928F929F92AF92BF92CF92DF920B
:102E0000EF92FF920F931F93CF93DF9300D000D0E8
:102E100000D01F921F92CDB7DEB77C013B018A0123
:102E2000FC0117821682838181FFDDC1CE010196EC
:102E30005C01F7019381F30193FD859193FF8191EB
:102E40003F01882309F453C1853239F493FD8591FC
:102E500093FF81913F01853229F4B70190E00E94F0
:102E60000C19E7CF912C212C312CFFE1F31538F010
:102E70008B3211F190F4803209F1833229F137FC61
:102E80003CC020ED280F2A3050F536FE20C08AE0E5
:102E9000989E200D1124922E06C08D3291F0803321
:102EA00071F7689430F8F30193FD859193FF819158
:102EB0003F018111DACF21C0689431F8689432F86B
:102EC000F2CF689433F8EFCF689434F8ECCFEAE0AF
:102ED0002E9E200D1124222E689435F8E4CF8E32D8
:102EE00029F436FC04C1689436F8DDCF8C3619F429
:102EF000689437F8D8CF8836B1F2982F9F7D9554D3
:102F00009330E0F08336A1F18337C1F1833509F0C6
:102F100063C02801F2E04F0E511CF801C080D1803F
:102F2000692D70E036FC02C06FEF7FEFC6010E9492
:102F3000F6184C01689437F882010AC00C5F1F4FE5
:102F4000FFE3F98388248394912C6501E89437F892
:102F500033FE2DC0522C8114910471F5552009F4D3
:102F600068CFB70180E290E00E940C195A94F6CF26
:102F7000F801808189830E5F1F4FE4CF2801F2E0C2
:102F80004F0E511CF801C080D180692D70E036FCD5
:102F900002C06FEF7FEFC6010E9401194C01820150
:102FA000D5CFB70180E290E00E940C192A94281432
:102FB000190409F0B0F7CECFF60137FC859137FE42
:102FC00081916F01B70190E00E940C1951105A9441
:102FD000F1E08F1A9108BFCF843619F0893609F0D5
:102FE00077C0F80137FE6BC0608171818281938167
:102FF0000C5F1F4FF32DFF763F2E97FF09C0909572
:103000008095709561957F4F8F4F9F4F689437F8EB
:103010002AE030E0A5010E943C19C82ECA188C2C69
:10302000432C36FE0CC0E89440F8C91440F434FE3A
:1030300005C032FC03C0F32DFE7E4F2E892C44FECA
:10304000AAC0FE01EC0DF11D8081803309F09CC007
:10305000242D297E422E842D8870582E43FCAAC030
:1030600040FEA4C09C2C821418F42C0C922C9818AE
:1030700044FEA6C0B70180E390E00E940C1942FE16
:1030800009C088E790E041FE02C088E590E0B70102
:103090000E940C19C91408F49FC0CA94D12C9FEF48
:1030A000C91AD90ACA0CDB1CF60182916F01B7015B
:1030B00090E00E940C19AC14BD04B1F74FCF6081B1
:1030C0007181072E000C880B990B0E5F1F4F92CF5A
:1030D000D32CE894D4F82AE030E08537E1F1232DB1
:1030E000297FD22E8F36A9F1F0F4883551F1F701FE
:1030F000868197812B960FB6F894DEBF0FBECDBFA9
:10310000DF91CF911F910F91FF90EF90DF90CF90C3
:10311000BF90AF909F908F907F906F905F904F90F7
:103120003F902F900895803749F0883701F7D4FEFB
:1031300002C06894D2F820E130E00DC06894D4F861
:10314000F6CF34FE03C0822F8660D82E20E132E015
:1031500002C028E030E0F801D7FE0FC06081718125
:10316000828193810C5F1F4FA5010E943C19C82EDC
:10317000CA183D2CE89437F852CF6081718190E0F5
:1031800080E00E5F1F4FF0CF42FC02C0839463CFFC
:103190008394839460CF842D867809F45CCFF6CF36
:1031A000B70180E290E00E940C1983948214C0F36E
:1031B000512C5ECF522C5818821408F459CFF8CFF6
:1031C000842D867809F466CF8BE241FE80E247FCCD
:1031D0008DE2B70190E05CCFB70180E390E00E9400
:1031E0000C199A9457CF8FEF9FEF84CFFC01059075
:1031F000615070400110D8F7809590958E0F9F1FF9
:103200000895FC016150704001900110D8F780953D
:1032100090958E0F9F1F08950F931F93CF93DF9369
:10322000182F092FEB018B8181FD09C01FEF0FEFD4
:10323000812F902FDF91CF911F910F91089582FFE1
:1032400014C02E813F818C819D81281739073CF461
:10325000E881F981CF0101969983888310838E815B
:103260009F8101969F838E83E3CFE885F985812F27
:103270001995892BA1F3DACFFA01AA27283051F149
:10328000203181F1E8946F936E7F6E5F7F4F8F4F97
:103290009F4FAF4FB1E03ED0B4E03CD0670F781FF6
:1032A000891F9A1FA11D680F791F8A1F911DA11DDB
:1032B0006A0F711D811D911DA11D20D009F4689414
:1032C0003F912AE0269F11243019305D3193DEF6BC
:1032D000CF010895462F4770405D4193B3E00FD072
:1032E000C9F7F6CF462F4F70405D4A3318F0495D5D
:1032F00031FD4052419302D0A9F7EACFB4E0A69540
:103300009795879577956795BA95C9F70097610561
:10331000710508959B01AC010A2E069457954795B7
:1033200037952795BA95C9F7620F731F841F951FAC
:08333000A01D0895F894FFCFE1
:103338007332002DDC05D007E803E8032C01E8030D
:103348004C04181716191A1B1C313233343536370A
:1033580038392A30230000130580000000803E0021
:1033680000003F0000403F0000400014005400E807
:103378000310278200E803E803B80B2C01930A6CBA
:10338800096609F909EA096B08B20C00000000F5A2
:1033980002C802C102B202A402A302000000004A4D
:1033A800040A04D903000000006F07E9063807166D
:1033B800072A07B60700000000130CE906526561EA
:1033C800642074656D7065726174757265000D0AAC
:1033D800006E616E00696E66006F7666004C696704
:1033E80068742073656E736F7220696E6974004922
:1033F8006E697469616C697A696E672074696D6554
:1034080072000A0D54656D70657261747572653A63
:10341800000A0D2043686172206B65797061643A17
:10342800202563000A0D4368617220736572696123
:103438006C3A2563004973206C69676874206F6E65
:103448003F3F3F004C696768742076616C75653A48
:1034580000206C756D656E733A0054656D703A2086
:0A346800004C696768743A20000008
:00000001FF
