:100000000C947B010C94AC010C94AC010C94AC01ED
:100010000C94AC010C94AC010C94AC010C94AC01AC
:100020000C94AC010C94AC010C94AC010C94AC019C
:100030000C94AC010C94AC010C94AC010C94AC018C
:100040000C94AC010C94950E0C94AC010C94AC0186
:100050000C94AC010C94AC010C94AC010C94730D99
:100060000C94AC010C94E70D0C94BD0D0C94AC01F8
:100070000C94AC010C94AC010C94AC010C94AC014C
:100080000C946D0E0C94AC010C94AC010C94AC016E
:100090000C94AC010C94AC010C94AC010C94530C7A
:1000A0000C94AC010C94AC010C94450E0C94AC0176
:1000B0000C94AC010C94AC010C94AC010C941D0E8E
:1000C0000C94AC010C94AC010C94AC010C94AC01FC
:1000D0000C94AC010C94AC010C94AC010C94AC01EC
:1000E0000C94AC010C94EA050C946B080C94B202CD
:1000F0000C94A7030C9408060C940A040C94630651
:100100000C9422060C946C090C94E9060C94670379
:100110000C9416070C944A040C9445060C94D709C9
:100120000C9436060C94E40B0C94F5020C948603A4
:100130000C94DD050C9410060C9494030C946F073A
:100140000C94A8030C9477060C94D9030C94C80261
:100150000C94BD0E0C9418060C949A030C94FE0596
:100160000C94A4020C94E5050C9482030C942A07C9
:100170000C946D030C94AC030C9438070C94B607E4
:100180000C94B8090C9466090C9490030C94F40533
:100190000C947C030C9459060C94C8090C94060C1E
:1001A0000C942C060C9479030C94A3020C944F0627
:1001B0000C9475030C94B3090C949E030C94A20345
:1001C0000C946D060C948C030C94640A0C94C1027C
:1001D0000C94710300002100240027002A002D0048
:1001E0003000330001010000040107010A01000092
:1001F0002200250028002B002E00310034000201CF
:100200000000050108010B0100002000230026006A
:1002100029002C002F00320000010000030106011C
:10022000090105050505070508080808020202027C
:100230000A0A080804040404010101010101010182
:100240000303030303030303040707070C0C0C0C4D
:100250000C0C0C0C02020202060606060606060636
:100260000B0B0B0B0B0B0B0B0102102020080810C3
:100270002040102040800201020108040201010216
:1002800004081020408080402010080402018004EF
:10029000020180402010080402010804020101024A
:1002A0000408102040800102040810204080000053
:1002B0000A0B02090C0D0E080703040100000000E0
:1002C000000000000000000000000000000000002E
:1002D00000000000000000000000121110000000EB
:1002E000000000000000000000000000000000000E
:1002F00000000000BD0E11241FBECFEFD1E2DEBF13
:10030000CDBF00E00CBF13E0A0E0B2E0E4EEF1E30B
:1003100000E00BBF02C007900D92A633B107D9F7DA
:1003200025E0A6E3B3E001C01D92AF30B207E1F7CC
:1003300011E0CBE7D1E000E006C021970109802F52
:10034000FE010E942716CA37D10780E00807A9F7E7
:100350000E94760F0C94F0180C940000EF92FF921C
:100360000F931F93CF93DF93C1E0D2E08AE4E82E8E
:1003700082E0F82E0CE312E088819981019789933D
:100380009993181619065CF0D701ED91FC91199517
:10039000F80180819181FE01329791838083F2E0A0
:1003A000EF0EF11C0E5F1F4F82E0CF30D80721F710
:1003B000DF91CF911F910F91FF90EF90089596E0FC
:1003C000899FD0011124A351BC4F90967C936E93CA
:1003D0005F9791E091969C939197E0915A04F091E8
:1003E0005B0490915904992339F0309751F08111B1
:1003F00008C0809109041994309719F05C968C918B
:10040000FACF0895CF92DF92EF92FF920F931F934E
:1004100096E0899FF0011124E351FC4F11A2278D32
:1004200030A12130310551F178F02230310509F445
:1004300051C02330310509F452C01F910F91FF9034
:10044000EF90DF90CF9008956623B9F361E070E0FC
:100450000E94DF012FB7F8948091DD039091DE03B5
:10046000A091DF03B091E0032FBF809345049093E8
:100470004604A0934704B0934804DFCF9FB7F89495
:10048000C090DD03D090DE03E090DF03F090E00346
:100490009FBF00914504109146042091470430917C
:1004A0004804C01AD10AE20AF30A009157041091D5
:1004B000580430E020E00C151D052E053F0550F4D2
:1004C00062E070E01F910F91FF90EF90DF90CF906E
:1004D0000C94DF016111B1CF63E070E0F3CF70E005
:1004E00060E0F0CF85ED8093BC008091BC0084FD7E
:1004F000FCCF1092B703089520919303260F332762
:10050000331F21323105ECF42091B703FC0190E058
:1005100080E0243069F082E00895A0919303219156
:10052000AC014D585C4FA40FB52FB11D2C93019613
:10053000861798F380919303680F6093930380E08C
:10054000089581E00895089581E090E0309172036C
:1005500020917103321710F490E080E0919581951D
:10056000910908958091720390917103891730F475
:100570008F5F8093720390E080E008958FEF9FEF8C
:1005800008958091710390917203891B990B0895CE
:10059000CF92DF92EF92FF920F931F93CF93DF934F
:1005A0007C01CB018A0120917003222389F0EB01A9
:1005B0006B01C40ED51ECC15DD0569F06991D7011C
:1005C000ED91FC910190F081E02DC7011995F3CFD9
:1005D000642F0E947C02C801DF91CF911F910F917F
:1005E000FF90EF90DF90CF900895CF93DF931F920D
:1005F000CDB7DEB76983209170032223F9F02091F3
:100600006F03203258F021E030E0FC013383228375
:1006100090E080E00F90DF91CF91089580916E037C
:10062000E82FF0E0E25BFC4F998190838F5F80932D
:100630006E0380936F0381E090E0ECCF61E0CE0128
:1006400001960E947C02F7CF0F931F93660F771FCE
:10065000660F771FFC01E60FF71F008111812281D1
:100660003381DA01AA0FBB1FAA0FBB1FA80FB91F46
:100670004D915D916D917C9113974083518362837D
:1006800073830D931D932D933C9313971F910F919B
:1006900008958150823108F05AC0E82FF0E0882791
:1006A000EB5AFC4F8F4F0C942716750379036703A1
:1006B0006D037103A7037C03820386038C039003FD
:1006C00094039A039E03A703A203A803AC0380919B
:1006D00080008F77809380000895809180008F7DC7
:1006E000F9CF80918000877FF5CF84B58F7784BD67
:1006F000089584B58F7DFBCF8091B0008F77809374
:10070000B00008958091B0008F7DF9CF8091900066
:100710008F77809390000895809190008F7DF9CF1E
:1007200080919000877FF5CF8091A0008F77809394
:10073000A00008958091A0008F7DF9CF8091A00046
:10074000877FF5CF809120018F77809320010895D6
:10075000809120018F7DF9CF80912001877FF5CF97
:10076000CF93DF93282F30E0F901E255FD4F8491BC
:10077000F901E859FD4FD491F901EE5DFD4FC491A7
:10078000CC23A1F081110E944903EC2FF0E0EE0F81
:10079000FF1FE85FFD4FA591B491EC91ED2381E03F
:1007A00090E009F480E0DF91CF91089580E090E03F
:1007B000FACF862F0C94B0031F93CF93DF93282F8B
:1007C00030E0F901E255FD4F8491F901E859FD4F00
:1007D000D491F901EE5DFD4FC491CC23A9F0162F01
:1007E00081110E944903EC2FF0E0EE0FFF1FE25150
:1007F000FE4FA591B4918FB7F894EC91111108C0F8
:10080000D095DE23DC938FBFDF91CF911F910895A8
:10081000DE2BF8CF862F642F0C94DC03CF93DF936D
:1008200090E0FC01E859FD4F24918E5D9D4FFC0145
:1008300084918823C9F090E0880F991FFC01EC5245
:10084000FE4FA591B491FC01E251FE4FC591D491A8
:1008500061110DC09FB7F8948C91209582238C93E1
:100860008881282328839FBFDF91CF91089562302C
:1008700051F49FB7F8943C91822F809583238C93F9
:10088000E8812E2BEFCF8FB7F894EC912E2B2C9381
:100890008FBFEACF862F642F0C940E046F927F9245
:1008A0008F929F92AF92BF92CF92DF92EF92FF9280
:1008B0000F931F93CF93DF9381E0809359048FB7F9
:1008C000F8944091DD035091DE036091DF03709155
:1008D000E0038FBF8091490490914A04A0914B049A
:1008E000B0914C04481B590B6A0B7B0B809155044B
:1008F00090915604B0E0A0E084179507A607B707CB
:1009000008F01DC1C0E080915304C81760F4E09165
:100910004F04F0915004EC0FF11D62E080810E94C1
:100920000E04CF5FF0CF712C812C912C5401839455
:1009300080915404781608F05FC0072D10E0E09114
:100940005104F0915204E00FF11F61E080810E9498
:100950000E04E0915104F0915204E00FF11F60E0A9
:1009600080810E94DC03D501C401072C04C0880FDC
:10097000991FAA1FBB1F0A94D2F76C017C01E09457
:10098000F094612C809153046816F8F4C62DD0E0E1
:10099000E0914F04F0915004EC0FFD1F80810E9404
:1009A000B0032496CC0FDD1FC351DC4F892B41F4DB
:1009B000888199818C299D29998388836394E2CFCA
:1009C000888199818E219F21F7CFE0915104F09188
:1009D0005204E00FF11F61E080810E94DC038091EE
:1009E000510490915204080F191F60E0F8018081B2
:1009F0000E940E0473949CCFCDEED3E0FE018FEFE6
:100A00009FEF278D30A1232B21F4148E968F858F95
:100A100011A2369624E0E932F20799F7F12C96E01C
:100A2000D92E80915304F81608F050C0E12C0F2DF8
:100A300010E0000F111F0B501C4F20915404E216C0
:100A400008F042C0F801608171810E2C02C07695D9
:100A500067950A94E2F7F29E900111242E0D311D44
:100A6000EDEEF3E080E0458D568D2417350709F44F
:100A70006AC08F5F36968A30B1F760FF23C0EDEE13
:100A8000F3E090E080E0448D411117C0E0914D0407
:100A9000F0914E04E20FF31F4081D89EF001D99EE1
:100AA000F00D1124E351FC4F448F368F258F10A297
:100AB000178E61E00E94020205C0019636968A30C8
:100AC000910509F7E394B9CFF394ABCF80E099A1F6
:100AD0009111892F2696F4E0C932DF07C1F79FB73D
:100AE000F8944091DD035091DE036091DF03709133
:100AF000E0039FBF4093490450934A0460934B0422
:100B000070934C048823D9F080910E048823B9F0A7
:100B100080910C0490910D04019789F4809109044F
:100B2000DF91CF911F910F91FF90EF90DF90CF90C9
:100B3000BF90AF909F908F907F906F90089510928C
:100B4000590480E0EDCF6170B5CF1F93CF93DF9351
:100B5000182FEB0161E00E940E04209739F460E049
:100B6000812FDF91CF911F910C94DC03CF3FD105F2
:100B700011F461E0F5CFE12FF0E0E255FD4FE49193
:100B8000E150E23108F0B3C0F0E08827E553FA4FB6
:100B90008F4F0C942716DD05E505EA05F405FE05E3
:100BA000770608061006180622062C0636064506A5
:100BB0004F067706590663066D0684B5806884BDC6
:100BC000C7BDDF91CF911F91089584B5806284BD28
:100BD000C8BDF7CF80918000806880938000D0935B
:100BE0008900C0938800EDCF80918000806280935F
:100BF0008000D0938B00C0938A00E3CF8091800067
:100C0000886080938000D0938D00C0938C00D9CFF2
:100C10008091B00080688093B000C093B300D1CFC2
:100C20008091B00080628093B000C093B400C9CFBF
:100C300080919000806880939000D0939900C09339
:100C40009800BFCF80919000806280939000D093F5
:100C50009B00C0939A00B5CF8091900088608093EC
:100C60009000D0939D00C0939C00ABCF8091A000DA
:100C700080688093A0008091A0008F7B8093A0006B
:100C8000D093A900C093A8009CCF8091A00080625F
:100C90008093A000D093AB00C093AA0092CF809124
:100CA000A00088608093A000D093AD00C093AC00FA
:100CB00088CF80912001806880932001D093290102
:100CC000C09328017ECF8091200180628093200113
:100CD000D0932B01C0932A0174CF809120018860AA
:100CE00080932001D0932D01C0932C016ACFC0388E
:100CF000D1050CF03ECF33CF90917B00977F90933E
:100D00007B00806480937C0080917A008064809373
:100D10007A0080917A0086FDFCCF809178009091D6
:100D2000790008953FB7F89480914A0390914B035E
:100D3000A0914C03B0914D0326B5A89B05C02F3F51
:100D400019F00196A11DB11D3FBFBA2FA92F982FF1
:100D50008827BC01CD01620F711D811D911D42E0EC
:100D6000660F771F881F991F4A95D1F708958F92B4
:100D70009F92AF92BF92CF92DF92EF92FF924B0180
:100D80005C010E9492066B017C010E9492066C1924
:100D90007D098E099F09683E734081059105A8F37E
:100DA00021E0821A9108A108B10888EEC80E83E0FC
:100DB000D81EE11CF11C81149104A104B10429F78F
:100DC000FF90EF90DF90CF90BF90AF909F908F906B
:100DD0000895AF92BF92CF92DF92EF92FF920F935E
:100DE0001F93CF93DF936C017B018B01040F151FC1
:100DF000EB015E01AE18BF08C017D10759F0699129
:100E0000D601ED91FC910190F081E02DC60119957C
:100E1000892B79F7C501DF91CF911F910F91FF9039
:100E2000EF90DF90CF90BF90AF900895FC01918D2F
:100E3000828D981761F0A28DAE0FBF2FB11D5D9608
:100E40008C91928D9F5F9F73928F90E008958FEFAA
:100E50009FEF0895FC01918D828D981731F0828D5E
:100E6000E80FF11D858D90E008958FEF9FEF0895B5
:100E7000FC01918D228D892F90E0805C9F4F821B19
:100E800091098F73992708958CE594E00E943807A3
:100E900021E0892B09F420E0822F0895FC01A48D24
:100EA000A80FB92FB11DA35ABF4F2C91848D90E08C
:100EB00001968F739927848FA689B7892C93A0896F
:100EC000B1898C9180648C93938D848D981306C026
:100ED0000288F389E02D80818F7D80830895EF92D1
:100EE000FF920F931F93CF93DF93EC0181E0888FE4
:100EF0009B8D8C8D981316C0E889F989808185FFB8
:100F000011C0EE89FF896083E889F9898081806456
:100F1000808381E090E0DF91CF911F910F91FF904E
:100F2000EF900895F62E0B8D10E00F5F1F4F0F739B
:100F30001127E02E8C8D8E110CC00FB607FCFACF56
:100F4000E889F989808185FFF5CFCE010E944E079F
:100F5000F1CFEB8DEC0FFD2FF11DE35AFF4FF08227
:100F60000B8FEA89FB8980818062D2CFCF93DF9398
:100F7000EC01888D8823B9F0AA89BB89E889F989B1
:100F80008C9185FD03C0808186FD0DC00FB607FCE6
:100F9000F7CF8C9185FFF2CF808185FFEDCFCE0119
:100FA0000E944E07E9CFDF91CF91089580E090E055
:100FB000892B29F00E94440781110E94000080E0E3
:100FC00090E0892B49F080E090E0892B29F00E9485
:100FD000000081110E94000080E090E0892B49F020
:100FE00080E090E0892B29F00E94000081110E948E
:100FF000000080E090E0892B49F080E090E0892BB0
:1010000029F00E94000081110C9400000895CF93F4
:10101000FC01C48121E020937003C0933803109237
:101020006E0310926F038385682B81EE93E00E941C
:10103000F50290916F03913208F03FC08091B703A1
:101040008111FCCF82E08093B70381E08093B903E4
:101050008FEF8093B6031092DB039093DA03AEE434
:10106000B3E0EAEBF3E080E098132FC01092DC03CA
:101070008091DC03CC0FC82BC093DC038091B803B4
:10108000813039F51092B8038091DC038093BB0066
:101090008091BC0083FDF8CF85EC8093BC008091EB
:1010A000B7038230E1F38091B6038F3F31F0809136
:1010B000B603803211F08091B60310926E03109245
:1010C0006F0310927003CF9108952D9121938F5F3C
:1010D000CBCF85EEE2CF6F927F928F929F92AF92AD
:1010E000BF92CF92DF92EF92FF920F931F93CF9315
:1010F000DF93CDB7DEB72C970FB6F894DEBF0FBEE7
:10110000CDBF80E00E947C06BC01990F880B990B33
:101110000E940015209136033091370323303105AA
:1011200021F4109237031092360300913B03109183
:101130003C03E0903603F0903703F701EE0FFF1FFA
:10114000EE0FFF1FE00FF11F608371838283938393
:10115000F801A080B180C280D380648075808680D1
:1011600097809301A401B501C6010E94B01518161D
:101170004CF441E050E070E060E0C8010E942403BC
:10118000530164019501A601F8016085718582858E
:1011900093850E94581487FF07C042E050E070E03A
:1011A00060E0C8010E942403F80124813581468152
:1011B000578160857185828593850E94581487FFC9
:1011C00007C041E050E062E070E0C8010E942403E3
:1011D000F80144815581668177818091390390912E
:1011E0003A03FC010481158126813781008711872C
:1011F0002287338700811181228133810483158303
:10120000268337834083518362837383FFEFEF1A12
:10121000FF0AF0923703E09236032CE0E8E2F2E0B6
:10122000DE01119601900D922A95E1F79E012F5F44
:101230003F4F79018C016C013CE0C30ED11C812C25
:10124000912C5401F70161917191819191917F01EC
:10125000F80121913191419151918F010E94B51571
:101260009B01AC01C501B4010E94EC134B015C0170
:10127000C016D10639F720E030E040E450E40E9487
:101280005D146093410370934203809343039093F2
:10129000440360933D0370933E0380933F03909318
:1012A00040032C960FB6F894DEBF0FBECDBFDF9182
:1012B000CF911F910F91FF90EF90DF90CF90BF9053
:1012C000AF909F908F907F906F9008950E944E04F2
:1012D0008111809300020895CF92DF92EF92FF92E6
:1012E000C0904503D0904603E0904703F090480338
:1012F00020E030E040ED51E4C701B6010E94B01596
:1013000087FD11C089E00E94B003019761F060E0A1
:1013100088E00E94DC0361E089E0FF90EF90DF90BD
:10132000CF900C94DC0320E030E040EC51E4C701A6
:10133000B6010E94581418168CF089E00E94B00380
:10134000019761F488E00E94B003019739F060E0F2
:1013500089E00E94DC0361E088E0DFCFFF90EF903E
:10136000DF90CF9008950E944E048823E1F3089502
:10137000682F8CE594E00C946F078DE00E94B00319
:1013800021E030E0019711F030E020E0C90108953C
:1013900087E00E94B003019749F40E94BD0960E014
:1013A000892B09F461E08DE00C94DC0308958091B1
:1013B0000002833231F40E94BD0960E0892B41F4C0
:1013C00008958A32E9F70E94BD09892BC9F761E0C7
:1013D0008DE00C94DC03CF93C82F61E00E940E04D3
:1013E00060E08C2FCF910C94DC0389E090E00E94A8
:1013F000EB0988E090E00E94EB098FE090E00E940A
:10140000EB098DE090E00E94EB098EE090E00C94F7
:10141000EB09FB0101900020E9F73197AF01461B72
:10142000570BDC01ED91FC910280F381E02D1994C2
:101430008F929F92AF92BF92EF92FF920F931F9362
:10144000CF93DF93CDB7DEB7A1970FB6F894DEBF89
:101450000FBECDBF7C01FA01CB0119A2223008F4E6
:101460002AE08E010F5D1F4F822E912CB12CA12CF2
:10147000BF01A50194010E94BA13F901CA016A30A3
:101480000CF5605DD8016E938D01232B242B252B49
:1014900079F790E080E0109721F0BD01C7010E942C
:1014A000090AA1960FB6F894DEBF0FBECDBFDF913B
:1014B000CF911F910F91FF90EF90BF90AF909F90B1
:1014C0008F900895695CDECF6AE872E08CE594E065
:1014D0000E94090A6BE972E08CE594E00E94090A17
:1014E00081E00E947C06BC01990F880B990B0E9439
:1014F000001520E030E040E85AE30E94B51520E0F6
:1015000030E44CE955E40E94B51520E030E040E2BB
:1015100051E40E945D1460934503709346038093E9
:1015200047039093480308952F923F924F925F9202
:101530006F927F928F929F92AF92BF92CF92DF92E3
:10154000EF92FF921F93CF93DF93EC016A017B012F
:10155000722EAB019601CB01B6010E9422166EE9F4
:1015600072E0811126C046015701E894B7F82FEFC9
:101570003FEF4FE75FE7C501B4010E9422168111DA
:101580000CC02FEF3FEF4FE75FE7C501B4010E94AA
:10159000581462EA72E0181664F02FEF3FEF4FE73D
:1015A0005FE4C701B6010E94B0151816B4F466EAEC
:1015B00072E0CE01DF91CF911F91FF90EF90DF900D
:1015C000CF90BF90AF909F908F907F906F905F90E3
:1015D0004F903F902F900C94090A2FEF3FEF4FE769
:1015E0005FECC701B6010E94581487FDE0CF20E0F0
:1015F00030E0A901C701B6010E945814312C212CFA
:1016000087FF0DC0E881F9810190F081E02D6DE246
:10161000CE0119951C01F7FAF094F7F8F09410E058
:1016200060E070E080E09FE3711641F020E030E080
:1016300040E251E40E945D141F5FF6CFA7019601BE
:101640000E94EC132B013C010E94CF144B015C0162
:101650002AE0BC01A401CE010E94180A7C01E20C20
:10166000F31C1123E1F1C501B4010E94FE149B019A
:10167000AC01C301B2010E94EB134B015C01E88194
:10168000F9810190F081E02D6EE2CE011995E80E0E
:10169000F91E115020F120E030E040E251E4C50194
:1016A000B4010E94B5152B013C010E94CF144B01DF
:1016B000B12CA12C2AE0B501A401CE010E94180A88
:1016C000E80EF91EC501B4010E94FE149B01AC0195
:1016D000C301B2010E94EB134B015C01DACFC701D9
:1016E000DF91CF911F91FF90EF90DF90CF90BF904F
:1016F000AF909F908F907F906F905F904F903F90B2
:101700002F9008950F931F93CF938C01C62F0E94A3
:1017100007086C2F6460C8010E9407086C2F6B7F5C
:10172000C8010E94070883EC90E00197F1F7CF9180
:101730001F910F9108950F931F93CF93DF938C0107
:10174000D62FC42F607F642B0E94820B80E1D89F2C
:10175000B00111246C2BC801DF91CF911F910F9123
:101760000C94820BCF93DF9300D000D01F921F9276
:10177000CDB7DEB798E0E4E3F2E0DE011196019028
:101780000D929A95E1F790910105961710F46FEF7D
:10179000690F262F30E0220F331F41E050E04C0F3D
:1017A0005D1F240F351FF9016081680F606840E0FC
:1017B00089EF94E028960FB6F894DEBF0FBECDBF38
:1017C000DF91CF910C949B0B41E00E949B0B81E039
:1017D00090E00895CF93DF93EC0160E08BE00E94EE
:1017E000DC0361E08CE00E94DC032FEF30E0DE01DF
:1017F0000E942F1624E630E040E050E00E949B1348
:10180000B9018AE0DF91CF910C94A5058091000287
:101810008033D1F460E08BE00E94DC0360E08CE078
:101820000E94DC0370E060E08AE00E94A50560E0B1
:1018300085E00E94DC0360E084E00E94DC0370E04D
:1018400060E08AE00C94A505813321F484E190E006
:101850000C94EA0B823319F48EE190E0F9CF8333D4
:1018600019F488E290E0F4CF843319F482E390E035
:10187000EFCF853319F48CE390E0EACF863319F487
:1018800086E490E0E5CF873319F480E590E0E0CF7F
:10189000883319F48AE590E0DBCF893319F484E6C4
:1018A00090E0D6CF08951F920F920FB60F92112499
:1018B0000BB60F922F933F934F935F936F937F934A
:1018C0008F939F93AF93BF93EF93FF938091B90052
:1018D000887F803609F44DC008F040C0883209F492
:1018E000A7C028F5803109F49BC0C8F4882309F407
:1018F000F7C0883009F494C0FF91EF91BF91AF9188
:101900009F918F917F916F915F914F913F912F9117
:101910000F900BBE0F900FBE0F901F90189588313F
:1019200009F486C0803241F78093B60314C0803436
:1019300009F49BC040F48033B9F38833E9F680930F
:10194000B60385ECAEC0803509F483C0883509F450
:1019500094C0883489F60E947202CECF883909F487
:101960008AC038F5883729F050F4883611F080376E
:1019700019F683E08093B7031092B50355C08838F9
:1019800009F479C0803919F0803809F0B5CF809119
:10199000B503803208F06FC0E091B50381E08E0F8F
:1019A0008093B5038091BB00F0E0EB56FC4F808341
:1019B0003BC0803B39F0D0F4803A09F477C0883AD4
:1019C00009F09ACF84E08093B703109294031092A9
:1019D0009303F0E0E0E019958091930381110FC02B
:1019E00081E0809393031092730309C0803C09F453
:1019F000A8CF883C09F4A5CF883B09F07DCFE091C2
:101A0000940381E08E0F80939403F0E0ED58FC4F37
:101A100080818093BB00909194038091930329C0AF
:101A20008091DC038093BB0085EC8093BC0064CF85
:101A30009091DB038091DA03981758F5E091DB036E
:101A400081E08E0F8093DB03F0E0E654FC4F808151
:101A5000E9CFE091DB0381E08E0F8093DB0380917F
:101A6000BB00F0E0E654FC4F80839091DB03809153
:101A7000DA039817C8F285E8D8CFE091DB0381E05C
:101A80008E0F8093DB038091BB00F0E0E654FC4FA7
:101A900080838091B90381115ECF81E08093B80388
:101AA00084EA8093BC001092B70326CF85EC809324
:101AB000BC001092B7038091B503803230F4E091FE
:101AC000B503F0E0EB56FC4F10826091B50370E077
:101AD00085E993E0F0E0E0E019951092B5030CCFB2
:101AE0001092B60338CF1F920F920FB60F921124A7
:101AF0002F933F938F939F93AF93BF938091DD0379
:101B00009091DE03A091DF03B091E003309149038F
:101B100023E0230F2D3758F50196A11DB11D209309
:101B200049038093DD039093DE03A093DF03B0931A
:101B3000E00380914A0390914B03A0914C03B09134
:101B40004D030196A11DB11D80934A0390934B0351
:101B5000A0934C03B0934D03BF91AF919F918F9190
:101B60003F912F910F900FBE0F901F90189526E870
:101B7000230F0296A11DB11DD2CF1F920F920FB657
:101B80000F9211240BB60F922F933F934F935F93B5
:101B90006F937F938F939F93AF93BF93EF93FF9335
:101BA0008CE594E00E944E07FF91EF91BF91AF91B9
:101BB0009F918F917F916F915F914F913F912F9165
:101BC0000F900BBE0F900FBE0F901F9018951F9295
:101BD0000F920FB60F9211240BB60F922F938F9383
:101BE0009F93EF93FF93E0916C04F0916D048081DB
:101BF000E0917204F091730482FD1DC09081809188
:101C000075048F5F8F7320917604821741F0E09105
:101C10007504F0E0E45AFB4F958F80937504FF91B3
:101C2000EF919F918F912F910F900BBE0F900FBE50
:101C30000F901F9018958081F2CF1F920F920FB6D0
:101C40000F9211240BB60F922F933F934F935F93F4
:101C50006F937F938F939F93AF93BF93EF93FF9374
:101C60000E94AE01FF91EF91BF91AF919F918F9133
:101C70007F916F915F914F913F912F910F900BBE8C
:101C80000F900FBE0F901F9018951F920F920FB6D6
:101C90000F9211240BB60F922F933F934F935F93A4
:101CA0006F937F938F939F93AF93BF93EF93FF9324
:101CB0000E94AE01FF91EF91BF91AF919F918F91E3
:101CC0007F916F915F914F913F912F910F900BBE3C
:101CD0000F900FBE0F901F9018951F920F920FB686
:101CE0000F9211240BB60F922F933F934F935F9354
:101CF0006F937F938F939F93AF93BF93EF93FF93D4
:101D00000E94AE01FF91EF91BF91AF919F918F9192
:101D10007F916F915F914F913F912F910F900BBEEB
:101D20000F900FBE0F901F9018951F920F920FB635
:101D30000F9211240BB60F922F933F934F935F9303
:101D40006F937F938F939F93AF93BF93EF93FF9383
:101D50000E94AE01FF91EF91BF91AF919F918F9142
:101D60007F916F915F914F913F912F910F900BBE9B
:101D70000F900FBE0F901F9018951092E4031092D1
:101D8000E30388EE93E0A0E0B0E08093E503909356
:101D9000E603A093E703B093E8038CE592E0909309
:101DA000E2038093E1031092EF031092F303109289
:101DB000F2031092F4038CE692E09093EE0380938A
:101DC000ED03E9E0F4E01082148213821582369666
:101DD00084E0E534F807B9F782E192E0909350048B
:101DE00080934F048FE092E09093520480935104CB
:101DF00084E08093530483E08093540486E192E06E
:101E000090934E0480934D048AE090E090935604A2
:101E10008093550484EF91E0909358048093570485
:101E200010925B0410925A041092490410924A04D2
:101E300010924B0410924C041092590410925F04BB
:101E400010925E0488EE93E0A0E0B0E0809360041E
:101E500090936104A0936204B093630486E792E0D8
:101E600090935D0480935C0485EC90E0909369040A
:101E70008093680484EC90E090936B0480936A04F0
:101E800080EC90E090936D0480936C0481EC90E082
:101E900090936F0480936E0482EC90E090937104B1
:101EA0008093700486EC90E09093730480937204A6
:101EB00010927504109276041092770410927804B0
:101EC0001092FC041092FB0486E892E09093FA04CE
:101ED0008093F90487E28093FD0480E180930205FA
:101EE00082E080930305109204050895789484B5E8
:101EF000826084BD84B5816084BD85B5826085BD06
:101F000085B5816085BD80916E00816080936E0093
:101F10001092810080918100826080938100809185
:101F20008100816080938100809180008160809336
:101F300080008091B10084608093B1008091B000F6
:101F400081608093B00080919100826080939100C5
:101F500080919100816080939100809190008160D8
:101F6000809390008091A10082608093A100809175
:101F7000A10081608093A1008091A0008160809386
:101F8000A000809121018260809321018091210134
:101F900081608093210180912001816080932001E4
:101FA00080917A00846080937A0080917A008260C8
:101FB00080937A0080917A00816080937A0080918A
:101FC0007A00806880937A001092C100E0916C04DE
:101FD000F0916D0482E08083E0916804F0916904DF
:101FE0001082E0916A04F0916B048FEC8083109270
:101FF0007404E0917004F091710486E08083E091B4
:102000006E04F0916F04808180618083E0916E04A2
:10201000F0916F04808188608083E0916E04F0917C
:102020006F04808180688083E0916E04F0916F047A
:1020300080818F7D808370E060E088EB99E00E9472
:10204000081261E070E083EB99E00E9408120E94A0
:10205000F5090E94F5090E94F50961E08AE00E94F5
:102060000E0461E08BE00E940E0461E08CE00E94AF
:102070000E0461E083E00E940E0461E085E00E94AE
:102080000E0461E084E00E940E0460E08BE00E9498
:10209000DC0361E08CE00E94DC0370E060E08AE039
:1020A0000E94A5058AEA92E09F938F930E943616BC
:1020B0008CE090E00E946F12EC0190933C038093BF
:1020C0003B038CE090E00E946F12FC0190933A0376
:1020D00080933903188219821A821B821C821D8206
:1020E0001E821F82188619861A861B86108211820C
:1020F000128213821482158216821782108611862C
:1021000012861386109272031092710310926E035E
:1021100010926F031092B70381E08093B90310927D
:10212000B80361E084E10E94DC0361E085E10E9484
:10213000DC038091B9008E7F8093B9008091B90053
:102140008D7F8093B90088E48093B80085E4809304
:10215000BC001092FE04809103050F900F90823016
:1021600018F098E09093FE048093010562E370E01C
:1021700080E090E00E94B7066091040589EF94E04A
:102180000E94070868EE73E080E090E00E94B706C6
:1021900060E389EF94E00E94820BCBE4D6E4CE01A9
:1021A0000197F1F760E389EF94E00E94820B219799
:1021B000F1F760E389EF94E00E94820B83E592E0FF
:1021C0000197F1F760E289EF94E00E94820B609141
:1021D000FE04606240E089EF94E00E949B0B84E083
:1021E0008093FF0440E06CE089EF94E00E949B0B39
:1021F00040E061E089EF94E00E949B0BCBE3DFE1DC
:10220000CE010197F1F782E08093000540E066E09F
:1022100089EF94E00E949B0B40E062E089EF94E03C
:102220000E949B0B2197F1F788E08093040560E002
:1022300089EF94E00E9407088CEB92E09F938F93C4
:102240000E94361668EE73E080E090E00E94B706C8
:1022500010922001109221018091210188608093C9
:102260002101809121018260809321018FEC97E010
:102270009093290180932801109225011092240146
:10228000D19A809173008260809373000F900F90B9
:102290008FECE82E82E0F82E9EEDC92E92E0D92E2A
:1022A00021EFA22E22E0B22E01E113E0CEE1D3E035
:1022B000FF92EF920E9436164091450350914603DB
:1022C000609147037091480322E08CE594E00E94FE
:1022D000940A80910002282F082E000C330B3F93A4
:1022E0008F93DF92CF920E9436161F921F92BF9259
:1022F000AF920E94361662E073E08CE594E00E9493
:10230000090A6BE972E08CE594E00E94090A0E94D8
:10231000BD092C01990F660877088DB79EB70A96FC
:102320000FB6F8949EBF0FBE8DBF2AE0B301A20185
:1023300077FE0DC06DE28CE594E00E946F074427A4
:102340005527BA0144195509660977092AE08CE531
:1023500094E00E94180A6BE972E08CE594E00E9418
:10236000090A1F930F930E94361640914103509122
:102370004203609143037091440322E08CE594E0B2
:102380000E94940ADF93CF930E94361640913D033A
:1023900050913E0360913F037091400322E08CE531
:1023A00094E00E94940A60E080E00E94B20B67E231
:1023B00073E089EF94E00E94090A4091450350912F
:1023C0004603609147037091480322E089EF94E04F
:1023D0000E94940A61E080E00E94B20B6EE273E01A
:1023E00089EF94E00E94090A409141035091420311
:1023F000609143037091440322E089EF94E00E94CE
:10240000940A0E94D6070F900F900F900F9050CF14
:102410000F931F93CF93DF93009759F461157105C4
:1024200041F4F0E0E0E0CF01DF91CF911F910F91F7
:1024300008958B01EC016EE070E081E090E00E9475
:102440005312FC01892B69F380E883830115110580
:1024500071F01387028781E883838091050590914D
:102460000605892B21F4F0930605E09305052097D6
:10247000D1F2D187C08783818260838380910705F1
:1024800090910805892B79F6F0930805E0930705EC
:102490008091090590910A05892B29F6F0930A0588
:1024A000E0930905C0CF0F931F93CF93DF93869FCF
:1024B0008001879F100D969F100D1124C8010E9466
:1024C0006F12EC01009729F0A80170E060E00E9413
:1024D0009413CE01DF91CF911F910F9108950F9327
:1024E0001F93CF93DF938230910510F482E090E048
:1024F000E0910D05F0910E0530E020E0B0E0A0E0A5
:10250000309799F42115310509F44AC0281B390B7D
:1025100024303105D8F58A819B816115710589F1D7
:10252000FB0193838283FE0111C0408151810281AE
:10253000138148175907E0F04817590799F4109785
:1025400061F012960C93129713961C933296CF015A
:10255000DF91CF911F910F91089500930D05109376
:102560000E05F4CF2115310551F04217530738F00D
:10257000A901DB019A01BD01DF01F801C1CFEF0123
:10258000F9CF90930E0580930D05CDCFFE01E20F9C
:10259000F31F819391932250310939832883D7CF38
:1025A00020910B0530910C05232B41F4209124023E
:1025B0003091250230930C0520930B0520912202C7
:1025C000309123022115310541F42DB73EB74091DA
:1025D000260250912702241B350BE0910B05F09148
:1025E0000C05E217F307A0F42E1B3F0B2817390741
:1025F00078F0AC014E5F5F4F2417350748F04E0F5F
:102600005F1F50930C0540930B05819391939FCFCF
:10261000F0E0E0E09CCFCF93DF930097E9F0FC017E
:10262000329713821282A0910D05B0910E05ED0133
:1026300030E020E01097A1F420813181820F931FB8
:1026400020910B0530910C052817390709F061C05E
:10265000F0930C05E0930B05DF91CF910895EA010B
:10266000CE17DF07E8F54A815B819E0141155105D0
:10267000B1F7E901FB83EA8349915991C40FD51F52
:10268000EC17FD0761F4808191810296840F951FFC
:10269000E90199838883828193819B838A83F0E017
:1026A000E0E012968D919C9113970097B9F52D91CA
:1026B0003C911197CD010296820F931F20910B053B
:1026C00030910C052817390739F6309751F51092DB
:1026D0000E0510920D05B0930C05A0930B05BCCF11
:1026E000D383C28340815181840F951FC817D907B6
:1026F00061F44E5F5F4F88819981480F591F518364
:1027000040838A819B81938382832115310509F05F
:10271000B0CFF0930E05E0930D059ECFFD01DC01D7
:10272000C0CF13821282D7CFDC0101C06D9341501C
:102730005040E0F70895052E97FB1EF400940E9488
:10274000B21357FD07D00E94BA1307FC03D04EF412
:102750000C94B21350954095309521953F4F4F4FB3
:102760005F4F089590958095709561957F4F8F4F3D
:102770009F4F0895A1E21A2EAA1BBB1BFD010DC09D
:10278000AA1FBB1FEE1FFF1FA217B307E407F50721
:1027900020F0A21BB30BE40BF50B661F771F881FFD
:1027A000991F1A9469F760957095809590959B0193
:1027B000AC01BD01CF010895A29FB001B39FC0013C
:1027C000A39F700D811D1124911DB29F700D811D5D
:1027D0001124911D08955058BB27AA270E94031465
:1027E0000C9476150E94681538F00E946F1520F041
:1027F00039F49F3F19F426F40C9465150EF4E09516
:10280000E7FB0C945F15E92F0E94871558F3BA1760
:10281000620773078407950720F079F4A6F50C94F6
:10282000A9150EF4E0950B2EBA2FA02D0B01B901BE
:1028300090010C01CA01A0011124FF27591B99F036
:10284000593F50F4503E68F11A16F040A22F232F42
:10285000342F4427585FF3CF469537952795A79592
:10286000F0405395C9F77EF41F16BA0B620B730B39
:10287000840BBAF09150A1F0FF0FBB1F661F771FAA
:10288000881FC2F70EC0BA0F621F731F841F48F45F
:10289000879577956795B795F7959E3F08F0B0CFE8
:1028A0009395880F08F09927EE0F979587950895CF
:1028B0000E943B1508F481E008950E9471140C9465
:1028C00076150E946F1558F00E94681540F029F4A3
:1028D0005F3F29F00C945F1551110C94AA150C94CC
:1028E00065150E94871568F39923B1F3552391F379
:1028F000951B550BBB27AA2762177307840738F06F
:102900009F5F5F4F220F331F441FAA1FA9F335D0CB
:102910000E2E3AF0E0E832D091505040E695001C7F
:10292000CAF72BD0FE2F29D0660F771F881FBB1F39
:10293000261737074807AB07B0E809F0BB0B802D17
:10294000BF01FF2793585F4F3AF09E3F510578F043
:102950000C945F150C94AA155F3FE4F3983ED4F3F2
:10296000869577956795B795F7959F5FC9F7880F17
:10297000911D9695879597F90895E1E0660F771F69
:10298000881FBB1F621773078407BA0720F0621BFA
:10299000730B840BBA0BEE1F88F7E09508950E9425
:1029A0008F1588F09F5798F0B92F9927B751B0F03D
:1029B000E1F0660F771F881F991F1AF0BA95C9F7C3
:1029C00014C0B13091F00E94A915B1E008950C94A3
:1029D000A915672F782F8827B85F39F0B93FCCF356
:1029E000869577956795B395D9F73EF49095809540
:1029F000709561957F4F8F4F9F4F0895E89409C060
:102A000097FB3EF490958095709561957F4F8F4F21
:102A10009F4F9923A9F0F92F96E9BB279395F69537
:102A2000879577956795B795F111F8CFFAF4BB0FB5
:102A300011F460FF1BC06F5F7F4F8F4F9F4F16C019
:102A4000882311F096E911C0772321F09EE8872FA3
:102A5000762F05C0662371F096E8862F70E060E05F
:102A60002AF09A95660F771F881FDAF7880F9695D8
:102A7000879597F90895990F0008550FAA0BE0E87C
:102A8000FEEF16161706E807F907C0F01216130630
:102A9000E407F50798F0621B730B840B950B39F470
:102AA0000A2661F0232B242B252B21F408950A26D6
:102AB00009F4A140A6958FEF811D811D089597F916
:102AC0009F6780E870E060E008959FEF80EC0895D4
:102AD00000240A94161617061806090608950024FD
:102AE0000A9412161306140605060895092E039477
:102AF000000C11F4882352F0BB0F40F4BF2B11F4EB
:102B000060FF04C06F5F7F4F8F4F9F4F089557FD49
:102B10009058440F551F59F05F3F71F04795880F4B
:102B200097FB991F61F09F3F79F0879508951216E2
:102B300013061406551FF2CF4695F1DF08C016168E
:102B400017061806991FF1CF86957105610508943F
:102B50000895E894BB2766277727CB0197F9089556
:102B60000E943B1508F48FEF08950E94C8150C943D
:102B700076150E94681538F00E946F1520F0952395
:102B800011F00C945F150C94651511240C94AA1582
:102B90000E94871570F3959FC1F3950F50E0551F64
:102BA000629FF001729FBB27F00DB11D639FAA27A2
:102BB000F00DB11DAA1F649F6627B00DA11D661FF1
:102BC000829F2227B00DA11D621F739FB00DA11D12
:102BD000621F839FA00D611D221F749F3327A00DCC
:102BE000611D231F849F600D211D822F762F6A2F68
:102BF00011249F5750409AF0F1F088234AF0EE0FCD
:102C0000FF1FBB1F661F771F881F91505040A9F7F9
:102C10009E3F510580F00C945F150C94AA155F3F00
:102C2000E4F3983ED4F3869577956795B795F79535
:102C3000E7959F5FC1F7FE2B880F911D96958795AD
:102C400097F908950E943B15880B990B0895EE0F94
:102C5000FF1F881F8BBF0790F691E02D19940E94EB
:102C6000DC13B7FF0895821B930B0895CF93DF9376
:102C7000CDB7DEB7AE014A5F5F4FFA016191719146
:102C8000AF0180910705909108050E944A16DF91D7
:102C9000CF9108952F923F924F925F926F927F92C1
:102CA0008F929F92AF92BF92CF92DF92EF92FF925C
:102CB0000F931F93CF93DF9300D000D000D01F92CB
:102CC0001F92CDB7DEB77C013B018A01FC01178260
:102CD0001682838181FFDDC1CE0101965C01F7017F
:102CE0009381F30193FD859193FF81913F018823A7
:102CF00009F453C1853239F493FD859193FF819195
:102D00003F01853229F4B70190E00E946218E7CFB5
:102D1000912C212C312CFFE1F31538F08B3211F17D
:102D200090F4803209F1833229F137FC3CC020ED68
:102D3000280F2A3050F536FE20C08AE0989E200DDC
:102D40001124922E06C08D3291F0803371F7689471
:102D500030F8F30193FD859193FF81913F0181113B
:102D6000DACF21C0689431F8689432F8F2CF6894D1
:102D700033F8EFCF689434F8ECCFEAE02E9E200DC4
:102D80001124222E689435F8E4CF8E3229F436FCD3
:102D900004C1689436F8DDCF8C3619F4689437F89E
:102DA000D8CF8836B1F2982F9F7D95549330E0F0BC
:102DB0008336A1F18337C1F1833509F063C028015F
:102DC000F2E04F0E511CF801C080D180692D70E0F7
:102DD00036FC02C06FEF7FEFC6010E944C184C0119
:102DE000689437F882010AC00C5F1F4FFFE3F98334
:102DF00088248394912C6501E89437F833FE2DC024
:102E0000522C8114910471F5552009F468CFB70153
:102E100080E290E00E9462185A94F6CFF801808117
:102E200089830E5F1F4FE4CF2801F2E04F0E511C43
:102E3000F801C080D180692D70E036FC02C06FEFD0
:102E40007FEFC6010E9457184C018201D5CFB70110
:102E500080E290E00E9462182A942814190409F074
:102E6000B0F7CECFF60137FC859137FE81916F0127
:102E7000B70190E00E94621851105A94F1E08F1A45
:102E80009108BFCF843619F0893609F077C0F80170
:102E900037FE6BC060817181828193810C5F1F4F0F
:102EA000F32DFF763F2E97FF09C090958095709582
:102EB00061957F4F8F4F9F4F689437F82AE030E03D
:102EC000A5010E949218C82ECA188C2C432C36FEDD
:102ED0000CC0E89440F8C91440F434FE05C032FC3C
:102EE00003C0F32DFE7E4F2E892C44FEAAC0FE01A6
:102EF000EC0DF11D8081803309F09CC0242D297ECA
:102F0000422E842D8870582E43FCAAC040FEA4C0D7
:102F10009C2C821418F42C0C922C981844FEA6C0F9
:102F2000B70180E390E00E94621842FE09C088E782
:102F300090E041FE02C088E590E0B7010E9462186F
:102F4000C91408F49FC0CA94D12C9FEFC91AD90A9A
:102F5000CA0CDB1CF60182916F01B70190E00E9460
:102F60006218AC14BD04B1F74FCF60817181072E98
:102F7000000C880B990B0E5F1F4F92CFD32CE89457
:102F8000D4F82AE030E08537E1F1232D297FD22ED5
:102F90008F36A9F1F0F4883551F1F70186819781D8
:102FA0002B960FB6F894DEBF0FBECDBFDF91CF9149
:102FB0001F910F91FF90EF90DF90CF90BF90AF9057
:102FC0009F908F907F906F905F904F903F902F9049
:102FD0000895803749F0883701F7D4FE02C068941D
:102FE000D2F820E130E00DC06894D4F8F6CF34FE7A
:102FF00003C0822F8660D82E20E132E002C028E094
:1030000030E0F801D7FE0FC0608171818281938129
:103010000C5F1F4FA5010E949218C82ECA183D2CA4
:10302000E89437F852CF6081718190E080E00E5FC4
:103030001F4FF0CF42FC02C0839463CF83948394EC
:1030400060CF842D867809F45CCFF6CFB70180E29B
:1030500090E00E94621883948214C0F3512C5ECFDA
:10306000522C5818821408F459CFF8CF842D867842
:1030700009F466CF8BE241FE80E247FC8DE2B701A6
:1030800090E05CCFB70180E390E00E9462189A94D0
:1030900057CF8FEF9FEF84CFFC01059061507040B8
:1030A0000110D8F7809590958E0F9F1F0895FC0111
:1030B0006150704001900110D8F7809590958E0F67
:1030C0009F1F08950F931F93CF93DF93182F092FFE
:1030D000EB018B8181FD09C01FEF0FEF812F902F36
:1030E000DF91CF911F910F91089582FF14C02E811F
:1030F0003F818C819D81281739073CF4E881F98153
:10310000CF0101969983888310838E819F810196D8
:103110009F838E83E3CFE885F985812F1995892BCD
:10312000A1F3DACFFA01AA27283051F1203181F139
:10313000E8946F936E7F6E5F7F4F8F4F9F4FAF4FBF
:10314000B1E03ED0B4E03CD0670F781F891F9A1FD2
:10315000A11D680F791F8A1F911DA11D6A0F711D86
:10316000811D911DA11D20D009F468943F912AE092
:10317000269F11243019305D3193DEF6CF0108957A
:10318000462F4770405D4193B3E00FD0C9F7F6CFAB
:10319000462F4F70405D4A3318F0495D31FD405273
:1031A000419302D0A9F7EACFB4E0A6959795879509
:1031B00077956795BA95C9F70097610571050895E8
:1031C0009B01AC010A2E0694579547953795279594
:1031D000BA95C9F7620F731F841F951FA01D08952C
:0431E000F894FFCF91
:1031E4002DDC05D007E803E8032C01E8034C0418A0
:1031F4001716191A1B1C3132333435363738392A2D
:10320400302300000F0580000000803E0000003FD6
:103214000000403F0000400014005400E803102761
:103224008200E803E803B80B2C01640A6C09660900
:10323400D709C8096B08060C00000000F502C80293
:10324400C102B202A402A302000000004A040A045C
:10325400D903000000006F07E906380716072A079C
:10326400B60700000000E40BE906526561642074AF
:10327400656D7065726174757265000D0A006E612A
:103284006E00696E66006F7666004C69676874202C
:1032940073656E736F7220696E697400496E697428
:1032A40069616C697A696E672074696D6572000A78
:1032B4000D54656D70657261747572653A000A0D1E
:1032C4002043686172206B65797061643A202563DC
:1032D400000A0D436861722073657269616C3A2556
:1032E40063004973206C69676874206F6E3F3F3FC9
:1032F400004C696768742076616C75653A00206CCF
:10330400756D656E733A0054656D703A20004C69B2
:063314006768743A200016
:00000001FF
