:100000000C947F010C94B0010C94B0010C94B001DD
:100010000C94B0010C94B0010C94B0010C94B0019C
:100020000C94B0010C94B0010C94B0010C94B0018C
:100030000C94B0010C94B0010C94B0010C94B0017C
:100040000C94B0010C9464100C94B0010C94B001A9
:100050000C94B0010C94B0010C94B0010C94420FBC
:100060000C94B0010C94B60F0C948C0F0C94B0014E
:100070000C94B0010C94B0010C94B0010C94B0013C
:100080000C943C100C94B0010C94B0010C94B00191
:100090000C94B0010C94B0010C94B0010C94220E9D
:1000A0000C94B0010C94B0010C9414100C94B00199
:1000B0000C94B0010C94B0010C94B0010C94EC0FB2
:1000C0000C94B0010C94B0010C94B0010C94B001EC
:1000D0000C94B0010C94B0010C94B0010C94B001DC
:1000E0000C94B0010C943B040C949E030C94F20D00
:1000F0000C9436030C94D6090C944D040C941A03FA
:100100000C94B4040C941A040C9482040C948C1077
:100110000C94FB020C943B030C9438020C942E03B9
:100120000C945B070C9424070C9489020C944504EE
:100130000C9416070C9420030C9440030C948C042C
:100140000C9479080C9474090C9424030C942803DF
:100150000C9455020C9410030C943C030C94460C24
:100160000C94790A0C94A0040C94C1090C946D03AE
:100170000C9455040C947A090C9457080C94DE03E3
:100180000C9446020C94C6090C9469040C947304F4
:100190000C94AA040C9401030C94A2070C94E50996
:1001A0000C9409030C9427040C945C020C94310405
:1001B0000C9405030C9496040C94D5060C949B0A9D
:1001C0000C9416030C9402070C9432030C940D0348
:1001D0000C945F040C9437020C942204000021005C
:1001E000240027002A002D00300033000101000008
:1001F000040107010A0100002200250028002B004D
:100200002E003100340002010000050108010B013D
:10021000000020002300260029002C002F003200BF
:100220000001000003010601090105050505070598
:1002300008080808020202020A0A08080404040462
:10024000010101010101010103030303030303038E
:10025000040707070C0C0C0C0C0C0C0C020202021D
:1002600006060606060606060B0B0B0B0B0B0B0B06
:1002700001021020200808102040102040800201B8
:10028000020108040201010204081020408080409D
:10029000201008040201800402018040201008049C
:1002A000020108040201010204081020408001023A
:1002B00004081020408000000A0B02090C0D0E08F3
:1002C000070304010000000000000000000000001F
:1002D000000000000000000000000000000000001E
:1002E00000001211100000000000000000000000DB
:1002F0000000000000000000000000008C1011242D
:100300001FBECFEFD1E2DEBFCDBF00E00CBF13E0D8
:10031000A0E0B2E0ECE9F7E300E00BBF02C0079019
:100320000D92A235B107D9F725E0A2E5B3E001C0EF
:100330001D92A937B207E1F711E0CFE7D1E000E065
:1003400006C021970109802FFE010E940319CE37B4
:10035000D10780E00807A9F70E94DC110C94CC1BA0
:100360000C940000EF92FF920F931F93CF93DF93B3
:10037000C1E0D2E082E5E82E82E0F82E00E412E04F
:1003800088819981019789939993181619065CF0D1
:10039000D701ED91FC911995F80180819181FE01C1
:1003A000329791838083F2E0EF0EF11C0E5F1F4FB6
:1003B00082E0C331D80721F7DF91CF911F910F91D0
:1003C000FF90EF90089596E0899FD0011124A15FDE
:1003D000BB4F90967C936E935F9791E091969C9320
:1003E0009197E0917C04F0917D0490917B04992396
:1003F00039F0309751F0811108C080912B04199485
:10040000309719F05C968C91FACF089585ED809322
:10041000BC008091BC0084FDFCCF1092DD030895E8
:100420002091B903260F3327331F21323105ECF415
:100430002091DD03FC0190E080E0243069F082E04F
:100440000895A091B9032191AC0147565C4FA40FC8
:10045000B52FB11D2C930196861798F38091B9039F
:10046000680F6093B90380E0089581E008950895CE
:1004700081E090E03091980320919703321710F4B7
:1004800090E080E09195819591090895809198037D
:1004900090919703891730F48F5F8093980390E0D1
:1004A00080E008958FEF9FEF0895809197039091DA
:1004B0009803891B990B0895CF92DF92EF92FF92D8
:1004C0000F931F93CF93DF937C01CB018A0120917F
:1004D0009603222389F0EB016B01C40ED51ECC15C7
:1004E000DD0569F06991D701ED91FC910190F081F2
:1004F000E02DC7011995F3CF642F0E941002C801A7
:10050000DF91CF911F910F91FF90EF90DF90CF90EF
:100510000895CF93DF931F92CDB7DEB76983209103
:1005200096032223F9F020919503203258F021E020
:1005300030E0FC013383228390E080E00F90DF9174
:10054000CF91089580919403E82FF0E0EC58FC4F90
:10055000998190838F5F809394038093950381E0CA
:1005600090E0ECCF61E0CE0101960E941002F7CF3F
:100570000F931F93660F771F660F771FFC01E60F1F
:10058000F71F0081118122813381DA01AA0FBB1F7D
:10059000AA0FBB1FA80FB91F4D915D916D917C9162
:1005A000139740835183628373830D931D932D931F
:1005B0003C9313971F910F9108958150823108F059
:1005C0005AC0E82FF0E08827E751FD4F8F4F0C9479
:1005D000031909030D03FB02010305033B03100389
:1005E00016031A032003240328032E0332033B03BC
:1005F00036033C034003809180008F778093800016
:100600000895809180008F7DF9CF80918000877F51
:10061000F5CF84B58F7784BD089584B58F7DFBCFEA
:100620008091B0008F778093B00008958091B000E2
:100630008F7DF9CF809190008F77809390000895FF
:10064000809190008F7DF9CF80919000877FF5CFCA
:100650008091A0008F778093A00008958091A000E2
:100660008F7DF9CF8091A000877FF5CF8091200109
:100670008F77809320010895809120018F7DF9CF9D
:1006800080912001877FF5CFCF93DF93282F30E033
:10069000F901EA54FD4F8491F901E059FD4FD491DD
:1006A000F901E65DFD4FC491CC23A1F081110E94B8
:1006B000DD02EC2FF0E0EE0FFF1FE05FFD4FA59194
:1006C000B491EC91ED2381E090E009F480E0DF91BA
:1006D000CF91089580E090E0FACF862F0C944403E8
:1006E0001F93CF93DF93282F30E0F901EA54FD4F99
:1006F0008491F901E059FD4FD491F901E65DFD4F78
:10070000C491CC23A9F0162F81110E94DD02EC2F99
:10071000F0E0EE0FFF1FEA50FE4FA591B4918FB7A6
:10072000F894EC91111108C0D095DE23DC938FBFB3
:10073000DF91CF911F910895DE2BF8CF862F642F84
:100740000C947003CF93DF9390E0FC01E059FD4FD0
:100750002491865D9D4FFC0184918823C9F090E02F
:10076000880F991FFC01E452FE4FA591B491FC0142
:10077000EA50FE4FC591D49161110DC09FB7F89416
:100780008C91209582238C938881282328839FBF76
:10079000DF91CF910895623051F49FB7F8943C9166
:1007A000822F809583238C93E8812E2BEFCF8FB7F8
:1007B000F894EC912E2B2C938FBFEACF862F642FC9
:1007C0000C94A2031F93CF93DF93182FEB0161E0EA
:1007D0000E94A203209739F460E0812FDF91CF912E
:1007E0001F910C947003CF3FD10511F461E0F5CF58
:1007F000E12FF0E0EA54FD4FE491E150E23108F0DE
:10080000B3C0F0E08827E85FFB4F8F4F0C940319CB
:100810001A042204270431043B04B40445044D04A3
:1008200055045F046904730482048C04B4049604C0
:10083000A004AA0484B5806884BDC7BDDF91CF91B0
:100840001F91089584B5806284BDC8BDF7CF8091A3
:100850008000806880938000D0938900C0938800D6
:10086000EDCF80918000806280938000D0938B00D8
:10087000C0938A00E3CF80918000886080938000DD
:10088000D0938D00C0938C00D9CF8091B000806848
:100890008093B000C093B300D1CF8091B00080624C
:1008A0008093B000C093B400C9CF8091900080685D
:1008B00080939000D0939900C0939800BFCF80910F
:1008C0009000806280939000D0939B00C0939A0028
:1008D000B5CF80919000886080939000D0939D0068
:1008E000C0939C00ABCF8091A00080688093A00053
:1008F0008091A0008F7B8093A000D093A900C0932B
:10090000A8009CCF8091A00080628093A000D0932B
:10091000AB00C093AA0092CF8091A0008860809322
:10092000A000D093AD00C093AC0088CF809120018F
:10093000806880932001D0932901C09328017ECF45
:1009400080912001806280932001D0932B01C0937D
:100950002A0174CF80912001886080932001D09378
:100960002D01C0932C016ACFC038D1050CF03ECFC9
:1009700033CF90917B00977F90937B00806480932E
:100980007C0080917A00806480937A0080917A0064
:1009900086FDFCCF809178009091790008953FB753
:1009A000F8948091700390917103A0917203B091BB
:1009B000730326B5A89B05C02F3F19F00196A11D12
:1009C000B11D3FBFBA2FA92F982F8827BC01CD0199
:1009D000620F711D811D911D42E0660F771F881FF8
:1009E000991F4A95D1F708958F929F92AF92BF9227
:1009F000CF92DF92EF92FF924B015C010E94CF04F5
:100A00006B017C010E94CF046C197D098E099F093E
:100A1000683E734081059105A8F321E0821A910890
:100A2000A108B10888EEC80E83E0D81EE11CF11CB5
:100A300081149104A104B10429F7FF90EF90DF9095
:100A4000CF90BF90AF909F908F9008952FB7F8945C
:100A500060916C0370916D0380916E0390916F03B0
:100A60002FBF08950F931F93CF93DF93C82FD62FD7
:100A700086E0C89FF0011124E15FFB4F11A2878D32
:100A800090A181309105F1F058F082309105F1F19B
:100A9000039709F440C0DF91CF911F910F91089502
:100AA0006623C9F361E070E08C2F0E94E3010E948D
:100AB000260560936704709368048093690490939B
:100AC0006A04E9CF0E94260500916704109168042A
:100AD0002091690430916A04AB01BC01401B510BA9
:100AE000620B730B8091790490917A04B0E0A0E0DE
:100AF00084179507A607B70748F462E070E08C2FCB
:100B0000DF91CF911F910F910C94E30163E070E0AE
:100B1000D111C1CFF4CF70E060E0F1CF6F927F923E
:100B20008F929F92AF92BF92CF92DF92EF92FF92FD
:100B30000F931F93CF93DF9381E080937B040E94F8
:100B4000260500916B0410916C0420916D04309186
:100B50006E04AB01BC01401B510B620B730B809107
:100B6000770490917804B0E0A0E084179507A60779
:100B7000B70708F014C1C0E080917504C81760F48D
:100B8000E0917104F0917204EC0FF11D62E080813C
:100B90000E94A203CF5FF0CF712C812C912C5401C5
:100BA000839480917604781608F05FC0072D10E0DA
:100BB000E0917304F0917404E00FF11F61E0808113
:100BC0000E94A203E0917304F0917404E00FF11FFE
:100BD00060E080810E947003D501C401072C04C02D
:100BE000880F991FAA1FBB1F0A94D2F76C017C01C2
:100BF000E094F094612C809175046816F8F4C62D89
:100C0000D0E0E0917104F0917204EC0FFD1F80813F
:100C10000E9444032496CC0FDD1FC15FDB4F892B5C
:100C200041F4888199818C299D29998388836394D3
:100C3000E2CF888199818E219F21F7CFE0917304C3
:100C4000F0917404E00FF11F61E080810E94700355
:100C50008091730490917404080F191F60E0F801EB
:100C600080810E94A20373949CCFCFE0D4E0FE0168
:100C70008FEF9FEF278D30A1232B21F4148E968FB9
:100C8000858F11A2369624E0EB34F20799F7F12C08
:100C900096E0D92E80917504F81608F050C0E12C2A
:100CA0000F2D10E0000F111F095E1B4F20917604DD
:100CB000E21608F042C0F801608171810E2C02C07A
:100CC000769567950A94E2F7F29E900111242E0D15
:100CD000311DEFE0F4E080E0458D568D2417350797
:100CE00009F461C08F5F36968A30B1F760FF23C088
:100CF000EFE0F4E090E080E0448D411117C0E09116
:100D00006F04F0917004E20FF31F4081D89EF00150
:100D1000D99EF00D1124E15FFB4F448F368F258F54
:100D200010A2178E61E00E94320505C0019636962A
:100D30008A30910509F7E394B9CFF394ABCF10E073
:100D400089A18111182F2696F4E0CB34DF07C1F773
:100D50000E94260560936B0470936C0480936D046D
:100D600090936E041123D9F0809130048823B9F058
:100D700080912E0490912F04019789F480912B0487
:100D8000DF91CF911F910F91FF90EF90DF90CF9067
:100D9000BF90AF909F908F907F906F90089510922A
:100DA0007B0480E0EDCF6170BECFAF92BF92CF9257
:100DB000DF92EF92FF920F931F93CF93DF936C011B
:100DC0007B018B01040F151FEB015E01AE18BF08FC
:100DD000C017D10759F06991D601ED91FC910190AE
:100DE000F081E02DC6011995892B79F7C501DF91B6
:100DF000CF911F910F91FF90EF90DF90CF90BF9018
:100E0000AF900895FC01918D828D981761F0A28DAD
:100E1000AE0FBF2FB11D5D968C91928D9F5F9F731A
:100E2000928F90E008958FEF9FEF0895FC01918DD0
:100E3000828D981731F0828DE80FF11D858D90E03D
:100E400008958FEF9FEF0895FC01918D228D892FDA
:100E500090E0805C9F4F821B91098F7399270895C2
:100E60008EE794E00E94240721E0892B09F420E01A
:100E7000822F0895FC01A48DA80FB92FB11DA35A8C
:100E8000BF4F2C91848D90E001968F739927848FAA
:100E9000A689B7892C93A089B1898C9180648C93A1
:100EA000938D848D981306C00288F389E02D80818C
:100EB0008F7D80830895EF92FF920F931F93CF93BE
:100EC000DF93EC0181E0888F9B8D8C8D981316C089
:100ED000E889F989808185FF11C0EE89FF896083E7
:100EE000E889F98980818064808381E090E0DF91E6
:100EF000CF911F910F91FF90EF900895F62E0B8DDB
:100F000010E00F5F1F4F0F731127E02E8C8D8E1195
:100F10000CC00FB607FCFACFE889F989808185FFFC
:100F2000F5CFCE010E943A07F1CFEB8DEC0FFD2FEC
:100F3000F11DE35AFF4FF0820B8FEA89FB89808114
:100F40008062D2CFCF93DF93EC01888D8823B9F0F4
:100F5000AA89BB89E889F9898C9185FD03C08081C4
:100F600086FD0DC00FB607FCF7CF8C9185FFF2CF41
:100F7000808185FFEDCFCE010E943A07E9CFDF9156
:100F8000CF91089580E090E0892B29F00E943007EE
:100F900081110E94000080E090E0892B49F080E000
:100FA00090E0892B29F00E94000081110E9400002E
:100FB00080E090E0892B49F080E090E0892B29F0D7
:100FC0000E94000081110E94000080E090E0892BC7
:100FD00049F080E090E0892B29F00E940000811107
:100FE0000C9400000895CF93FC01C48121E020936C
:100FF0009603C0935803109294031092950383852F
:10100000682B83E094E00E948902909195039132CD
:1010100008F03FC08091DD038111FCCF82E0809316
:10102000DD0381E08093DF038FEF8093DC03109278
:10103000010490930004A4E7B3E0E0EEF3E080E065
:1010400098132FC01092020480910204CC0FC82B79
:10105000C09302048091DE03813039F51092DE03E3
:10106000809102048093BB008091BC0083FDF8CF87
:1010700085EC8093BC008091DD038230E1F38091A8
:10108000DC038F3F31F08091DC03803211F08091DE
:10109000DC03109294031092950310929603CF9163
:1010A00008952D9121938F5FCBCF85EEE2CF86E01F
:1010B0000E944403209154033091550340915603FC
:1010C000509157034817590769F030935E032093F6
:1010D0005D0310925503109254039093570380932D
:1010E000560308952F5F3F4F3093550320935403C9
:1010F000F4CF6F927F928F929F92AF92BF92CF92D6
:10110000DF92EF92FF920F931F93CF93DF93CDB7B0
:10111000DEB72C970FB6F894DEBF0FBECDBF80E0D0
:101120000E94B904BC01990F880B990B0E94DC172F
:1011300020915203309153032330310521F4109252
:1011400053031092520300915B0310915C03E090F3
:101150005203F0905303F701EE0FFF1FEE0FFF1F36
:10116000E00FF11F6083718382839383F801A08075
:10117000B180C280D380648075808680978093011F
:10118000A401B501C6010E948C1818164CF441E068
:1011900050E070E060E0C8010E94B80253016401B1
:1011A0009501A601F80160857185828593850E946D
:1011B0002D1787FF07C042E050E070E060E0C801F3
:1011C0000E94B802F80124813581468157816085EB
:1011D0007185828593850E942D1787FF07C041E0A6
:1011E00050E062E070E0C8010E94B802F80144815A
:1011F0005581668177818091590390915A03FC0152
:1012000004811581268137810087118722873387E2
:1012100000811181228133810483158326833783E2
:101220004083518362837383FFEFEF1AFF0AF092CA
:101230005303E09252032CE0ECE2F2E0DE0111965F
:1012400001900D922A95E1F79E012F5F3F4F7901A2
:101250008C016C013CE0C30ED11C812C912C5401FB
:10126000F70161917191819191917F01F801219133
:101270003191419151918F010E9491189B01AC01D4
:10128000C501B4010E94C1164B015C01C016D10614
:1012900039F720E030E040E450E40E9432176093D8
:1012A0006303709364038093650390936603609374
:1012B0005F037093600380936103909362032C96A5
:1012C0000FB6F894DEBF0FBECDBFDF91CF911F9157
:1012D0000F91FF90EF90DF90CF90BF90AF909F90D5
:1012E0008F907F906F9008950E948E05811180935A
:1012F00000020895CF92DF92EF92FF92C0906703B1
:10130000D0906803E0906903F0906A0320E030E039
:1013100040ED51E4C701B6010E948C1887FD11C051
:1013200089E00E944403019761F060E088E00E9438
:10133000700361E089E0FF90EF90DF90CF900C9414
:10134000700320E030E040EC51E4C701B6010E9498
:101350002D1718168CF089E00E944403019761F460
:1013600088E00E944403019739F060E089E00E9420
:10137000700361E088E0DFCFFF90EF90DF90CF90C7
:1013800008950E948E058823E1F30895682F8EE763
:1013900094E00C945B078DE00E94440321E030E070
:1013A000019711F030E020E0C901089587E00E9424
:1013B0004403019749F40E94CB0960E0892B09F4AA
:1013C00061E08DE00C9470030895809100028332F7
:1013D00031F40E94CB0960E0892B41F408958A32F0
:1013E000E9F70E94CB09892BC9F761E08DE00C94E5
:1013F0007003CF93C82F61E00E94A20360E08C2F9E
:10140000CF910C94700389E090E00E94F90988E084
:1014100090E00E94F9098FE090E00E94F9098DE0C8
:1014200090E00E94F9098EE090E00C94F9090F9386
:101430001F93CF938C01C62F0E94F3076C2F64601B
:10144000C8010E94F3076C2F6B7FC8010E94F3074D
:1014500083EC90E00197F1F7CF911F910F910895E0
:101460000F931F93CF93DF938C01D62FC42F607FF0
:10147000642B0E94170A80E1D89FB00111246C2BC5
:10148000C801DF91CF911F910F910C94170ACF9350
:10149000DF9300D000D01F921F92CDB7DEB798E047
:1014A000E8E3F2E0DE01119601900D929A95E1F7E2
:1014B00090916B05961710F46FEF690F262F30E0AF
:1014C000220F331F41E050E04C0F5D1F240F351FEA
:1014D000F9016081680F606840E083E695E0289636
:1014E0000FB6F894DEBF0FBECDBFDF91CF910C9445
:1014F000300A41E00E94300A81E090E00895CF93E5
:10150000DF93EC0160E08BE00E94700361E08CE00F
:101510000E9470032FEF30E0DE010E940B1924E6D9
:1015200030E040E050E00E946516B9018AE0DF91AA
:10153000CF910C94E2033F924F925F926F927F9211
:101540008F929F92AF92BF92CF92DF92EF92FF92D3
:101550000F931F93CF93DF93CDB7DEB72E970FB6C0
:10156000F894DEBF0FBECDBF6091230570912405B6
:1015700080912505909126050E94A4179B01AC013E
:10158000AFEFB0E00E94841628E730E040E050E082
:101590000E946516CA01B9010E94DC1760932305F9
:1015A000709324058093250590932605809161050D
:1015B000882309F42AC10E9426056D837E838F83C8
:1015C00098878091490590914A05A0914B05B0916B
:1015D0004C054D815E816F817885481B590B6A0BE4
:1015E0007B0B8091550590915605A0915705B091C0
:1015F0005805481759076A077B0708F406C1E091A8
:101600004305F091440580819181A281B381898352
:101610009A83AB83BC83E0914705F09148059C0118
:10162000AD0160817181828193810E94C0164B015E
:101630005C01209151053091520540915305509124
:10164000540569817A818B819C810E94C0166B014F
:101650007C01209137053091380540913905509132
:101660003A05C501B4010E94911820914D053091B1
:101670004E0540914F05509150050E94C1162B0117
:101680003C0140924D0550924E0560924F0570927C
:1016900050053090620531101AC020913305309109
:1016A00034054091350550913605C701B6010E94B9
:1016B00091189B01AC01C301B2010E94C016609356
:1016C0004D0570934E0580934F05909350054090C3
:1016D0004D0550904E0560904F057090500510914B
:1016E0005D0590915E059E87A0915F05AD87009195
:1016F0006005212F392F4A2F502FC301B2010E94BC
:101700008C1818160CF0A5C0812F9E85AD85B02FC2
:1017100080934D0590934E05A0934F05B0935005CF
:10172000332009F4AFC02091330530913405409146
:10173000350550913605C501B4010E9491184B0141
:101740005C0120913B0530913C0540913D05509155
:101750003E05C701B6010E9491189B01AC01609142
:101760004D0570914E0580914F05909150050E9456
:10177000C016A50194010E94C1166B017C019B015A
:10178000AC01612F7E858D85902F0E942D1787FDDE
:1017900018C01091590590915A059E87A0915B053C
:1017A000AD8700915C05212F392F4A2F502FB601AC
:1017B000C7010E942D1787FD04C01C2DDE86ED8613
:1017C0000F2DE0914505F0914605812F9E85AD8551
:1017D000B02F80839183A283B38389819A81AB8167
:1017E000BC818093510590935205A0935305B0930B
:1017F00054058D819E81AF81B88580934905909372
:101800004A05A0934B05B0934C0560E085E00E942B
:10181000700361E084E00E9470036CE370E083E099
:101820002E960FB6F894DEBF0FBECDBFDF91CF91DD
:101830001F910F91FF90EF90DF90CF90BF90AF90EE
:101840009F908F907F906F905F904F903F900C94FF
:10185000E2038091590590915A05A0915B05B091E2
:101860005C0589879A87AB87BC879C01AD01C30162
:10187000B2010E942D1787FF53CF89859A85AB85CA
:10188000BC8546CF812C912C54015BCF8091000206
:10189000803369F460E08BE00E94700360E08CE0CC
:1018A0000E94700370E060E08AE00C94E2038133F0
:1018B00021F484E190E00C947F0A823319F48EE1E4
:1018C00090E0F9CF833319F488E290E0F4CF8433C9
:1018D00019F482E390E0EFCF853319F48CE390E0C4
:1018E000EACF863319F486E490E0E5CF873319F424
:1018F00080E590E0E0CF883319F48AE590E0DBCF13
:10190000893319F484E690E0D6CF0895FB01019065
:101910000020E9F73197AF01461B570BDC01ED9131
:10192000FC910280F381E02D19948F929F92AF92E7
:10193000BF92EF92FF920F931F93CF93DF93CDB798
:10194000DEB7A1970FB6F894DEBF0FBECDBF7C0106
:10195000FA01CB0119A2223008F42AE08E010F5DB2
:101960001F4F822E912CB12CA12CBF01A5019401F7
:101970000E948F16F901CA016A300CF5605DD8012A
:101980006E938D01232B242B252B79F790E080E09B
:10199000109721F0BD01C7010E94860CA1960FB6D9
:1019A000F894DEBF0FBECDBFDF91CF911F910F9195
:1019B000FF90EF90BF90AF909F908F900895695CDB
:1019C000DECFCF92DF92EF92FF92CF93DF936B0146
:1019D0007C016DE28EE794E00E945B07EC014427F6
:1019E0005527BA014C195D096E097F092AE08EE777
:1019F00094E00E94950C8C0F9D1FDF91CF91FF907A
:101A0000EF90DF90CF9008952F923F924F925F9288
:101A10006F927F928F929F92AF92BF92CF92DF92FE
:101A2000EF92FF921F93CF93DF93EC016A017B014A
:101A3000722EAB019601CB01B6010E94FE1866E939
:101A400072E0811126C046015701E894B7F82FEFE4
:101A50003FEF4FE75FE7C501B4010E94FE18811117
:101A60000CC02FEF3FEF4FE75FE7C501B4010E94C5
:101A70002D176AE972E0181664F02FEF3FEF4FE779
:101A80005FE4C701B6010E948C181816B4F46EE921
:101A900072E0CE01DF91CF911F91FF90EF90DF9028
:101AA000CF90BF90AF909F908F907F906F905F90FE
:101AB0004F903F902F900C94860C2FEF3FEF4FE705
:101AC0005FECC701B6010E942D1787FDE0CF20E033
:101AD00030E0A901C701B6010E942D17312C212C3D
:101AE00087FF0DC0E881F9810190F081E02D6DE262
:101AF000CE0119951C01F7FAF094F7F8F09410E074
:101B000060E070E080E09FE3711641F020E030E09B
:101B100040E251E40E9432171F5FF6CFA701960101
:101B20000E94C1162B013C010E94AB174B015C01C6
:101B30002AE0BC01A401CE010E94950C7C01E20CBC
:101B4000F31C1123E1F1C501B4010E94DA179B01D6
:101B5000AC01C301B2010E94C0164B015C01E881D7
:101B6000F9810190F081E02D6EE2CE011995E80E29
:101B7000F91E115020F120E030E040E251E4C501AF
:101B8000B4010E9491182B013C010E94AB174B013C
:101B9000B12CA12C2AE0B501A401CE010E94950C24
:101BA000E80EF91EC501B4010E94DA179B01AC01D1
:101BB000C301B2010E94C0164B015C01DACFC7011C
:101BC000DF91CF911F91FF90EF90DF90CF90BF906A
:101BD000AF909F908F907F906F905F904F903F90CD
:101BE0002F90089562EA72E08EE794E00E94860CDE
:101BF00063EB72E08EE794E00E94860C81E00E9425
:101C0000B904BC01990F880B990B0E94DC1720E0E6
:101C100030E040E85AE30E94911820E030E44CE9BB
:101C200055E40E94911820E030E040E251E40E9427
:101C300032176093670370936803809369039093EE
:101C40006A0308951F920F920FB60F9211240BB6DC
:101C50000F922F933F934F935F936F937F938F9345
:101C60009F93AF93BF93EF93FF938091B900887FC9
:101C7000803609F44DC008F040C0883209F4A7C08E
:101C800028F5803109F49BC0C8F4882309F4F7C013
:101C9000883009F494C0FF91EF91BF91AF919F916B
:101CA0008F917F916F915F914F913F912F910F9005
:101CB0000BBE0F900FBE0F901F901895883109F43E
:101CC00086C0803241F78093DC0314C0803409F46D
:101CD0009BC040F48033B9F38833E9F68093DC038A
:101CE00085ECAEC0803509F483C0883509F494C012
:101CF000883489F60E940602CECF883909F48AC05A
:101D000038F5883729F050F4883611F0803719F605
:101D100083E08093DD031092DB0355C0883809F41B
:101D200079C0803919F0803809F0B5CF8091DB0394
:101D3000803208F06FC0E091DB0381E08E0F80936A
:101D4000DB038091BB00F0E0E554FC4F80833BC097
:101D5000803B39F0D0F4803A09F477C0883A09F032
:101D60009ACF84E08093DD031092BA031092B903F6
:101D7000F0E0E0E019958091B90381110FC081E096
:101D80008093B9031092990309C0803C09F4A8CF4D
:101D9000883C09F4A5CF883B09F07DCFE091BA03D8
:101DA00081E08E0F8093BA03F0E0E756FC4F80810C
:101DB0008093BB009091BA038091B90329C08091B0
:101DC00002048093BB0085EC8093BC0064CF9091AB
:101DD000010480910004981758F5E091010481E016
:101DE0008E0F80930104F0E0E052FC4F8081E9CF38
:101DF000E091010481E08E0F809301048091BB008B
:101E0000F0E0E052FC4F8083909101048091000447
:101E10009817C8F285E8D8CFE091010481E08E0FD1
:101E2000809301048091BB00F0E0E052FC4F80837E
:101E30008091DF0381115ECF81E08093DE0384EA2D
:101E40008093BC001092DD0326CF85EC8093BC000C
:101E50001092DD038091DB03803230F4E091DB03EC
:101E6000F0E0E554FC4F10826091DB0370E08BEBF7
:101E700093E0F0E0E0E019951092DB030CCF1092B4
:101E8000DC0338CF1F920F920FB60F9211242F93BD
:101E90003F938F939F93AF93BF9380916C039091E7
:101EA0006D03A0916E03B0916F0330916B0323E03B
:101EB000230F2D3758F50196A11DB11D20936B03FB
:101EC00080936C0390936D03A0936E03B0936F03A4
:101ED0008091700390917103A0917203B09173038C
:101EE0000196A11DB11D8093700390937103A0937F
:101EF0007203B0937303BF91AF919F918F913F9104
:101F00002F910F900FBE0F901F90189526E8230F6A
:101F10000296A11DB11DD2CF1F920F920FB60F9244
:101F200011240BB60F922F933F934F935F936F93B0
:101F30007F938F939F93AF93BF93EF93FF938EE71E
:101F400094E00E943A07FF91EF91BF91AF919F916A
:101F50008F917F916F915F914F913F912F910F9052
:101F60000BBE0F900FBE0F901F9018951F920F92EF
:101F70000FB60F9211240BB60F922F938F939F934E
:101F8000EF93FF93E0918E04F0918F048081E091B4
:101F90009404F091950482FD1DC090818091970476
:101FA0008F5F8F7320919804821741F0E09197041E
:101FB000F0E0E258FB4F958F80939704FF91EF91EB
:101FC0009F918F912F910F900BBE0F900FBE0F908E
:101FD0001F9018958081F2CF1F920F920FB60F922B
:101FE00011240BB60F922F933F934F935F936F93F0
:101FF0007F938F939F93AF93BF93EF93FF930E9431
:10200000B201FF91EF91BF91AF919F918F917F911D
:102010006F915F914F913F912F910F900BBE0F9059
:102020000FBE0F901F9018951F920F920FB60F9230
:1020300011240BB60F922F933F934F935F936F939F
:102040007F938F939F93AF93BF93EF93FF930E94E0
:10205000B201FF91EF91BF91AF919F918F917F91CD
:102060006F915F914F913F912F910F900BBE0F9009
:102070000FBE0F901F9018951F920F920FB60F92E0
:1020800011240BB60F922F933F934F935F936F934F
:102090007F938F939F93AF93BF93EF93FF930E9490
:1020A000B201FF91EF91BF91AF919F918F917F917D
:1020B0006F915F914F913F912F910F900BBE0F90B9
:1020C0000FBE0F901F9018951F920F920FB60F9290
:1020D00011240BB60F922F933F934F935F936F93FF
:1020E0007F938F939F93AF93BF93EF93FF930E9440
:1020F000B201FF91EF91BF91AF919F918F917F912D
:102100006F915F914F913F912F910F900BBE0F9068
:102110000FBE0F901F9018950F931F9310920604F7
:102120001092050488EE93E0A0E0B0E080930704ED
:1021300090930804A0930904B0930A0488E692E0FF
:1021400090930404809303041092110410921504D8
:10215000109214041092160488E792E090931004F1
:1021600080930F04EBE2F4E087E694E0108214829F
:102170001382158236968E179F07C1F786E192E08B
:10218000909372048093710483E192E090937404BD
:102190008093730484E08093750483E080937604D5
:1021A0008AE192E09093700480936F048AE090E05B
:1021B000909378048093770484EF91E090937A046D
:1021C0008093790410927D0410927C0410926B0429
:1021D00010926C0410926D0410926E0410927B04A5
:1021E000109281041092800488EE93E0A0E0B0E0A9
:1021F0008093820490938304A0938404B093850415
:1022000082E892E090937F0480937E0485EC90E0D6
:1022100090938B0480938A0484EC90E090938D04D7
:1022200080938C0480EC90E090938F0480938E04D4
:1022300081EC90E0909391048093900482EC90E084
:10224000909393048093920486EC90E0909395048D
:102250008093940410929704109298041092990419
:1022600010929A048FE195E090934605809345057E
:1022700083E295E090934405809343058BE195E0DC
:102280009093480580934705109261051092590577
:1022900010925A0510925B0510925C0580E090E068
:1022A000AFE7B3E480935D0590935E05A0935F056F
:1022B000B093600584E690E0A0E0B0E0809355051F
:1022C00090935605A0935705B0935805109240057A
:1022D00010923F0581E090E0909342058093410584
:1022E0008093620500E010E026E134E400932705C6
:1022F000109328052093290530932A0580E090E06B
:10230000A8ECB2E480932B0590932C05A0932D05A7
:10231000B0932E0540E050E060E271E440932F0559
:102320005093300560933105709332050093330567
:1023300010933405209335053093360540933705C7
:10234000509338056093390570933A0580933B05A7
:1023500090933C05A0933D05B0933E050E94260551
:10236000009155051091560520915705309158055B
:10237000601B710B820B930B6093490570934A05A8
:1023800080934B0590934C0510926605109265055D
:1023900082E992E0909364058093630587E28093DD
:1023A000670580E180936C0582E080936D05109253
:1023B0006E051F910F910895789484B5826084BD55
:1023C00084B5816084BD85B5826085BD85B5816039
:1023D00085BD80916E00816080936E0010928100B7
:1023E0008091810082608093810080918100816072
:1023F0008093810080918000816080938000809133
:10240000B10084608093B1008091B00081608093BE
:10241000B000809191008260809391008091910042
:102420008160809391008091900081608093900002
:102430008091A10082608093A1008091A1008160C1
:102440008093A1008091A00081608093A000809182
:10245000210182608093210180912101816080931C
:1024600021018091200181608093200180917A0078
:10247000846080937A0080917A00826080937A00F1
:1024800080917A00816080937A0080917A008068E0
:1024900080937A001092C100E0918E04F0918F0435
:1024A00082E08083E0918A04F0918B041082E091B5
:1024B0008C04F0918D048FEC808310929604E0914F
:1024C0009204F091930486E08083E0919004F0916F
:1024D0009104808180618083E0919004F091910467
:1024E000808188608083E0919004F09191048081E4
:1024F00080688083E0919004F091910480818F7DC9
:10250000808370E060E086EC99E00E94D21461E084
:1025100070E081EC99E00E94D2140E94030A0E94AC
:10252000030A0E94030A61E08AE00E94A20361E0BC
:102530008BE00E94A20361E08CE00E94A20361E0B4
:1025400083E00E94A20361E085E00E94A20361E0B3
:1025500084E00E94A20360E08BE00E94700361E0CF
:102560008CE00E94700370E060E08AE00E94E20369
:1025700086EB92E09F938F930E9412198CE090E07B
:102580000E943915EC0190935C0380935B038CE00F
:1025900090E00E943915FC0190935A0380935903EF
:1025A000188219821A821B821C821D821E821F823F
:1025B000188619861A861B8610821182128213824F
:1025C000148215821682178210861186128613864F
:1025D000109298031092970310929403109295030F
:1025E0001092DD0381E08093DF031092DE0361E04F
:1025F00084E10E94700361E085E10E947003809194
:10260000B9008E7F8093B9008091B9008D7F80934F
:10261000B90088E48093B80085E48093BC001092F0
:10262000680580916D050F900F90823018F098E04A
:102630009093680580936B0562E370E080E090E022
:102640000E94F40460916E0583E695E00E94F30712
:1026500068EE73E080E090E00E94F40460E383E6BB
:1026600095E00E94170ACBE4D6E4CE010197F1F77A
:1026700060E383E695E00E94170A2197F1F760E393
:1026800083E695E00E94170A83E592E00197F1F74F
:1026900060E283E695E00E94170A60916805606237
:1026A00040E083E695E00E94300A84E0809369056B
:1026B00040E06CE083E695E00E94300A40E061E093
:1026C00083E695E00E94300ACBE3DFE1CE0101977B
:1026D000F1F782E080936A0540E066E083E695E0EA
:1026E0000E94300A40E062E083E695E00E94300AF2
:1026F0002197F1F788E080936E0560E083E695E02E
:102700000E94F30780916105811149C0E091450560
:10271000F0914605C080D180E280F380C0924D05E3
:10272000D0924E05E0924F05F0925005E09143059E
:10273000F091440580819181A281B38180935105FC
:1027400090935205A0935305B093540580905D0576
:1027500090905E05A0905F05B0906005A501940182
:10276000C701B6010E948C1818164CF480924D05D2
:1027700090924E05A0924F05B092500510C08090E7
:10278000590590905A05A0905B05B0905C05A50195
:102790009401C701B6010E942D1787FDE7CF81E0A4
:1027A0008093610588EC92E09F938F930E941219A9
:1027B00068EE73E080E090E00E94F4041092200143
:1027C00010922101809121018860809321018091E4
:1027D00021018260809321018FEC97E09093290181
:1027E000809328011092250110922401D19A8091A2
:1027F00073008260809373000F900F90CBEDD2E056
:102800000AEE12E08DEFE82E82E0F82E9DE1C92E4F
:1028100093E0D92E2AE2A22E23E0B22E33E3832EB8
:1028200033E0932EDF93CF930E94121940916703F8
:10283000509168036091690370916A0322E08EE70A
:1028400094E00E94040D80910002282F082E000CB5
:10285000330B3F938F931F930F930E9412191F9274
:102860001F92FF92EF920E9412196EE073E08EE7C2
:1028700094E00E94860C63EB72E08EE794E00E9485
:10288000860C0E94CB09AC01990F660B770B8DB7B4
:102890009EB70A960FB6F8949EBF0FBE8DBF77FF06
:1028A00075C0CB01BA010E94E10C63EB72E08EE7C8
:1028B00094E00E94860CDF92CF920E941219409100
:1028C000630350916403609165037091660322E095
:1028D0008EE794E00E94040DBF92AF920E941219FD
:1028E00040915F03509160036091610370916203B6
:1028F00022E08EE794E00E94040D9F928F920E9446
:10290000121940915D0350915E03052E000C660B79
:10291000770B0F900F900F900F900F900F9077FF05
:102920003BC0CB01BA010E94E10C60E080E00E9454
:10293000470A62E473E083E695E00E94860C4091CA
:102940006703509168036091690370916A0322E004
:1029500083E695E00E94040D61E080E00E94470A52
:1029600069E473E083E695E00E94860C409163037E
:1029700050916403609165037091660322E083E6E1
:1029800095E00E94040D0E94C2074CCF2AE08EE71A
:1029900094E00E94950C89CF2AE08EE794E00E9493
:1029A000950CC3CF0F931F93CF93DF93009759F4E8
:1029B0006115710541F4F0E0E0E0CF01DF91CF91C6
:1029C0001F910F9108958B01EC016EE070E081E0A2
:1029D00090E00E941D15FC01892B69F380E8838338
:1029E0000115110571F01387028781E883838091B7
:1029F0006F0590917005892B21F4F0937005E09399
:102A00006F052097D1F2D187C0878381826083834D
:102A10008091710590917205892B79F6F09372057A
:102A2000E09371058091730590917405892B29F6C7
:102A3000F0937405E0937305C0CF0F931F93CF936A
:102A4000DF93869F8001879F100D969F100D1124A4
:102A5000C8010E943915EC01009729F0A80170E027
:102A600060E00E945E16CE01DF91CF911F910F9121
:102A700008950F931F93CF93DF938230910510F445
:102A800082E090E0E0917705F091780530E020E079
:102A9000B0E0A0E0309799F42115310509F44AC05F
:102AA000281B390B24303105D8F58A819B816115AB
:102AB000710589F1FB0193838283FE0111C040817E
:102AC00051810281138148175907E0F048175907CF
:102AD00099F4109761F012960C93129713961C9329
:102AE0003296CF01DF91CF911F910F9108950093FE
:102AF000770510937805F4CF2115310551F0421771
:102B0000530738F0A901DB019A01BD01DF01F8018B
:102B1000C1CFEF01F9CF9093780580937705CDCFA2
:102B2000FE01E20FF31F8193919322503109398303
:102B30002883D7CF2091750530917605232B41F45A
:102B40002091280230912902309376052093750553
:102B500020912602309127022115310541F42DB72D
:102B60003EB740912A0250912B02241B350BE09175
:102B70007505F0917605E217F307A0F42E1B3F0BC5
:102B80002817390778F0AC014E5F5F4F24173507DF
:102B900048F04E0F5F1F5093760540937505819363
:102BA00091939FCFF0E0E0E09CCFCF93DF9300972D
:102BB000E9F0FC01329713821282A0917705B0915F
:102BC0007805ED0130E020E01097A1F420813181FB
:102BD000820F931F209175053091760528173907CC
:102BE00009F061C0F0937605E0937505DF91CF9110
:102BF0000895EA01CE17DF07E8F54A815B819E015F
:102C000041155105B1F7E901FB83EA8349915991D7
:102C1000C40FD51FEC17FD0761F4808191810296E6
:102C2000840F951FE90199838883828193819B8317
:102C30008A83F0E0E0E012968D919C9113970097C3
:102C4000B9F52D913C911197CD010296820F931FFA
:102C500020917505309176052817390739F6309798
:102C600051F51092780510927705B0937605A093F0
:102C70007505BCCFD383C28340815181840F951FDA
:102C8000C817D90761F44E5F5F4F88819981480F5B
:102C9000591F518340838A819B81938382832115AD
:102CA000310509F0B0CFF0937805E09377059ECF1A
:102CB000FD01DC01C0CF13821282D7CFDC0101C03D
:102CC0006D9341505040E0F70895052E97FB1EF498
:102CD00000940E947C1657FD07D00E948F1607FCB7
:102CE00003D04EF40C947C16509540953095219568
:102CF0003F4F4F4F5F4F0895909580957095619528
:102D00007F4F8F4F9F4F08950E94B116A59F900D42
:102D1000B49F900DA49F800D911D11240895A1E2F0
:102D20001A2EAA1BBB1BFD010DC0AA1FBB1FEE1F45
:102D3000FF1FA217B307E407F50720F0A21BB30B90
:102D4000E40BF50B661F771F881F991F1A9469F70C
:102D500060957095809590959B01AC01BD01CF0168
:102D60000895A29FB001B39FC001A39F700D811D64
:102D70001124911DB29F700D811D1124911D089584
:102D80005058BB27AA270E94D8160C9452180E94AC
:102D9000441838F00E944B1820F039F49F3F19F482
:102DA00026F40C9441180EF4E095E7FB0C943B18C4
:102DB000E92F0E94631858F3BA1762077307840754
:102DC000950720F079F4A6F50C9485180EF4E0959B
:102DD0000B2EBA2FA02D0B01B90190010C01CA01D5
:102DE000A0011124FF27591B99F0593F50F4503E80
:102DF00068F11A16F040A22F232F342F4427585F72
:102E0000F3CF469537952795A795F0405395C9F789
:102E10007EF41F16BA0B620B730B840BBAF0915041
:102E2000A1F0FF0FBB1F661F771F881FC2F70EC0E0
:102E3000BA0F621F731F841F48F4879577956795B3
:102E4000B795F7959E3F08F0B0CF9395880F08F09F
:102E50009927EE0F9795879508950E94171808F403
:102E600081E008950E9446170C9452180E944B1856
:102E700058F00E94441840F029F45F3F29F00C9468
:102E80003B1851110C9486180C9441180E94631839
:102E900068F39923B1F3552391F3951B550BBB2789
:102EA000AA2762177307840738F09F5F5F4F220FCE
:102EB000331F441FAA1FA9F335D00E2E3AF0E0E8C5
:102EC00032D091505040E695001CCAF72BD0FE2F0F
:102ED00029D0660F771F881FBB1F261737074807A3
:102EE000AB07B0E809F0BB0B802DBF01FF2793585B
:102EF0005F4F3AF09E3F510578F00C943B180C94CC
:102F000086185F3FE4F3983ED4F3869577956795EE
:102F1000B795F7959F5FC9F7880F911D969587958F
:102F200097F90895E1E0660F771F881FBB1F6217AE
:102F300073078407BA0720F0621B730B840BBA0B6C
:102F4000EE1F88F7E09508950E94AB176894B111C1
:102F50000C94861808950E946B1888F09F5798F07B
:102F6000B92F9927B751B0F0E1F0660F771F881F8E
:102F7000991F1AF0BA95C9F714C0B13091F00E94A8
:102F80008518B1E008950C948518672F782F88274D
:102F9000B85F39F0B93FCCF3869577956795B395CF
:102FA000D9F73EF490958095709561957F4F8F4F3E
:102FB0009F4F0895E89409C097FB3EF49095809543
:102FC000709561957F4F8F4F9F4F9923A9F0F92FEF
:102FD00096E9BB279395F695879577956795B7956D
:102FE000F111F8CFFAF4BB0F11F460FF1BC06F5F53
:102FF0007F4F8F4F9F4F16C0882311F096E911C065
:10300000772321F09EE8872F762F05C0662371F085
:1030100096E8862F70E060E02AF09A95660F771F99
:10302000881FDAF7880F9695879597F90895990F75
:103030000008550FAA0BE0E8FEEF16161706E80782
:10304000F907C0F012161306E407F50798F0621BA3
:10305000730B840B950B39F40A2661F0232B242B78
:10306000252B21F408950A2609F4A140A6958FEF97
:10307000811D811D089597F99F6780E870E060E0E9
:1030800008959FEF80EC089500240A941616170601
:1030900018060906089500240A9412161306140649
:1030A00005060895092E0394000C11F4882352F0AC
:1030B000BB0F40F4BF2B11F460FF04C06F5F7F4F64
:1030C0008F4F9F4F089557FD9058440F551F59F04B
:1030D0005F3F71F04795880F97FB991F61F09F3F05
:1030E00079F087950895121613061406551FF2CF2E
:1030F0004695F1DF08C0161617061806991FF1CF7E
:1031000086957105610508940895E894BB276627A4
:103110007727CB0197F908950E94171808F48FEFCD
:1031200008950E94A4180C9452180E94441838F074
:103130000E944B1820F0952311F00C943B180C942E
:10314000411811240C9486180E94631870F3959FFF
:10315000C1F3950F50E0551F629FF001729FBB278E
:10316000F00DB11D639FAA27F00DB11DAA1F649F2A
:103170006627B00DA11D661F829F2227B00DA11DDD
:10318000621F739FB00DA11D621F839FA00D611D63
:10319000221F749F3327A00D611D231F849F600D84
:1031A000211D822F762F6A2F11249F5750409AF0AD
:1031B000F1F088234AF0EE0FFF1FBB1F661F771F39
:1031C000881F91505040A9F79E3F510580F00C9404
:1031D0003B180C9486185F3FE4F3983ED4F3869531
:1031E00077956795B795F795E7959F5FC1F7FE2BA4
:1031F000880F911D9695879597F908950E94171845
:10320000880B990B0895EE0FFF1F881F8BBF079047
:10321000F691E02D19940E94B116B7FF0895821B14
:10322000930B0895CF93DF93CDB7DEB7AE014A5F1E
:103230005F4FFA0161917191AF0180917105909199
:1032400072050E942619DF91CF9108952F923F9227
:103250004F925F926F927F928F929F92AF92BF92A6
:10326000CF92DF92EF92FF920F931F93CF93DF9352
:1032700000D000D000D01F921F92CDB7DEB77C01E6
:103280003B018A01FC0117821682838181FFDDC127
:10329000CE0101965C01F7019381F30193FD8591C5
:1032A00093FF81913F01882309F453C1853239F49A
:1032B00093FD859193FF81913F01853229F4B701F8
:1032C00090E00E943E1BE7CF912C212C312CFFE196
:1032D000F31538F08B3211F190F4803209F183321A
:1032E00029F137FC3CC020ED280F2A3050F536FE7E
:1032F00020C08AE0989E200D1124922E06C08D32A7
:1033000091F0803371F7689430F8F30193FD859163
:1033100093FF81913F018111DACF21C0689431F888
:10332000689432F8F2CF689433F8EFCF689434F8A9
:10333000ECCFEAE02E9E200D1124222E689435F861
:10334000E4CF8E3229F436FC04C1689436F8DDCF20
:103350008C3619F4689437F8D8CF8836B1F2982FA4
:103360009F7D95549330E0F08336A1F18337C1F10E
:10337000833509F063C02801F2E04F0E511CF801BB
:10338000C080D180692D70E036FC02C06FEF7FEF06
:10339000C6010E94281B4C01689437F882010AC0BC
:1033A0000C5F1F4FFFE3F98388248394912C650100
:1033B000E89437F833FE2DC0522C8114910471F536
:1033C000552009F468CFB70180E290E00E943E1BCF
:1033D0005A94F6CFF801808189830E5F1F4FE4CFA6
:1033E0002801F2E04F0E511CF801C080D180692DF8
:1033F00070E036FC02C06FEF7FEFC6010E94331B06
:103400004C018201D5CFB70180E290E00E943E1BC3
:103410002A942814190409F0B0F7CECFF60137FC2E
:10342000859137FE81916F01B70190E00E943E1BAC
:1034300051105A94F1E08F1A9108BFCF843619F0D9
:10344000893609F077C0F80137FE6BC06081718161
:10345000828193810C5F1F4FF32DFF763F2E97FFE4
:1034600009C090958095709561957F4F8F4F9F4FC4
:10347000689437F82AE030E0A5010E946E1BC82E40
:10348000CA188C2C432C36FE0CC0E89440F8C914A2
:1034900040F434FE05C032FC03C0F32DFE7E4F2EF7
:1034A000892C44FEAAC0FE01EC0DF11D8081803301
:1034B00009F09CC0242D297E422E842D8870582E20
:1034C00043FCAAC040FEA4C09C2C821418F42C0C0F
:1034D000922C981844FEA6C0B70180E390E00E94A9
:1034E0003E1B42FE09C088E790E041FE02C088E52D
:1034F00090E0B7010E943E1BC91408F49FC0CA9413
:10350000D12C9FEFC91AD90ACA0CDB1CF601829193
:103510006F01B70190E00E943E1BAC14BD04B1F7EF
:103520004FCF60817181072E000C880B990B0E5FC5
:103530001F4F92CFD32CE894D4F82AE030E085379F
:10354000E1F1232D297FD22E8F36A9F1F0F48835B1
:1035500051F1F701868197812B960FB6F894DEBF63
:103560000FBECDBFDF91CF911F910F91FF90EF90D4
:10357000DF90CF90BF90AF909F908F907F906F9093
:103580005F904F903F902F900895803749F0883793
:1035900001F7D4FE02C06894D2F820E130E00DC0FB
:1035A0006894D4F8F6CF34FE03C0822F8660D82EFC
:1035B00020E132E002C028E030E0F801D7FE0FC081
:1035C00060817181828193810C5F1F4FA5010E94F0
:1035D0006E1BC82ECA183D2CE89437F852CF608174
:1035E000718190E080E00E5F1F4FF0CF42FC02C07F
:1035F000839463CF8394839460CF842D867809F479
:103600005CCFF6CFB70180E290E00E943E1B83942E
:103610008214C0F3512C5ECF522C5818821408F437
:1036200059CFF8CF842D867809F466CF8BE241FE1E
:1036300080E247FC8DE2B70190E05CCFB70180E308
:1036400090E00E943E1B9A9457CF8FEF9FEF84CF5C
:10365000FC010590615070400110D8F7809590955D
:103660008E0F9F1F0895FC01615070400190011062
:10367000D8F7809590958E0F9F1F08950F931F93F5
:10368000CF93DF93182F092FEB018B8181FD09C0A8
:103690001FEF0FEF812F902FDF91CF911F910F918F
:1036A000089582FF14C02E813F818C819D8128174F
:1036B00039073CF4E881F981CF0101969983888329
:1036C00010838E819F8101969F838E83E3CFE8854F
:1036D000F985812F1995892BA1F3DACFFA01AA2751
:1036E000283051F1203181F1E8946F936E7F6E5F45
:1036F0007F4F8F4F9F4FAF4FB1E03ED0B4E03CD0F3
:10370000670F781F891F9A1FA11D680F791F8A1FD5
:10371000911DA11D6A0F711D811D911DA11D20D03C
:1037200009F468943F912AE0269F11243019305DF6
:103730003193DEF6CF010895462F4770405D4193E7
:10374000B3E00FD0C9F7F6CF462F4F70405D4A3334
:1037500018F0495D31FD4052419302D0A9F7EACFFC
:10376000B4E0A6959795879577956795BA95C9F72B
:1037700000976105710508959B01AC010A2E06941E
:103780005795479537952795BA95C9F7620F731FD7
:0C379000841F951FA01D0895F894FFCF22
:10379C002DDC05D007E803E8032C01E8034C0400FA
:1037AC0000F401181716191A1B1C31323334353634
:1037BC003738392A30230000790580000000803E1C
:1037CC000000003F0000403F000040001400540087
:1037DC00E80310278200E803E803B80B2C01010072
:1037EC00E803F20D7A097409E509D6097908460C43
:1037FC0057089B0A0000000089025C025502460231
:10380C003802370200000000DE039E036D03000047
:10381C0000005B07D506240702071607A207000065
:10382C000000790AD5066E616E00696E66006F76CF
:10383C006600526561642074656D706572617475A3
:10384C007265000D0A004C696768742073656E73AD
:10385C006F7220696E697400496E697469616C6974
:10386C007A696E672074696D6572000A0D54656D16
:10387C0070657261747572653A000A0D2043686157
:10388C0072206B65797061643A202563000A0D43E0
:10389C006861722073657269616C3A2563004973C3
:1038AC00206C69676874206F6E3F3F3F004C6967FE
:1038BC0068742076616C75653A00206C756D656E68
:1038CC00733A000A0D4D6F746F72207370656564E6
:1038DC003A0054656D703A20004C696768743A2060
:0238EC000000DA
:00000001FF
