:100000000C9462000C948A000C948A000C948A0070
:100010000C948A000C948A000C948A000C948A0038
:100020000C948A000C948A000C948A000C94980812
:100030000C948A000C948A000C948A000C948A0018
:100040000C94F6070C948A000C9466080C944008F3
:100050000C948A000C948A000C948A000C948A00F8
:100060000C94DB060C948A0000000000240027009A
:100070002A0000000000250028002B0000000000DE
:1000800023002600290004040404040404040202DA
:100090000202020203030303030301020408102007
:1000A0004080010204081020010204081020000012
:1000B0000008000201000003040700000000000027
:1000C0000000EA0811241FBECFEFD8E0DEBFCDBF8D
:1000D00012E0A0E0B1E0EAEFF4E202C005900D9278
:1000E000A030B107D9F723E0A0E0B2E001C01D9233
:1000F000A03DB207E1F710E0C2E6D0E004C02197CE
:10010000FE010E94A10FC136D107C9F70E94A309C1
:100110000C947B120C94000096E0899FD00111246E
:10012000A255BD4F90967C936E935F9791E0919608
:100130009C939197E0911B03F0911C0390911A03FB
:10014000992339F0309751F0811108C08091CA028B
:100150000994309719F05C968C91FACF0895CF925C
:10016000DF92EF92FF920F931F9396E0899FF00129
:100170001124E255FD4F11A2278D30A12130310508
:1001800051F178F02230310509F451C023303105A6
:1001900009F452C01F910F91FF90EF90DF90CF9024
:1001A00008956623B9F361E070E00E948C002FB7D8
:1001B000F89480919E0290919F02A091A002B0912C
:1001C000A1022FBF8093060390930703A093080317
:1001D000B0930903DFCF9FB7F894C0909E02D090F0
:1001E0009F02E090A002F090A1029FBF0091060341
:1001F000109107032091080330910903C01AD10A16
:10020000E20AF30A009118031091190330E020E08C
:100210000C151D052E053F0550F462E070E01F919E
:100220000F91FF90EF90DF90CF900C948C006111B4
:10023000B1CF63E070E0F3CF70E060E0F0CF85ED28
:100240008093BC008091BC0084FDFCCF10927802AA
:10025000089520915402260F3327331F2132310590
:10026000ECF420917802FC0190E080E0243069F009
:1002700082E00895A09154022191AC014C5C5D4F45
:10028000A40FB52FB11D2C930196861798F380917A
:100290005402680F6093540280E0089581E008954D
:1002A00008958FEF9FEF08958FEF9FEF089580914E
:1002B000330290E09195819591090895CF92DF9254
:1002C000EF92FF920F931F93CF93DF937C01CB01AB
:1002D0008A0120913202222389F0EB016B01C40EC6
:1002E000D51ECC15DD0569F06991D701ED91FC9122
:1002F0000190F081E02DC7010995F3CF642F0E9492
:100300002901C801DF91CF911F910F91FF90EF90CC
:10031000DF90CF900895CF93DF931F92CDB7DEB7D4
:100320006983209132022223F9F020913102203298
:1003300058F021E030E0FC013383228390E080E03C
:100340000F90DF91CF91089580913002E82FF0E077
:10035000E05FFD4F998190838F5F8093300280939F
:10036000310281E090E0ECCF61E0CE0101960E9485
:100370002901F7CFCF93FC01C48121E02093320201
:10038000C0930F0210923002109231028385682BC5
:1003900082EA92E00E948B0190913102913208F042
:1003A0003FC0809178028111FCCF82E08093780277
:1003B00081E080937A028FEF8093770210929C0203
:1003C00090939B02A0E1B2E0EBE7F2E080E09813AB
:1003D0002FC010929D0280919D02CC0FC82BC0931C
:1003E0009D0280917902813039F5109279028091D5
:1003F0009D028093BB008091BC0083FDF8CF85EC0B
:100400008093BC00809178028230E1F38091770282
:100410008F3F31F080917702803211F08091770226
:10042000109230021092310210923202CF91089550
:100430002D9121938F5FCBCF85EEE2CF833081F07A
:1004400028F4813099F08230A9F008958730A9F01E
:100450008830C9F08430B1F4809180008F7D03C072
:10046000809180008F7780938000089584B58F7786
:1004700084BD089584B58F7DFBCF8091B0008F77C8
:100480008093B00008958091B0008F7DF9CFCF9315
:10049000DF93282F30E0F901E255FF4F8491F901F5
:1004A000E656FF4FD491F901EA57FF4FC491CC2390
:1004B000A1F081110E941E02EC2FF0E0EE0FFF1F51
:1004C000E458FF4FA591B491EC91ED2381E090E0C9
:1004D00009F480E0DF91CF91089580E090E0FACFB9
:1004E000862F0C9447021F93CF93DF93282F30E081
:1004F000F901E255FF4F8491F901E656FF4FD4917F
:10050000F901EA57FF4FC491CC23A9F0162F8111AE
:100510000E941E02EC2FF0E0EE0FFF1FEE58FF4F7F
:10052000A591B4918FB7F894EC91111108C0D095B2
:10053000DE23DC938FBFDF91CF911F910895DE2BD7
:10054000F8CF862F642F0C947302CF93DF9390E043
:10055000FC01E656FF4F24918A579F4FFC0184917E
:100560008823C9F090E0880F991FFC01E859FF4FDC
:10057000A591B491FC01EE58FF4FC591D491611142
:100580000DC09FB7F8948C91209582238C9388811D
:10059000282328839FBFDF91CF910895623051F4C3
:1005A0009FB7F8943C91822F809583238C93E881A8
:1005B0002E2BEFCF8FB7F894EC912E2B2C938FBF6F
:1005C000EACF862F642F0C94A5026F927F928F92B0
:1005D0009F92AF92BF92CF92DF92EF92FF920F93D2
:1005E0001F93CF93DF9381E080931A038FB7F89422
:1005F00040919E0250919F026091A0027091A102D1
:100600008FBF80910A0390910B03A0910C03B091CE
:100610000D03481B590B6A0B7B0B809116039091BD
:100620001703B0E0A0E084179507A607B70708F006
:100630001DC1C0E080911403C81760F4E09110035D
:10064000F0911103EC0FF11D62E080810E94A50280
:10065000CF5FF0CF712C812C912C54018394809129
:100660001503781608F05FC0072D10E0E091120323
:10067000F0911303E00FF11F61E080810E94A50259
:10068000E0911203F0911303E00FF11F60E080810D
:100690000E947302D501C401072C04C0880F991F62
:1006A000AA1FBB1F0A94D2F76C017C01E094F0945E
:1006B000612C809114036816F8F4C62DD0E0E09107
:1006C0001003F0911103EC0FFD1F80810E9447027F
:1006D0002496CC0FDD1FC255DD4F892B41F4888154
:1006E00099818C299D29998388836394E2CF88819D
:1006F00099818E219F21F7CFE0911203F09113038E
:10070000E00FF11F61E080810E947302809112036B
:1007100090911303080F191F60E0F80180810E9477
:10072000A50273949CCFCEEAD2E0FE018FEF9FEF3B
:10073000278D30A1232B21F4148E968F858F11A243
:10074000369622E0EA3EF20799F7F12C96E0D92E90
:1007500080911403F81608F050C0E12C0F2D10E022
:10076000000F111F0A541D4F20911503E21608F0C7
:1007700042C0F801608171810E2C02C076956795A8
:100780000A94E2F7F29E900111242E0D311DEEEA3B
:10079000F2E080E0458D568D2417350709F46AC0D4
:1007A0008F5F36968A30B1F760FF23C0EEEAF2E041
:1007B00090E080E0448D411117C0E0910E03F0916C
:1007C0000F03E20FF31F4081D89EF001D99EF00D78
:1007D0001124E255FD4F448F368F258F10A2178EBE
:1007E00061E00E94AF0005C0019636968A309105FF
:1007F00009F7E394B9CFF394ABCF80E099A19111BD
:10080000892F2696F2E0CA3EDF07C1F79FB7F8941A
:1008100040919E0250919F026091A0027091A102AE
:100820009FBF40930A0350930B0360930C03709394
:100830000D038823D9F08091CF028823B9F08091ED
:10084000CD029091CE02019789F48091CA02DF9186
:10085000CF911F910F91FF90EF90DF90CF90BF90BD
:10086000AF909F908F907F906F90089510921A0391
:1008700080E0EDCF6170B5CF3FB7F89480910B0267
:1008800090910C02A0910D02B0910E0226B5A89B8A
:1008900005C02F3F19F00196A11DB11D3FBFBA2F12
:1008A000A92F982F8827BC01CD01620F711D811DD2
:1008B000911D42E0660F771F881F991F4A95D1F757
:1008C0000895AF92BF92CF92DF92EF92FF920F9373
:1008D0001F93CF93DF936C017B018B01040F151FD6
:1008E000EB015E01AE18BF08C017D10759F069913E
:1008F000D601ED91FC910190F081E02DC6010995A2
:10090000892B79F7C501DF91CF911F910F91FF904E
:10091000EF90DF90CF90BF90AF900895FC01918D44
:10092000828D981761F0A28DAE0FBF2FB11D5D961D
:100930008C91928D9F5F9F73928F90E008958FEFBF
:100940009FEF0895FC01918D828D981731F0828D73
:10095000E80FF11D858D90E008958FEF9FEF0895CA
:10096000FC01918D228D892F90E0805C9F4F821B2E
:1009700091098F739927089589E293E00E94B0044A
:1009800021E0892B09F420E0822F089580E090E097
:10099000892B29F00E94BC0481110C940000089559
:1009A000FC01A48DA80FB92FB11DA35ABF4F2C91E4
:1009B000848D90E001968F739927848FA689B789DB
:1009C0002C93A089B1898C9180648C93938D848DB4
:1009D000981306C00288F389E02D80818F7D808383
:1009E0000895EF92FF920F931F93CF93DF93EC0143
:1009F00081E0888F9B8D8C8D981316C0E889F989CA
:100A0000808185FF11C0EE89FF896083E889F989BB
:100A100080818064808381E090E0DF91CF911F919D
:100A20000F91FF90EF900895F62E0B8D10E00F5F61
:100A30001F4F0F731127E02E8C8D8E110CC00FB637
:100A400007FCFACFE889F989808185FFF5CFCE01CF
:100A50000E94D004F1CFEB8DEC0FFD2FF11DE35A76
:100A6000FF4FF0820B8FEA89FB8980818062D2CFB1
:100A7000CF93DF93EC01888D8823B9F0AA89BB89D5
:100A8000E889F9898C9185FD03C0808186FD0DC0C0
:100A90000FB607FCF7CF8C9185FFF2CF808185FFE1
:100AA000EDCFCE010E94D004E9CFDF91CF91089520
:100AB000CF92DF92EF92FF92C0900602D090070291
:100AC000E0900802F090090220E030E040ED51E4AF
:100AD000C701B6010E942A0F87FD11C089E00E945C
:100AE0004702019761F060E088E00E94730261E0D4
:100AF00089E0FF90EF90DF90CF900C94730220E09C
:100B000030E040EC51E4C701B6010E94D20D181646
:100B10008CF089E00E944702019761F488E00E940E
:100B20004702019739F060E089E00E94730261E0BA
:100B300088E0DFCFFF90EF90DF90CF90089581E4C1
:100B400080937C0080917A00806480937A00809109
:100B50007A0086FDFCCF8091780060917900762F35
:100B6000682F072E000C880B990B0E947A0E20E04C
:100B700030E040E85AE30E942F0F20E030E44CE9D7
:100B800055E40E942F0F20E030E040E251E40E9443
:100B9000D70D60930602709307028093080290932A
:100BA000090208950E94E5028823E1F30895CF9396
:100BB000C82F61E00E94A50260E08C2FCF910C94B9
:100BC000730289E090E00E94D70588E090E00E94DF
:100BD000D7058DE090E00C94D705FC010190002032
:100BE000E9F73197AF01481B590BBC0189E293E04B
:100BF0000C9461048F929F92AF92BF920F931F93B8
:100C0000CF93DF93CDB7DEB7A1970FB6F894DEBFD1
:100C10000FBECDBF19A2423008F44AE08E010F5D2D
:100C20001F4F842E912CB12CA12CA50194010E9460
:100C3000430DE62FB901CA01EA30F4F4E05DD801B2
:100C4000EE938D01232B242B252B79F790E080E068
:100C5000109719F0CD010E94ED05A1960FB6F894FA
:100C6000DEBF0FBECDBFDF91CF911F910F91BF901F
:100C7000AF909F908F900895E95CE1CFCF93DF9381
:100C80000E94ED05EC018AE691E00E94ED058C0FD3
:100C90009D1FDF91CF9108958DE691E00C943E0663
:100CA00084E791E00C943E060F931F93CF938C0141
:100CB000C62F64600E94BA016C2F6B7FC8010E942E
:100CC000BA0183EC90E00197F1F7CF911F910F915A
:100CD00008950F931F93CF93DF938C01C62FD62FC8
:100CE000D07FD1606D2F0E94BA016D2FC8010E9484
:100CF000540680E1C89FE0011124C1606C2FC80137
:100D00000E94BA016C2FC801DF91CF911F910F9102
:100D10000C9454060E94690681E090E00895CF93F8
:100D2000C82F682F89E293E00E94F1046C2F8DE1B7
:100D300093E00E946906CF910895CF930E94E50247
:100D4000C82F882311F180930A01833201F5609145
:100D50000402709105028BE791E00E94A70F892B96
:100D6000B1F081E090E0909303028093020280E86A
:100D700091E00E943E068CE691E0909305028093FC
:100D800004021092010210920002CF910895809106
:100D90000002909101028A3091054CF7E091040223
:100DA000F0910502E80FF91FC083019690930102AC
:100DB00080930002EACF1F920F920FB60F92112478
:100DC0002F933F934F935F936F937F938F939F9353
:100DD000AF93BF93EF93FF938091B900887F8036E4
:100DE00009F44AC0F0F5883209F4A5C018F580313D
:100DF00009F499C0B8F4882309F4F5C0883009F4DF
:100E000092C0FF91EF91BF91AF919F918F917F9190
:100E10006F915F914F913F912F910F900FBE0F9067
:100E20001F901895883109F486C0803251F780935D
:100E3000770214C0803409F49BC040F48033B9F3C6
:100E40008833F9F68093770285ECAEC0803509F4DB
:100E500083C0883509F494C0883499F60E941F0134
:100E6000D0CF883909F48AC038F5883729F050F492
:100E7000883611F0803729F683E08093780210924B
:100E8000760255C0883809F479C0803919F0803865
:100E900009F0B7CF80917602803208F06FC0E09100
:100EA000760281E08E0F809376028091BB00F0E0A5
:100EB000EA5AFD4F80833BC0803B39F0D0F4803A42
:100EC00009F477C0883A09F09CCF84E080937802D7
:100ED0001092550210925402F0E0E0E009958091E2
:100EE000540281110FC081E08093540210923402A9
:100EF00009C0803C09F4A8CF883C09F4A5CF883B01
:100F000009F07FCFE091550281E08E0F809355026A
:100F1000F0E0EC5CFD4F80818093BB009091550226
:100F20008091540229C080919D028093BB0085EC82
:100F30008093BC0066CF90919C0280919B02981791
:100F400058F5E0919C0281E08E0F80939C02F0E0C6
:100F5000E558FD4F8081E9CFE0919C0281E08E0F42
:100F600080939C028091BB00F0E0E558FD4F8083A8
:100F700090919C0280919B029817C8F285E8D8CF87
:100F8000E0919C0281E08E0F80939C028091BB00D7
:100F9000F0E0E558FD4F808380917A0281115ECFA9
:100FA00081E08093790284EA8093BC0010927802F9
:100FB00028CF85EC8093BC00109278028091760255
:100FC000803230F4E0917602F0E0EA5AFD4F108270
:100FD0006091760270E086E592E0F0E0E0E009954D
:100FE000109276020ECF1092770238CF1F920F9296
:100FF0000FB60F9211242F933F938F939F93AF932C
:10100000BF9380919E0290919F02A091A002B09107
:10101000A10230910A0223E0230F2D3758F50196E3
:10102000A11DB11D20930A0280939E0290939F02FE
:10103000A093A002B093A10280910B0290910C02A8
:10104000A0910D02B0910E020196A11DB11D8093D9
:101050000B0290930C02A0930D02B0930E02BF916D
:10106000AF919F918F913F912F910F900FBE0F9055
:101070001F90189526E8230F0296A11DB11DD2CF0F
:101080001F920F920FB60F9211242F933F934F93FD
:101090005F936F937F938F939F93AF93BF93EF93E0
:1010A000FF9389E293E00E94D004FF91EF91BF91FA
:1010B000AF919F918F917F916F915F914F913F91F0
:1010C0002F910F900FBE0F901F9018951F920F92A7
:1010D0000FB60F9211242F938F939F93EF93FF934B
:1010E000E0913903F0913A038081E0913F03F09160
:1010F000400382FD1BC09081809142038F5F8F73FC
:1011000020914303821741F0E0914203F0E0E75D54
:10111000FC4F958F80934203FF91EF919F918F91A8
:101120002F910F900FBE0F901F9018958081F4CFD4
:101130001F920F920FB60F921124EF92FF920F930E
:101140001F932F933F934F935F936F937F938F934F
:101150009F93AF93BF93CF93DF93EF93FF93C0E041
:10116000D1E08EE2E82E81E0F82E04E211E08881E1
:101170009981019789939993181619065CF0D70104
:10118000ED91FC910995F80180819181FE013297E2
:1011900091838083F2E0EF0EF11C0E5F1F4F81E020
:1011A000CA30D80721F7FF91EF91DF91CF91BF911E
:1011B000AF919F918F917F916F915F914F913F91EF
:1011C0002F911F910F91FF90EF900F900FBE0F90F6
:1011D0001F9018951092A5021092A40288EE93E039
:1011E000A0E0B0E08093A6029093A702A093A8028B
:1011F000B093A9028CE391E09093A3028093A202A2
:101200001092B0021092B4021092B3021092B50282
:101210008CE491E09093AF028093AE02EAECF2E0AE
:101220001082148213821582369683E0E630F80726
:10123000B9F78EE091E090931103809310038BE057
:1012400091E0909313038093120384E0809314033E
:1012500083E08093150382E191E090930F038093E4
:101260000E038AE090E0909317038093160384EFB7
:1012700091E0909319038093180310921C0310922D
:101280001B0310920A0310920B0310920C0310928E
:101290000D0310921A031092200310921F0386E58B
:1012A00091E090931E0380931D0387E280932103B6
:1012B00080E18093260382E0809327031092280325
:1012C00010922C0310922B0388EE93E0A0E0B0E084
:1012D00080932D0390932E03A0932F03B09330039C
:1012E0008EE591E090932A038093290385EC90E0AA
:1012F000909336038093350384EC90E09093380309
:101300008093370380EC90E090933A038093390305
:1013100081EC90E090933C0380933B0382EC90E05F
:1013200090933E0380933D0386EC90E090934003BE
:1013300080933F03109242031092430310924403A0
:10134000109245030895789484B5826084BD84B575
:10135000816084BD85B5826085BD85B5816085BDB0
:1013600080916E00816080936E0010928100809168
:1013700081008260809381008091810081608093F0
:101380008100809180008160809380008091B10015
:1013900084608093B1008091B00081608093B00040
:1013A00080917A00846080937A0080917A008260D4
:1013B00080937A0080917A00816080937A00809196
:1013C0007A00806880937A001092C100E09139031E
:1013D000F0913A0382E08083E0913503F091360387
:1013E0001082E0913703F09138038FEC80831092E4
:1013F0004103E0913D03F0913E0386E08083E0915C
:101400003B03F0913C03808180618083E0913B034A
:10141000F0913C03808188608083E0913B03F091F0
:101420003C03808180688083E0913B03F0913C0322
:1014300080818F7D808370E060E08FE896E00E947D
:10144000B00B61E070E082ED95E00E94B00B0E946D
:10145000E1050E94E1050E94E10580E290E00E9422
:10146000170C9093050280930402109201021092CF
:10147000000261E08AE00E94A50261E08BE00E9428
:10148000A50261E08CE00E94A50261E08DE00E946F
:10149000A50261E086E10E94A50261E088E10E9468
:1014A000A50260E08BE00E94730261E08CE00E9484
:1014B000730261E08AE00E94A50260E08AE00E9477
:1014C00073028FE891E09F938F930E94B00F80E2A8
:1014D00090E00E94170C90930502809304021092F2
:1014E00001021092000281EA91E09F938F930E9483
:1014F000B00F0E943C044B015C010F900F900F90C5
:101500000F9038EEC32E33E0D32EE12CF12C0E9445
:101510003C04681979098A099B09683E7340810572
:101520009105A8F321E0C21AD108E108F10888EE7C
:10153000880E83E0981EA11CB11CC114D104E104E3
:10154000F10429F7109280001092810080918100AF
:101550008860809381008091810082608093810007
:101560008FEC97E09093890080938800109285001B
:1015700010928400B19A80916F00826080936F0016
:1015800084EB282E81E0382E9FEC892E91E0992E55
:10159000C0EED1E00EEE11E020E0A22E20E0B22E4F
:1015A0003F922F920E94B00FC0900602D090070287
:1015B000E0900802F09009020F900F90A7019601A9
:1015C000C701B6010E949C0F8823C1F183EC91E012
:1015D0000E94ED0580910A01282F082E000C330B84
:1015E0003F938F939F928F920E94B00F809105023C
:1015F0008F93809104028F93DF93CF930E94B00F5B
:10160000809103028F93809102028F931F930F9317
:101610000E94B00F8DB79EB70C960FB6F8949EBF80
:101620000FBE8DBFA114B10409F4BACF0E94BC044F
:10163000882309F4B5CF0E940000B2CF26013701FC
:10164000E89477F82FEF3FEF4FE75FE7C301B20170
:101650000E949C0F81110DC02FEF3FEF4FE75FE716
:10166000C301B2010E94D20D18161CF487EC91E060
:10167000AFCF2FEF3FEF4FE75FE4C701B6010E9406
:101680002A0F18161CF48BEC91E0A2CF2FEF3FEF3E
:101690004FE75FECC701B6010E94D20D87FDF3CF83
:1016A00020E030E0A901C701B6010E94D20D87FFFA
:1016B00009C06DE289E293E00E94F104F7FAF09428
:1016C000F7F8F0942AE037ED43EA5BE3C701B6018F
:1016D0000E94660D2B013C010E94490E6B017C01AA
:1016E0000E94780E9B01AC01C301B2010E94650DFE
:1016F0002B013C014AE0C701B6010E94FA056EE2E7
:1017000089E293E00E94F10420E030E040E251E4FD
:10171000C301B2010E942F0F2B013C010E94490E10
:101720006B01F12CE12C4AE0C701B6010E94FA05D9
:10173000C701B6010E94780E9B01AC01C301B20142
:101740000E94650D20E030E040E251E40E942F0F3E
:101750000E94490E90E080E04AE00E94FA053ACFEC
:101760000F931F93CF93DF93009759F46115710581
:1017700041F4F0E0E0E0CF01DF91CF911F910F91B4
:1017800008958B01EC016EE070E081E090E00E9432
:10179000FB0BFC01892B69F380E88383011511059C
:1017A00071F01387028781E883838091C60390914B
:1017B000C703892B21F4F093C703E093C603209756
:1017C000D1F2D187C0878381826083838091C803EF
:1017D0009091C903892B79F6F093C903E093C8036C
:1017E0008091CA039091CB03892B29F6F093CB0308
:1017F000E093CA03C0CF0F931F93CF93DF93869FCD
:101800008001879F100D969F100D1124C8010E9422
:10181000170CEC01009729F0A80170E060E00E942D
:101820003C0DCE01DF91CF911F910F9108950F9341
:101830001F93CF93DF938230910510F482E090E004
:10184000E091CE03F091CF0330E020E0B0E0A0E0E3
:10185000309799F42115310509F44AC0281B390B3A
:1018600024303105D8F58A819B816115710589F194
:10187000FB0193838283FE0111C04081518102816B
:10188000138148175907E0F04817590799F4109742
:1018900061F012960C93129713961C933296CF0117
:1018A000DF91CF911F910F9108950093CE03109374
:1018B000CF03F4CF2115310551F04217530738F00B
:1018C000A901DB019A01BD01DF01F801C1CFEF01E0
:1018D000F9CF9093CF038093CE03CDCFFE01E20FDB
:1018E000F31F819391932250310939832883D7CFF5
:1018F0002091CC033091CD03232B41F42091200182
:10190000309121013093CD032093CC0320911E010F
:1019100030911F012115310541F42DB73EB740919B
:10192000220150912301241B350BE091CC03F0914F
:10193000CD03E217F307A0F42E1B3F0B281739073E
:1019400078F0AC014E5F5F4F2417350748F04E0F1B
:101950005F1F5093CD034093CC03819391939FCF0E
:10196000F0E0E0E09CCFCF93DF930097E9F0FC013B
:10197000329713821282A091CE03B091CF03ED0172
:1019800030E020E01097A1F420813181820F931F75
:101990002091CC033091CD032817390709F061C09D
:1019A000F093CD03E093CC03DF91CF910895EA014A
:1019B000CE17DF07E8F54A815B819E01411551058D
:1019C000B1F7E901FB83EA8349915991C40FD51F0F
:1019D000EC17FD0761F4808191810296840F951FB9
:1019E000E90199838883828193819B838A83F0E0D4
:1019F000E0E012968D919C9113970097B9F52D9187
:101A00003C911197CD010296820F931F2091CC0338
:101A10003091CD032817390739F6309751F51092D8
:101A2000CF031092CE03B093CD03A093CC03BCCFD1
:101A3000D383C28340815181840F951FC817D90772
:101A400061F44E5F5F4F88819981480F591F518320
:101A500040838A819B81938382832115310509F01C
:101A6000B0CFF093CF03E093CE039ECFFD01DC0116
:101A7000C0CF13821282D7CFDC0101C06D934150D9
:101A80005040E0F70895A1E21A2EAA1BBB1BFD01EE
:101A90000DC0AA1FBB1FEE1FFF1FA217B307E4074D
:101AA000F50720F0A21BB30BE40BF50B661F771FA5
:101AB000881F991F1A9469F7609570958095909585
:101AC0009B01AC01BD01CF0108955058BB27AA2747
:101AD0000E947D0D0C94F00E0E94E20E38F00E94E0
:101AE000E90E20F039F49F3F19F426F40C94DF0E30
:101AF0000EF4E095E7FB0C94D90EE92F0E94010F3C
:101B000058F3BA17620773078407950720F079F432
:101B1000A6F50C94230F0EF4E0950B2EBA2FA02DF2
:101B20000B01B90190010C01CA01A0011124FF278A
:101B3000591B99F0593F50F4503E68F11A16F04085
:101B4000A22F232F342F4427585FF3CF4695379584
:101B50002795A795F0405395C9F77EF41F16BA0B49
:101B6000620B730B840BBAF09150A1F0FF0FBB1FF7
:101B7000661F771F881FC2F70EC0BA0F621F731F40
:101B8000841F48F4879577956795B795F7959E3F9D
:101B900008F0B0CF9395880F08F09927EE0F97952E
:101BA000879508950E94B50E08F481E008950E947B
:101BB000EB0D0C94F00E0E94E90E58F00E94E20E1C
:101BC00040F029F45F3F29F00C94D90E51110C9488
:101BD000240F0C94DF0E0E94010F68F39923B1F3D8
:101BE000552391F3951B550BBB27AA276217730743
:101BF000840738F09F5F5F4F220F331F441FAA1FD7
:101C0000A9F335D00E2E3AF0E0E832D09150504092
:101C1000E695001CCAF72BD0FE2F29D0660F771F40
:101C2000881FBB1F261737074807AB07B0E809F026
:101C3000BB0B802DBF01FF2793585F4F3AF09E3FAB
:101C4000510578F00C94D90E0C94240F5F3FE4F307
:101C5000983ED4F3869577956795B795F7959F5FEE
:101C6000C9F7880F911D9695879597F90895E1E03A
:101C7000660F771F881FBB1F621773078407BA0799
:101C800020F0621B730B840BBA0BEE1F88F7E095F4
:101C900008950E94090F88F09F5798F0B92F99274F
:101CA000B751B0F0E1F0660F771F881F991F1AF047
:101CB000BA95C9F714C0B13091F00E94230FB1E07A
:101CC00008950C94230F672F782F8827B85F39F079
:101CD000B93FCCF3869577956795B395D9F73EF4E0
:101CE00090958095709561957F4F8F4F9F4F089588
:101CF000E89409C097FB3EF49095809570956195A6
:101D00007F4F8F4F9F4F9923A9F0F92F96E9BB275B
:101D10009395F695879577956795B795F111F8CFD7
:101D2000FAF4BB0F11F460FF1BC06F5F7F4F8F4F42
:101D30009F4F16C0882311F096E911C0772321F038
:101D40009EE8872F762F05C0662371F096E8862FD0
:101D500070E060E02AF09A95660F771F881FDAF727
:101D6000880F9695879597F90895990F0008550F54
:101D7000AA0BE0E8FEEF16161706E807F907C0F011
:101D800012161306E407F50798F0621B730B840B19
:101D9000950B39F40A2661F0232B242B252B21F4F3
:101DA00008950A2609F4A140A6958FEF811D811D93
:101DB000089597F99F6780E870E060E008959FEFCD
:101DC00080EC089500240A941616170618060906D2
:101DD000089500240A9412161306140605060895A1
:101DE000092E0394000C11F4882352F0BB0F40F429
:101DF000BF2B11F460FF04C06F5F7F4F8F4F9F4F69
:101E0000089557FD9058440F551F59F05F3F71F0EA
:101E10004795880F97FB991F61F09F3F79F0879551
:101E20000895121613061406551FF2CF4695F1DFDA
:101E300008C0161617061806991FF1CF869571056A
:101E4000610508940895E894BB2766277727CB019E
:101E500097F908950E94B50E08F48FEF08950E9437
:101E6000420F0C94F00E0E94E20E38F00E94E90E30
:101E700020F0952311F00C94D90E0C94DF0E112450
:101E80000C94240F0E94010F70F3959FC1F3950FDE
:101E900050E0551F629FF001729FBB27F00DB11DEE
:101EA000639FAA27F00DB11DAA1F649F6627B00D7E
:101EB000A11D661F829F2227B00DA11D621F739F67
:101EC000B00DA11D621F839FA00D611D221F749F75
:101ED0003327A00D611D231F849F600D211D822FBC
:101EE000762F6A2F11249F5750409AF0F1F08823E3
:101EF0004AF0EE0FFF1FBB1F661F771F881F915010
:101F00005040A9F79E3F510580F00C94D90E0C94D7
:101F1000240F5F3FE4F3983ED4F386957795679559
:101F2000B795F795E7959F5FC1F7FE2B880F911D39
:101F30009695879597F908950E94B50E880B990B91
:101F40000895EE0FFF1F0590F491E02D0994FB0119
:101F5000DC018D91019080190110D9F3990B08953E
:101F6000B0E0A0E0E6EBFFE00C945412AE014B5F52
:101F70005F4FFA0161917191AF018091C803909117
:101F8000C9030E94C60FE2E00C947012ABE0B0E00F
:101F9000ECECFFE00C9444127C013B018A01FC0153
:101FA00017821682838181FFC8C1CE0101965C0130
:101FB000F7019381F30193FD859193FF81913F0197
:101FC000882309F453C1853239F493FD859193FF39
:101FD00081913F01853229F4B70190E00E94B6114A
:101FE000E7CF912C212C312CFFE1F31538F08B3207
:101FF00011F190F4803209F1833229F137FC3CC0B1
:1020000020ED280F2A3050F536FE20C08AE0989E39
:10201000200D1124922E06C08D3291F0803371F77D
:10202000689430F8F30193FD859193FF81913F010E
:102030008111DACF21C0689431F8689432F8F2CF78
:10204000689433F8EFCF689434F8ECCFEAE02E9E32
:10205000200D1124222E689435F8E4CF8E3229F415
:1020600036FC04C1689436F8DDCF8C3619F46894D8
:1020700037F8D8CF8836B1F2982F9F7D955493309A
:10208000E0F08336A1F18337C1F1833509F063C0F5
:102090002801F2E04F0E511CF801C080D180692D5B
:1020A00070E036FC02C06FEF7FEFC6010E94A01106
:1020B0004C01689437F882010AC00C5F1F4FFFE3A0
:1020C000F98388248394912C6501E89437F833FED2
:1020D0002DC0522C8114910471F5552009F468CF5C
:1020E000B70180E290E00E94B6115A94F6CFF80151
:1020F000808189830E5F1F4FE4CF2801F2E04F0EED
:10210000511CF801C080D180692D70E036FC02C0FE
:102110006FEF7FEFC6010E94AB114C018201D5CF5A
:10212000B70180E290E00E94B6112A9428141904A5
:1021300009F0B0F7CECFF60137FC859137FE8191DB
:102140006F01B70190E00E94B61151105A94F1E06E
:102150008F1A9108BFCF843619F0893609F077C0FD
:10216000F80137FE6BC060817181828193810C5FC1
:102170001F4FF32DFF763F2E97FF09C09095809556
:10218000709561957F4F8F4F9F4F689437F82AE085
:1021900030E0A5010E94E611C82ECA188C2C432CF1
:1021A00036FE0CC0E89440F8C91440F434FE05C073
:1021B00032FC03C0F32DFE7E4F2E892C44FE95C0C9
:1021C000FE01EC0DF11D8081803309F087C0242DC4
:1021D000297E422E842D8870582E43FC95C040FEE7
:1021E0008FC09C2C821418F42C0C922C981844FE4E
:1021F00091C0B70180E390E00E94B61142FE09C091
:1022000088E790E041FE02C088E590E0B7010E94B7
:10221000B611C91408F48AC0CA94D12C9FEFC91A08
:10222000D90ACA0CDB1CF60182916F01B70190E05C
:102230000E94B611AC14BD04B1F74FCF608171811B
:10224000072E000C880B990B0E5F1F4F92CFD32CDB
:10225000E894D4F82AE030E0853739F1232D297F3E
:10226000D22E8F3601F148F48835A9F0F701868126
:1022700097812B96E2E10C946012803749F0883701
:10228000A9F7D4FE02C06894D2F820E130E00DC076
:102290006894D4F8F6CF34FE03C0822F8660D82E1F
:1022A00020E132E002C028E030E0F801D7FE0FC0A4
:1022B00060817181828193810C5F1F4FA5010E9413
:1022C000E611C82ECA183D2CE89437F867CF608114
:1022D000718190E080E00E5F1F4FF0CF42FC02C0A2
:1022E000839478CF8394839475CF842D867809F472
:1022F00071CFF6CFB70180E290E00E94B6118394CF
:102300008214C0F3512C73CF522C5818821408F445
:102310006ECFF8CF842D867809F47BCF8BE241FE17
:1023200080E247FC8DE2B70190E071CFB70180E316
:1023300090E00E94B6119A946CCF8FEF9FEF99CFE7
:10234000FC010590615070400110D8F78095909580
:102350008E0F9F1F0895FC01615070400190011085
:10236000D8F7809590958E0F9F1F08950F931F9318
:10237000CF93DF93182F092FEB018B8181FD09C0CB
:102380001FEF0FEF812F902FDF91CF911F910F91B2
:10239000089582FF14C02E813F818C819D81281772
:1023A00039073CF4E881F981CF010196998388834C
:1023B00010838E819F8101969F838E83E3CFE88572
:1023C000F985812F0995892BA1F3DACFFA01AA2784
:1023D000283051F1203181F1E8946F936E7F6E5F68
:1023E0007F4F8F4F9F4FAF4FB1E03ED0B4E03CD016
:1023F000670F781F891F9A1FA11D680F791F8A1FF9
:10240000911DA11D6A0F711D811D911DA11D20D05F
:1024100009F468943F912AE0269F11243019305D19
:102420003193DEF6CF010895462F4770405D41930A
:10243000B3E00FD0C9F7F6CF462F4F70405D4A3357
:1024400018F0495D31FD4052419302D0A9F7EACF1F
:10245000B4E0A6959795879577956795BA95C9F74E
:1024600000976105710508959B01AC010A2E069441
:102470005795479537952795BA95C9F7620F731FFA
:10248000841F951FA01D08952F923F924F925F9237
:102490006F927F928F929F92AF92BF92CF92DF9274
:1024A000EF92FF920F931F93CF93DF93CDB7DEB7D9
:1024B000CA1BDB0B0FB6F894DEBF0FBECDBF09946D
:1024C0002A88398848885F846E847D848C849B84C4
:1024D000AA84B984C884DF80EE80FD800C811B81D2
:1024E000AA81B981CE0FD11D0FB6F894DEBF0FBE01
:0A24F000CDBFED010895F894FFCF71
:1024FA00E8038813F401DC05C8002D181716191A09
:10250A001B1C3132333435363738392A3023000030
:10251A00D0038000E803F401E803102764005006A2
:10252A004C069F0558059D06000000008B015E01C0
:10253A00570154015101500100000000E102A102BB
:10254A007002000000008A06610400000000F10425
:10255A006104B0048E04A20438050D0A00546173A4
:10256A006B2042005461736B2041003132333500D5
:10257A0050415353574F5244205245534554004CEF
:10258A00696768742073656E736F7220696E697407
:10259A0000496E697469616C697A696E6720746949
:1025AA006D6572000A0D54656D706572617475729D
:1025BA00653A006E616E00696E66006F766600208D
:1025CA0043686172206B65797061643A2025630003
:1025DA002050617373776F72643A20257300204329
:1025EA006F7272656374207077643F3A20256400C5
:00000001FF
