:100000000C945D000C9485000C9485000C94850084
:100010000C9485000C9485000C9485000C9485004C
:100020000C9485000C9485000C9485000C9485003C
:100030000C9485000C9485000C9485000C9485002C
:100040000C9452030C9485000C94C2030C949C03F2
:100050000C9485000C9485000C9485000C9485000C
:100060000C94F4030C948500000000002400270089
:100070002A0000000000250028002B0004040404CE
:100080000404040402020202020203030303030342
:10009000010204081020408001020408102001021F
:1000A00004081020000000080002010000030407FB
:1000B0000000000000000000130511241FBECFEF58
:1000C000D8E0DEBFCDBF11E0A0E0B1E0EEEFFCE094
:1000D00002C005900D92A633B107D9F722E0A6E33E
:1000E000B1E001C01D92AE37B207E1F710E0CDE5F7
:1000F000D0E004C02197FE010E947706CC35D107DD
:10010000C9F70E944C050C947D060C94000090E009
:10011000FC01EC55FF4F2491FC01E057FF4F349157
:10012000FC01E458FF4FE491EE23C9F0222339F09B
:10013000233001F1A8F4213019F1223029F1F0E047
:10014000EE0FFF1FEE58FF4FA591B4918FB7F894B3
:10015000EC91611126C030953E233C938FBF0895EA
:100160002730A9F02830C9F0243049F78091800069
:100170008F7D03C0809180008F7780938000DFCFD8
:1001800084B58F7784BDDBCF84B58F7DFBCF809125
:10019000B0008F778093B000D2CF8091B0008F7D78
:1001A000F9CF3E2BDACF3FB7F8948091D1019091EF
:1001B000D201A091D301B091D40126B5A89B05C06E
:1001C0002F3F19F00196A11DB11D3FBFBA2FA92FD6
:1001D000982F8827BC01CD01620F711D811D911DD3
:1001E00042E0660F771F881F991F4A95D1F708953F
:1001F0008F929F92AF92BF92CF92DF92EF92FF9237
:100200004B015C010E94D3006B017C010E94D30072
:100210006C197D098E099F09683E7340810591051F
:10022000A8F321E0821A9108A108B10888EEC80E4F
:1002300083E0D81EE11CF11C81149104A104B104D7
:1002400029F7FF90EF90DF90CF90BF90AF909F90F5
:100250008F900895AF92BF92CF92DF92EF92FF926C
:100260000F931F93CF93DF936C017B018B01040FDE
:10027000151FEB015E01AE18BF08C017D10759F07A
:100280006991D601ED91FC910190F081E02DC601BC
:100290000995892B79F7C501DF91CF911F910F91B6
:1002A000FF90EF90DF90CF90BF90AF9008950895AA
:1002B000CF93DF93AC01E091C801F091C901309771
:1002C000F1F09091C3018091C2019817C0F090E0C5
:1002D000292F30E02617370754F4D901AA5CBE4F06
:1002E000240F351FE90128812C939F5FF1CF1092D5
:1002F000C3016093C201CB01DF91CF910994DF91DB
:10030000CF910895FC01918D828D981761F0A28D97
:10031000AE0FBF2FB11D5D968C91928D9F5F9F7325
:10032000928F90E008958FEF9FEF0895FC01918DDB
:10033000828D981731F0828DE80FF11D858D90E048
:1003400008958FEF9FEF0895FC01918D228D892FE5
:1003500090E0805C9F4F821B91098F7399270895CD
:1003600085ED91E00E94A40121E0892B09F420E0B1
:10037000822F089580E090E0892B29F00E94B0013F
:1003800081110C9400000895FC01A48DA80FB92FD1
:10039000B11DA35ABF4F2C91848D90E001968F73AD
:1003A0009927848FA689B7892C93A089B1898C91CC
:1003B00080648C93938D848D981306C00288F38992
:1003C000E02D80818F7D80830895EF92FF920F93BF
:1003D0001F93CF93DF93EC0181E0888F9B8D8C8DF1
:1003E000981316C0E889F989808185FF11C0EE89CC
:1003F000FF896083E889F98980818064808381E056
:1004000090E0DF91CF911F910F91FF90EF900895B1
:10041000F62E0B8D10E00F5F1F4F0F731127E02E8C
:100420008C8D8E110CC00FB607FCFACFE889F989C4
:10043000808185FFF5CFCE010E94C401F1CFEB8D05
:10044000EC0FFD2FF11DE35AFF4FF0820B8FEA896D
:10045000FB8980818062D2CFCF93DF93EC01888DBE
:100460008823B9F0AA89BB89E889F9898C9185FD2F
:1004700003C0808186FD0DC00FB607FCF7CF8C91BD
:1004800085FFF2CF808185FFEDCFCE010E94C401B0
:10049000E9CFDF91CF91089585ED8093BC008091E5
:1004A000BC0084FDFCCF1092BF010895209176011D
:1004B000260F3327331F21323105ECF42091BF0181
:1004C000FC0190E080E0243069F082E00895A09182
:1004D00076012191AC014A5A5E4FA40FB52FB11D90
:1004E0002C930196861798F380917601680F60939C
:1004F000760180E0089581E008950895E091C301B8
:100500008091C201E81730F4F0E0EA5CFE4F808190
:1005100090E008958FEF9FEF08959091C30180912F
:10052000C2012FEF3FEF981748F4E92FF0E0EA5CA3
:10053000FE4F208130E09F5F9093C301C901089571
:100540008091C2019091C301891B990B0895CF93AB
:10055000DF93CB01EA01642F0E945602CE01DF91A6
:10056000CF910895CF93DF931F92CDB7DEB7698304
:1005700061E0CE0101960E94560281E090E00F906A
:10058000DF91CF910895FC0101900020E9F73197A8
:10059000AF01481B590BBC0185ED91E00C942A0179
:1005A0008F929F92AF92BF92CF92DF92EF92FF9283
:1005B000CF93DF93CDB7DEB7A1970FB6F894DEBF28
:1005C0000FBECDBF82E792E00E948D029093CB01D7
:1005D0008093CA0180E291E00E94C302C090CA01E8
:1005E000D090CB010D2C000CEE08FF08F7FE3FC0A9
:1005F0006DE285ED91E00E94E50122273327A901F4
:100600002C193D094E095F0919A2CE0181967C0182
:100610009AE0892E912CA12CB12CCA01B901A50117
:1006200094010E945506605DF70162937F012115D8
:1006300031054105510589F7E114F10419F0C701AD
:100640000E94C30283E391E00E94C302A1960FB609
:10065000F894DEBF0FBECDBFDF91CF91FF90EF903A
:10066000DF90CF90BF90AF909F908F900895A7019B
:10067000960119A2CE0181967C018AE0882E912CE8
:10068000A12CB12CCA01B901A50194010E94550603
:10069000605DF70162937F01211531054105510528
:1006A00089F7CACF1F920F920FB60F9211242F9382
:1006B0003F938F939F93AF93BF938091CD01909180
:1006C000CE01A091CF01B091D0013091CC0123E0B7
:1006D000230F2D3758F50196A11DB11D2093CC0194
:1006E0008093CD019093CE01A093CF01B093D00120
:1006F0008091D1019091D201A091D301B091D40108
:100700000196A11DB11D8093D1019093D201A093B8
:10071000D301B093D401BF91AF919F918F913F913D
:100720002F910F900FBE0F901F90189526E8230F62
:100730000296A11DB11DD2CF1F920F920FB60F923C
:1007400011242F933F934F935F936F937F938F93D6
:100750009F93AF93BF93EF93FF9385ED91E00E943A
:10076000C401FF91EF91BF91AF919F918F917F91C4
:100770006F915F914F913F912F910F900FBE0F900E
:100780001F9018951F920F920FB60F9211242F935E
:100790008F939F93EF93FF93E091E501F091E60132
:1007A0008081E091EB01F091EC0182FD1BC0908112
:1007B0008091EE018F5F8F732091EF01821741F0DE
:1007C000E091EE01F0E0EB52FE4F958F8093EE0149
:1007D000FF91EF919F918F912F910F900FBE0F90EE
:1007E0001F9018958081F4CF1F920F920FB60F9231
:1007F00011242F933F934F935F936F937F938F9326
:100800009F93AF93BF93EF93FF938091B900887F3D
:10081000803609F44AC0F0F5883209F4A7C018F50B
:10082000803109F49BC0B8F4882309F4F9C08830FA
:1008300009F494C0FF91EF91BF91AF919F918F9177
:100840007F916F915F914F913F912F910F900FBECC
:100850000F901F901895883109F488C0803251F7A5
:100860008093990114C0803409F49DC040F4803312
:10087000B9F38833F9F68093990185ECB0C08035DF
:1008800009F485C0883509F496C0883499F60E9429
:100890004C02D0CF883909F48CC038F5883729F05C
:1008A00050F4883611F0803729F683E08093BF0139
:1008B0001092980157C0883809F47BC0803919F02C
:1008C000803809F0B7CF80919801803208F071C06C
:1008D000E091980181E08E0F809398018091BB0098
:1008E000F0E0E858FE4F80833DC0803B39F0E0F4F3
:1008F000803A09F479C0883A09F09CCF84E080936B
:10090000BF011092770110927601E091C601F0913B
:10091000C70109958091760181110FC081E0809314
:1009200076011092560109C0803C09F4A6CF883C9C
:1009300009F4A3CF883B09F07DCFE091770181E0F6
:100940008E0F80937701F0E0EA5AFE4F808180930A
:10095000BB00909177018091760129C08091BC0104
:100960008093BB0085EC8093BC0064CF9091BB0169
:100970008091BA01981758F5E091BB0181E08E0F84
:100980008093BB01F0E0E656FE4F8081E9CFE09115
:10099000BB0181E08E0F8093BB018091BB00F0E032
:1009A000E656FE4F80839091BB018091BA01981763
:1009B000C8F285E8D8CFE091BB0181E08E0F80932B
:1009C000BB018091BB00F0E0E656FE4F8083809132
:1009D000BE0181115CCF81E08093BD0184EA8093E8
:1009E000BC001092BF0126CF85EC8093BC00109212
:1009F000BF0180919801803230F4E0919801F0E0DD
:100A0000E858FE4F10826091980170E0E091C401B7
:100A1000F091C50188E791E00995109298010ACFFD
:100A20001092990134CFE5EDF1E01382128288EE45
:100A300093E0A0E0B0E084839583A683B78324E0AD
:100A400031E03183208325EC30E03587248724ECA6
:100A500030E03787268720EC30E0318B208B21EC8B
:100A600030E0338B228B22EC30E0358B248B26EC6C
:100A700030E0378B268B118E128E138E148EE2E7A8
:100A8000F2E01382128284839583A683B78384E184
:100A900091E0918380830895789484B5826084BDC9
:100AA00084B5816084BD85B5826085BD85B5816072
:100AB00085BD80916E00816080936E0010928100F0
:100AC00080918100826080938100809181008160AB
:100AD000809381008091800081608093800080916C
:100AE000B10084608093B1008091B00081608093F8
:100AF000B00080917A00846080937A0080917A00BF
:100B0000826080937A0080917A00816080937A007D
:100B100080917A00806880937A001092C100EDE99C
:100B2000F0E02491E9E8F0E08491882399F090E0E6
:100B3000880F991FFC01E859FF4FA591B491FC0162
:100B4000EE58FF4F859194918FB7F894EC91E22B7A
:100B5000EC938FBF82E18093BA0087E591E0909398
:100B6000C7018093C60188E591E09093C501809309
:100B7000C4011092C3011092C2011092C1011092DF
:100B8000C0011092BF0181E08093BE011092BD01AF
:100B900061E082E10E94870061E083E10E948700BA
:100BA0008091B9008E7F8093B9008091B9008D7FCC
:100BB0008093B90088E48093B80085E48093BC00FA
:100BC00080ED92E09093C9018093C801E091E50126
:100BD000F091E60182E08083E091E101F091E20191
:100BE0001082E091E301F091E4018FEC8083109298
:100BF000ED01E091E901F091EA0186E08083E09166
:100C0000E701F091E801808180618083E091E70154
:100C1000F091E801808188608083E091E701F091A4
:100C2000E801808180688083E091E701F091E8012C
:100C300080818F7D8083C0E0D0E08091CA01909157
:100C4000CB010097E9F461E08DE00E94870068EC39
:100C500070E080E090E00E94F80060E08DE00E948B
:100C6000870068EC70E080E090E00E94F800209738
:100C700021F30E94B001882301F30E940000DDCF20
:100C80000397A9F761E08DE00E94870060E971E0B9
:100C900080E090E00E94F80060E08DE00E94870014
:100CA00060E971E080E090E0E0CFA1E21A2EAA1B9B
:100CB000BB1BFD010DC0AA1FBB1FEE1FFF1FA2170C
:100CC000B307E407F50720F0A21BB30BE40BF50B09
:100CD000661F771F881F991F1A9469F76095709592
:100CE000809590959B01AC01BD01CF010895EE0F59
:0E0CF000FF1F0590F491E02D0994F894FFCFBA
:100CFE0000000000E5012A01A401820196012C02E8
:100D0E0000000000B202A702A0028D027E027D0248
:100D1E0053657269616C20726563656976652078CA
:060D2E003A20000D0A004E
:00000001FF
