:100000000C9433010C9464010C9464010C9464010D
:100010000C9464010C9464010C9464010C946401CC
:100020000C9464010C9464010C9464010C946401BC
:100030000C9464010C9464010C9464010C946401AC
:100040000C9464010C9464010C9464010C9464019C
:100050000C9464010C9464010C9464010C941903D5
:100060000C9464010C948D030C9463030C94640150
:100070000C9464010C9464010C9464010C9464016C
:100080000C9464010C9464010C9464010C9464015C
:100090000C9464010C9464010C9464010C9464014C
:1000A0000C9464010C9464010C9464010C9464013C
:1000B0000C9464010C9464010C9464010C9464012C
:1000C0000C9464010C9464010C9464010C9464011C
:1000D0000C9464010C9464010C9464010C9464010C
:1000E0000C9464010C94DE010C942F020C947402A5
:1000F0000C94EE010C94D6010C94DA010C9492014C
:100100000C94C2010C94E4010C94A9010C94AD016F
:100110000C9492050C94B1010C94B8010C94B501A7
:100120000C9497010C94D0010C941B020C94E801E0
:100130000C94BB020C94C8010C94BE010C943D02BB
:100140000C94CC0100002100240027002A002D007F
:100150003000330001010000040107010A01000022
:1001600020002300260029002C002F00320000016F
:1001700000000301060109010000220025002800FB
:100180002B002E003100340002010000050108019F
:100190000B0105050505070508080808020202020B
:1001A0000A0A080804040404010101010101010113
:1001B0000303030303030303040707070C0C0C0CDE
:1001C0000C0C0C0C020202020606060606060606C7
:1001D0000B0B0B0B0B0B0B0B010210202008081054
:1001E00020401020408002010201080402010102A7
:1001F0000408102040808040201008040201800480
:1002000002018040201008040201080402010102DA
:1002100004081020408001020408102040800000E3
:100220000A0B02090C0D0E08070304010000000070
:1002300000000000000000000000000000000000BE
:10024000000000000000000000001211100000007B
:10025000000000000000000000000000000000009E
:1002600000000000920511241FBECFEFD1E2DEBFD7
:10027000CDBF00E00CBF12E0A0E0B2E0E8E3FEE09A
:1002800000E00BBF02C007900D92AE31B107D9F765
:1002900022E0AEE1B2E001C01D92A63CB207E1F758
:1002A00011E0C3E3D1E000E006C021970109802FEF
:1002B000FE010E941207C233D10780E00807A9F7A8
:1002C0000E9408040C941A070C940000382FE4E2F2
:1002D000F2E08491EEEDF1E02491E8E9F1E094910F
:1002E000992309F435C0882311F181508231F8F443
:1002F000E82FF0E08827E058FE4F8F4F0C9412074C
:10030000B101B5019201A901AD019701B801BE018A
:10031000C201C801CC01D001D601DA019701DE018A
:10032000E401E801809180008F7780938000E92FBD
:10033000F0E0EE0FFF1FE858FE4FA591B4918FB784
:10034000F894EC91311148C020952E232C938FBF47
:100350000895809180008F7DE8CF80918000877F15
:10036000E4CF84B58F7784BDE2CF84B58F7DFBCF9A
:100370008091B0008F778093B000D9CF8091B0008A
:100380008F7DF9CF809190008F7780939000CFCFB1
:10039000809190008F7DF9CF80919000877FF5CF7D
:1003A0008091A0008F778093A000C1CF8091A000A2
:1003B0008F7DF9CF8091A000877FF5CF80912001BC
:1003C0008F7780932001B3CF809120018F7DF9CF6B
:1003D00080912001877FF5CF2E2BB8CFAF92BF92AF
:1003E000CF92DF92EF92FF920F931F93CF93DF9301
:1003F0006C017B018B01040F151FEB015E01AE1830
:10040000BF08C017D10759F06991D601ED91FC9151
:100410000190F081E02DC6011995892B79F7C5016E
:10042000DF91CF911F910F91FF90EF90DF90CF90D0
:10043000BF90AF900895FC01918D828D981761F067
:10044000A28DAE0FBF2FB11D5D968C91928D9F5FD7
:100450009F73928F90E008958FEF9FEF0895FC01B6
:10046000918D828D981731F0828DE80FF11D858D69
:1004700090E008958FEF9FEF0895FC01918D228DFC
:10048000892F90E0805C9F4F821B91098F73992781
:10049000089589E292E00E943D0221E0892B09F44F
:1004A00020E0822F0895FC01A48DA80FB92FB11D63
:1004B000A35ABF4F2C91848D90E001968F7399279A
:1004C000848FA689B7892C93A089B1898C91806487
:1004D0008C93938D848D981306C00288F389E02D48
:1004E00080818F7D80830895EF92FF920F931F93F9
:1004F000CF93DF93EC0181E0888F9B8D8C8D9813D7
:1005000016C0E889F989808185FF11C0EE89FF89CD
:100510006083E889F98980818064808381E090E04C
:10052000DF91CF911F910F91FF90EF900895F62EDC
:100530000B8D10E00F5F1F4F0F731127E02E8C8D76
:100540008E110CC00FB607FCFACFE889F9898081BB
:1005500085FFF5CFCE010E945302F1CFEB8DEC0F5A
:10056000FD2FF11DE35AFF4FF0820B8FEA89FB89C3
:1005700080818062D2CFCF93DF93EC01888D882376
:10058000B9F0AA89BB89E889F9898C9185FD03C0F6
:10059000808186FD0DC00FB607FCF7CF8C9185FFDB
:1005A000F2CF808185FFEDCFCE010E945302E9CFCB
:1005B000DF91CF91089580E090E0892B29F00E948F
:1005C000490281110E94000080E090E0892B49F0EF
:1005D00080E090E0892B29F00E94000081110E94A8
:1005E000000080E090E0892B49F080E090E0892BCA
:1005F00029F00E94000081110E94000080E090E03C
:10060000892B49F080E090E0892B29F00E940000BE
:1006100081110C9400000895FC0101900020E9F77D
:100620003197AF01481B590BBC0189E292E00C9451
:10063000EE011F920F920FB60F9211242F933F934A
:100640008F939F93AF93BF93809125029091260241
:10065000A0912702B09128023091240223E0230FB9
:100660002D3758F50196A11DB11D209324028093CA
:10067000250290932602A0932702B093280280912E
:10068000200290912102A0912202B09123020196B2
:10069000A11DB11D8093200290932102A0932202FC
:1006A000B0932302BF91AF919F918F913F912F9172
:1006B0000F900FBE0F901F90189526E8230F0296FB
:1006C000A11DB11DD2CF1F920F920FB60F92112410
:1006D0000BB60F922F933F934F935F936F937F933C
:1006E0008F939F93AF93BF93EF93FF9389E292E031
:1006F0000E945302FF91EF91BF91AF919F918F9113
:100700007F916F915F914F913F912F910F900BBE11
:100710000F900FBE0F901F9018951F920F920FB65B
:100720000F9211240BB60F922F938F939F93EF93F9
:10073000FF93E0913902F0913A028081E0913F020B
:10074000F091400282FD1DC09081809142028F5F36
:100750008F7320914302821741F0E0914202F0E052
:10076000E75DFD4F958F80934202FF91EF919F913E
:100770008F912F910F900BBE0F900FBE0F901F9077
:1007800018958081F2CFCF92DF92EF92FF920F9374
:100790001F93E82FF92F05C00150110921093109D4
:1007A00061F1908196239417B9F305C001501109A6
:1007B0002109310911F1908196239413F7CFC12CAF
:1007C000D12CE12CF12C0AC08FEFC81AD80AE80A04
:1007D000F80A0C151D052E053F0579F0808186234A
:1007E000841791F36C2D7D2D8E2D9F2D1F910F91D0
:1007F000FF90EF90DF90CF90089560E070E080E090
:1008000090E01F910F91FF90EF90DF90CF900895AF
:10081000CF93DF93CDB7DEB7A1970FB6F894DEBFC5
:100820000FBECDBF789484B5826084BD84B58160ED
:1008300084BD85B5826085BD85B5816085BD8091AB
:100840006E00816080936E00109281008091810023
:10085000826080938100809181008160809381001B
:10086000809180008160809380008091B1008460DD
:100870008093B1008091B00081608093B00080913E
:1008800091008260809391008091910081608093BB
:100890009100809190008160809390008091A100F0
:1008A00082608093A1008091A10081608093A1006B
:1008B0008091A00081608093A000809121018260DE
:1008C0008093210180912101816080932101809199
:1008D000200181608093200180917A008460809360
:1008E0007A0080917A00826080937A0080917A0009
:1008F000816080937A0080917A00806880937A008A
:100900001092C100EEEDF1E02491E8E9F1E084916C
:10091000882399F090E0880F991FFC01EC5BFE4F53
:10092000A591B491FC01E858FE4F859194918FB741
:10093000F894EC91E22BEC938FBF4DED842E41E0C7
:10094000942EF401249157E9252E51E0352EF10122
:1009500084918823C9F090E0880F991FFC01EC5B1B
:10096000FE4FA591B491FC01E858FE4F459154917A
:100970003FB7F8949C91822F809598239C93FA011D
:100980009081892380833FBFE0913902F0913A0240
:1009900082E08083E0913502F09136021082E0918E
:1009A0003702F09138028FEC808310924102E0917F
:1009B0003D02F0913E0286E08083E0913B02F0919F
:1009C0003C02808180618083E0913B02F0913C0297
:1009D000808188608083E0913B02F0913C028081BD
:1009E00080688083E0913B02F0913C0280818F7DA2
:1009F000808393E2A92EB12C2AE0C22ED12CE12CC7
:100A0000F12C80E00E94660183E090E00197F1F70D
:100A100081E00E946601C5010197F1F780E00E9424
:100A20006601F4016491F1018491E82FF0E0EE0F8A
:100A3000FF1FE25AFE4F8591949100E412E42FE0EB
:100A400030E0462F0E94C3036115710581059105B1
:100A500029F06F5F7F4F8F4F9F4F9F700E94F70568
:100A600026E933E44BE05DE30E945B0620E030E0E2
:100A700040E05FE30E945B060E94BF0570931F0287
:100A800060931E0280E192E00E940C0340901E02DF
:100A900050901F02052C000C6608770877FE2CC0CA
:100AA0006DE289E292E00E94740222273327A901B5
:100AB000241935094609570919A2CE0181963C012E
:100AC000CA01B901A70196010E94F006605DF30119
:100AD00062933F01211531054105510589F76114E4
:100AE000710419F0C3010E940C038BE192E00E9493
:100AF0000C030E94DB0285CFA301920119A2CE0153
:100B000081963C01CA01B901A70196010E94F00635
:100B1000605DF30162933F012115310541055105E7
:100B200089F7DDCFE9E2F2E01382128288EE93E0EA
:100B3000A0E0B0E084839583A683B78384E092E04D
:100B40009183808385EC90E09587848784EC90E0A6
:100B50009787868780EC90E0918B808B81EC90E08A
:100B6000938B828B82EC90E0958B848B86EC90E06B
:100B7000978B868B118E128E138E148E08950E9481
:100B8000C6056894B1110C94550608950E943A0662
:100B900088F09F5798F0B92F9927B751B0F0E1F03E
:100BA000660F771F881F991F1AF0BA95C9F714C0EE
:100BB000B13091F00E945406B1E008950C945406AF
:100BC000672F782F8827B85F39F0B93FCCF3869527
:100BD00077956795B395D9F73EF490958095709584
:100BE00061957F4F8F4F9F4F0895E89409C097FB01
:100BF0003EF490958095709561957F4F8F4F9F4FF4
:100C00009923A9F0F92F96E9BB279395F695879537
:100C100077956795B795F111F8CFFAF4BB0F11F4FA
:100C200060FF1BC06F5F7F4F8F4F9F4F16C08823A1
:100C300011F096E911C0772321F09EE8872F762FD7
:100C400005C0662371F096E8862F70E060E02AF018
:100C50009A95660F771F881FDAF7880F9695879504
:100C600097F9089557FD9058440F551F59F05F3F6D
:100C700071F04795880F97FB991F61F09F3F79F0BE
:100C800087950895121613061406551FF2CF469540
:100C9000F1DF08C0161617061806991FF1CF8695C2
:100CA0007105610508940895E894BB2766277727A6
:100CB000CB0197F908950E946E060C94DF060E94FE
:100CC000D10638F00E94D80620F0952311F00C943C
:100CD000C8060C94CE0611240C9455060E943206C8
:100CE00070F3959FC1F3950F50E0551F629FF0017F
:100CF000729FBB27F00DB11D639FAA27F00DB11D98
:100D0000AA1F649F6627B00DA11D661F829F222720
:100D1000B00DA11D621F739FB00DA11D621F839FA7
:100D2000A00D611D221F749F3327A00D611D231F7D
:100D3000849F600D211D822F762F6A2F11249F57CB
:100D400050409AF0F1F088234AF0EE0FFF1FBB1FCE
:100D5000661F771F881F91505040A9F79E3F51058D
:100D600080F00C94C8060C9455065F3FE4F3983E5F
:100D7000D4F3869577956795B795F795E7959F5F37
:100D8000C1F7FE2B880F911D9695879597F90895C9
:100D900097F99F6780E870E060E008959FEF80EC2E
:100DA000089500240A9416161706180609060895D1
:100DB00000240A9412161306140605060895092E37
:100DC0000394000C11F4882352F0BB0F40F4BF2BA6
:100DD00011F460FF04C06F5F7F4F8F4F9F4F0895E6
:100DE000A1E21A2EAA1BBB1BFD010DC0AA1FBB1F2F
:100DF000EE1FFF1FA217B307E407F50720F0A21BA1
:100E0000B30BE40BF50B661F771F881F991F1A940D
:100E100069F760957095809590959B01AC01BD0137
:100E2000CF010895EE0FFF1F881F8BBF0790F6912B
:080E3000E02D1994F894FFCFA6
:100E3800000000007402EE013D021B022F02BB02FB
:0E0E480044697374616E63653A20000D0A0000
:00000001FF
