:100000000C9481000C94B2000C94B2000C94B200D9
:100010000C94B2000C94B2000C94B2000C94B20098
:100020000C94B2000C94B2000C94B2000C94B20088
:100030000C94B2000C94B2000C94B2000C94B20078
:100040000C94B2000C94B2000C94B2000C94B20068
:100050000C94B2000C94B2000C94B2000C944202C6
:100060000C94B2000C94B6020C948C020C94B20066
:100070000C94B2000C94B2000C94B2000C94B20038
:100080000C94B2000C94B2000C94B2000C94B20028
:100090000C94B2000C94B2000C94B2000C94B20018
:1000A0000C94B2000C94B2000C94B2000C94B20008
:1000B0000C94B2000C94B2000C94B2000C94B200F8
:1000C0000C94B2000C94B2000C94B2000C94B200E8
:1000D0000C94B2000C94B2000C94B2000C94B200D8
:1000E0000C94B2000C9443010C947A010C94B4006B
:1000F0000C9408040C94E1000C94C1010C9435019B
:10010000080411241FBECFEFD1E2DEBFCDBF00E057
:100110000CBF22E0A6E2B2E001C01D92A03DB207F2
:10012000E1F712E0A0E0B2E0EAEAFCE000E00BBF99
:1001300002C007900D92A632B107D9F710E0C1E8CE
:10014000D0E000E006C021970109802FFE010E9447
:100150003504C038D10780E00807A9F70E94EC02F7
:100160000C9453060C940000AF92BF92CF92DF9292
:10017000EF92FF920F931F93CF93DF936C017B015C
:100180008B01040F151FEB015E01AE18BF08C017ED
:10019000D10759F06991D601ED91FC910190F08160
:1001A000E02DC6011995892B79F7C501DF91CF9113
:1001B0001F910F91FF90EF90DF90CF90BF90AF9085
:1001C0000895FC01918D828D981761F0A28DAE0F7C
:1001D000BF2FB11D5D968C91928D9F5F9F73928F03
:1001E00090E008958FEF9FEF08952FB7F8948091D6
:1001F0002B0290912C02A0912D02B0912E022FBFC4
:100200008093370290933802A0933902B0933A0258
:100210008FE292E00E94E10097FF26C02FB7F8948A
:1002200080912B0290912C02A0912D02B0912E0270
:100230002FBF40913702509138026091390270917E
:100240003A02841B950BA60BB70B409133025091D9
:100250003402609135027091360284179507A60723
:10026000B707B0F28FEF9FEF0895FC01918D828D5B
:10027000981731F0828DE80FF11D858D90E008957B
:100280008FEF9FEF0895FC01918D228D892F90E0D3
:10029000805C9F4F821B91098F73992708958FE28D
:1002A00092E00E94430121E0892B09F420E0822F93
:1002B0000895FC01A48DA80FB92FB11DA35ABF4FFB
:1002C0002C91848D90E001968F739927848FA68955
:1002D000B7892C93A089B1898C9180648C93938D7C
:1002E000848D981306C00288F389E02D80818F7D6C
:1002F00080830895EF92FF920F931F93CF93DF9324
:10030000EC0181E0888F9B8D8C8D981316C0E88955
:10031000F989808185FF11C0EE89FF896083E889B2
:10032000F98980818064808381E090E0DF91CF91C2
:100330001F910F91FF90EF900895F62E0B8D10E016
:100340000F5F1F4F0F731127E02E8C8D8E110CC085
:100350000FB607FCFACFE889F989808185FFF5CFD0
:10036000CE010E945901F1CFEB8DEC0FFD2FF11D55
:10037000E35AFF4FF0820B8FEA89FB89808180620C
:10038000D2CFCF93DF93EC01888D8823B9F0AA896F
:10039000BB89E889F9898C9185FD03C0808186FD40
:1003A0000DC00FB607FCF7CF8C9185FFF2CF80818F
:1003B00085FFEDCFCE010E945901E9CFDF91CF91AA
:1003C000089580E090E0892B29F00E944F0181116F
:1003D0000E94000080E090E0892B49F080E090E0EE
:1003E000892B29F00E94000081110E94000080E00A
:1003F00090E0892B49F080E090E0892B29F00E9461
:10040000000081110E94000080E090E0892B49F0FB
:1004100080E090E0892B29F00E94000081110C946B
:100420000000089542E050E066E172E08FE292E061
:100430000C94B4000F931F93CF93DF93EC0188814A
:100440009981009759F02A813B812617370730F0B0
:1004500081E0DF91CF911F910F9108958B016F5F24
:100460007F4F0E946205009759F0998388831B8310
:100470000A832C813D81232B59F7FC011082E8CFA0
:1004800080E0E7CF1F920F920FB60F9211242F93A7
:100490003F938F939F93AF93BF9380912B02909143
:1004A0002C02A0912D02B0912E0230912A0223E05D
:1004B000230F2D3758F50196A11DB11D20932A0257
:1004C00080932B0290932C02A0932D02B0932E02C6
:1004D0008091260290912702A0912802B0912902D2
:1004E0000196A11DB11D8093260290932702A0932F
:1004F0002802B0932902BF91AF919F918F913F91B4
:100500002F910F900FBE0F901F90189526E8230F84
:100510000296A11DB11DD2CF1F920F920FB60F925E
:1005200011240BB60F922F933F934F935F936F93CA
:100530007F938F939F93AF93BF93EF93FF938FE23C
:1005400092E00E945901FF91EF91BF91AF919F916D
:100550008F917F916F915F914F913F912F910F906C
:100560000BBE0F900FBE0F901F9018951F920F9209
:100570000FB60F9211240BB60F922F938F939F9368
:10058000EF93FF93E0913F02F09140028081E09170
:100590004502F091460282FD1DC090818091480283
:1005A0008F5F8F7320914902821741F0E0914802DA
:1005B000F0E0E15DFD4F958F80934802FF91EF9150
:1005C0009F918F912F910F900BBE0F900FBE0F90A8
:1005D0001F9018958081F2CFCF93DF9300D000D089
:1005E0001F921F92CDB7DEB7789484B5826084BD28
:1005F00084B5816084BD85B5826085BD85B5816027
:1006000085BD80916E00816080936E0010928100A4
:10061000809181008260809381008091810081605F
:100620008093810080918000816080938000809120
:10063000B10084608093B1008091B00081608093AC
:10064000B000809191008260809391008091910030
:1006500081608093910080919000816080939000F0
:100660008091A10082608093A1008091A1008160AF
:100670008093A1008091A00081608093A000809170
:10068000210182608093210180912101816080930A
:1006900021018091200181608093200180917A0066
:1006A000846080937A0080917A00826080937A00DF
:1006B00080917A00816080937A0080917A008068CE
:1006C00080937A001092C100E0913F02F0914002C5
:1006D00082E08083E0913B02F0913C021082E09145
:1006E0003D02F0913E028FEC808310924702E09130
:1006F0004302F091440286E08083E0914102F09150
:100700004202808180618083E0914102F091420247
:10071000808188608083E0914102F0914202808173
:1007200080688083E0914102F091420280818F7D58
:1007300080838FE292E00E944301892B09F465C017
:100740001A8219821C821B821E821D8270E060E068
:10075000CE0101960E941A0229813A8181112BC093
:100760002115310519F0C9010E94D9041A82198294
:100770001E821D821C821B820E94F50097FD23C0F1
:100780008F8318860D811E810F5F1F4FB801CE0128
:1007900001960E941A02882379F329813A818D817A
:1007A0009E81BE01695F7F4F820F931F0E944C069E
:1007B0001E830D83E1CF1E821D8268E172E0C901B4
:1007C0000E944C06D9CF4CE050E069E172E08FE224
:1007D00092E00E94B4000E9412024D815E81698104
:1007E0007A818FE292E00E94B4000E9412024CE0F3
:1007F00050E069E172E08FE292E00E94B4000E9452
:10080000120289819A810E94D9040E94E10191CF4C
:10081000EFE2F2E01382128288EE93E0A0E0B0E013
:1008200084839583A683B7838AE092E09183808353
:1008300085EC90E09587848784EC90E097878687A5
:1008400080EC90E0918B808B81EC90E0938B828B9D
:1008500082EC90E0958B848B86EC90E0978B868B76
:10086000118E128E138E148E0895EE0FFF1F881FA7
:100870008BBF0790F691E02D19940F931F93CF93A0
:10088000DF938230910510F482E090E0E091CE0297
:10089000F091CF0230E020E0B0E0A0E0309799F492
:1008A0002115310509F44AC0281B390B24303105C4
:1008B000D8F58A819B816115710589F1FB019383CC
:1008C0008283FE0111C0408151810281138148174A
:1008D0005907E0F04817590799F4109761F01296FC
:1008E0000C93129713961C933296CF01DF91CF9100
:1008F0001F910F9108950093CE021093CF02F4CF71
:100900002115310551F04217530738F0A901DB01D9
:100910009A01BD01DF01F801C1CFEF01F9CF90933A
:10092000CF028093CE02CDCFFE01E20FF31F819361
:1009300091932250310939832883D7CF2091CC025B
:100940003091CD02232B41F4209102023091030219
:100950003093CD022093CC0220910002309101020D
:100960002115310541F42DB73EB740910402509155
:100970000502241B350BE091CC02F091CD02E21769
:10098000F307A0F42E1B3F0B2817390778F0AC01B2
:100990004E5F5F4F2417350748F04E0F5F1F50938F
:1009A000CD024093CC02819391939FCFF0E0E0E0A1
:1009B0009CCFCF93DF930097E9F0FC01329713822D
:1009C0001282A091CE02B091CF02ED0130E020E082
:1009D0001097A1F420813181820F931F2091CC02C6
:1009E0003091CD022817390709F061C0F093CD028C
:1009F000E093CC02DF91CF910895EA01CE17DF0793
:100A0000E8F54A815B819E0141155105B1F7E90185
:100A1000FB83EA8349915991C40FD51FEC17FD0759
:100A200061F4808191810296840F951FE901998379
:100A30008883828193819B838A83F0E0E0E0129631
:100A40008D919C9113970097B9F52D913C91119739
:100A5000CD010296820F931F2091CC023091CD02DE
:100A60002817390739F6309751F51092CF021092B6
:100A7000CE02B093CD02A093CC02BCCFD383C2836D
:100A800040815181840F951FC817D90761F44E5FCB
:100A90005F4F88819981480F591F518340838A8114
:100AA0009B81938382832115310509F0B0CFF093A8
:100AB000CF02E093CE029ECFFD01DC01C0CF1382B6
:100AC0001282D7CF4F925F926F927F928F929F92B6
:100AD000AF92BF92CF92DF92EF92FF920F931F934C
:100AE000CF93DF938C01009799F4CB01DF91CF91E5
:100AF0001F910F91FF90EF90DF90CF90BF90AF903C
:100B00009F908F907F906F905F904F900C943D04DA
:100B1000FC01E60FF71F9C0122503109E217F30791
:100B200008F4AEC0D901CD91DC911197C617D70753
:100B300020F1C530D10578F0CE01049786179707CC
:100B400050F0C61BD70B2297C193D1936D937C9322
:100B5000CF010E94D904C801DF91CF911F910F915D
:100B6000FF90EF90DF90CF90BF90AF909F908F90CD
:100B70007F906F905F904F9008955B01AC1ABD0A13
:100B80004C018C0E9D1EA091CE02B091CF02512C33
:100B9000412CF12CE12C109731F58091CC029091F1
:100BA000CD028815990509F05CC04616570608F075
:100BB00058C08091000290910102009741F48DB7D6
:100BC0009EB74091040250910502841B950BE817D3
:100BD000F90708F055C0F093CD02E093CC02F9017B
:100BE00071836083B8CF8D919C91119712966C9010
:100BF000129713967C901397A815B90559F56C01B7
:100C000042E0C40ED11CCA14DB0420F1AC014A1925
:100C10005B09DA011296159780F062827382518324
:100C20004083D9016D937C93E114F10471F0D701F5
:100C30001396FC93EE9312978ECF22968C0F9D1FE6
:100C4000F90191838083F301EFCFF093CF02E0931A
:100C5000CE0281CF4816590608F42C017D01D3013C
:100C60009ACFCB010E943D047C01009749F0AE0170
:100C7000B8010E944306C8010E94D90487016BCFC6
:100C800010E000E068CFFB01DC0102C001900D9292
:100C900041505040D8F70895FB01DC0101900D92BE
:0A0CA0000020E1F70895F894FFCF5B
:100CAA000000D0028000000000007A01B400430175
:100CBA00E1003501C1010D0A002B2B2B2B2B2B2B0D
:060CCA002B2B2B2B2B004D
:00000001FF
