:100000000C9462000C948A000C948A000C948A0070
:100010000C948A000C948A000C948A000C948A0038
:100020000C948A000C948A000C948A000C948A0028
:100030000C948A000C948A000C948A000C948A0018
:100040000C9473020C948A000C94E3020C94BD028D
:100050000C948A000C948A000C948A000C948A00F8
:100060000C948A000C948A000000000024002700F1
:100070002A000000000023002600290000000000E4
:10008000250028002B0004040404040404040202D4
:100090000202020203030303030301020408102007
:1000A0004080010204081020010204081020000012
:1000B0000008000201000003040700000000000027
:1000C00000000C0511241FBECFEFD8E0DEBFCDBF6E
:1000D00021E0AEE3B1E001C01D92A83EB207E1F716
:1000E00011E0A0E0B1E0E6E5FFE002C005900D926E
:1000F000AE33B107D9F710E0C2E6D0E004C02197D3
:10010000FE010E94B105C136D107C9F70E945A030A
:100110000C94A9070C940000E5EBF0E02491E1EACF
:10012000F0E09491EDE8F0E0E491EE23C9F02223B1
:1001300039F0233001F1A8F4213019F1223029F1EE
:10014000F0E0EE0FFF1FE458FF4FA591B4912FB7D9
:10015000F894EC91811126C090959E239C932FBF1B
:1001600008952730A9F02830C9F0243049F72091AC
:1001700080002F7D03C0209180002F772093800086
:10018000DFCF24B52F7724BDDBCF24B52F7DFBCF68
:100190002091B0002F772093B000D2CF2091B000F3
:1001A0002F7DF9CF9E2BDACF3FB7F89480913F0196
:1001B00090914001A0914101B091420126B5A89BC8
:1001C00005C02F3F19F00196A11DB11D3FBFBA2FE9
:1001D000A92F982F8827BC01CD01620F711D811DA9
:1001E000911D42E0660F771F881F991F4A95D1F72E
:1001F0000895AF92BF92CF92DF92EF92FF920F934A
:100200001F93CF93DF936C017B018B01040F151FAC
:10021000EB015E01AE18BF08C017D10759F0699114
:10022000D601ED91FC910190F081E02DC601099578
:10023000892B79F7C501DF91CF911F910F91FF9025
:10024000EF90DF90CF90BF90AF900895FC01918D1B
:10025000828D981761F0A28DAE0FBF2FB11D5D96F4
:100260008C91928D9F5F9F73928F90E008958FEF96
:100270009FEF08952FB7F894809143019091440126
:10028000A0914501B09146012FBF80934F019093FB
:100290005001A0935101B093520187E491E00E9474
:1002A000260197FF26C02FB7F894809143019091C3
:1002B0004401A0914501B09146012FBF40914F01EB
:1002C000509150016091510170915201841B950B26
:1002D000A60BB70B40914B0150914C0160914D0121
:1002E00070914E0184179507A607B707B0F28FEFFC
:1002F0009FEF0895FC01918D828D981731F0828DCA
:10030000E80FF11D858D90E008958FEF9FEF089520
:10031000FC01918D228D892F90E0805C9F4F821B84
:1003200091098F739927089587E491E00E948801CD
:1003300021E0892B09F420E0822F089580E090E0ED
:10034000892B29F00E94940181110C9400000895DA
:10035000FC01A48DA80FB92FB11DA35ABF4F2C913A
:10036000848D90E001968F739927848FA689B78931
:100370002C93A089B1898C9180648C93938D848D0A
:10038000981306C00288F389E02D80818F7D8083D9
:100390000895EF92FF920F931F93CF93DF93EC0199
:1003A00081E0888F9B8D8C8D981316C0E889F98920
:1003B000808185FF11C0EE89FF896083E889F98912
:1003C00080818064808381E090E0DF91CF911F91F4
:1003D0000F91FF90EF900895F62E0B8D10E00F5FB8
:1003E0001F4F0F731127E02E8C8D8E110CC00FB68E
:1003F00007FCFACFE889F989808185FFF5CFCE0126
:100400000E94A801F1CFEB8DEC0FFD2FF11DE35AF7
:10041000FF4FF0820B8FEA89FB8980818062D2CF07
:10042000CF93DF93EC01888D8823B9F0AA89BB892B
:10043000E889F9898C9185FD03C0808186FD0DC016
:100440000FB607FCF7CF8C9185FFF2CF808185FF37
:10045000EDCFCE010E94A801E9CFDF91CF910895A1
:10046000FC0101900020E9F73197AF01481B590BBF
:10047000BC0187E491E00C94F900CF93DF930E94D4
:100480003002EC0186E191E00E9430028C0F9D1F4A
:10049000DF91CF9108950F931F93CF93DF93EC01DA
:1004A00088819981009759F02A813B812617370767
:1004B00030F081E0DF91CF911F910F9108958B0172
:1004C0006F5F7F4F0E94DC06009759F09983888305
:1004D0001B830A832C813D81232B59F7FC01108259
:1004E000E8CF80E0E7CF1F920F920FB60F92112452
:1004F0002F933F938F939F93AF93BF93809143012B
:1005000090914401A0914501B091460130913E0186
:1005100023E0230F2D3758F50196A11DB11D20931F
:100520003E018093430190934401A0934501B09311
:10053000460180913F0190914001A0914101B0910D
:1005400042010196A11DB11D80933F01909340018E
:10055000A0934101B0934201BF91AF919F918F91C0
:100560003F912F910F900FBE0F901F90189526E886
:10057000230F0296A11DB11DD2CF1F920F920FB66D
:100580000F9211242F933F934F935F936F937F9319
:100590008F939F93AF93BF93EF93FF9387E491E083
:1005A0000E94A801FF91EF91BF91AF919F918F9110
:1005B0007F916F915F914F913F912F910F900FBE5F
:1005C0000F901F9018951F920F920FB60F92112443
:1005D0002F938F939F93EF93FF93E0915701F091A7
:1005E00058018081E0915D01F0915E0182FD1BC0A8
:1005F0009081809160018F5F8F73209161018217DC
:1006000041F0E0916001F0E0E95BFE4F958F80934F
:100610006001FF91EF919F918F912F910F900FBEED
:100620000F901F9018958081F4CFCF92DF92EF92B8
:10063000FF920F931F93E82FF92F05C00150110966
:100640002109310961F1908196239417B9F305C00E
:10065000015011092109310911F190819623941358
:10066000F7CFC12CD12CE12CF12C0AC08FEFC81A86
:10067000D80AE80AF80A0C151D052E053F0579F081
:1006800080818623841791F36C2D7D2D8E2D9F2DD7
:100690001F910F91FF90EF90DF90CF90089560E051
:1006A00070E080E090E01F910F91FF90EF90DF905D
:1006B000CF900895CF93DF93CDB7DEB7A3970FB652
:1006C000F894DEBF0FBECDBF789484B5826084BD40
:1006D00084B5816084BD85B5826085BD85B5816046
:1006E00085BD80916E00816080936E0010928100C4
:1006F000809181008260809381008091810081607F
:10070000809381008091800081608093800080913F
:10071000B10084608093B1008091B00081608093CB
:10072000B00080917A00846080937A0080917A0092
:10073000826080937A0080917A00816080937A0051
:1007400080917A00806880937A001092C100E091D5
:100750005701F091580182E08083E0915301F091BC
:1007600054011082E0915501F09156018FEC808385
:1007700010925F01E0915B01F0915C0186E0808363
:10078000E0915901F0915A01808180618083E0916C
:100790005901F0915A01808188608083E09159016C
:1007A000F0915A01808180688083E0915901F09135
:1007B0005A0180818F7D808389E191E00E943D0212
:1007C0006AE0462E512C612C712C50E0252E50E011
:1007D000352E87E491E00E948801892B09F45BC0E3
:1007E0001A8219821C821B821E821D8270E060E0C8
:1007F000CE0101960E944B0229813A8181112BC0C2
:100800002115310519F0C9010E9453061A82198277
:100810001E821D821C821B820E943A0197FD23C00A
:100820008AA31BA20D811E810F5F1F4FB801CE014D
:1008300001960E944B02882379F329813A818D81A8
:100840009E81BE016E5D7F4F820F931F0E94A207A3
:100850001E830D83E1CF1E821D8268E171E0C90114
:100860000E94A207D9CF8DE291E00E943D024D8106
:100870005E8169817A8187E491E00E94F90086E1D6
:1008800091E00E9430028DE291E00E943D02898158
:100890009A810E945306E1EAF0E02491EDE8F0E04D
:1008A0008491882399F090E0880F991FFC01E85902
:1008B000FF4FA591B491FC01E458FF4F85919491AD
:1008C0008FB7F8949C91292B2C938FBF80E00E94C6
:1008D0008C0083E090E00197F1F781E00E948C00AA
:1008E00083E290E00197F1F780E00E948C00E0EA5B
:1008F000F0E02491ECE8F0E084918823C1F090E0EE
:10090000880F991FFC01E859FF4FA591B491FC0194
:10091000E458FF4F859194914FB7F8943C912095FE
:1009200032233C93FC013081232320834FBFE0EA34
:10093000F0E06491ECE8F0E08491E82FF0E0EE0F55
:10094000FF1FEE58FF4F8591949100E412E42FE0D1
:1009500030E0462F0E941503611571058105910550
:1009600029F06F5F7F4F8F4F9F4F9F702AE330E0DA
:1009700040E050E00E94920519A28E010F5D1F4FCA
:10098000CA01B901A30192010E947005605DF801DE
:1009900062938F01211531054105510589F7309783
:1009A00019F0CF010E9430028AE391E00E943002E8
:1009B00086E191E00E9430020E94D4004B015C016C
:1009C00084E6C82ED12CE12CF12C0E94D4006819A9
:1009D00079098A099B09683E734081059105A8F34E
:1009E000F1E0CF1AD108E108F10828EE820E23E0E9
:1009F000921EA11CB11CC114D104E104F10429F719
:100A00002114310409F4E5CE0E949401882309F4ED
:100A1000DCCE0E940000D9CEE7E4F1E0138212821E
:100A200088EE93E0A0E0B0E084839583A683B7834B
:100A30008AE091E09183808385EC90E095878487BC
:100A400084EC90E09787868780EC90E0918B808B98
:100A500081EC90E0938B828B82EC90E0958B848B81
:100A600086EC90E0978B868B118E128E138E148EEF
:100A700008952F923F924F925F926F927F928F9242
:100A80009F92AF92BF92CF92DF92EF92FF920F931D
:100A90001F93CF93DF93CDB7DEB7CA1BDB0B0FB627
:100AA000F894DEBF0FBECDBF09942A8839884888E4
:100AB0005F846E847D848C849B84AA84B984C8847A
:100AC000DF80EE80FD800C811B81AA81B981CE0F71
:100AD000D11D0FB6F894DEBF0FBECDBFED01089556
:100AE000A1E21A2EAA1BBB1BFD010DC0AA1FBB1F32
:100AF000EE1FFF1FA217B307E407F50720F0A21BA4
:100B0000B30BE40BF50B661F771F881F991F1A9410
:100B100069F760957095809590959B01AC01BD013A
:100B2000CF010895052E97FB1EF400940E94A9059D
:100B300057FD07D00E94700507FC03D04EF40C94BB
:100B4000A90550954095309521953F4F4F4F5F4FE8
:100B5000089590958095709561957F4F8F4F9F4F29
:100B60000895EE0FFF1F0590F491E02D09940F9367
:100B70001F93CF93DF938230910510F482E090E0D1
:100B8000E091E601F091E70130E020E0B0E0A0E084
:100B9000309799F42115310509F44AC0281B390B07
:100BA00024303105D8F58A819B816115710589F161
:100BB000FB0193838283FE0111C040815181028138
:100BC000138148175907E0F04817590799F410970F
:100BD00061F012960C93129713961C933296CF01E4
:100BE000DF91CF911F910F9108950093E60110932B
:100BF000E701F4CF2115310551F04217530738F0C2
:100C0000A901DB019A01BD01DF01F801C1CFEF01AC
:100C1000F9CF9093E7018093E601CDCFFE01E20F7B
:100C2000F31F819391932250310939832883D7CFC1
:100C30002091E4013091E501232B41F42091020140
:100C4000309103013093E5012093E40120910001EC
:100C5000309101012115310541F42DB73EB7409186
:100C6000040150910501241B350BE091E401F09142
:100C7000E501E217F307A0F42E1B3F0B28173907F5
:100C800078F0AC014E5F5F4F2417350748F04E0FE8
:100C90005F1F5093E5014093E401819391939FCFAF
:100CA000F0E0E0E09CCFCF93DF930097E9F0FC0108
:100CB000329713821282A091E601B091E701ED0113
:100CC00030E020E01097A1F420813181820F931F42
:100CD0002091E4013091E5012817390709F061C03E
:100CE000F093E501E093E401DF91CF910895EA01EB
:100CF000CE17DF07E8F54A815B819E01411551055A
:100D0000B1F7E901FB83EA8349915991C40FD51FDB
:100D1000EC17FD0761F4808191810296840F951F85
:100D2000E90199838883828193819B838A83F0E0A0
:100D3000E0E012968D919C9113970097B9F52D9153
:100D40003C911197CD010296820F931F2091E401EF
:100D50003091E5012817390739F6309751F510928F
:100D6000E7011092E601B093E501A093E401BCCF46
:100D7000D383C28340815181840F951FC817D9073F
:100D800061F44E5F5F4F88819981480F591F5183ED
:100D900040838A819B81938382832115310509F0E9
:100DA000B0CFF093E701E093E6019ECFFD01DC01B7
:100DB000C0CF13821282D7CFB0E0A0E0E2EEF6E01F
:100DC0000C943B058C01009751F4CB010E94B705B0
:100DD0008C01C801CDB7DEB7E0E10C945705FC01EA
:100DE000E60FF71F9C0122503109E217F30708F4C0
:100DF0009DC0D901CD91DC911197C617D70798F006
:100E0000C530D10530F3CE0104978617970708F354
:100E1000C61BD70B2297C193D1936D937C93CF01BF
:100E20000E945306D6CF5B01AC1ABD0A4C018C0E52
:100E30009D1EA091E601B091E701512C412CF12CAF
:100E4000E12C109731F58091E4019091E50188152E
:100E5000990509F05CC04616570608F058C0809105
:100E6000000190910101009741F48DB79EB7409128
:100E7000040150910501841B950BE817F90708F050
:100E800055C0F093E501E093E401F90171836083BB
:100E9000A0CF8D919C91119712966C9012971396FA
:100EA0007C901397A815B90559F56C0142E0C40E62
:100EB000D11CCA14DB0420F1AC014A195B09DA0128
:100EC0001296159780F06282738251834083D90114
:100ED0006D937C93E114F10471F0D7011396FC93A8
:100EE000EE93129776CF22968C0F9D1FF901918376
:100EF0008083F301EFCFF093E701E093E60169CF40
:100F00004816590608F42C017D01D3019ACFCB0174
:100F10000E94B7057C01009749F0AE01B8010E941C
:100F20009907C8010E945306870153CF10E000E0E3
:100F300050CFFB01DC0102C001900D9241505040A6
:100F4000D8F70895FB01DC0101900D920020E1F734
:060F50000895F894FFCFA4
:100F56000000E801800000000000C901F9008801D6
:100F660026017A0110020D0A00496E697469616CE6
:100F7600697A6174696F6E20646F6E65002B2B2B26
:0E0F86002B2B2B2B2B2B2B2B2B00636D00000A
:00000001FF
